{"abi":[{"type":"constructor","inputs":[{"name":"_initialOwner","type":"address","internalType":"address"},{"name":"_baseUri","type":"string","internalType":"string"},{"name":"_treasuryWallet","type":"address","internalType":"address"}],"stateMutability":"nonpayable"},{"type":"function","name":"DISCOUNT_PERCENTAGE","inputs":[],"outputs":[{"name":"","type":"uint16","internalType":"uint16"}],"stateMutability":"view"},{"type":"function","name":"FREE_CLAIM_AMOUNT","inputs":[],"outputs":[{"name":"","type":"uint8","internalType":"uint8"}],"stateMutability":"view"},{"type":"function","name":"MAX_SUPPLY","inputs":[],"outputs":[{"name":"","type":"uint16","internalType":"uint16"}],"stateMutability":"view"},{"type":"function","name":"approve","inputs":[{"name":"to","type":"address","internalType":"address"},{"name":"tokenId","type":"uint256","internalType":"uint256"}],"outputs":[],"stateMutability":"nonpayable"},{"type":"function","name":"balanceOf","inputs":[{"name":"owner","type":"address","internalType":"address"}],"outputs":[{"name":"","type":"uint256","internalType":"uint256"}],"stateMutability":"view"},{"type":"function","name":"calculatePrice","inputs":[{"name":"_amount","type":"uint8","internalType":"uint8"},{"name":"_isDiscounted","type":"bool","internalType":"bool"}],"outputs":[{"name":"","type":"uint256","internalType":"uint256"}],"stateMutability":"view"},{"type":"function","name":"checkDiscountMerkleProof","inputs":[{"name":"_merkleProof","type":"bytes32[]","internalType":"bytes32[]"},{"name":"_address","type":"address","internalType":"address"}],"outputs":[{"name":"","type":"bool","internalType":"bool"}],"stateMutability":"view"},{"type":"function","name":"checkFreeClaimAllowlist","inputs":[{"name":"_merkleProof","type":"bytes32[]","internalType":"bytes32[]"},{"name":"_address","type":"address","internalType":"address"},{"name":"_amount","type":"uint8","internalType":"uint8"}],"outputs":[{"name":"","type":"bool","internalType":"bool"}],"stateMutability":"view"},{"type":"function","name":"claim","inputs":[{"name":"_recipient","type":"address","internalType":"address"},{"name":"_amount","type":"uint8","internalType":"uint8"},{"name":"proof","type":"bytes32[]","internalType":"bytes32[]"}],"outputs":[],"stateMutability":"nonpayable"},{"type":"function","name":"fundsReceiverAddress","inputs":[],"outputs":[{"name":"","type":"address","internalType":"address payable"}],"stateMutability":"view"},{"type":"function","name":"getApproved","inputs":[{"name":"tokenId","type":"uint256","internalType":"uint256"}],"outputs":[{"name":"","type":"address","internalType":"address"}],"stateMutability":"view"},{"type":"function","name":"getConfig","inputs":[],"outputs":[{"name":"","type":"tuple","internalType":"struct GlitchyGridGrid.Config","components":[{"name":"startTime","type":"uint256","internalType":"uint256"},{"name":"endTime","type":"uint256","internalType":"uint256"}]}],"stateMutability":"view"},{"type":"function","name":"isApprovedForAll","inputs":[{"name":"owner","type":"address","internalType":"address"},{"name":"operator","type":"address","internalType":"address"}],"outputs":[{"name":"","type":"bool","internalType":"bool"}],"stateMutability":"view"},{"type":"function","name":"mint","inputs":[{"name":"_recipient","type":"address","internalType":"address"},{"name":"_amount","type":"uint8","internalType":"uint8"},{"name":"_merkleProof","type":"bytes32[]","internalType":"bytes32[]"}],"outputs":[],"stateMutability":"payable"},{"type":"function","name":"name","inputs":[],"outputs":[{"name":"","type":"string","internalType":"string"}],"stateMutability":"view"},{"type":"function","name":"owner","inputs":[],"outputs":[{"name":"","type":"address","internalType":"address"}],"stateMutability":"view"},{"type":"function","name":"ownerMint","inputs":[{"name":"_recipient","type":"address","internalType":"address"},{"name":"_amount","type":"uint16","internalType":"uint16"}],"outputs":[],"stateMutability":"nonpayable"},{"type":"function","name":"ownerOf","inputs":[{"name":"tokenId","type":"uint256","internalType":"uint256"}],"outputs":[{"name":"","type":"address","internalType":"address"}],"stateMutability":"view"},{"type":"function","name":"renounceOwnership","inputs":[],"outputs":[],"stateMutability":"nonpayable"},{"type":"function","name":"safeTransferFrom","inputs":[{"name":"from","type":"address","internalType":"address"},{"name":"to","type":"address","internalType":"address"},{"name":"tokenId","type":"uint256","internalType":"uint256"}],"outputs":[],"stateMutability":"nonpayable"},{"type":"function","name":"safeTransferFrom","inputs":[{"name":"from","type":"address","internalType":"address"},{"name":"to","type":"address","internalType":"address"},{"name":"tokenId","type":"uint256","internalType":"uint256"},{"name":"data","type":"bytes","internalType":"bytes"}],"outputs":[],"stateMutability":"nonpayable"},{"type":"function","name":"setApprovalForAll","inputs":[{"name":"operator","type":"address","internalType":"address"},{"name":"approved","type":"bool","internalType":"bool"}],"outputs":[],"stateMutability":"nonpayable"},{"type":"function","name":"setBaseURI","inputs":[{"name":"_newBaseURI","type":"string","internalType":"string"}],"outputs":[],"stateMutability":"nonpayable"},{"type":"function","name":"setConfig","inputs":[{"name":"_startTime","type":"uint256","internalType":"uint256"},{"name":"_endTime","type":"uint256","internalType":"uint256"}],"outputs":[],"stateMutability":"nonpayable"},{"type":"function","name":"setDiscountAllowlistRoot","inputs":[{"name":"_allowlistRoot","type":"bytes32","internalType":"bytes32"}],"outputs":[],"stateMutability":"nonpayable"},{"type":"function","name":"setFreeClaimAllowlistRoot","inputs":[{"name":"_allowlistRoot","type":"bytes32","internalType":"bytes32"}],"outputs":[],"stateMutability":"nonpayable"},{"type":"function","name":"setFundsReceiverAddress","inputs":[{"name":"newFundsReceiverAddress","type":"address","internalType":"address"}],"outputs":[],"stateMutability":"nonpayable"},{"type":"function","name":"setTokenPrice","inputs":[{"name":"_tokenPrice","type":"uint256","internalType":"uint256"}],"outputs":[],"stateMutability":"nonpayable"},{"type":"function","name":"supportsInterface","inputs":[{"name":"_interfaceId","type":"bytes4","internalType":"bytes4"}],"outputs":[{"name":"","type":"bool","internalType":"bool"}],"stateMutability":"view"},{"type":"function","name":"symbol","inputs":[],"outputs":[{"name":"","type":"string","internalType":"string"}],"stateMutability":"view"},{"type":"function","name":"tokenByIndex","inputs":[{"name":"index","type":"uint256","internalType":"uint256"}],"outputs":[{"name":"","type":"uint256","internalType":"uint256"}],"stateMutability":"view"},{"type":"function","name":"tokenOfOwnerByIndex","inputs":[{"name":"owner","type":"address","internalType":"address"},{"name":"index","type":"uint256","internalType":"uint256"}],"outputs":[{"name":"","type":"uint256","internalType":"uint256"}],"stateMutability":"view"},{"type":"function","name":"tokenPrice","inputs":[],"outputs":[{"name":"","type":"uint256","internalType":"uint256"}],"stateMutability":"view"},{"type":"function","name":"tokenURI","inputs":[{"name":"tokenId","type":"uint256","internalType":"uint256"}],"outputs":[{"name":"","type":"string","internalType":"string"}],"stateMutability":"view"},{"type":"function","name":"totalSupply","inputs":[],"outputs":[{"name":"","type":"uint256","internalType":"uint256"}],"stateMutability":"view"},{"type":"function","name":"transferFrom","inputs":[{"name":"from","type":"address","internalType":"address"},{"name":"to","type":"address","internalType":"address"},{"name":"tokenId","type":"uint256","internalType":"uint256"}],"outputs":[],"stateMutability":"nonpayable"},{"type":"function","name":"transferOwnership","inputs":[{"name":"newOwner","type":"address","internalType":"address"}],"outputs":[],"stateMutability":"nonpayable"},{"type":"function","name":"withdraw","inputs":[],"outputs":[],"stateMutability":"nonpayable"},{"type":"event","name":"Approval","inputs":[{"name":"owner","type":"address","indexed":true,"internalType":"address"},{"name":"approved","type":"address","indexed":true,"internalType":"address"},{"name":"tokenId","type":"uint256","indexed":true,"internalType":"uint256"}],"anonymous":false},{"type":"event","name":"ApprovalForAll","inputs":[{"name":"owner","type":"address","indexed":true,"internalType":"address"},{"name":"operator","type":"address","indexed":true,"internalType":"address"},{"name":"approved","type":"bool","indexed":false,"internalType":"bool"}],"anonymous":false},{"type":"event","name":"BatchMetadataUpdate","inputs":[{"name":"_fromTokenId","type":"uint256","indexed":false,"internalType":"uint256"},{"name":"_toTokenId","type":"uint256","indexed":false,"internalType":"uint256"}],"anonymous":false},{"type":"event","name":"MetadataUpdate","inputs":[{"name":"_tokenId","type":"uint256","indexed":false,"internalType":"uint256"}],"anonymous":false},{"type":"event","name":"OwnershipTransferred","inputs":[{"name":"previousOwner","type":"address","indexed":true,"internalType":"address"},{"name":"newOwner","type":"address","indexed":true,"internalType":"address"}],"anonymous":false},{"type":"event","name":"TokenClaimed","inputs":[{"name":"recipient","type":"address","indexed":false,"internalType":"address"},{"name":"amount","type":"uint16","indexed":false,"internalType":"uint16"}],"anonymous":false},{"type":"event","name":"TokenMinted","inputs":[{"name":"recipient","type":"address","indexed":false,"internalType":"address"},{"name":"amount","type":"uint16","indexed":false,"internalType":"uint16"}],"anonymous":false},{"type":"event","name":"Transfer","inputs":[{"name":"from","type":"address","indexed":true,"internalType":"address"},{"name":"to","type":"address","indexed":true,"internalType":"address"},{"name":"tokenId","type":"uint256","indexed":true,"internalType":"uint256"}],"anonymous":false},{"type":"error","name":"AddressInsufficientBalance","inputs":[{"name":"account","type":"address","internalType":"address"}]},{"type":"error","name":"ConfigNotSet","inputs":[]},{"type":"error","name":"ERC721EnumerableForbiddenBatchMint","inputs":[]},{"type":"error","name":"ERC721IncorrectOwner","inputs":[{"name":"sender","type":"address","internalType":"address"},{"name":"tokenId","type":"uint256","internalType":"uint256"},{"name":"owner","type":"address","internalType":"address"}]},{"type":"error","name":"ERC721InsufficientApproval","inputs":[{"name":"operator","type":"address","internalType":"address"},{"name":"tokenId","type":"uint256","internalType":"uint256"}]},{"type":"error","name":"ERC721InvalidApprover","inputs":[{"name":"approver","type":"address","internalType":"address"}]},{"type":"error","name":"ERC721InvalidOperator","inputs":[{"name":"operator","type":"address","internalType":"address"}]},{"type":"error","name":"ERC721InvalidOwner","inputs":[{"name":"owner","type":"address","internalType":"address"}]},{"type":"error","name":"ERC721InvalidReceiver","inputs":[{"name":"receiver","type":"address","internalType":"address"}]},{"type":"error","name":"ERC721InvalidSender","inputs":[{"name":"sender","type":"address","internalType":"address"}]},{"type":"error","name":"ERC721NonexistentToken","inputs":[{"name":"tokenId","type":"uint256","internalType":"uint256"}]},{"type":"error","name":"ERC721OutOfBoundsIndex","inputs":[{"name":"owner","type":"address","internalType":"address"},{"name":"index","type":"uint256","internalType":"uint256"}]},{"type":"error","name":"FailedInnerCall","inputs":[]},{"type":"error","name":"FreeClaimedExceeded","inputs":[]},{"type":"error","name":"InsufficientFunds","inputs":[]},{"type":"error","name":"InvalidProof","inputs":[]},{"type":"error","name":"InvalidStartEndTime","inputs":[{"name":"startTime","type":"uint256","internalType":"uint256"},{"name":"endTime","type":"uint256","internalType":"uint256"}]},{"type":"error","name":"MaxNumberOfMintedTokensExceeded","inputs":[]},{"type":"error","name":"MaxSupplyExceeded","inputs":[]},{"type":"error","name":"OnlyMinter","inputs":[]},{"type":"error","name":"OnlyOwner","inputs":[]},{"type":"error","name":"OwnableInvalidOwner","inputs":[{"name":"owner","type":"address","internalType":"address"}]},{"type":"error","name":"OwnableUnauthorizedAccount","inputs":[{"name":"account","type":"address","internalType":"address"}]},{"type":"error","name":"RegularMintedExceeded","inputs":[]},{"type":"error","name":"ZeroAddress","inputs":[]}],"bytecode":{"object":"0x60806040526658d15e17628000600f553480156200001c57600080fd5b506040516200329e3803806200329e8339810160408190526200003f91620001a1565b826040518060400160405280601181526020017019db1a5d18da1e4819dc9a590819dc9a59607a1b8152506040518060400160405280600381526020016247474760e81b81525081600090816200009791906200032d565b506001620000a682826200032d565b5050506001600160a01b038116620000d857604051631e4fbdf760e01b81526000600482015260240160405180910390fd5b620000e3816200011c565b50600d620000f283826200032d565b50601080546001600160a01b0319166001600160a01b039290921691909117905550620003f99050565b600b80546001600160a01b038381166001600160a01b0319831681179093556040519116919082907f8be0079c531659141344cd1fd0a4f28419497f9722a3daafe3b4186f6b6457e090600090a35050565b80516001600160a01b03811681146200018657600080fd5b919050565b634e487b7160e01b600052604160045260246000fd5b600080600060608486031215620001b757600080fd5b620001c2846200016e565b602085810151919450906001600160401b0380821115620001e257600080fd5b818701915087601f830112620001f757600080fd5b8151818111156200020c576200020c6200018b565b604051601f8201601f19908116603f011681019083821181831017156200023757620002376200018b565b816040528281528a868487010111156200025057600080fd5b600093505b8284101562000274578484018601518185018701529285019262000255565b600086848301015280975050505050505062000293604085016200016e565b90509250925092565b600181811c90821680620002b157607f821691505b602082108103620002d257634e487b7160e01b600052602260045260246000fd5b50919050565b601f82111562000328576000816000526020600020601f850160051c81016020861015620003035750805b601f850160051c820191505b8181101562000324578281556001016200030f565b5050505b505050565b81516001600160401b038111156200034957620003496200018b565b62000361816200035a84546200029c565b84620002d8565b602080601f831160018114620003995760008415620003805750858301515b600019600386901b1c1916600185901b17855562000324565b600085815260208120601f198616915b82811015620003ca57888601518255948401946001909101908401620003a9565b5085821015620003e95787850151600019600388901b60f8161c191681555b5050505050600190811b01905550565b612e9580620004096000396000f3fe6080604052600436106102845760003560e01c8063715018a611610153578063af760d6c116100cb578063d9f76f311161007f578063e985e9c511610064578063e985e9c51461071c578063f2fde38b14610765578063f9628b7c1461078557600080fd5b8063d9f76f31146106dc578063e2387028146106fc57600080fd5b8063b88d4fde116100b0578063b88d4fde14610651578063c3f909d414610671578063c87b56dd146106bc57600080fd5b8063af760d6c14610615578063b2af06f91461062a57600080fd5b80638da5cb5b11610122578063a22cb46511610107578063a22cb465146105b5578063aa981b48146105d5578063ae8e3d2f146105f557600080fd5b80638da5cb5b1461058257806395d89b41146105a057600080fd5b8063715018a6146105175780637ab058651461052c5780637ff9b5961461054c57806389b08d301461056257600080fd5b80632f745c591161020157806353493a0e116101b55780636352211e1161019a5780636352211e146104b75780636a61e5fc146104d757806370a08231146104f757600080fd5b806353493a0e1461047757806355f804b31461049757600080fd5b80633ccfd60b116101e65780633ccfd60b1461042257806342842e0e146104375780634f6ccce71461045757600080fd5b80632f745c59146103d957806332cb6b0c146103f957600080fd5b8063095ea7b3116102585780631e34c5851161023d5780631e34c5851461037957806323b872dd14610399578063295439e1146103b957600080fd5b8063095ea7b31461033a57806318160ddd1461035a57600080fd5b8062fc92b91461028957806301ffc9a7146102ab57806306fdde03146102e0578063081812fc14610302575b600080fd5b34801561029557600080fd5b506102a96102a43660046124ec565b610798565b005b3480156102b757600080fd5b506102cb6102c6366004612533565b6107e1565b60405190151581526020015b60405180910390f35b3480156102ec57600080fd5b506102f56107f2565b6040516102d791906125a0565b34801561030e57600080fd5b5061032261031d3660046124ec565b610884565b6040516001600160a01b0390911681526020016102d7565b34801561034657600080fd5b506102a96103553660046125cf565b6108ad565b34801561036657600080fd5b506008545b6040519081526020016102d7565b34801561038557600080fd5b506102a96103943660046125f9565b6108bc565b3480156103a557600080fd5b506102a96103b436600461261b565b610971565b3480156103c557600080fd5b506102a96103d4366004612657565b610a2e565b3480156103e557600080fd5b5061036b6103f43660046125cf565b610a7c565b34801561040557600080fd5b5061040f6101fe81565b60405161ffff90911681526020016102d7565b34801561042e57600080fd5b506102a9610afa565b34801561044357600080fd5b506102a961045236600461261b565b610b56565b34801561046357600080fd5b5061036b6104723660046124ec565b610b76565b34801561048357600080fd5b506102cb6104923660046126e1565b610be8565b3480156104a357600080fd5b506102a96104b23660046127da565b610c81565b3480156104c357600080fd5b506103226104d23660046124ec565b610cd1565b3480156104e357600080fd5b506102a96104f23660046124ec565b610cdc565b34801561050357600080fd5b5061036b610512366004612823565b610d25565b34801561052357600080fd5b506102a9610d86565b34801561053857600080fd5b506102cb61054736600461284f565b610d98565b34801561055857600080fd5b5061036b600f5481565b34801561056e57600080fd5b506102a961057d3660046124ec565b610e98565b34801561058e57600080fd5b50600b546001600160a01b0316610322565b3480156105ac57600080fd5b506102f5610ee1565b3480156105c157600080fd5b506102a96105d03660046128c4565b610ef0565b3480156105e157600080fd5b5061036b6105f03660046128f7565b610efb565b34801561060157600080fd5b506102a9610610366004612823565b610f46565b34801561062157600080fd5b5061040f600f81565b34801561063657600080fd5b5061063f600881565b60405160ff90911681526020016102d7565b34801561065d57600080fd5b506102a961066c366004612913565b611004565b34801561067d57600080fd5b506040805180820182526000808252602091820152815180830183526013548082526014549183019182528351908152905191810191909152016102d7565b3480156106c857600080fd5b506102f56106d73660046124ec565b61101b565b3480156106e857600080fd5b50601054610322906001600160a01b031681565b34801561070857600080fd5b506102a961071736600461298f565b611059565b34801561072857600080fd5b506102cb6107373660046129f0565b6001600160a01b03918216600090815260056020908152604080832093909416825291909152205460ff1690565b34801561077157600080fd5b506102a9610780366004612823565b61129f565b6102a961079336600461298f565b6112f6565b600b546001600160a01b031633146107dc576040517f5fc483c500000000000000000000000000000000000000000000000000000000815260040160405180910390fd5b601255565b60006107ec82611503565b92915050565b60606000805461080190612a1a565b80601f016020809104026020016040519081016040528092919081815260200182805461082d90612a1a565b801561087a5780601f1061084f5761010080835404028352916020019161087a565b820191906000526020600020905b81548152906001019060200180831161085d57829003601f168201915b5050505050905090565b600061088f82611559565b506000828152600460205260409020546001600160a01b03166107ec565b6108b88282336115ab565b5050565b600b546001600160a01b03163314610900576040517f5fc483c500000000000000000000000000000000000000000000000000000000815260040160405180910390fd5b81158061090d5750808210155b15610953576040517f2221fc9c00000000000000000000000000000000000000000000000000000000815260048101839052602481018290526044015b60405180910390fd5b60408051808201909152828152602001819052601391909155601455565b6001600160a01b0382166109b4576040517f64a0ae920000000000000000000000000000000000000000000000000000000081526000600482015260240161094a565b60006109c18383336115b8565b9050836001600160a01b0316816001600160a01b031614610a28576040517f64283d7b0000000000000000000000000000000000000000000000000000000081526001600160a01b038086166004830152602482018490528216604482015260640161094a565b50505050565b600b546001600160a01b03163314610a72576040517f5fc483c500000000000000000000000000000000000000000000000000000000815260040160405180910390fd5b6108b882826115cd565b6000610a8783610d25565b8210610ad1576040517fa57d13dc0000000000000000000000000000000000000000000000000000000081526001600160a01b03841660048201526024810183905260440161094a565b506001600160a01b03919091166000908152600660209081526040808320938352929052205490565b600b546001600160a01b03163314610b3e576040517f5fc483c500000000000000000000000000000000000000000000000000000000815260040160405180910390fd5b601054610b54906001600160a01b0316476116db565b565b610b7183838360405180602001604052806000815250611004565b505050565b6000610b8160085490565b8210610bc3576040517fa57d13dc000000000000000000000000000000000000000000000000000000008152600060048201526024810183905260440161094a565b60088281548110610bd657610bd6612a6d565b90600052602060002001549050919050565b6040517fffffffffffffffffffffffffffffffffffffffff000000000000000000000000606083901b1660208201526000908190603401604051602081830303815290604052805190602001209050610c788585808060200260200160405190810160405280939291908181526020018383602002808284376000920191909152505060115491508490506117a4565b95945050505050565b600b546001600160a01b03163314610cc5576040517f5fc483c500000000000000000000000000000000000000000000000000000000815260040160405180910390fd5b600d6108b88282612aec565b60006107ec82611559565b600b546001600160a01b03163314610d20576040517f5fc483c500000000000000000000000000000000000000000000000000000000815260040160405180910390fd5b600f55565b60006001600160a01b038216610d6a576040517f89c62b640000000000000000000000000000000000000000000000000000000081526000600482015260240161094a565b506001600160a01b031660009081526003602052604090205490565b610d8e6117ba565b610b546000611800565b604080516001600160a01b038416602082015260ff8316918101919091526000908190606001604051602081830303815290604052805190602001209050600e60008787604051602001610ded929190612be8565b60408051601f198184030181529181528151602092830120835290820192909252016000205460ff1615610e4d576040517f09bde33900000000000000000000000000000000000000000000000000000000815260040160405180910390fd5b610e8e8686808060200260200160405190810160405280939291908181526020018383602002808284376000920191909152505060125491508490506117a4565b9695505050505050565b600b546001600160a01b03163314610edc576040517f5fc483c500000000000000000000000000000000000000000000000000000000815260040160405180910390fd5b601155565b60606001805461080190612a1a565b6108b833838361186a565b6000808360ff16600f54610f0f9190612c59565b90508215610f3f576064610f24600f82612c70565b610f329061ffff1683612c59565b610f3c9190612c92565b90505b9392505050565b600b546001600160a01b03163314610f8a576040517f5fc483c500000000000000000000000000000000000000000000000000000000815260040160405180910390fd5b6001600160a01b038116610fca576040517fd92e233d00000000000000000000000000000000000000000000000000000000815260040160405180910390fd5b601080547fffffffffffffffffffffffff0000000000000000000000000000000000000000166001600160a01b0392909216919091179055565b61100f848484610971565b610a2884848484611940565b606061102682611559565b50600d61103283611ade565b604051602001611043929190612ccd565b6040516020818303038152906040529050919050565b601354600003611095576040517face124bc00000000000000000000000000000000000000000000000000000000815260040160405180910390fd5b60408051808201909152601354815260145460208201819052421015806110bd575080514211155b1561110457805160208201516040517f2221fc9c0000000000000000000000000000000000000000000000000000000081526004810192909252602482015260440161094a565b60155460089061111c9060ff87169061ffff16612d72565b61ffff161115611158576040517f94578c2400000000000000000000000000000000000000000000000000000000815260040160405180910390fd5b61116483838787610d98565b61119a576040517f09bde33900000000000000000000000000000000000000000000000000000000815260040160405180910390fd5b6001600e600085856040516020016111b3929190612be8565b60408051808303601f19018152918152815160209283012083529082019290925201600090812080547fffffffffffffffffffffffffffffffffffffffffffffffffffffffffffffff0016921515929092179091556015805460ff8716929061122190849061ffff16612d72565b92506101000a81548161ffff021916908361ffff1602179055507f88313928f1dbadec0c20b84f12b7ed8c6643f37f0f7c7e2e00ad0a6ae5c69c8585856040516112839291906001600160a01b0392909216825260ff16602082015260400190565b60405180910390a1611298858560ff166115cd565b5050505050565b6112a76117ba565b6001600160a01b0381166112ea576040517f1e4fbdf70000000000000000000000000000000000000000000000000000000081526000600482015260240161094a565b6112f381611800565b50565b601354600003611332576040517face124bc00000000000000000000000000000000000000000000000000000000815260040160405180910390fd5b604080518082019091526013548152601454602082018190524210158061135a575080514211155b156113a157805160208201516040517f2221fc9c0000000000000000000000000000000000000000000000000000000081526004810192909252602482015260440161094a565b6113ae60086101fe612c70565b60155461ffff918216916113ce9160ff8816916201000090910416612d72565b61ffff16111561140a576040517fe190bbde00000000000000000000000000000000000000000000000000000000815260040160405180910390fd5b6000611417848433610be8565b905060006114258683610efb565b905080341015611461576040517f356680b700000000000000000000000000000000000000000000000000000000815260040160405180910390fd5b8560ff16601560028282829054906101000a900461ffff166114839190612d72565b92506101000a81548161ffff021916908361ffff1602179055507f91de6807059d965565527b1521c54271af4eea115734d20551013741310725cc87876040516114e59291906001600160a01b0392909216825260ff16602082015260400190565b60405180910390a16114fa878760ff166115cd565b50505050505050565b60007fffffffff0000000000000000000000000000000000000000000000000000000082167f490649060000000000000000000000000000000000000000000000000000000014806107ec57506107ec82611b9c565b6000818152600260205260408120546001600160a01b0316806107ec576040517f7e2732890000000000000000000000000000000000000000000000000000000081526004810184905260240161094a565b610b718383836001611bf2565b60006115c5848484611d48565b949350505050565b6001600160a01b03821661160d576040517fd92e233d00000000000000000000000000000000000000000000000000000000815260040160405180910390fd5b600a61ffff8216111561164c576040517f9b61b77500000000000000000000000000000000000000000000000000000000815260040160405180910390fd5b600c546101fe906116629061ffff841690612d8d565b111561169a576040517f8a164f6300000000000000000000000000000000000000000000000000000000815260040160405180910390fd5b60005b8161ffff168160ff161015610b71576116c983600c600081546116bf90612da0565b9182905550611e15565b806116d381612dd8565b91505061169d565b80471015611717576040517fcd78605900000000000000000000000000000000000000000000000000000000815230600482015260240161094a565b6000826001600160a01b03168260405160006040518083038185875af1925050503d8060008114611764576040519150601f19603f3d011682016040523d82523d6000602084013e611769565b606091505b5050905080610b71576040517f1425ea4200000000000000000000000000000000000000000000000000000000815260040160405180910390fd5b6000826117b18584611e2f565b14949350505050565b600b546001600160a01b03163314610b54576040517f118cdaa700000000000000000000000000000000000000000000000000000000815233600482015260240161094a565b600b80546001600160a01b038381167fffffffffffffffffffffffff0000000000000000000000000000000000000000831681179093556040519116919082907f8be0079c531659141344cd1fd0a4f28419497f9722a3daafe3b4186f6b6457e090600090a35050565b6001600160a01b0382166118b5576040517f5b08ba180000000000000000000000000000000000000000000000000000000081526001600160a01b038316600482015260240161094a565b6001600160a01b0383811660008181526005602090815260408083209487168084529482529182902080547fffffffffffffffffffffffffffffffffffffffffffffffffffffffffffffff001686151590811790915591519182527f17307eab39ab6107e8899845ad3d59bd9653f200f220920489ca2b5937696c31910160405180910390a3505050565b6001600160a01b0383163b15610a28576040517f150b7a020000000000000000000000000000000000000000000000000000000081526001600160a01b0384169063150b7a029061199b903390889087908790600401612df7565b6020604051808303816000875af19250505080156119d6575060408051601f3d908101601f191682019092526119d391810190612e29565b60015b611a58573d808015611a04576040519150601f19603f3d011682016040523d82523d6000602084013e611a09565b606091505b508051600003611a50576040517f64a0ae920000000000000000000000000000000000000000000000000000000081526001600160a01b038516600482015260240161094a565b805181602001fd5b7fffffffff0000000000000000000000000000000000000000000000000000000081167f150b7a020000000000000000000000000000000000000000000000000000000014611298576040517f64a0ae920000000000000000000000000000000000000000000000000000000081526001600160a01b038516600482015260240161094a565b60606000611aeb83611e72565b600101905060008167ffffffffffffffff811115611b0b57611b0b612735565b6040519080825280601f01601f191660200182016040528015611b35576020820181803683370190505b5090508181016020015b7fffffffffffffffffffffffffffffffffffffffffffffffffffffffffffffffff017f3031323334353637383961626364656600000000000000000000000000000000600a86061a8153600a8504945084611b3f57509392505050565b60007fffffffff0000000000000000000000000000000000000000000000000000000082167f780e9d630000000000000000000000000000000000000000000000000000000014806107ec57506107ec82611f54565b8080611c0657506001600160a01b03821615155b15611d00576000611c1684611559565b90506001600160a01b03831615801590611c425750826001600160a01b0316816001600160a01b031614155b8015611c7457506001600160a01b0380821660009081526005602090815260408083209387168352929052205460ff16155b15611cb6576040517fa9fbf51f0000000000000000000000000000000000000000000000000000000081526001600160a01b038416600482015260240161094a565b8115611cfe5783856001600160a01b0316826001600160a01b03167f8c5be1e5ebec7d5bd14f71427d1e84f3dd0314c0f7b2291e5b200ac8c7c3b92560405160405180910390a45b505b5050600090815260046020526040902080547fffffffffffffffffffffffff0000000000000000000000000000000000000000166001600160a01b0392909216919091179055565b600080611d56858585612037565b90506001600160a01b038116611db357611dae84600880546000838152600960205260408120829055600182018355919091527ff3f7a9fe364faab93b216da50a3214154f22a0a2b415b23a84c8169e8b636ee30155565b611dd6565b846001600160a01b0316816001600160a01b031614611dd657611dd68185612166565b6001600160a01b038516611df257611ded846121f7565b6115c5565b846001600160a01b0316816001600160a01b0316146115c5576115c585856122a6565b6108b88282604051806020016040528060008152506122f6565b600081815b8451811015611e6a57611e6082868381518110611e5357611e53612a6d565b602002602001015161230d565b9150600101611e34565b509392505050565b6000807a184f03e93ff9f4daa797ed6e38ed64bf6a1f0100000000000000008310611ebb577a184f03e93ff9f4daa797ed6e38ed64bf6a1f010000000000000000830492506040015b6d04ee2d6d415b85acef81000000008310611ee7576d04ee2d6d415b85acef8100000000830492506020015b662386f26fc100008310611f0557662386f26fc10000830492506010015b6305f5e1008310611f1d576305f5e100830492506008015b6127108310611f3157612710830492506004015b60648310611f43576064830492506002015b600a83106107ec5760010192915050565b60007fffffffff0000000000000000000000000000000000000000000000000000000082167f80ac58cd000000000000000000000000000000000000000000000000000000001480611fe757507fffffffff0000000000000000000000000000000000000000000000000000000082167f5b5e139f00000000000000000000000000000000000000000000000000000000145b806107ec57507f01ffc9a7000000000000000000000000000000000000000000000000000000007fffffffff000000000000000000000000000000000000000000000000000000008316146107ec565b6000828152600260205260408120546001600160a01b03908116908316156120645761206481848661233c565b6001600160a01b038116156120c057612081600085600080611bf2565b6001600160a01b038116600090815260036020526040902080547fffffffffffffffffffffffffffffffffffffffffffffffffffffffffffffffff0190555b6001600160a01b038516156120ef576001600160a01b0385166000908152600360205260409020805460010190555b60008481526002602052604080822080547fffffffffffffffffffffffff0000000000000000000000000000000000000000166001600160a01b0389811691821790925591518793918516917fddf252ad1be2c89b69c2b068fc378daa952ba7f163c4a11628f55a4df523b3ef91a4949350505050565b600061217183610d25565b6000838152600760205260409020549091508082146121c4576001600160a01b03841660009081526006602090815260408083208584528252808320548484528184208190558352600790915290208190555b5060009182526007602090815260408084208490556001600160a01b039094168352600681528383209183525290812055565b60085460009061220990600190612e46565b6000838152600960205260408120546008805493945090928490811061223157612231612a6d565b90600052602060002001549050806008838154811061225257612252612a6d565b600091825260208083209091019290925582815260099091526040808220849055858252812055600880548061228a5761228a612e59565b6001900381819060005260206000200160009055905550505050565b600060016122b384610d25565b6122bd9190612e46565b6001600160a01b039093166000908152600660209081526040808320868452825280832085905593825260079052919091209190915550565b61230083836123d2565b610b716000848484611940565b6000818310612329576000828152602084905260409020610f3f565b6000838152602083905260409020610f3f565b612347838383612469565b610b71576001600160a01b03831661238e576040517f7e2732890000000000000000000000000000000000000000000000000000000081526004810182905260240161094a565b6040517f177e802f0000000000000000000000000000000000000000000000000000000081526001600160a01b03831660048201526024810182905260440161094a565b6001600160a01b038216612415576040517f64a0ae920000000000000000000000000000000000000000000000000000000081526000600482015260240161094a565b6000612423838360006115b8565b90506001600160a01b03811615610b71576040517f73c6ac6e0000000000000000000000000000000000000000000000000000000081526000600482015260240161094a565b60006001600160a01b038316158015906115c55750826001600160a01b0316846001600160a01b031614806124c357506001600160a01b0380851660009081526005602090815260408083209387168352929052205460ff165b806115c55750506000908152600460205260409020546001600160a01b03908116911614919050565b6000602082840312156124fe57600080fd5b5035919050565b7fffffffff00000000000000000000000000000000000000000000000000000000811681146112f357600080fd5b60006020828403121561254557600080fd5b8135610f3f81612505565b60005b8381101561256b578181015183820152602001612553565b50506000910152565b6000815180845261258c816020860160208601612550565b601f01601f19169290920160200192915050565b602081526000610f3f6020830184612574565b80356001600160a01b03811681146125ca57600080fd5b919050565b600080604083850312156125e257600080fd5b6125eb836125b3565b946020939093013593505050565b6000806040838503121561260c57600080fd5b50508035926020909101359150565b60008060006060848603121561263057600080fd5b612639846125b3565b9250612647602085016125b3565b9150604084013590509250925092565b6000806040838503121561266a57600080fd5b612673836125b3565b9150602083013561ffff8116811461268a57600080fd5b809150509250929050565b60008083601f8401126126a757600080fd5b50813567ffffffffffffffff8111156126bf57600080fd5b6020830191508360208260051b85010111156126da57600080fd5b9250929050565b6000806000604084860312156126f657600080fd5b833567ffffffffffffffff81111561270d57600080fd5b61271986828701612695565b909450925061272c9050602085016125b3565b90509250925092565b7f4e487b7100000000000000000000000000000000000000000000000000000000600052604160045260246000fd5b600067ffffffffffffffff8084111561277f5761277f612735565b604051601f8501601f19908116603f011681019082821181831017156127a7576127a7612735565b816040528093508581528686860111156127c057600080fd5b858560208301376000602087830101525050509392505050565b6000602082840312156127ec57600080fd5b813567ffffffffffffffff81111561280357600080fd5b8201601f8101841361281457600080fd5b6115c584823560208401612764565b60006020828403121561283557600080fd5b610f3f826125b3565b803560ff811681146125ca57600080fd5b6000806000806060858703121561286557600080fd5b843567ffffffffffffffff81111561287c57600080fd5b61288887828801612695565b909550935061289b9050602086016125b3565b91506128a96040860161283e565b905092959194509250565b803580151581146125ca57600080fd5b600080604083850312156128d757600080fd5b6128e0836125b3565b91506128ee602084016128b4565b90509250929050565b6000806040838503121561290a57600080fd5b6128e08361283e565b6000806000806080858703121561292957600080fd5b612932856125b3565b9350612940602086016125b3565b925060408501359150606085013567ffffffffffffffff81111561296357600080fd5b8501601f8101871361297457600080fd5b61298387823560208401612764565b91505092959194509250565b600080600080606085870312156129a557600080fd5b6129ae856125b3565b93506129bc6020860161283e565b9250604085013567ffffffffffffffff8111156129d857600080fd5b6129e487828801612695565b95989497509550505050565b60008060408385031215612a0357600080fd5b612a0c836125b3565b91506128ee602084016125b3565b600181811c90821680612a2e57607f821691505b602082108103612a67577f4e487b7100000000000000000000000000000000000000000000000000000000600052602260045260246000fd5b50919050565b7f4e487b7100000000000000000000000000000000000000000000000000000000600052603260045260246000fd5b601f821115610b71576000816000526020600020601f850160051c81016020861015612ac55750805b601f850160051c820191505b81811015612ae457828155600101612ad1565b505050505050565b815167ffffffffffffffff811115612b0657612b06612735565b612b1a81612b148454612a1a565b84612a9c565b602080601f831160018114612b6d5760008415612b375750858301515b7fffffffffffffffffffffffffffffffffffffffffffffffffffffffffffffffff600386901b1c1916600185901b178555612ae4565b600085815260208120601f198616915b82811015612b9c57888601518255948401946001909101908401612b7d565b5085821015612bd857878501517fffffffffffffffffffffffffffffffffffffffffffffffffffffffffffffffff600388901b60f8161c191681555b5050505050600190811b01905550565b60007f07ffffffffffffffffffffffffffffffffffffffffffffffffffffffffffffff831115612c1757600080fd5b8260051b80858437919091019392505050565b7f4e487b7100000000000000000000000000000000000000000000000000000000600052601160045260246000fd5b80820281158282048414176107ec576107ec612c2a565b61ffff828116828216039080821115612c8b57612c8b612c2a565b5092915050565b600082612cc8577f4e487b7100000000000000000000000000000000000000000000000000000000600052601260045260246000fd5b500490565b6000808454612cdb81612a1a565b60018281168015612cf35760018114612d2657612d55565b7fffffffffffffffffffffffffffffffffffffffffffffffffffffffffffffff0084168752821515830287019450612d55565b8860005260208060002060005b85811015612d4c5781548a820152908401908201612d33565b50505082870194505b505050508351612d69818360208801612550565b01949350505050565b61ffff818116838216019080821115612c8b57612c8b612c2a565b808201808211156107ec576107ec612c2a565b60007fffffffffffffffffffffffffffffffffffffffffffffffffffffffffffffffff8203612dd157612dd1612c2a565b5060010190565b600060ff821660ff8103612dee57612dee612c2a565b60010192915050565b60006001600160a01b03808716835280861660208401525083604083015260806060830152610e8e6080830184612574565b600060208284031215612e3b57600080fd5b8151610f3f81612505565b818103818111156107ec576107ec612c2a565b7f4e487b7100000000000000000000000000000000000000000000000000000000600052603160045260246000fdfea164736f6c6343000817000a","linkReferences":{}},"methodIdentifiers":{"DISCOUNT_PERCENTAGE()":"af760d6c","FREE_CLAIM_AMOUNT()":"b2af06f9","MAX_SUPPLY()":"32cb6b0c","approve(address,uint256)":"095ea7b3","balanceOf(address)":"70a08231","calculatePrice(uint8,bool)":"aa981b48","checkDiscountMerkleProof(bytes32[],address)":"53493a0e","checkFreeClaimAllowlist(bytes32[],address,uint8)":"7ab05865","claim(address,uint8,bytes32[])":"e2387028","fundsReceiverAddress()":"d9f76f31","getApproved(uint256)":"081812fc","getConfig()":"c3f909d4","isApprovedForAll(address,address)":"e985e9c5","mint(address,uint8,bytes32[])":"f9628b7c","name()":"06fdde03","owner()":"8da5cb5b","ownerMint(address,uint16)":"295439e1","ownerOf(uint256)":"6352211e","renounceOwnership()":"715018a6","safeTransferFrom(address,address,uint256)":"42842e0e","safeTransferFrom(address,address,uint256,bytes)":"b88d4fde","setApprovalForAll(address,bool)":"a22cb465","setBaseURI(string)":"55f804b3","setConfig(uint256,uint256)":"1e34c585","setDiscountAllowlistRoot(bytes32)":"89b08d30","setFreeClaimAllowlistRoot(bytes32)":"00fc92b9","setFundsReceiverAddress(address)":"ae8e3d2f","setTokenPrice(uint256)":"6a61e5fc","supportsInterface(bytes4)":"01ffc9a7","symbol()":"95d89b41","tokenByIndex(uint256)":"4f6ccce7","tokenOfOwnerByIndex(address,uint256)":"2f745c59","tokenPrice()":"7ff9b596","tokenURI(uint256)":"c87b56dd","totalSupply()":"18160ddd","transferFrom(address,address,uint256)":"23b872dd","transferOwnership(address)":"f2fde38b","withdraw()":"3ccfd60b"},"id":35}