{"abi":[{"type":"constructor","inputs":[{"name":"initialOwner","type":"address","internalType":"address"},{"name":"_minterContractAddress","type":"address","internalType":"address"},{"name":"_baseUri","type":"string","internalType":"string"}],"stateMutability":"nonpayable"},{"type":"function","name":"adminMint","inputs":[{"name":"recipient","type":"address","internalType":"address"},{"name":"_ids","type":"uint256[]","internalType":"uint256[]"}],"outputs":[],"stateMutability":"nonpayable"},{"type":"function","name":"approve","inputs":[{"name":"to","type":"address","internalType":"address"},{"name":"tokenId","type":"uint256","internalType":"uint256"}],"outputs":[],"stateMutability":"nonpayable"},{"type":"function","name":"balanceOf","inputs":[{"name":"owner","type":"address","internalType":"address"}],"outputs":[{"name":"","type":"uint256","internalType":"uint256"}],"stateMutability":"view"},{"type":"function","name":"burnToReedem","inputs":[{"name":"_tokenId","type":"uint256","internalType":"uint256"},{"name":"_givenCode","type":"uint256","internalType":"uint256"}],"outputs":[],"stateMutability":"nonpayable"},{"type":"function","name":"fundsReceiverAddress","inputs":[],"outputs":[{"name":"","type":"address","internalType":"address payable"}],"stateMutability":"view"},{"type":"function","name":"getAllTokensVersion","inputs":[],"outputs":[{"name":"versions","type":"string[]","internalType":"string[]"}],"stateMutability":"view"},{"type":"function","name":"getApproved","inputs":[{"name":"tokenId","type":"uint256","internalType":"uint256"}],"outputs":[{"name":"","type":"address","internalType":"address"}],"stateMutability":"view"},{"type":"function","name":"getTokenVersion","inputs":[{"name":"tokenId","type":"uint256","internalType":"uint256"}],"outputs":[{"name":"versionStr","type":"string","internalType":"string"}],"stateMutability":"view"},{"type":"function","name":"getTokensByOwner","inputs":[{"name":"_owner","type":"address","internalType":"address"}],"outputs":[{"name":"tokenIds","type":"uint256[]","internalType":"uint256[]"}],"stateMutability":"view"},{"type":"function","name":"isApprovedForAll","inputs":[{"name":"owner","type":"address","internalType":"address"},{"name":"operator","type":"address","internalType":"address"}],"outputs":[{"name":"","type":"bool","internalType":"bool"}],"stateMutability":"view"},{"type":"function","name":"mint","inputs":[{"name":"recipient","type":"address","internalType":"address"},{"name":"_id","type":"uint256","internalType":"uint256"}],"outputs":[],"stateMutability":"nonpayable"},{"type":"function","name":"minterContractAddress","inputs":[],"outputs":[{"name":"","type":"address","internalType":"address"}],"stateMutability":"view"},{"type":"function","name":"name","inputs":[],"outputs":[{"name":"","type":"string","internalType":"string"}],"stateMutability":"view"},{"type":"function","name":"owner","inputs":[],"outputs":[{"name":"","type":"address","internalType":"address"}],"stateMutability":"view"},{"type":"function","name":"ownerOf","inputs":[{"name":"tokenId","type":"uint256","internalType":"uint256"}],"outputs":[{"name":"","type":"address","internalType":"address"}],"stateMutability":"view"},{"type":"function","name":"refreshToken","inputs":[{"name":"_tokenId","type":"uint256","internalType":"uint256"}],"outputs":[],"stateMutability":"payable"},{"type":"function","name":"refreshTokenPrice","inputs":[],"outputs":[{"name":"","type":"uint256","internalType":"uint256"}],"stateMutability":"view"},{"type":"function","name":"renounceOwnership","inputs":[],"outputs":[],"stateMutability":"nonpayable"},{"type":"function","name":"safeTransferFrom","inputs":[{"name":"from","type":"address","internalType":"address"},{"name":"to","type":"address","internalType":"address"},{"name":"tokenId","type":"uint256","internalType":"uint256"}],"outputs":[],"stateMutability":"nonpayable"},{"type":"function","name":"safeTransferFrom","inputs":[{"name":"from","type":"address","internalType":"address"},{"name":"to","type":"address","internalType":"address"},{"name":"tokenId","type":"uint256","internalType":"uint256"},{"name":"data","type":"bytes","internalType":"bytes"}],"outputs":[],"stateMutability":"nonpayable"},{"type":"function","name":"setApprovalForAll","inputs":[{"name":"operator","type":"address","internalType":"address"},{"name":"approved","type":"bool","internalType":"bool"}],"outputs":[],"stateMutability":"nonpayable"},{"type":"function","name":"setBaseURI","inputs":[{"name":"newBaseURI","type":"string","internalType":"string"}],"outputs":[],"stateMutability":"nonpayable"},{"type":"function","name":"setFundsReceiverAddress","inputs":[{"name":"newFundsReceiverAddress","type":"address","internalType":"address"}],"outputs":[],"stateMutability":"nonpayable"},{"type":"function","name":"setMinterContractAddress","inputs":[{"name":"newMinterContractAddress","type":"address","internalType":"address"}],"outputs":[],"stateMutability":"nonpayable"},{"type":"function","name":"setRefreshTokenPrice","inputs":[{"name":"newRefreshTokenPriceInWei","type":"uint256","internalType":"uint256"}],"outputs":[],"stateMutability":"nonpayable"},{"type":"function","name":"supportsInterface","inputs":[{"name":"interfaceId","type":"bytes4","internalType":"bytes4"}],"outputs":[{"name":"","type":"bool","internalType":"bool"}],"stateMutability":"view"},{"type":"function","name":"symbol","inputs":[],"outputs":[{"name":"","type":"string","internalType":"string"}],"stateMutability":"view"},{"type":"function","name":"tokenByIndex","inputs":[{"name":"index","type":"uint256","internalType":"uint256"}],"outputs":[{"name":"","type":"uint256","internalType":"uint256"}],"stateMutability":"view"},{"type":"function","name":"tokenOfOwnerByIndex","inputs":[{"name":"owner","type":"address","internalType":"address"},{"name":"index","type":"uint256","internalType":"uint256"}],"outputs":[{"name":"","type":"uint256","internalType":"uint256"}],"stateMutability":"view"},{"type":"function","name":"tokenURI","inputs":[{"name":"tokenId","type":"uint256","internalType":"uint256"}],"outputs":[{"name":"","type":"string","internalType":"string"}],"stateMutability":"view"},{"type":"function","name":"totalSupply","inputs":[],"outputs":[{"name":"","type":"uint256","internalType":"uint256"}],"stateMutability":"view"},{"type":"function","name":"transferFrom","inputs":[{"name":"from","type":"address","internalType":"address"},{"name":"to","type":"address","internalType":"address"},{"name":"tokenId","type":"uint256","internalType":"uint256"}],"outputs":[],"stateMutability":"nonpayable"},{"type":"function","name":"transferOwnership","inputs":[{"name":"newOwner","type":"address","internalType":"address"}],"outputs":[],"stateMutability":"nonpayable"},{"type":"event","name":"Approval","inputs":[{"name":"owner","type":"address","indexed":true,"internalType":"address"},{"name":"approved","type":"address","indexed":true,"internalType":"address"},{"name":"tokenId","type":"uint256","indexed":true,"internalType":"uint256"}],"anonymous":false},{"type":"event","name":"ApprovalForAll","inputs":[{"name":"owner","type":"address","indexed":true,"internalType":"address"},{"name":"operator","type":"address","indexed":true,"internalType":"address"},{"name":"approved","type":"bool","indexed":false,"internalType":"bool"}],"anonymous":false},{"type":"event","name":"BatchMetadataUpdate","inputs":[{"name":"_fromTokenId","type":"uint256","indexed":false,"internalType":"uint256"},{"name":"_toTokenId","type":"uint256","indexed":false,"internalType":"uint256"}],"anonymous":false},{"type":"event","name":"Burned","inputs":[{"name":"tokenOwner","type":"address","indexed":true,"internalType":"address"},{"name":"tokenId","type":"uint256","indexed":true,"internalType":"uint256"},{"name":"givenCode","type":"uint256","indexed":true,"internalType":"uint256"}],"anonymous":false},{"type":"event","name":"MetadataUpdate","inputs":[{"name":"_tokenId","type":"uint256","indexed":false,"internalType":"uint256"}],"anonymous":false},{"type":"event","name":"Minted","inputs":[{"name":"recipient","type":"address","indexed":true,"internalType":"address"},{"name":"tokenId","type":"uint256","indexed":true,"internalType":"uint256"}],"anonymous":false},{"type":"event","name":"OwnershipTransferred","inputs":[{"name":"previousOwner","type":"address","indexed":true,"internalType":"address"},{"name":"newOwner","type":"address","indexed":true,"internalType":"address"}],"anonymous":false},{"type":"event","name":"TokenRefreshed","inputs":[{"name":"tokenId","type":"uint256","indexed":true,"internalType":"uint256"},{"name":"refresherAddress","type":"address","indexed":false,"internalType":"address"}],"anonymous":false},{"type":"event","name":"Transfer","inputs":[{"name":"from","type":"address","indexed":true,"internalType":"address"},{"name":"to","type":"address","indexed":true,"internalType":"address"},{"name":"tokenId","type":"uint256","indexed":true,"internalType":"uint256"}],"anonymous":false},{"type":"error","name":"AddressInsufficientBalance","inputs":[{"name":"account","type":"address","internalType":"address"}]},{"type":"error","name":"ERC721EnumerableForbiddenBatchMint","inputs":[]},{"type":"error","name":"ERC721IncorrectOwner","inputs":[{"name":"sender","type":"address","internalType":"address"},{"name":"tokenId","type":"uint256","internalType":"uint256"},{"name":"owner","type":"address","internalType":"address"}]},{"type":"error","name":"ERC721InsufficientApproval","inputs":[{"name":"operator","type":"address","internalType":"address"},{"name":"tokenId","type":"uint256","internalType":"uint256"}]},{"type":"error","name":"ERC721InvalidApprover","inputs":[{"name":"approver","type":"address","internalType":"address"}]},{"type":"error","name":"ERC721InvalidOperator","inputs":[{"name":"operator","type":"address","internalType":"address"}]},{"type":"error","name":"ERC721InvalidOwner","inputs":[{"name":"owner","type":"address","internalType":"address"}]},{"type":"error","name":"ERC721InvalidReceiver","inputs":[{"name":"receiver","type":"address","internalType":"address"}]},{"type":"error","name":"ERC721InvalidSender","inputs":[{"name":"sender","type":"address","internalType":"address"}]},{"type":"error","name":"ERC721NonexistentToken","inputs":[{"name":"tokenId","type":"uint256","internalType":"uint256"}]},{"type":"error","name":"ERC721OutOfBoundsIndex","inputs":[{"name":"owner","type":"address","internalType":"address"},{"name":"index","type":"uint256","internalType":"uint256"}]},{"type":"error","name":"FailedInnerCall","inputs":[]},{"type":"error","name":"IdOutOfBounds","inputs":[]},{"type":"error","name":"InvalidPrice","inputs":[]},{"type":"error","name":"NotEnoughETH","inputs":[]},{"type":"error","name":"OnlyMinter","inputs":[]},{"type":"error","name":"OnlyOwner","inputs":[]},{"type":"error","name":"OnlyTokenOwner","inputs":[]},{"type":"error","name":"OwnableInvalidOwner","inputs":[{"name":"owner","type":"address","internalType":"address"}]},{"type":"error","name":"OwnableUnauthorizedAccount","inputs":[{"name":"account","type":"address","internalType":"address"}]},{"type":"error","name":"ReentrancyGuardReentrantCall","inputs":[]},{"type":"error","name":"ZeroAddress","inputs":[]}],"bytecode":{"object":"0x60806040526000600e553480156200001657600080fd5b506040516200309e3803806200309e8339810160408190526200003991620001bc565b826040518060400160405280601981526020017f676c69746368206279206d6973686120646520726964646572000000000000008152506040518060400160405280600681526020016508e9892a886960d31b8152508160009081620000a0919062000347565b506001620000af828262000347565b5050506001600160a01b038116620000e157604051631e4fbdf760e01b81526000600482015260240160405180910390fd5b620000ec8162000137565b506001600c55600d62000100828262000347565b5050600f80546001600160a01b039283166001600160a01b0319918216179091556010805493909216921691909117905562000413565b600b80546001600160a01b038381166001600160a01b0319831681179093556040519116919082907f8be0079c531659141344cd1fd0a4f28419497f9722a3daafe3b4186f6b6457e090600090a35050565b80516001600160a01b0381168114620001a157600080fd5b919050565b634e487b7160e01b600052604160045260246000fd5b600080600060608486031215620001d257600080fd5b620001dd8462000189565b92506020620001ee81860162000189565b60408601519093506001600160401b03808211156200020c57600080fd5b818701915087601f8301126200022157600080fd5b815181811115620002365762000236620001a6565b604051601f8201601f19908116603f01168101908382118183101715620002615762000261620001a6565b816040528281528a868487010111156200027a57600080fd5b600093505b828410156200029e57848401860151818501870152928501926200027f565b60008684830101528096505050505050509250925092565b600181811c90821680620002cb57607f821691505b602082108103620002ec57634e487b7160e01b600052602260045260246000fd5b50919050565b601f82111562000342576000816000526020600020601f850160051c810160208610156200031d5750805b601f850160051c820191505b818110156200033e5782815560010162000329565b5050505b505050565b81516001600160401b03811115620003635762000363620001a6565b6200037b81620003748454620002b6565b84620002f2565b602080601f831160018114620003b357600084156200039a5750858301515b600019600386901b1c1916600185901b1785556200033e565b600085815260208120601f198616915b82811015620003e457888601518255948401946001909101908401620003c3565b5085821015620004035787850151600019600388901b60f8161c191681555b5050505050600190811b01905550565b612c7b80620004236000396000f3fe6080604052600436106101fe5760003560e01c8063715018a61161011d578063b0526aca116100b0578063cf4188591161007f578063dd5d8e5611610064578063dd5d8e56146105d3578063e985e9c5146105f3578063f2fde38b1461063c57600080fd5b8063cf4188591461059d578063d9f76f31146105b357600080fd5b8063b0526aca1461051b578063b88d4fde1461053b578063c87abd7b1461055b578063c87b56dd1461057d57600080fd5b80638da5cb5b116100ec5780638da5cb5b146104a857806395d89b41146104c6578063a22cb465146104db578063ae8e3d2f146104fb57600080fd5b8063715018a6146104405780637e5c3f2914610455578063809b8fad146104755780638d61806b1461048857600080fd5b80633b54f406116101955780634f6ccce7116101645780634f6ccce7146103c057806355f804b3146103e05780636352211e1461040057806370a082311461042057600080fd5b80633b54f4061461033357806340398d671461035357806340c10f191461038057806342842e0e146103a057600080fd5b80630dab46fe116101d15780630dab46fe146102b457806318160ddd146102d457806323b872dd146102f35780632f745c591461031357600080fd5b806301ffc9a71461020357806306fdde0314610238578063081812fc1461025a578063095ea7b314610292575b600080fd5b34801561020f57600080fd5b5061022361021e366004612376565b61065c565b60405190151581526020015b60405180910390f35b34801561024457600080fd5b5061024d61066d565b60405161022f9190612408565b34801561026657600080fd5b5061027a61027536600461241b565b6106ff565b6040516001600160a01b03909116815260200161022f565b34801561029e57600080fd5b506102b26102ad366004612450565b610728565b005b3480156102c057600080fd5b50600f5461027a906001600160a01b031681565b3480156102e057600080fd5b506008545b60405190815260200161022f565b3480156102ff57600080fd5b506102b261030e36600461247a565b610737565b34801561031f57600080fd5b506102e561032e366004612450565b610750565b34801561033f57600080fd5b5061024d61034e36600461241b565b6107d3565b34801561035f57600080fd5b5061037361036e3660046124b6565b610943565b60405161022f91906124d1565b34801561038c57600080fd5b506102b261039b366004612450565b6109e6565b3480156103ac57600080fd5b506102b26103bb36600461247a565b610af7565b3480156103cc57600080fd5b506102e56103db36600461241b565b610b12565b3480156103ec57600080fd5b506102b26103fb366004612609565b610b84565b34801561040c57600080fd5b5061027a61041b36600461241b565b610bd4565b34801561042c57600080fd5b506102e561043b3660046124b6565b610bdf565b34801561044c57600080fd5b506102b2610c40565b34801561046157600080fd5b506102b261047036600461241b565b610c54565b6102b261048336600461241b565b610c9d565b34801561049457600080fd5b506102b26104a3366004612652565b610daa565b3480156104b457600080fd5b50600b546001600160a01b031661027a565b3480156104d257600080fd5b5061024d610f31565b3480156104e757600080fd5b506102b26104f636600461270b565b610f40565b34801561050757600080fd5b506102b26105163660046124b6565b610f4b565b34801561052757600080fd5b506102b26105363660046124b6565b611009565b34801561054757600080fd5b506102b2610556366004612747565b611087565b34801561056757600080fd5b506105706110a4565b60405161022f91906127c3565b34801561058957600080fd5b5061024d61059836600461241b565b611117565b3480156105a957600080fd5b506102e5600e5481565b3480156105bf57600080fd5b5060105461027a906001600160a01b031681565b3480156105df57600080fd5b506102b26105ee366004612845565b61115f565b3480156105ff57600080fd5b5061022361060e366004612867565b6001600160a01b03918216600090815260056020908152604080832093909416825291909152205460ff1690565b34801561064857600080fd5b506102b26106573660046124b6565b611222565b600061066782611276565b92915050565b60606000805461067c9061289a565b80601f01602080910402602001604051908101604052809291908181526020018280546106a89061289a565b80156106f55780601f106106ca576101008083540402835291602001916106f5565b820191906000526020600020905b8154815290600101906020018083116106d857829003601f168201915b5050505050905090565b600061070a826112cc565b506000828152600460205260409020546001600160a01b0316610667565b61073382823361131e565b5050565b6107408161132b565b61074b838383611437565b505050565b600061075b83610bdf565b82106107aa576040517fa57d13dc0000000000000000000000000000000000000000000000000000000081526001600160a01b0384166004820152602481018390526044015b60405180910390fd5b506001600160a01b03919091166000908152600660209081526040808320938352929052205490565b60008181526011602052604081205460609160ff909116908160038111156107fd576107fd6128e7565b0361083f576040518060400160405280600181526020017f4100000000000000000000000000000000000000000000000000000000000000815250915061093d565b6001816003811115610853576108536128e7565b03610895576040518060400160405280600181526020017f4200000000000000000000000000000000000000000000000000000000000000815250915061093d565b60028160038111156108a9576108a96128e7565b036108eb576040518060400160405280600181526020017f4300000000000000000000000000000000000000000000000000000000000000815250915061093d565b60038160038111156108ff576108ff6128e7565b0361093d576040518060400160405280600181526020017f440000000000000000000000000000000000000000000000000000000000000081525091505b50919050565b6060600061095083610bdf565b9050806000036109605750919050565b8067ffffffffffffffff81111561097957610979612515565b6040519080825280602002602001820160405280156109a2578160200160208202803683370190505b50915060005b818110156109df576109ba8482610750565b8382815181106109cc576109cc612916565b60209081029190910101526001016109a8565b5050919050565b600f546001600160a01b0316336001600160a01b031614610a33576040517f9cdc2ed500000000000000000000000000000000000000000000000000000000815260040160405180910390fd5b6001600160a01b038216610a73576040517fd92e233d00000000000000000000000000000000000000000000000000000000815260040160405180910390fd5b6032811180610a80575080155b15610ab7576040517fe812b7c600000000000000000000000000000000000000000000000000000000815260040160405180910390fd5b60405181906001600160a01b038416907f30385c845b448a36257a6a1716e6ad2e1bc2cbe333cde1e69fe849ad6511adfe90600090a361073382826114ee565b61074b83838360405180602001604052806000815250611087565b6000610b1d60085490565b8210610b5f576040517fa57d13dc00000000000000000000000000000000000000000000000000000000815260006004820152602481018390526044016107a1565b60088281548110610b7257610b72612916565b90600052602060002001549050919050565b600b546001600160a01b03163314610bc8576040517f5fc483c500000000000000000000000000000000000000000000000000000000815260040160405180910390fd5b600d6107338282612995565b6000610667826112cc565b60006001600160a01b038216610c24576040517f89c62b64000000000000000000000000000000000000000000000000000000008152600060048201526024016107a1565b506001600160a01b031660009081526003602052604090205490565b610c48611508565b610c52600061154e565b565b600b546001600160a01b03163314610c98576040517f5fc483c500000000000000000000000000000000000000000000000000000000815260040160405180910390fd5b600e55565b610ca56115b8565b600e54341015610ce1576040517f583aa02600000000000000000000000000000000000000000000000000000000815260040160405180910390fd5b60008181526011602090815260409182902080547fffffffffffffffffffffffffffffffffffffffffffffffffffffffffffffff0016905590518281527ff8e1a15aba9398e019f0b49df1a4fde98ee17ae345cb5f6b5e2c27f5033e8ce7910160405180910390a1807f81676a2d008e56eb1e8b27e8ccaa7962197f078610bf25e5f354b98850c2526c336040516001600160a01b03909116815260200160405180910390a2601054610d9d906001600160a01b0316346115fb565b610da76001600c55565b50565b600b546001600160a01b03163314610dee576040517f5fc483c500000000000000000000000000000000000000000000000000000000815260040160405180910390fd5b6001600160a01b038216610e2e576040517fd92e233d00000000000000000000000000000000000000000000000000000000815260040160405180910390fd5b60005b815181101561074b57603261ffff16828281518110610e5257610e52612916565b60200260200101511180610e7f5750818181518110610e7357610e73612916565b60200260200101516000145b15610eb6576040517fe812b7c600000000000000000000000000000000000000000000000000000000815260040160405180910390fd5b818181518110610ec857610ec8612916565b6020026020010151836001600160a01b03167f30385c845b448a36257a6a1716e6ad2e1bc2cbe333cde1e69fe849ad6511adfe60405160405180910390a3610f2983838381518110610f1c57610f1c612916565b60200260200101516114ee565b600101610e31565b60606001805461067c9061289a565b6107333383836116c4565b600b546001600160a01b03163314610f8f576040517f5fc483c500000000000000000000000000000000000000000000000000000000815260040160405180910390fd5b6001600160a01b038116610fcf576040517fd92e233d00000000000000000000000000000000000000000000000000000000815260040160405180910390fd5b601080547fffffffffffffffffffffffff0000000000000000000000000000000000000000166001600160a01b0392909216919091179055565b600b546001600160a01b0316331461104d576040517f5fc483c500000000000000000000000000000000000000000000000000000000815260040160405180910390fd5b600f80547fffffffffffffffffffffffff0000000000000000000000000000000000000000166001600160a01b0392909216919091179055565b611092848484610737565b61109e8484848461179a565b50505050565b6040805160328082526106608201909252606091816020015b60608152602001906001900390816110bd57905050905060005b6032811015611113576110ee61034e826001612ade565b82828151811061110057611100612916565b60209081029190910101526001016110d7565b5090565b6060611122826112cc565b50600d61112e836107d3565b6111378461195d565b60405160200161114993929190612af1565b6040516020818303038152906040529050919050565b61116882610bd4565b6001600160a01b0316336001600160a01b0316146111b2576040517fcdf1f8f900000000000000000000000000000000000000000000000000000000815260040160405180910390fd5b6040518190839033907f23ff0e75edf108e3d0392d92e13e8c8a868ef19001bd49f9e94876dc46dff87f90600090a46111ea82611a1b565b6040518281527ff8e1a15aba9398e019f0b49df1a4fde98ee17ae345cb5f6b5e2c27f5033e8ce7906020015b60405180910390a15050565b61122a611508565b6001600160a01b03811661126d576040517f1e4fbdf7000000000000000000000000000000000000000000000000000000008152600060048201526024016107a1565b610da78161154e565b60007fffffffff0000000000000000000000000000000000000000000000000000000082167f49064906000000000000000000000000000000000000000000000000000000001480610667575061066782611a6f565b6000818152600260205260408120546001600160a01b031680610667576040517f7e273289000000000000000000000000000000000000000000000000000000008152600481018490526024016107a1565b61074b8383836001611ac5565b60008181526011602052604090205460ff166003816003811115611351576113516128e7565b0361135a575050565b600081600381111561136e5761136e6128e7565b0361137b575060016113b9565b600181600381111561138f5761138f6128e7565b0361139c575060026113b9565b60028160038111156113b0576113b06128e7565b036113b9575060035b600082815260116020526040902080548291907fffffffffffffffffffffffffffffffffffffffffffffffffffffffffffffff00166001836003811115611402576114026128e7565b02179055506040518281527ff8e1a15aba9398e019f0b49df1a4fde98ee17ae345cb5f6b5e2c27f5033e8ce790602001611216565b6001600160a01b03821661147a576040517f64a0ae92000000000000000000000000000000000000000000000000000000008152600060048201526024016107a1565b6000611487838333611c1b565b9050836001600160a01b0316816001600160a01b03161461109e576040517f64283d7b0000000000000000000000000000000000000000000000000000000081526001600160a01b03808616600483015260248201849052821660448201526064016107a1565b610733828260405180602001604052806000815250611c30565b600b546001600160a01b03163314610c52576040517f118cdaa70000000000000000000000000000000000000000000000000000000081523360048201526024016107a1565b600b80546001600160a01b038381167fffffffffffffffffffffffff0000000000000000000000000000000000000000831681179093556040519116919082907f8be0079c531659141344cd1fd0a4f28419497f9722a3daafe3b4186f6b6457e090600090a35050565b6002600c54036115f4576040517f3ee5aeb500000000000000000000000000000000000000000000000000000000815260040160405180910390fd5b6002600c55565b80471015611637576040517fcd7860590000000000000000000000000000000000000000000000000000000081523060048201526024016107a1565b6000826001600160a01b03168260405160006040518083038185875af1925050503d8060008114611684576040519150601f19603f3d011682016040523d82523d6000602084013e611689565b606091505b505090508061074b576040517f1425ea4200000000000000000000000000000000000000000000000000000000815260040160405180910390fd5b6001600160a01b03821661170f576040517f5b08ba180000000000000000000000000000000000000000000000000000000081526001600160a01b03831660048201526024016107a1565b6001600160a01b0383811660008181526005602090815260408083209487168084529482529182902080547fffffffffffffffffffffffffffffffffffffffffffffffffffffffffffffff001686151590811790915591519182527f17307eab39ab6107e8899845ad3d59bd9653f200f220920489ca2b5937696c31910160405180910390a3505050565b6001600160a01b0383163b1561109e576040517f150b7a020000000000000000000000000000000000000000000000000000000081526001600160a01b0384169063150b7a02906117f5903390889087908790600401612bd3565b6020604051808303816000875af192505050801561184e575060408051601f3d9081017fffffffffffffffffffffffffffffffffffffffffffffffffffffffffffffffe016820190925261184b91810190612c0f565b60015b6118d0573d80801561187c576040519150601f19603f3d011682016040523d82523d6000602084013e611881565b606091505b5080516000036118c8576040517f64a0ae920000000000000000000000000000000000000000000000000000000081526001600160a01b03851660048201526024016107a1565b805181602001fd5b7fffffffff0000000000000000000000000000000000000000000000000000000081167f150b7a020000000000000000000000000000000000000000000000000000000014611956576040517f64a0ae920000000000000000000000000000000000000000000000000000000081526001600160a01b03851660048201526024016107a1565b5050505050565b6060600061196a83611c47565b600101905060008167ffffffffffffffff81111561198a5761198a612515565b6040519080825280601f01601f1916602001820160405280156119b4576020820181803683370190505b5090508181016020015b7fffffffffffffffffffffffffffffffffffffffffffffffffffffffffffffffff017f3031323334353637383961626364656600000000000000000000000000000000600a86061a8153600a85049450846119be57509392505050565b6000611a2a6000836000611c1b565b90506001600160a01b038116610733576040517f7e273289000000000000000000000000000000000000000000000000000000008152600481018390526024016107a1565b60007fffffffff0000000000000000000000000000000000000000000000000000000082167f780e9d63000000000000000000000000000000000000000000000000000000001480610667575061066782611d29565b8080611ad957506001600160a01b03821615155b15611bd3576000611ae9846112cc565b90506001600160a01b03831615801590611b155750826001600160a01b0316816001600160a01b031614155b8015611b4757506001600160a01b0380821660009081526005602090815260408083209387168352929052205460ff16155b15611b89576040517fa9fbf51f0000000000000000000000000000000000000000000000000000000081526001600160a01b03841660048201526024016107a1565b8115611bd15783856001600160a01b0316826001600160a01b03167f8c5be1e5ebec7d5bd14f71427d1e84f3dd0314c0f7b2291e5b200ac8c7c3b92560405160405180910390a45b505b5050600090815260046020526040902080547fffffffffffffffffffffffff0000000000000000000000000000000000000000166001600160a01b0392909216919091179055565b6000611c28848484611e0c565b949350505050565b611c3a8383611ed9565b61074b600084848461179a565b6000807a184f03e93ff9f4daa797ed6e38ed64bf6a1f0100000000000000008310611c90577a184f03e93ff9f4daa797ed6e38ed64bf6a1f010000000000000000830492506040015b6d04ee2d6d415b85acef81000000008310611cbc576d04ee2d6d415b85acef8100000000830492506020015b662386f26fc100008310611cda57662386f26fc10000830492506010015b6305f5e1008310611cf2576305f5e100830492506008015b6127108310611d0657612710830492506004015b60648310611d18576064830492506002015b600a83106106675760010192915050565b60007fffffffff0000000000000000000000000000000000000000000000000000000082167f80ac58cd000000000000000000000000000000000000000000000000000000001480611dbc57507fffffffff0000000000000000000000000000000000000000000000000000000082167f5b5e139f00000000000000000000000000000000000000000000000000000000145b8061066757507f01ffc9a7000000000000000000000000000000000000000000000000000000007fffffffff00000000000000000000000000000000000000000000000000000000831614610667565b600080611e1a858585611f70565b90506001600160a01b038116611e7757611e7284600880546000838152600960205260408120829055600182018355919091527ff3f7a9fe364faab93b216da50a3214154f22a0a2b415b23a84c8169e8b636ee30155565b611e9a565b846001600160a01b0316816001600160a01b031614611e9a57611e9a818561209f565b6001600160a01b038516611eb657611eb184612130565b611c28565b846001600160a01b0316816001600160a01b031614611c2857611c2885856121df565b6001600160a01b038216611f1c576040517f64a0ae92000000000000000000000000000000000000000000000000000000008152600060048201526024016107a1565b6000611f2a83836000611c1b565b90506001600160a01b0381161561074b576040517f73c6ac6e000000000000000000000000000000000000000000000000000000008152600060048201526024016107a1565b6000828152600260205260408120546001600160a01b0390811690831615611f9d57611f9d81848661222f565b6001600160a01b03811615611ff957611fba600085600080611ac5565b6001600160a01b038116600090815260036020526040902080547fffffffffffffffffffffffffffffffffffffffffffffffffffffffffffffffff0190555b6001600160a01b03851615612028576001600160a01b0385166000908152600360205260409020805460010190555b60008481526002602052604080822080547fffffffffffffffffffffffff0000000000000000000000000000000000000000166001600160a01b0389811691821790925591518793918516917fddf252ad1be2c89b69c2b068fc378daa952ba7f163c4a11628f55a4df523b3ef91a4949350505050565b60006120aa83610bdf565b6000838152600760205260409020549091508082146120fd576001600160a01b03841660009081526006602090815260408083208584528252808320548484528184208190558352600790915290208190555b5060009182526007602090815260408084208490556001600160a01b039094168352600681528383209183525290812055565b60085460009061214290600190612c2c565b6000838152600960205260408120546008805493945090928490811061216a5761216a612916565b90600052602060002001549050806008838154811061218b5761218b612916565b60009182526020808320909101929092558281526009909152604080822084905585825281205560088054806121c3576121c3612c3f565b6001900381819060005260206000200160009055905550505050565b600060016121ec84610bdf565b6121f69190612c2c565b6001600160a01b039093166000908152600660209081526040808320868452825280832085905593825260079052919091209190915550565b61223a8383836122c5565b61074b576001600160a01b038316612281576040517f7e273289000000000000000000000000000000000000000000000000000000008152600481018290526024016107a1565b6040517f177e802f0000000000000000000000000000000000000000000000000000000081526001600160a01b0383166004820152602481018290526044016107a1565b60006001600160a01b03831615801590611c285750826001600160a01b0316846001600160a01b0316148061231f57506001600160a01b0380851660009081526005602090815260408083209387168352929052205460ff165b80611c285750506000908152600460205260409020546001600160a01b03908116911614919050565b7fffffffff0000000000000000000000000000000000000000000000000000000081168114610da757600080fd5b60006020828403121561238857600080fd5b813561239381612348565b9392505050565b60005b838110156123b557818101518382015260200161239d565b50506000910152565b600081518084526123d681602086016020860161239a565b601f017fffffffffffffffffffffffffffffffffffffffffffffffffffffffffffffffe0169290920160200192915050565b60208152600061239360208301846123be565b60006020828403121561242d57600080fd5b5035919050565b80356001600160a01b038116811461244b57600080fd5b919050565b6000806040838503121561246357600080fd5b61246c83612434565b946020939093013593505050565b60008060006060848603121561248f57600080fd5b61249884612434565b92506124a660208501612434565b9150604084013590509250925092565b6000602082840312156124c857600080fd5b61239382612434565b6020808252825182820181905260009190848201906040850190845b81811015612509578351835292840192918401916001016124ed565b50909695505050505050565b7f4e487b7100000000000000000000000000000000000000000000000000000000600052604160045260246000fd5b604051601f82017fffffffffffffffffffffffffffffffffffffffffffffffffffffffffffffffe016810167ffffffffffffffff8111828210171561258b5761258b612515565b604052919050565b600067ffffffffffffffff8311156125ad576125ad612515565b6125de60207fffffffffffffffffffffffffffffffffffffffffffffffffffffffffffffffe0601f86011601612544565b90508281528383830111156125f257600080fd5b828260208301376000602084830101529392505050565b60006020828403121561261b57600080fd5b813567ffffffffffffffff81111561263257600080fd5b8201601f8101841361264357600080fd5b611c2884823560208401612593565b6000806040838503121561266557600080fd5b61266e83612434565b915060208084013567ffffffffffffffff8082111561268c57600080fd5b818601915086601f8301126126a057600080fd5b8135818111156126b2576126b2612515565b8060051b91506126c3848301612544565b81815291830184019184810190898411156126dd57600080fd5b938501935b838510156126fb578435825293850193908501906126e2565b8096505050505050509250929050565b6000806040838503121561271e57600080fd5b61272783612434565b91506020830135801515811461273c57600080fd5b809150509250929050565b6000806000806080858703121561275d57600080fd5b61276685612434565b935061277460208601612434565b925060408501359150606085013567ffffffffffffffff81111561279757600080fd5b8501601f810187136127a857600080fd5b6127b787823560208401612593565b91505092959194509250565b600060208083016020845280855180835260408601915060408160051b87010192506020870160005b82811015612838577fffffffffffffffffffffffffffffffffffffffffffffffffffffffffffffffc08886030184526128268583516123be565b945092850192908501906001016127ec565b5092979650505050505050565b6000806040838503121561285857600080fd5b50508035926020909101359150565b6000806040838503121561287a57600080fd5b61288383612434565b915061289160208401612434565b90509250929050565b600181811c908216806128ae57607f821691505b60208210810361093d577f4e487b7100000000000000000000000000000000000000000000000000000000600052602260045260246000fd5b7f4e487b7100000000000000000000000000000000000000000000000000000000600052602160045260246000fd5b7f4e487b7100000000000000000000000000000000000000000000000000000000600052603260045260246000fd5b601f82111561074b576000816000526020600020601f850160051c8101602086101561296e5750805b601f850160051c820191505b8181101561298d5782815560010161297a565b505050505050565b815167ffffffffffffffff8111156129af576129af612515565b6129c3816129bd845461289a565b84612945565b602080601f831160018114612a1657600084156129e05750858301515b7fffffffffffffffffffffffffffffffffffffffffffffffffffffffffffffffff600386901b1c1916600185901b17855561298d565b6000858152602081207fffffffffffffffffffffffffffffffffffffffffffffffffffffffffffffffe08616915b82811015612a6357888601518255948401946001909101908401612a44565b5085821015612a9f57878501517fffffffffffffffffffffffffffffffffffffffffffffffffffffffffffffffff600388901b60f8161c191681555b5050505050600190811b01905550565b7f4e487b7100000000000000000000000000000000000000000000000000000000600052601160045260246000fd5b8082018082111561066757610667612aaf565b6000808554612aff8161289a565b60018281168015612b175760018114612b4a57612b79565b7fffffffffffffffffffffffffffffffffffffffffffffffffffffffffffffff0084168752821515830287019450612b79565b8960005260208060002060005b85811015612b705781548a820152908401908201612b57565b50505082870194505b505050508451612b8d81836020890161239a565b7f2f0000000000000000000000000000000000000000000000000000000000000091019081528351612bc681600184016020880161239a565b0160010195945050505050565b60006001600160a01b03808716835280861660208401525083604083015260806060830152612c0560808301846123be565b9695505050505050565b600060208284031215612c2157600080fd5b815161239381612348565b8181038181111561066757610667612aaf565b7f4e487b7100000000000000000000000000000000000000000000000000000000600052603160045260246000fdfea164736f6c6343000817000a","linkReferences":{}},"methodIdentifiers":{"adminMint(address,uint256[])":"8d61806b","approve(address,uint256)":"095ea7b3","balanceOf(address)":"70a08231","burnToReedem(uint256,uint256)":"dd5d8e56","fundsReceiverAddress()":"d9f76f31","getAllTokensVersion()":"c87abd7b","getApproved(uint256)":"081812fc","getTokenVersion(uint256)":"3b54f406","getTokensByOwner(address)":"40398d67","isApprovedForAll(address,address)":"e985e9c5","mint(address,uint256)":"40c10f19","minterContractAddress()":"0dab46fe","name()":"06fdde03","owner()":"8da5cb5b","ownerOf(uint256)":"6352211e","refreshToken(uint256)":"809b8fad","refreshTokenPrice()":"cf418859","renounceOwnership()":"715018a6","safeTransferFrom(address,address,uint256)":"42842e0e","safeTransferFrom(address,address,uint256,bytes)":"b88d4fde","setApprovalForAll(address,bool)":"a22cb465","setBaseURI(string)":"55f804b3","setFundsReceiverAddress(address)":"ae8e3d2f","setMinterContractAddress(address)":"b0526aca","setRefreshTokenPrice(uint256)":"7e5c3f29","supportsInterface(bytes4)":"01ffc9a7","symbol()":"95d89b41","tokenByIndex(uint256)":"4f6ccce7","tokenOfOwnerByIndex(address,uint256)":"2f745c59","tokenURI(uint256)":"c87b56dd","totalSupply()":"18160ddd","transferFrom(address,address,uint256)":"23b872dd","transferOwnership(address)":"f2fde38b"},"id":51}