{"abi":[{"type":"constructor","inputs":[{"name":"initialOwner","type":"address","internalType":"address"},{"name":"_baseUri","type":"string","internalType":"string"}],"stateMutability":"nonpayable"},{"type":"function","name":"DISCOUNT_PERCENTAGE","inputs":[],"outputs":[{"name":"","type":"uint16","internalType":"uint16"}],"stateMutability":"view"},{"type":"function","name":"approve","inputs":[{"name":"to","type":"address","internalType":"address"},{"name":"tokenId","type":"uint256","internalType":"uint256"}],"outputs":[],"stateMutability":"nonpayable"},{"type":"function","name":"balanceOf","inputs":[{"name":"owner","type":"address","internalType":"address"}],"outputs":[{"name":"","type":"uint256","internalType":"uint256"}],"stateMutability":"view"},{"type":"function","name":"calculatePrice","inputs":[{"name":"_amount","type":"uint8","internalType":"uint8"},{"name":"_isDiscounted","type":"bool","internalType":"bool"}],"outputs":[{"name":"","type":"uint256","internalType":"uint256"}],"stateMutability":"view"},{"type":"function","name":"checkDiscountMerkleProof","inputs":[{"name":"_merkleProof","type":"bytes32[]","internalType":"bytes32[]"},{"name":"_address","type":"address","internalType":"address"}],"outputs":[{"name":"","type":"bool","internalType":"bool"}],"stateMutability":"view"},{"type":"function","name":"checkFreeClaimAllowlist","inputs":[{"name":"_merkleProof","type":"bytes32[]","internalType":"bytes32[]"},{"name":"_address","type":"address","internalType":"address"},{"name":"_amount","type":"uint8","internalType":"uint8"}],"outputs":[{"name":"","type":"bool","internalType":"bool"}],"stateMutability":"view"},{"type":"function","name":"claim","inputs":[{"name":"proof","type":"bytes32[]","internalType":"bytes32[]"},{"name":"recipient","type":"address","internalType":"address"},{"name":"_amount","type":"uint8","internalType":"uint8"}],"outputs":[],"stateMutability":"nonpayable"},{"type":"function","name":"fundsReceiverAddress","inputs":[],"outputs":[{"name":"","type":"address","internalType":"address payable"}],"stateMutability":"view"},{"type":"function","name":"getApproved","inputs":[{"name":"tokenId","type":"uint256","internalType":"uint256"}],"outputs":[{"name":"","type":"address","internalType":"address"}],"stateMutability":"view"},{"type":"function","name":"getConfig","inputs":[],"outputs":[{"name":"","type":"tuple","internalType":"struct GlitchyGridGrid.Config","components":[{"name":"startTime","type":"uint256","internalType":"uint256"},{"name":"endTime","type":"uint256","internalType":"uint256"}]}],"stateMutability":"view"},{"type":"function","name":"isApprovedForAll","inputs":[{"name":"owner","type":"address","internalType":"address"},{"name":"operator","type":"address","internalType":"address"}],"outputs":[{"name":"","type":"bool","internalType":"bool"}],"stateMutability":"view"},{"type":"function","name":"mint","inputs":[{"name":"recipient","type":"address","internalType":"address"},{"name":"_amount","type":"uint8","internalType":"uint8"},{"name":"_merkleProof","type":"bytes32[]","internalType":"bytes32[]"}],"outputs":[],"stateMutability":"payable"},{"type":"function","name":"name","inputs":[],"outputs":[{"name":"","type":"string","internalType":"string"}],"stateMutability":"view"},{"type":"function","name":"owner","inputs":[],"outputs":[{"name":"","type":"address","internalType":"address"}],"stateMutability":"view"},{"type":"function","name":"ownerMint","inputs":[{"name":"recipient","type":"address","internalType":"address"},{"name":"_amount","type":"uint8","internalType":"uint8"}],"outputs":[],"stateMutability":"nonpayable"},{"type":"function","name":"ownerOf","inputs":[{"name":"tokenId","type":"uint256","internalType":"uint256"}],"outputs":[{"name":"","type":"address","internalType":"address"}],"stateMutability":"view"},{"type":"function","name":"renounceOwnership","inputs":[],"outputs":[],"stateMutability":"nonpayable"},{"type":"function","name":"safeTransferFrom","inputs":[{"name":"from","type":"address","internalType":"address"},{"name":"to","type":"address","internalType":"address"},{"name":"tokenId","type":"uint256","internalType":"uint256"}],"outputs":[],"stateMutability":"nonpayable"},{"type":"function","name":"safeTransferFrom","inputs":[{"name":"from","type":"address","internalType":"address"},{"name":"to","type":"address","internalType":"address"},{"name":"tokenId","type":"uint256","internalType":"uint256"},{"name":"data","type":"bytes","internalType":"bytes"}],"outputs":[],"stateMutability":"nonpayable"},{"type":"function","name":"setApprovalForAll","inputs":[{"name":"operator","type":"address","internalType":"address"},{"name":"approved","type":"bool","internalType":"bool"}],"outputs":[],"stateMutability":"nonpayable"},{"type":"function","name":"setBaseURI","inputs":[{"name":"newBaseURI","type":"string","internalType":"string"}],"outputs":[],"stateMutability":"nonpayable"},{"type":"function","name":"setConfig","inputs":[{"name":"_startTime","type":"uint256","internalType":"uint256"},{"name":"_endTime","type":"uint256","internalType":"uint256"}],"outputs":[],"stateMutability":"nonpayable"},{"type":"function","name":"setDiscountAllowlistRoot","inputs":[{"name":"_allowlistRoot","type":"bytes32","internalType":"bytes32"}],"outputs":[],"stateMutability":"nonpayable"},{"type":"function","name":"setFreeClaimAllowlistRoot","inputs":[{"name":"_allowlistRoot","type":"bytes32","internalType":"bytes32"}],"outputs":[],"stateMutability":"nonpayable"},{"type":"function","name":"setFundsReceiverAddress","inputs":[{"name":"newFundsReceiverAddress","type":"address","internalType":"address"}],"outputs":[],"stateMutability":"nonpayable"},{"type":"function","name":"setTokenPrice","inputs":[{"name":"_tokenPrice","type":"uint256","internalType":"uint256"}],"outputs":[],"stateMutability":"nonpayable"},{"type":"function","name":"supportsInterface","inputs":[{"name":"interfaceId","type":"bytes4","internalType":"bytes4"}],"outputs":[{"name":"","type":"bool","internalType":"bool"}],"stateMutability":"view"},{"type":"function","name":"symbol","inputs":[],"outputs":[{"name":"","type":"string","internalType":"string"}],"stateMutability":"view"},{"type":"function","name":"tokenByIndex","inputs":[{"name":"index","type":"uint256","internalType":"uint256"}],"outputs":[{"name":"","type":"uint256","internalType":"uint256"}],"stateMutability":"view"},{"type":"function","name":"tokenOfOwnerByIndex","inputs":[{"name":"owner","type":"address","internalType":"address"},{"name":"index","type":"uint256","internalType":"uint256"}],"outputs":[{"name":"","type":"uint256","internalType":"uint256"}],"stateMutability":"view"},{"type":"function","name":"tokenPrice","inputs":[],"outputs":[{"name":"","type":"uint256","internalType":"uint256"}],"stateMutability":"view"},{"type":"function","name":"tokenURI","inputs":[{"name":"tokenId","type":"uint256","internalType":"uint256"}],"outputs":[{"name":"","type":"string","internalType":"string"}],"stateMutability":"view"},{"type":"function","name":"totalSupply","inputs":[],"outputs":[{"name":"","type":"uint256","internalType":"uint256"}],"stateMutability":"view"},{"type":"function","name":"transferFrom","inputs":[{"name":"from","type":"address","internalType":"address"},{"name":"to","type":"address","internalType":"address"},{"name":"tokenId","type":"uint256","internalType":"uint256"}],"outputs":[],"stateMutability":"nonpayable"},{"type":"function","name":"transferOwnership","inputs":[{"name":"newOwner","type":"address","internalType":"address"}],"outputs":[],"stateMutability":"nonpayable"},{"type":"function","name":"withdraw","inputs":[],"outputs":[],"stateMutability":"nonpayable"},{"type":"event","name":"Approval","inputs":[{"name":"owner","type":"address","indexed":true,"internalType":"address"},{"name":"approved","type":"address","indexed":true,"internalType":"address"},{"name":"tokenId","type":"uint256","indexed":true,"internalType":"uint256"}],"anonymous":false},{"type":"event","name":"ApprovalForAll","inputs":[{"name":"owner","type":"address","indexed":true,"internalType":"address"},{"name":"operator","type":"address","indexed":true,"internalType":"address"},{"name":"approved","type":"bool","indexed":false,"internalType":"bool"}],"anonymous":false},{"type":"event","name":"BatchMetadataUpdate","inputs":[{"name":"_fromTokenId","type":"uint256","indexed":false,"internalType":"uint256"},{"name":"_toTokenId","type":"uint256","indexed":false,"internalType":"uint256"}],"anonymous":false},{"type":"event","name":"MetadataUpdate","inputs":[{"name":"_tokenId","type":"uint256","indexed":false,"internalType":"uint256"}],"anonymous":false},{"type":"event","name":"OwnershipTransferred","inputs":[{"name":"previousOwner","type":"address","indexed":true,"internalType":"address"},{"name":"newOwner","type":"address","indexed":true,"internalType":"address"}],"anonymous":false},{"type":"event","name":"Transfer","inputs":[{"name":"from","type":"address","indexed":true,"internalType":"address"},{"name":"to","type":"address","indexed":true,"internalType":"address"},{"name":"tokenId","type":"uint256","indexed":true,"internalType":"uint256"}],"anonymous":false},{"type":"error","name":"AddressInsufficientBalance","inputs":[{"name":"account","type":"address","internalType":"address"}]},{"type":"error","name":"ConfigNotSet","inputs":[]},{"type":"error","name":"ERC721EnumerableForbiddenBatchMint","inputs":[]},{"type":"error","name":"ERC721IncorrectOwner","inputs":[{"name":"sender","type":"address","internalType":"address"},{"name":"tokenId","type":"uint256","internalType":"uint256"},{"name":"owner","type":"address","internalType":"address"}]},{"type":"error","name":"ERC721InsufficientApproval","inputs":[{"name":"operator","type":"address","internalType":"address"},{"name":"tokenId","type":"uint256","internalType":"uint256"}]},{"type":"error","name":"ERC721InvalidApprover","inputs":[{"name":"approver","type":"address","internalType":"address"}]},{"type":"error","name":"ERC721InvalidOperator","inputs":[{"name":"operator","type":"address","internalType":"address"}]},{"type":"error","name":"ERC721InvalidOwner","inputs":[{"name":"owner","type":"address","internalType":"address"}]},{"type":"error","name":"ERC721InvalidReceiver","inputs":[{"name":"receiver","type":"address","internalType":"address"}]},{"type":"error","name":"ERC721InvalidSender","inputs":[{"name":"sender","type":"address","internalType":"address"}]},{"type":"error","name":"ERC721NonexistentToken","inputs":[{"name":"tokenId","type":"uint256","internalType":"uint256"}]},{"type":"error","name":"ERC721OutOfBoundsIndex","inputs":[{"name":"owner","type":"address","internalType":"address"},{"name":"index","type":"uint256","internalType":"uint256"}]},{"type":"error","name":"FailedInnerCall","inputs":[]},{"type":"error","name":"InsufficientFunds","inputs":[]},{"type":"error","name":"InvalidProof","inputs":[]},{"type":"error","name":"InvalidStartEndTime","inputs":[{"name":"startTime","type":"uint256","internalType":"uint256"},{"name":"endTime","type":"uint256","internalType":"uint256"}]},{"type":"error","name":"MaxNumberOfMintedTokensExceeded","inputs":[]},{"type":"error","name":"MaxSupplyExceeded","inputs":[]},{"type":"error","name":"OnlyMinter","inputs":[]},{"type":"error","name":"OnlyOwner","inputs":[]},{"type":"error","name":"OwnableInvalidOwner","inputs":[{"name":"owner","type":"address","internalType":"address"}]},{"type":"error","name":"OwnableUnauthorizedAccount","inputs":[{"name":"account","type":"address","internalType":"address"}]},{"type":"error","name":"ZeroAddress","inputs":[]}],"bytecode":{"object":"0x60806040526658d15e17628000600f553480156200001c57600080fd5b5060405162002fb938038062002fb98339810160408190526200003f9162000182565b816040518060400160405280601181526020017019db1a5d18da1e4819dc9a590819dc9a59607a1b8152506040518060400160405280600381526020016247474760e81b815250816000908162000097919062000309565b506001620000a6828262000309565b5050506001600160a01b038116620000d857604051631e4fbdf760e01b81526000600482015260240160405180910390fd5b620000e3816200011a565b50600d620000f2828262000309565b5050601080546001600160a01b0319166001600160a01b0392909216919091179055620003d5565b600b80546001600160a01b038381166001600160a01b0319831681179093556040519116919082907f8be0079c531659141344cd1fd0a4f28419497f9722a3daafe3b4186f6b6457e090600090a35050565b634e487b7160e01b600052604160045260246000fd5b600080604083850312156200019657600080fd5b82516001600160a01b0381168114620001ae57600080fd5b602084810151919350906001600160401b0380821115620001ce57600080fd5b818601915086601f830112620001e357600080fd5b815181811115620001f857620001f86200016c565b604051601f8201601f19908116603f011681019083821181831017156200022357620002236200016c565b8160405282815289868487010111156200023c57600080fd5b600093505b8284101562000260578484018601518185018701529285019262000241565b60008684830101528096505050505050509250929050565b600181811c908216806200028d57607f821691505b602082108103620002ae57634e487b7160e01b600052602260045260246000fd5b50919050565b601f82111562000304576000816000526020600020601f850160051c81016020861015620002df5750805b601f850160051c820191505b818110156200030057828155600101620002eb565b5050505b505050565b81516001600160401b038111156200032557620003256200016c565b6200033d8162000336845462000278565b84620002b4565b602080601f8311600181146200037557600084156200035c5750858301515b600019600386901b1c1916600185901b17855562000300565b600085815260208120601f198616915b82811015620003a65788860151825594840194600190910190840162000385565b5085821015620003c55787850151600019600388901b60f8161c191681555b5050505050600190811b01905550565b612bd480620003e56000396000f3fe60806040526004361061024e5760003560e01c806370a0823111610138578063ae8e3d2f116100b0578063c87b56dd1161007f578063e985e9c511610064578063e985e9c5146106a9578063f2fde38b146106f2578063f9628b7c1461071257600080fd5b8063c87b56dd14610669578063d9f76f311461068957600080fd5b8063ae8e3d2f146105b6578063af760d6c146105d6578063b88d4fde146105fe578063c3f909d41461061e57600080fd5b806389b08d301161010757806395d89b41116100ec57806395d89b4114610561578063a22cb46514610576578063aa981b481461059657600080fd5b806389b08d30146105235780638da5cb5b1461054357600080fd5b806370a08231146104b8578063715018a6146104d85780637ab05865146104ed5780637ff9b5961461050d57600080fd5b80633855c60d116101cb5780634f6ccce71161019a57806355f804b31161017f57806355f804b3146104585780636352211e146104785780636a61e5fc1461049857600080fd5b80634f6ccce71461041857806353493a0e1461043857600080fd5b80633855c60d146103a35780633ccfd60b146103c357806342842e0e146103d85780634d4c76e8146103f857600080fd5b8063095ea7b3116102225780631e34c585116102075780631e34c5851461034357806323b872dd146103635780632f745c591461038357600080fd5b8063095ea7b31461030457806318160ddd1461032457600080fd5b8062fc92b91461025357806301ffc9a71461027557806306fdde03146102aa578063081812fc146102cc575b600080fd5b34801561025f57600080fd5b5061027361026e366004612279565b610725565b005b34801561028157600080fd5b506102956102903660046122c0565b61076e565b60405190151581526020015b60405180910390f35b3480156102b657600080fd5b506102bf61077f565b6040516102a1919061232d565b3480156102d857600080fd5b506102ec6102e7366004612279565b610811565b6040516001600160a01b0390911681526020016102a1565b34801561031057600080fd5b5061027361031f36600461235c565b61083a565b34801561033057600080fd5b506008545b6040519081526020016102a1565b34801561034f57600080fd5b5061027361035e366004612386565b610849565b34801561036f57600080fd5b5061027361037e3660046123a8565b6108fe565b34801561038f57600080fd5b5061033561039e36600461235c565b6109bb565b3480156103af57600080fd5b506102736103be3660046123f5565b610a39565b3480156103cf57600080fd5b50610273610a87565b3480156103e457600080fd5b506102736103f33660046123a8565b610ae3565b34801561040457600080fd5b50610273610413366004612474565b610b03565b34801561042457600080fd5b50610335610433366004612279565b610c6c565b34801561044457600080fd5b506102956104533660046124d9565b610cde565b34801561046457600080fd5b506102736104733660046125d2565b610d76565b34801561048457600080fd5b506102ec610493366004612279565b610dc6565b3480156104a457600080fd5b506102736104b3366004612279565b610dd1565b3480156104c457600080fd5b506103356104d336600461261b565b610dde565b3480156104e457600080fd5b50610273610e3f565b3480156104f957600080fd5b50610295610508366004612474565b610e51565b34801561051957600080fd5b50610335600f5481565b34801561052f57600080fd5b5061027361053e366004612279565b610f6e565b34801561054f57600080fd5b50600b546001600160a01b03166102ec565b34801561056d57600080fd5b506102bf610fb7565b34801561058257600080fd5b50610273610591366004612646565b610fc6565b3480156105a257600080fd5b506103356105b1366004612670565b610fd1565b3480156105c257600080fd5b506102736105d136600461261b565b61101c565b3480156105e257600080fd5b506105eb600f81565b60405161ffff90911681526020016102a1565b34801561060a57600080fd5b5061027361061936600461268c565b6110da565b34801561062a57600080fd5b506040805180820182526000808252602091820152815180830183526013548082526014549183019182528351908152905191810191909152016102a1565b34801561067557600080fd5b506102bf610684366004612279565b6110f1565b34801561069557600080fd5b506010546102ec906001600160a01b031681565b3480156106b557600080fd5b506102956106c4366004612708565b6001600160a01b03918216600090815260056020908152604080832093909416825291909152205460ff1690565b3480156106fe57600080fd5b5061027361070d36600461261b565b61112f565b610273610720366004612732565b611186565b600b546001600160a01b03163314610769576040517f5fc483c500000000000000000000000000000000000000000000000000000000815260040160405180910390fd5b601255565b60006107798261129b565b92915050565b60606000805461078e90612793565b80601f01602080910402602001604051908101604052809291908181526020018280546107ba90612793565b80156108075780601f106107dc57610100808354040283529160200191610807565b820191906000526020600020905b8154815290600101906020018083116107ea57829003601f168201915b5050505050905090565b600061081c826112f1565b506000828152600460205260409020546001600160a01b0316610779565b610845828233611343565b5050565b600b546001600160a01b0316331461088d576040517f5fc483c500000000000000000000000000000000000000000000000000000000815260040160405180910390fd5b81158061089a5750808210155b156108e0576040517f2221fc9c00000000000000000000000000000000000000000000000000000000815260048101839052602481018290526044015b60405180910390fd5b60408051808201909152828152602001819052601391909155601455565b6001600160a01b038216610941576040517f64a0ae92000000000000000000000000000000000000000000000000000000008152600060048201526024016108d7565b600061094e838333611350565b9050836001600160a01b0316816001600160a01b0316146109b5576040517f64283d7b0000000000000000000000000000000000000000000000000000000081526001600160a01b03808616600483015260248201849052821660448201526064016108d7565b50505050565b60006109c683610dde565b8210610a10576040517fa57d13dc0000000000000000000000000000000000000000000000000000000081526001600160a01b0384166004820152602481018390526044016108d7565b506001600160a01b03919091166000908152600660209081526040808320938352929052205490565b600b546001600160a01b03163314610a7d576040517f5fc483c500000000000000000000000000000000000000000000000000000000815260040160405180910390fd5b6108458282611365565b600b546001600160a01b03163314610acb576040517f5fc483c500000000000000000000000000000000000000000000000000000000815260040160405180910390fd5b601054610ae1906001600160a01b031647611468565b565b610afe838383604051806020016040528060008152506110da565b505050565b601354600003610b3f576040517face124bc00000000000000000000000000000000000000000000000000000000815260040160405180910390fd5b6040805180820190915260135481526014546020820181905242101580610b67575080514211155b15610bae57805160208201516040517f2221fc9c000000000000000000000000000000000000000000000000000000008152600481019290925260248201526044016108d7565b610bba85853385610e51565b610bf0576040517f09bde33900000000000000000000000000000000000000000000000000000000815260040160405180910390fd5b6001600e60008787604051602001610c099291906127e6565b60408051808303601f1901815291815281516020928301208352908201929092520160002080547fffffffffffffffffffffffffffffffffffffffffffffffffffffffffffffff0016911515919091179055610c658383611365565b5050505050565b6000610c7760085490565b8210610cb9576040517fa57d13dc00000000000000000000000000000000000000000000000000000000815260006004820152602481018390526044016108d7565b60088281548110610ccc57610ccc612828565b90600052602060002001549050919050565b604080516001600160a01b038316602082015260009182910160408051601f1981840301815282825280516020918201209083015201604051602081830303815290604052805190602001209050610d6d858580806020026020016040519081016040528093929190818152602001838360200280828437600092019190915250506011549150849050611531565b95945050505050565b600b546001600160a01b03163314610dba576040517f5fc483c500000000000000000000000000000000000000000000000000000000815260040160405180910390fd5b600d61084582826128a7565b6000610779826112f1565b610dd9611547565b600f55565b60006001600160a01b038216610e23576040517f89c62b64000000000000000000000000000000000000000000000000000000008152600060048201526024016108d7565b506001600160a01b031660009081526003602052604090205490565b610e47611547565b610ae1600061158d565b604080516001600160a01b038416602082015260ff831691810191909152600090819060600160408051601f1981840301815282825280516020918201209083015201604051602081830303815290604052805190602001209050600e60008787604051602001610ec39291906127e6565b60408051601f198184030181529181528151602092830120835290820192909252016000205460ff1615610f23576040517f09bde33900000000000000000000000000000000000000000000000000000000815260040160405180910390fd5b610f64868680806020026020016040519081016040528093929190818152602001838360200280828437600092019190915250506012549150849050611531565b9695505050505050565b600b546001600160a01b03163314610fb2576040517f5fc483c500000000000000000000000000000000000000000000000000000000815260040160405180910390fd5b601155565b60606001805461078e90612793565b6108453383836115f7565b6000808360ff16600f54610fe591906129d2565b90508215611015576064610ffa600f826129e9565b6110089061ffff16836129d2565b6110129190612a0b565b90505b9392505050565b600b546001600160a01b03163314611060576040517f5fc483c500000000000000000000000000000000000000000000000000000000815260040160405180910390fd5b6001600160a01b0381166110a0576040517fd92e233d00000000000000000000000000000000000000000000000000000000815260040160405180910390fd5b601080547fffffffffffffffffffffffff0000000000000000000000000000000000000000166001600160a01b0392909216919091179055565b6110e58484846108fe565b6109b5848484846116cd565b60606110fc826112f1565b50600d6111088361186b565b604051602001611119929190612a46565b6040516020818303038152906040529050919050565b611137611547565b6001600160a01b03811661117a576040517f1e4fbdf7000000000000000000000000000000000000000000000000000000008152600060048201526024016108d7565b6111838161158d565b50565b6013546000036111c2576040517face124bc00000000000000000000000000000000000000000000000000000000815260040160405180910390fd5b60408051808201909152601354815260145460208201819052421015806111ea575080514211155b1561123157805160208201516040517f2221fc9c000000000000000000000000000000000000000000000000000000008152600481019290925260248201526044016108d7565b600061123e848433610cde565b9050600061124c8683610fd1565b905080341015611288576040517f356680b700000000000000000000000000000000000000000000000000000000815260040160405180910390fd5b6112928787611365565b50505050505050565b60007fffffffff0000000000000000000000000000000000000000000000000000000082167f49064906000000000000000000000000000000000000000000000000000000001480610779575061077982611929565b6000818152600260205260408120546001600160a01b031680610779576040517f7e273289000000000000000000000000000000000000000000000000000000008152600481018490526024016108d7565b610afe838383600161197f565b600061135d848484611ad5565b949350505050565b6001600160a01b0382166113a5576040517fd92e233d00000000000000000000000000000000000000000000000000000000815260040160405180910390fd5b600a60ff821611156113e3576040517f9b61b77500000000000000000000000000000000000000000000000000000000815260040160405180910390fd5b6000600c5460016113f49190612aeb565b90506101fe811115611432576040517f8a164f6300000000000000000000000000000000000000000000000000000000815260040160405180910390fd5b60005b8260ff168160ff1610156109b55761146084600c6000815461145690612afe565b9182905550611ba2565b600101611435565b804710156114a4576040517fcd7860590000000000000000000000000000000000000000000000000000000081523060048201526024016108d7565b6000826001600160a01b03168260405160006040518083038185875af1925050503d80600081146114f1576040519150601f19603f3d011682016040523d82523d6000602084013e6114f6565b606091505b5050905080610afe576040517f1425ea4200000000000000000000000000000000000000000000000000000000815260040160405180910390fd5b60008261153e8584611bbc565b14949350505050565b600b546001600160a01b03163314610ae1576040517f118cdaa70000000000000000000000000000000000000000000000000000000081523360048201526024016108d7565b600b80546001600160a01b038381167fffffffffffffffffffffffff0000000000000000000000000000000000000000831681179093556040519116919082907f8be0079c531659141344cd1fd0a4f28419497f9722a3daafe3b4186f6b6457e090600090a35050565b6001600160a01b038216611642576040517f5b08ba180000000000000000000000000000000000000000000000000000000081526001600160a01b03831660048201526024016108d7565b6001600160a01b0383811660008181526005602090815260408083209487168084529482529182902080547fffffffffffffffffffffffffffffffffffffffffffffffffffffffffffffff001686151590811790915591519182527f17307eab39ab6107e8899845ad3d59bd9653f200f220920489ca2b5937696c31910160405180910390a3505050565b6001600160a01b0383163b156109b5576040517f150b7a020000000000000000000000000000000000000000000000000000000081526001600160a01b0384169063150b7a0290611728903390889087908790600401612b36565b6020604051808303816000875af1925050508015611763575060408051601f3d908101601f1916820190925261176091810190612b68565b60015b6117e5573d808015611791576040519150601f19603f3d011682016040523d82523d6000602084013e611796565b606091505b5080516000036117dd576040517f64a0ae920000000000000000000000000000000000000000000000000000000081526001600160a01b03851660048201526024016108d7565b805181602001fd5b7fffffffff0000000000000000000000000000000000000000000000000000000081167f150b7a020000000000000000000000000000000000000000000000000000000014610c65576040517f64a0ae920000000000000000000000000000000000000000000000000000000081526001600160a01b03851660048201526024016108d7565b6060600061187883611bff565b600101905060008167ffffffffffffffff8111156118985761189861252d565b6040519080825280601f01601f1916602001820160405280156118c2576020820181803683370190505b5090508181016020015b7fffffffffffffffffffffffffffffffffffffffffffffffffffffffffffffffff017f3031323334353637383961626364656600000000000000000000000000000000600a86061a8153600a85049450846118cc57509392505050565b60007fffffffff0000000000000000000000000000000000000000000000000000000082167f780e9d63000000000000000000000000000000000000000000000000000000001480610779575061077982611ce1565b808061199357506001600160a01b03821615155b15611a8d5760006119a3846112f1565b90506001600160a01b038316158015906119cf5750826001600160a01b0316816001600160a01b031614155b8015611a0157506001600160a01b0380821660009081526005602090815260408083209387168352929052205460ff16155b15611a43576040517fa9fbf51f0000000000000000000000000000000000000000000000000000000081526001600160a01b03841660048201526024016108d7565b8115611a8b5783856001600160a01b0316826001600160a01b03167f8c5be1e5ebec7d5bd14f71427d1e84f3dd0314c0f7b2291e5b200ac8c7c3b92560405160405180910390a45b505b5050600090815260046020526040902080547fffffffffffffffffffffffff0000000000000000000000000000000000000000166001600160a01b0392909216919091179055565b600080611ae3858585611dc4565b90506001600160a01b038116611b4057611b3b84600880546000838152600960205260408120829055600182018355919091527ff3f7a9fe364faab93b216da50a3214154f22a0a2b415b23a84c8169e8b636ee30155565b611b63565b846001600160a01b0316816001600160a01b031614611b6357611b638185611ef3565b6001600160a01b038516611b7f57611b7a84611f84565b61135d565b846001600160a01b0316816001600160a01b03161461135d5761135d8585612033565b610845828260405180602001604052806000815250612083565b600081815b8451811015611bf757611bed82868381518110611be057611be0612828565b602002602001015161209a565b9150600101611bc1565b509392505050565b6000807a184f03e93ff9f4daa797ed6e38ed64bf6a1f0100000000000000008310611c48577a184f03e93ff9f4daa797ed6e38ed64bf6a1f010000000000000000830492506040015b6d04ee2d6d415b85acef81000000008310611c74576d04ee2d6d415b85acef8100000000830492506020015b662386f26fc100008310611c9257662386f26fc10000830492506010015b6305f5e1008310611caa576305f5e100830492506008015b6127108310611cbe57612710830492506004015b60648310611cd0576064830492506002015b600a83106107795760010192915050565b60007fffffffff0000000000000000000000000000000000000000000000000000000082167f80ac58cd000000000000000000000000000000000000000000000000000000001480611d7457507fffffffff0000000000000000000000000000000000000000000000000000000082167f5b5e139f00000000000000000000000000000000000000000000000000000000145b8061077957507f01ffc9a7000000000000000000000000000000000000000000000000000000007fffffffff00000000000000000000000000000000000000000000000000000000831614610779565b6000828152600260205260408120546001600160a01b0390811690831615611df157611df18184866120c9565b6001600160a01b03811615611e4d57611e0e60008560008061197f565b6001600160a01b038116600090815260036020526040902080547fffffffffffffffffffffffffffffffffffffffffffffffffffffffffffffffff0190555b6001600160a01b03851615611e7c576001600160a01b0385166000908152600360205260409020805460010190555b60008481526002602052604080822080547fffffffffffffffffffffffff0000000000000000000000000000000000000000166001600160a01b0389811691821790925591518793918516917fddf252ad1be2c89b69c2b068fc378daa952ba7f163c4a11628f55a4df523b3ef91a4949350505050565b6000611efe83610dde565b600083815260076020526040902054909150808214611f51576001600160a01b03841660009081526006602090815260408083208584528252808320548484528184208190558352600790915290208190555b5060009182526007602090815260408084208490556001600160a01b039094168352600681528383209183525290812055565b600854600090611f9690600190612b85565b60008381526009602052604081205460088054939450909284908110611fbe57611fbe612828565b906000526020600020015490508060088381548110611fdf57611fdf612828565b600091825260208083209091019290925582815260099091526040808220849055858252812055600880548061201757612017612b98565b6001900381819060005260206000200160009055905550505050565b6000600161204084610dde565b61204a9190612b85565b6001600160a01b039093166000908152600660209081526040808320868452825280832085905593825260079052919091209190915550565b61208d838361215f565b610afe60008484846116cd565b60008183106120b6576000828152602084905260409020611015565b6000838152602083905260409020611015565b6120d48383836121f6565b610afe576001600160a01b03831661211b576040517f7e273289000000000000000000000000000000000000000000000000000000008152600481018290526024016108d7565b6040517f177e802f0000000000000000000000000000000000000000000000000000000081526001600160a01b0383166004820152602481018290526044016108d7565b6001600160a01b0382166121a2576040517f64a0ae92000000000000000000000000000000000000000000000000000000008152600060048201526024016108d7565b60006121b083836000611350565b90506001600160a01b03811615610afe576040517f73c6ac6e000000000000000000000000000000000000000000000000000000008152600060048201526024016108d7565b60006001600160a01b0383161580159061135d5750826001600160a01b0316846001600160a01b0316148061225057506001600160a01b0380851660009081526005602090815260408083209387168352929052205460ff165b8061135d5750506000908152600460205260409020546001600160a01b03908116911614919050565b60006020828403121561228b57600080fd5b5035919050565b7fffffffff000000000000000000000000000000000000000000000000000000008116811461118357600080fd5b6000602082840312156122d257600080fd5b813561101581612292565b60005b838110156122f85781810151838201526020016122e0565b50506000910152565b600081518084526123198160208601602086016122dd565b601f01601f19169290920160200192915050565b6020815260006110156020830184612301565b80356001600160a01b038116811461235757600080fd5b919050565b6000806040838503121561236f57600080fd5b61237883612340565b946020939093013593505050565b6000806040838503121561239957600080fd5b50508035926020909101359150565b6000806000606084860312156123bd57600080fd5b6123c684612340565b92506123d460208501612340565b9150604084013590509250925092565b803560ff8116811461235757600080fd5b6000806040838503121561240857600080fd5b61241183612340565b915061241f602084016123e4565b90509250929050565b60008083601f84011261243a57600080fd5b50813567ffffffffffffffff81111561245257600080fd5b6020830191508360208260051b850101111561246d57600080fd5b9250929050565b6000806000806060858703121561248a57600080fd5b843567ffffffffffffffff8111156124a157600080fd5b6124ad87828801612428565b90955093506124c0905060208601612340565b91506124ce604086016123e4565b905092959194509250565b6000806000604084860312156124ee57600080fd5b833567ffffffffffffffff81111561250557600080fd5b61251186828701612428565b9094509250612524905060208501612340565b90509250925092565b7f4e487b7100000000000000000000000000000000000000000000000000000000600052604160045260246000fd5b600067ffffffffffffffff808411156125775761257761252d565b604051601f8501601f19908116603f0116810190828211818310171561259f5761259f61252d565b816040528093508581528686860111156125b857600080fd5b858560208301376000602087830101525050509392505050565b6000602082840312156125e457600080fd5b813567ffffffffffffffff8111156125fb57600080fd5b8201601f8101841361260c57600080fd5b61135d8482356020840161255c565b60006020828403121561262d57600080fd5b61101582612340565b8035801515811461235757600080fd5b6000806040838503121561265957600080fd5b61266283612340565b915061241f60208401612636565b6000806040838503121561268357600080fd5b612662836123e4565b600080600080608085870312156126a257600080fd5b6126ab85612340565b93506126b960208601612340565b925060408501359150606085013567ffffffffffffffff8111156126dc57600080fd5b8501601f810187136126ed57600080fd5b6126fc8782356020840161255c565b91505092959194509250565b6000806040838503121561271b57600080fd5b61272483612340565b915061241f60208401612340565b6000806000806060858703121561274857600080fd5b61275185612340565b935061275f602086016123e4565b9250604085013567ffffffffffffffff81111561277b57600080fd5b61278787828801612428565b95989497509550505050565b600181811c908216806127a757607f821691505b6020821081036127e0577f4e487b7100000000000000000000000000000000000000000000000000000000600052602260045260246000fd5b50919050565b60007f07ffffffffffffffffffffffffffffffffffffffffffffffffffffffffffffff83111561281557600080fd5b8260051b80858437919091019392505050565b7f4e487b7100000000000000000000000000000000000000000000000000000000600052603260045260246000fd5b601f821115610afe576000816000526020600020601f850160051c810160208610156128805750805b601f850160051c820191505b8181101561289f5782815560010161288c565b505050505050565b815167ffffffffffffffff8111156128c1576128c161252d565b6128d5816128cf8454612793565b84612857565b602080601f83116001811461292857600084156128f25750858301515b7fffffffffffffffffffffffffffffffffffffffffffffffffffffffffffffffff600386901b1c1916600185901b17855561289f565b600085815260208120601f198616915b8281101561295757888601518255948401946001909101908401612938565b508582101561299357878501517fffffffffffffffffffffffffffffffffffffffffffffffffffffffffffffffff600388901b60f8161c191681555b5050505050600190811b01905550565b7f4e487b7100000000000000000000000000000000000000000000000000000000600052601160045260246000fd5b8082028115828204841417610779576107796129a3565b61ffff828116828216039080821115612a0457612a046129a3565b5092915050565b600082612a41577f4e487b7100000000000000000000000000000000000000000000000000000000600052601260045260246000fd5b500490565b6000808454612a5481612793565b60018281168015612a6c5760018114612a9f57612ace565b7fffffffffffffffffffffffffffffffffffffffffffffffffffffffffffffff0084168752821515830287019450612ace565b8860005260208060002060005b85811015612ac55781548a820152908401908201612aac565b50505082870194505b505050508351612ae28183602088016122dd565b01949350505050565b80820180821115610779576107796129a3565b60007fffffffffffffffffffffffffffffffffffffffffffffffffffffffffffffffff8203612b2f57612b2f6129a3565b5060010190565b60006001600160a01b03808716835280861660208401525083604083015260806060830152610f646080830184612301565b600060208284031215612b7a57600080fd5b815161101581612292565b81810381811115610779576107796129a3565b7f4e487b7100000000000000000000000000000000000000000000000000000000600052603160045260246000fdfea164736f6c6343000817000a","linkReferences":{}},"methodIdentifiers":{"DISCOUNT_PERCENTAGE()":"af760d6c","approve(address,uint256)":"095ea7b3","balanceOf(address)":"70a08231","calculatePrice(uint8,bool)":"aa981b48","checkDiscountMerkleProof(bytes32[],address)":"53493a0e","checkFreeClaimAllowlist(bytes32[],address,uint8)":"7ab05865","claim(bytes32[],address,uint8)":"4d4c76e8","fundsReceiverAddress()":"d9f76f31","getApproved(uint256)":"081812fc","getConfig()":"c3f909d4","isApprovedForAll(address,address)":"e985e9c5","mint(address,uint8,bytes32[])":"f9628b7c","name()":"06fdde03","owner()":"8da5cb5b","ownerMint(address,uint8)":"3855c60d","ownerOf(uint256)":"6352211e","renounceOwnership()":"715018a6","safeTransferFrom(address,address,uint256)":"42842e0e","safeTransferFrom(address,address,uint256,bytes)":"b88d4fde","setApprovalForAll(address,bool)":"a22cb465","setBaseURI(string)":"55f804b3","setConfig(uint256,uint256)":"1e34c585","setDiscountAllowlistRoot(bytes32)":"89b08d30","setFreeClaimAllowlistRoot(bytes32)":"00fc92b9","setFundsReceiverAddress(address)":"ae8e3d2f","setTokenPrice(uint256)":"6a61e5fc","supportsInterface(bytes4)":"01ffc9a7","symbol()":"95d89b41","tokenByIndex(uint256)":"4f6ccce7","tokenOfOwnerByIndex(address,uint256)":"2f745c59","tokenPrice()":"7ff9b596","tokenURI(uint256)":"c87b56dd","totalSupply()":"18160ddd","transferFrom(address,address,uint256)":"23b872dd","transferOwnership(address)":"f2fde38b","withdraw()":"3ccfd60b"},"id":35}