{"abi":[{"type":"constructor","inputs":[{"name":"initialOwner","type":"address","internalType":"address"},{"name":"_minterContractAddress","type":"address","internalType":"address"},{"name":"_baseUri","type":"string","internalType":"string"}],"stateMutability":"nonpayable"},{"type":"function","name":"approve","inputs":[{"name":"to","type":"address","internalType":"address"},{"name":"tokenId","type":"uint256","internalType":"uint256"}],"outputs":[],"stateMutability":"nonpayable"},{"type":"function","name":"balanceOf","inputs":[{"name":"owner","type":"address","internalType":"address"}],"outputs":[{"name":"","type":"uint256","internalType":"uint256"}],"stateMutability":"view"},{"type":"function","name":"baseURI","inputs":[],"outputs":[{"name":"","type":"string","internalType":"string"}],"stateMutability":"view"},{"type":"function","name":"burn","inputs":[{"name":"tokenId","type":"uint256","internalType":"uint256"}],"outputs":[],"stateMutability":"nonpayable"},{"type":"function","name":"getAllTokensVersion","inputs":[],"outputs":[{"name":"versions","type":"string[]","internalType":"string[]"}],"stateMutability":"view"},{"type":"function","name":"getApproved","inputs":[{"name":"tokenId","type":"uint256","internalType":"uint256"}],"outputs":[{"name":"","type":"address","internalType":"address"}],"stateMutability":"view"},{"type":"function","name":"getTokenVersion","inputs":[{"name":"tokenId","type":"uint256","internalType":"uint256"}],"outputs":[{"name":"versionStr","type":"string","internalType":"string"}],"stateMutability":"view"},{"type":"function","name":"isApprovedForAll","inputs":[{"name":"owner","type":"address","internalType":"address"},{"name":"operator","type":"address","internalType":"address"}],"outputs":[{"name":"","type":"bool","internalType":"bool"}],"stateMutability":"view"},{"type":"function","name":"mint","inputs":[{"name":"recipient","type":"address","internalType":"address"},{"name":"_id","type":"uint256","internalType":"uint256"}],"outputs":[],"stateMutability":"nonpayable"},{"type":"function","name":"minterContractAddress","inputs":[],"outputs":[{"name":"","type":"address","internalType":"address"}],"stateMutability":"view"},{"type":"function","name":"name","inputs":[],"outputs":[{"name":"","type":"string","internalType":"string"}],"stateMutability":"view"},{"type":"function","name":"owner","inputs":[],"outputs":[{"name":"","type":"address","internalType":"address"}],"stateMutability":"view"},{"type":"function","name":"ownerOf","inputs":[{"name":"tokenId","type":"uint256","internalType":"uint256"}],"outputs":[{"name":"","type":"address","internalType":"address"}],"stateMutability":"view"},{"type":"function","name":"refreshToken","inputs":[{"name":"tokenId","type":"uint256","internalType":"uint256"}],"outputs":[],"stateMutability":"nonpayable"},{"type":"function","name":"renounceOwnership","inputs":[],"outputs":[],"stateMutability":"nonpayable"},{"type":"function","name":"safeTransferFrom","inputs":[{"name":"from","type":"address","internalType":"address"},{"name":"to","type":"address","internalType":"address"},{"name":"tokenId","type":"uint256","internalType":"uint256"}],"outputs":[],"stateMutability":"nonpayable"},{"type":"function","name":"safeTransferFrom","inputs":[{"name":"from","type":"address","internalType":"address"},{"name":"to","type":"address","internalType":"address"},{"name":"tokenId","type":"uint256","internalType":"uint256"},{"name":"data","type":"bytes","internalType":"bytes"}],"outputs":[],"stateMutability":"nonpayable"},{"type":"function","name":"setApprovalForAll","inputs":[{"name":"operator","type":"address","internalType":"address"},{"name":"approved","type":"bool","internalType":"bool"}],"outputs":[],"stateMutability":"nonpayable"},{"type":"function","name":"setBaseURI","inputs":[{"name":"newBaseURI","type":"string","internalType":"string"}],"outputs":[],"stateMutability":"nonpayable"},{"type":"function","name":"setMinterContractAddress","inputs":[{"name":"newMinterContractAddress","type":"address","internalType":"address"}],"outputs":[],"stateMutability":"nonpayable"},{"type":"function","name":"supportsInterface","inputs":[{"name":"interfaceId","type":"bytes4","internalType":"bytes4"}],"outputs":[{"name":"","type":"bool","internalType":"bool"}],"stateMutability":"view"},{"type":"function","name":"symbol","inputs":[],"outputs":[{"name":"","type":"string","internalType":"string"}],"stateMutability":"view"},{"type":"function","name":"tokenByIndex","inputs":[{"name":"index","type":"uint256","internalType":"uint256"}],"outputs":[{"name":"","type":"uint256","internalType":"uint256"}],"stateMutability":"view"},{"type":"function","name":"tokenOfOwnerByIndex","inputs":[{"name":"owner","type":"address","internalType":"address"},{"name":"index","type":"uint256","internalType":"uint256"}],"outputs":[{"name":"","type":"uint256","internalType":"uint256"}],"stateMutability":"view"},{"type":"function","name":"tokenURI","inputs":[{"name":"tokenId","type":"uint256","internalType":"uint256"}],"outputs":[{"name":"","type":"string","internalType":"string"}],"stateMutability":"view"},{"type":"function","name":"totalSupply","inputs":[],"outputs":[{"name":"","type":"uint256","internalType":"uint256"}],"stateMutability":"pure"},{"type":"function","name":"transferFrom","inputs":[{"name":"from","type":"address","internalType":"address"},{"name":"to","type":"address","internalType":"address"},{"name":"tokenId","type":"uint256","internalType":"uint256"}],"outputs":[],"stateMutability":"nonpayable"},{"type":"function","name":"transferOwnership","inputs":[{"name":"newOwner","type":"address","internalType":"address"}],"outputs":[],"stateMutability":"nonpayable"},{"type":"event","name":"Approval","inputs":[{"name":"owner","type":"address","indexed":true,"internalType":"address"},{"name":"approved","type":"address","indexed":true,"internalType":"address"},{"name":"tokenId","type":"uint256","indexed":true,"internalType":"uint256"}],"anonymous":false},{"type":"event","name":"ApprovalForAll","inputs":[{"name":"owner","type":"address","indexed":true,"internalType":"address"},{"name":"operator","type":"address","indexed":true,"internalType":"address"},{"name":"approved","type":"bool","indexed":false,"internalType":"bool"}],"anonymous":false},{"type":"event","name":"BatchMetadataUpdate","inputs":[{"name":"_fromTokenId","type":"uint256","indexed":false,"internalType":"uint256"},{"name":"_toTokenId","type":"uint256","indexed":false,"internalType":"uint256"}],"anonymous":false},{"type":"event","name":"MetadataUpdate","inputs":[{"name":"_tokenId","type":"uint256","indexed":false,"internalType":"uint256"}],"anonymous":false},{"type":"event","name":"Minted","inputs":[{"name":"recipient","type":"address","indexed":true,"internalType":"address"},{"name":"tokenId","type":"uint256","indexed":true,"internalType":"uint256"}],"anonymous":false},{"type":"event","name":"OwnershipTransferred","inputs":[{"name":"previousOwner","type":"address","indexed":true,"internalType":"address"},{"name":"newOwner","type":"address","indexed":true,"internalType":"address"}],"anonymous":false},{"type":"event","name":"Transfer","inputs":[{"name":"from","type":"address","indexed":true,"internalType":"address"},{"name":"to","type":"address","indexed":true,"internalType":"address"},{"name":"tokenId","type":"uint256","indexed":true,"internalType":"uint256"}],"anonymous":false},{"type":"error","name":"ERC721EnumerableForbiddenBatchMint","inputs":[]},{"type":"error","name":"ERC721IncorrectOwner","inputs":[{"name":"sender","type":"address","internalType":"address"},{"name":"tokenId","type":"uint256","internalType":"uint256"},{"name":"owner","type":"address","internalType":"address"}]},{"type":"error","name":"ERC721InsufficientApproval","inputs":[{"name":"operator","type":"address","internalType":"address"},{"name":"tokenId","type":"uint256","internalType":"uint256"}]},{"type":"error","name":"ERC721InvalidApprover","inputs":[{"name":"approver","type":"address","internalType":"address"}]},{"type":"error","name":"ERC721InvalidOperator","inputs":[{"name":"operator","type":"address","internalType":"address"}]},{"type":"error","name":"ERC721InvalidOwner","inputs":[{"name":"owner","type":"address","internalType":"address"}]},{"type":"error","name":"ERC721InvalidReceiver","inputs":[{"name":"receiver","type":"address","internalType":"address"}]},{"type":"error","name":"ERC721InvalidSender","inputs":[{"name":"sender","type":"address","internalType":"address"}]},{"type":"error","name":"ERC721NonexistentToken","inputs":[{"name":"tokenId","type":"uint256","internalType":"uint256"}]},{"type":"error","name":"ERC721OutOfBoundsIndex","inputs":[{"name":"owner","type":"address","internalType":"address"},{"name":"index","type":"uint256","internalType":"uint256"}]},{"type":"error","name":"OwnableInvalidOwner","inputs":[{"name":"owner","type":"address","internalType":"address"}]},{"type":"error","name":"OwnableUnauthorizedAccount","inputs":[{"name":"account","type":"address","internalType":"address"}]}],"bytecode":{"object":"0x60806040523480156200001157600080fd5b50604051620027fc380380620027fc83398101604081905262000034916200018a565b82604051806040016040528060068152602001650ced8d2e8c6d60d31b8152506040518060400160405280600381526020016211d31560ea1b815250816000908162000081919062000315565b50600162000090828262000315565b5050506001600160a01b038116620000c257604051631e4fbdf760e01b81526000600482015260240160405180910390fd5b620000cd8162000105565b50600d620000dc828262000315565b5050600c80546001600160a01b0319166001600160a01b039290921691909117905550620003e1565b600b80546001600160a01b038381166001600160a01b0319831681179093556040519116919082907f8be0079c531659141344cd1fd0a4f28419497f9722a3daafe3b4186f6b6457e090600090a35050565b80516001600160a01b03811681146200016f57600080fd5b919050565b634e487b7160e01b600052604160045260246000fd5b600080600060608486031215620001a057600080fd5b620001ab8462000157565b92506020620001bc81860162000157565b60408601519093506001600160401b0380821115620001da57600080fd5b818701915087601f830112620001ef57600080fd5b81518181111562000204576200020462000174565b604051601f8201601f19908116603f011681019083821181831017156200022f576200022f62000174565b816040528281528a868487010111156200024857600080fd5b600093505b828410156200026c57848401860151818501870152928501926200024d565b60008684830101528096505050505050509250925092565b600181811c908216806200029957607f821691505b602082108103620002ba57634e487b7160e01b600052602260045260246000fd5b50919050565b601f82111562000310576000816000526020600020601f850160051c81016020861015620002eb5750805b601f850160051c820191505b818110156200030c57828155600101620002f7565b5050505b505050565b81516001600160401b0381111562000331576200033162000174565b620003498162000342845462000284565b84620002c0565b602080601f831160018114620003815760008415620003685750858301515b600019600386901b1c1916600185901b1785556200030c565b600085815260208120601f198616915b82811015620003b25788860151825594840194600190910190840162000391565b5085821015620003d15787850151600019600388901b60f8161c191681555b5050505050600190811b01905550565b61240b80620003f16000396000f3fe608060405234801561001057600080fd5b50600436106101c45760003560e01c80636352211e116100f9578063a22cb46511610097578063c87abd7b11610071578063c87abd7b146103ce578063c87b56dd146103e3578063e985e9c5146103f6578063f2fde38b1461043257600080fd5b8063a22cb46514610395578063b0526aca146103a8578063b88d4fde146103bb57600080fd5b8063715018a6116100d3578063715018a614610330578063809b8fad146103385780638da5cb5b1461037c57806395d89b411461038d57600080fd5b80636352211e146103025780636c0360eb1461031557806370a082311461031d57600080fd5b80632f745c591161016657806342842e0e1161014057806342842e0e146102b657806342966c68146102c95780634f6ccce7146102dc57806355f804b3146102ef57600080fd5b80632f745c591461027d5780633b54f4061461029057806340c10f19146102a357600080fd5b8063095ea7b3116101a2578063095ea7b3146102315780630dab46fe1461024657806318160ddd1461025957806323b872dd1461026a57600080fd5b806301ffc9a7146101c957806306fdde03146101f1578063081812fc14610206575b600080fd5b6101dc6101d7366004611c56565b610445565b60405190151581526020015b60405180910390f35b6101f9610456565b6040516101e89190611ce8565b610219610214366004611cfb565b6104e8565b6040516001600160a01b0390911681526020016101e8565b61024461023f366004611d30565b610511565b005b600c54610219906001600160a01b031681565b60325b6040519081526020016101e8565b610244610278366004611d5a565b610520565b61025c61028b366004611d30565b610539565b6101f961029e366004611cfb565b6105bc565b6102446102b1366004611d30565b61072c565b6102446102c4366004611d5a565b6108cb565b6102446102d7366004611cfb565b6108e6565b61025c6102ea366004611cfb565b6108f2565b6102446102fd366004611e59565b61095d565b610219610310366004611cfb565b6109dd565b6101f96109e8565b61025c61032b366004611ea2565b610a76565b610244610ad7565b610244610346366004611cfb565b6000908152600e6020526040902080547fffffffffffffffffffffffffffffffffffffffffffffffffffffffffffffff00169055565b600b546001600160a01b0316610219565b6101f9610aeb565b6102446103a3366004611ebd565b610afa565b6102446103b6366004611ea2565b610b05565b6102446103c9366004611ef9565b610bb3565b6103d6610bd0565b6040516101e89190611f75565b6101f96103f1366004611cfb565b610c43565b6101dc610404366004611ff7565b6001600160a01b03918216600090815260056020908152604080832093909416825291909152205460ff1690565b610244610440366004611ea2565b610c8b565b600061045082610ce2565b92915050565b6060600080546104659061202a565b80601f01602080910402602001604051908101604052809291908181526020018280546104919061202a565b80156104de5780601f106104b3576101008083540402835291602001916104de565b820191906000526020600020905b8154815290600101906020018083116104c157829003601f168201915b5050505050905090565b60006104f382610d38565b506000828152600460205260409020546001600160a01b0316610450565b61051c828233610d8a565b5050565b61052981610d97565b610534838383610e77565b505050565b600061054483610a76565b8210610593576040517fa57d13dc0000000000000000000000000000000000000000000000000000000081526001600160a01b0384166004820152602481018390526044015b60405180910390fd5b506001600160a01b03919091166000908152600660209081526040808320938352929052205490565b6000818152600e602052604081205460609160ff909116908160038111156105e6576105e6612077565b03610628576040518060400160405280600181526020017f41000000000000000000000000000000000000000000000000000000000000008152509150610726565b600181600381111561063c5761063c612077565b0361067e576040518060400160405280600181526020017f42000000000000000000000000000000000000000000000000000000000000008152509150610726565b600281600381111561069257610692612077565b036106d4576040518060400160405280600181526020017f43000000000000000000000000000000000000000000000000000000000000008152509150610726565b60038160038111156106e8576106e8612077565b03610726576040518060400160405280600181526020017f440000000000000000000000000000000000000000000000000000000000000081525091505b50919050565b600c546001600160a01b031633146107a0576040517f08c379a000000000000000000000000000000000000000000000000000000000815260206004820152601460248201527f4f6e6c79206d696e7465722063616e206d696e74000000000000000000000000604482015260640161058a565b6001600160a01b038216610810576040517f08c379a000000000000000000000000000000000000000000000000000000000815260206004820152601b60248201527f43616e6e6f74206d696e7420746f207a65726f20616464726573730000000000604482015260640161058a565b603281118015906108215750600081115b610887576040517f08c379a000000000000000000000000000000000000000000000000000000000815260206004820152601060248201527f4964206f7574206f6620626f756e647300000000000000000000000000000000604482015260640161058a565b6108918282610f2e565b60405181906001600160a01b038416907f30385c845b448a36257a6a1716e6ad2e1bc2cbe333cde1e69fe849ad6511adfe90600090a35050565b61053483838360405180602001604052806000815250610bb3565b61051c60008233610f48565b600060328210610938576040517fa57d13dc000000000000000000000000000000000000000000000000000000008152600060048201526024810183905260440161058a565b6008828154811061094b5761094b6120a6565b90600052602060002001549050919050565b600b546001600160a01b031633146109d1576040517f08c379a000000000000000000000000000000000000000000000000000000000815260206004820152600a60248201527f4f6e6c79206f776e657200000000000000000000000000000000000000000000604482015260640161058a565b600d61051c8282612125565b600061045082610d38565b600d80546109f59061202a565b80601f0160208091040260200160405190810160405280929190818152602001828054610a219061202a565b8015610a6e5780601f10610a4357610100808354040283529160200191610a6e565b820191906000526020600020905b815481529060010190602001808311610a5157829003601f168201915b505050505081565b60006001600160a01b038216610abb576040517f89c62b640000000000000000000000000000000000000000000000000000000081526000600482015260240161058a565b506001600160a01b031660009081526003602052604090205490565b610adf610f5d565b610ae96000610fa3565b565b6060600180546104659061202a565b61051c33838361100d565b600b546001600160a01b03163314610b79576040517f08c379a000000000000000000000000000000000000000000000000000000000815260206004820152600a60248201527f4f6e6c79206f776e657200000000000000000000000000000000000000000000604482015260640161058a565b600c80547fffffffffffffffffffffffff0000000000000000000000000000000000000000166001600160a01b0392909216919091179055565b610bbe848484610520565b610bca848484846110e3565b50505050565b6040805160328082526106608201909252606091816020015b6060815260200190600190039081610be957905050905060005b6032811015610c3f57610c1a61029e82600161226e565b828281518110610c2c57610c2c6120a6565b6020908102919091010152600101610c03565b5090565b6060610c4e82610d38565b50600d610c5a836105bc565b610c63846112a6565b604051602001610c7593929190612281565b6040516020818303038152906040529050919050565b610c93610f5d565b6001600160a01b038116610cd6576040517f1e4fbdf70000000000000000000000000000000000000000000000000000000081526000600482015260240161058a565b610cdf81610fa3565b50565b60007fffffffff0000000000000000000000000000000000000000000000000000000082167f49064906000000000000000000000000000000000000000000000000000000001480610450575061045082611364565b6000818152600260205260408120546001600160a01b031680610450576040517f7e2732890000000000000000000000000000000000000000000000000000000081526004810184905260240161058a565b61053483838360016113ba565b6000818152600e602052604090205460ff166003816003811115610dbd57610dbd612077565b03610dc6575050565b6000816003811115610dda57610dda612077565b03610de757506001610e25565b6001816003811115610dfb57610dfb612077565b03610e0857506002610e25565b6002816003811115610e1c57610e1c612077565b03610e25575060035b6000828152600e6020526040902080548291907fffffffffffffffffffffffffffffffffffffffffffffffffffffffffffffff00166001836003811115610e6e57610e6e612077565b02179055505050565b6001600160a01b038216610eba576040517f64a0ae920000000000000000000000000000000000000000000000000000000081526000600482015260240161058a565b6000610ec7838333610f48565b9050836001600160a01b0316816001600160a01b031614610bca576040517f64283d7b0000000000000000000000000000000000000000000000000000000081526001600160a01b038086166004830152602482018490528216604482015260640161058a565b61051c828260405180602001604052806000815250611510565b6000610f55848484611527565b949350505050565b600b546001600160a01b03163314610ae9576040517f118cdaa700000000000000000000000000000000000000000000000000000000815233600482015260240161058a565b600b80546001600160a01b038381167fffffffffffffffffffffffff0000000000000000000000000000000000000000831681179093556040519116919082907f8be0079c531659141344cd1fd0a4f28419497f9722a3daafe3b4186f6b6457e090600090a35050565b6001600160a01b038216611058576040517f5b08ba180000000000000000000000000000000000000000000000000000000081526001600160a01b038316600482015260240161058a565b6001600160a01b0383811660008181526005602090815260408083209487168084529482529182902080547fffffffffffffffffffffffffffffffffffffffffffffffffffffffffffffff001686151590811790915591519182527f17307eab39ab6107e8899845ad3d59bd9653f200f220920489ca2b5937696c31910160405180910390a3505050565b6001600160a01b0383163b15610bca576040517f150b7a020000000000000000000000000000000000000000000000000000000081526001600160a01b0384169063150b7a029061113e903390889087908790600401612363565b6020604051808303816000875af1925050508015611197575060408051601f3d9081017fffffffffffffffffffffffffffffffffffffffffffffffffffffffffffffffe01682019092526111949181019061239f565b60015b611219573d8080156111c5576040519150601f19603f3d011682016040523d82523d6000602084013e6111ca565b606091505b508051600003611211576040517f64a0ae920000000000000000000000000000000000000000000000000000000081526001600160a01b038516600482015260240161058a565b805181602001fd5b7fffffffff0000000000000000000000000000000000000000000000000000000081167f150b7a02000000000000000000000000000000000000000000000000000000001461129f576040517f64a0ae920000000000000000000000000000000000000000000000000000000081526001600160a01b038516600482015260240161058a565b5050505050565b606060006112b3836115f4565b600101905060008167ffffffffffffffff8111156112d3576112d3611d96565b6040519080825280601f01601f1916602001820160405280156112fd576020820181803683370190505b5090508181016020015b7fffffffffffffffffffffffffffffffffffffffffffffffffffffffffffffffff017f3031323334353637383961626364656600000000000000000000000000000000600a86061a8153600a850494508461130757509392505050565b60007fffffffff0000000000000000000000000000000000000000000000000000000082167f780e9d630000000000000000000000000000000000000000000000000000000014806104505750610450826116d6565b80806113ce57506001600160a01b03821615155b156114c85760006113de84610d38565b90506001600160a01b0383161580159061140a5750826001600160a01b0316816001600160a01b031614155b801561143c57506001600160a01b0380821660009081526005602090815260408083209387168352929052205460ff16155b1561147e576040517fa9fbf51f0000000000000000000000000000000000000000000000000000000081526001600160a01b038416600482015260240161058a565b81156114c65783856001600160a01b0316826001600160a01b03167f8c5be1e5ebec7d5bd14f71427d1e84f3dd0314c0f7b2291e5b200ac8c7c3b92560405160405180910390a45b505b5050600090815260046020526040902080547fffffffffffffffffffffffff0000000000000000000000000000000000000000166001600160a01b0392909216919091179055565b61151a83836117b9565b61053460008484846110e3565b600080611535858585611850565b90506001600160a01b0381166115925761158d84600880546000838152600960205260408120829055600182018355919091527ff3f7a9fe364faab93b216da50a3214154f22a0a2b415b23a84c8169e8b636ee30155565b6115b5565b846001600160a01b0316816001600160a01b0316146115b5576115b5818561197f565b6001600160a01b0385166115d1576115cc84611a10565b610f55565b846001600160a01b0316816001600160a01b031614610f5557610f558585611abf565b6000807a184f03e93ff9f4daa797ed6e38ed64bf6a1f010000000000000000831061163d577a184f03e93ff9f4daa797ed6e38ed64bf6a1f010000000000000000830492506040015b6d04ee2d6d415b85acef81000000008310611669576d04ee2d6d415b85acef8100000000830492506020015b662386f26fc10000831061168757662386f26fc10000830492506010015b6305f5e100831061169f576305f5e100830492506008015b61271083106116b357612710830492506004015b606483106116c5576064830492506002015b600a83106104505760010192915050565b60007fffffffff0000000000000000000000000000000000000000000000000000000082167f80ac58cd00000000000000000000000000000000000000000000000000000000148061176957507fffffffff0000000000000000000000000000000000000000000000000000000082167f5b5e139f00000000000000000000000000000000000000000000000000000000145b8061045057507f01ffc9a7000000000000000000000000000000000000000000000000000000007fffffffff00000000000000000000000000000000000000000000000000000000831614610450565b6001600160a01b0382166117fc576040517f64a0ae920000000000000000000000000000000000000000000000000000000081526000600482015260240161058a565b600061180a83836000610f48565b90506001600160a01b03811615610534576040517f73c6ac6e0000000000000000000000000000000000000000000000000000000081526000600482015260240161058a565b6000828152600260205260408120546001600160a01b039081169083161561187d5761187d818486611b0f565b6001600160a01b038116156118d95761189a6000856000806113ba565b6001600160a01b038116600090815260036020526040902080547fffffffffffffffffffffffffffffffffffffffffffffffffffffffffffffffff0190555b6001600160a01b03851615611908576001600160a01b0385166000908152600360205260409020805460010190555b60008481526002602052604080822080547fffffffffffffffffffffffff0000000000000000000000000000000000000000166001600160a01b0389811691821790925591518793918516917fddf252ad1be2c89b69c2b068fc378daa952ba7f163c4a11628f55a4df523b3ef91a4949350505050565b600061198a83610a76565b6000838152600760205260409020549091508082146119dd576001600160a01b03841660009081526006602090815260408083208584528252808320548484528184208190558352600790915290208190555b5060009182526007602090815260408084208490556001600160a01b039094168352600681528383209183525290812055565b600854600090611a22906001906123bc565b60008381526009602052604081205460088054939450909284908110611a4a57611a4a6120a6565b906000526020600020015490508060088381548110611a6b57611a6b6120a6565b6000918252602080832090910192909255828152600990915260408082208490558582528120556008805480611aa357611aa36123cf565b6001900381819060005260206000200160009055905550505050565b60006001611acc84610a76565b611ad691906123bc565b6001600160a01b039093166000908152600660209081526040808320868452825280832085905593825260079052919091209190915550565b611b1a838383611ba5565b610534576001600160a01b038316611b61576040517f7e2732890000000000000000000000000000000000000000000000000000000081526004810182905260240161058a565b6040517f177e802f0000000000000000000000000000000000000000000000000000000081526001600160a01b03831660048201526024810182905260440161058a565b60006001600160a01b03831615801590610f555750826001600160a01b0316846001600160a01b03161480611bff57506001600160a01b0380851660009081526005602090815260408083209387168352929052205460ff165b80610f555750506000908152600460205260409020546001600160a01b03908116911614919050565b7fffffffff0000000000000000000000000000000000000000000000000000000081168114610cdf57600080fd5b600060208284031215611c6857600080fd5b8135611c7381611c28565b9392505050565b60005b83811015611c95578181015183820152602001611c7d565b50506000910152565b60008151808452611cb6816020860160208601611c7a565b601f017fffffffffffffffffffffffffffffffffffffffffffffffffffffffffffffffe0169290920160200192915050565b602081526000611c736020830184611c9e565b600060208284031215611d0d57600080fd5b5035919050565b80356001600160a01b0381168114611d2b57600080fd5b919050565b60008060408385031215611d4357600080fd5b611d4c83611d14565b946020939093013593505050565b600080600060608486031215611d6f57600080fd5b611d7884611d14565b9250611d8660208501611d14565b9150604084013590509250925092565b7f4e487b7100000000000000000000000000000000000000000000000000000000600052604160045260246000fd5b600067ffffffffffffffff80841115611de057611de0611d96565b604051601f85017fffffffffffffffffffffffffffffffffffffffffffffffffffffffffffffffe0908116603f01168101908282118183101715611e2657611e26611d96565b81604052809350858152868686011115611e3f57600080fd5b858560208301376000602087830101525050509392505050565b600060208284031215611e6b57600080fd5b813567ffffffffffffffff811115611e8257600080fd5b8201601f81018413611e9357600080fd5b610f5584823560208401611dc5565b600060208284031215611eb457600080fd5b611c7382611d14565b60008060408385031215611ed057600080fd5b611ed983611d14565b915060208301358015158114611eee57600080fd5b809150509250929050565b60008060008060808587031215611f0f57600080fd5b611f1885611d14565b9350611f2660208601611d14565b925060408501359150606085013567ffffffffffffffff811115611f4957600080fd5b8501601f81018713611f5a57600080fd5b611f6987823560208401611dc5565b91505092959194509250565b600060208083016020845280855180835260408601915060408160051b87010192506020870160005b82811015611fea577fffffffffffffffffffffffffffffffffffffffffffffffffffffffffffffffc0888603018452611fd8858351611c9e565b94509285019290850190600101611f9e565b5092979650505050505050565b6000806040838503121561200a57600080fd5b61201383611d14565b915061202160208401611d14565b90509250929050565b600181811c9082168061203e57607f821691505b602082108103610726577f4e487b7100000000000000000000000000000000000000000000000000000000600052602260045260246000fd5b7f4e487b7100000000000000000000000000000000000000000000000000000000600052602160045260246000fd5b7f4e487b7100000000000000000000000000000000000000000000000000000000600052603260045260246000fd5b601f821115610534576000816000526020600020601f850160051c810160208610156120fe5750805b601f850160051c820191505b8181101561211d5782815560010161210a565b505050505050565b815167ffffffffffffffff81111561213f5761213f611d96565b6121538161214d845461202a565b846120d5565b602080601f8311600181146121a657600084156121705750858301515b7fffffffffffffffffffffffffffffffffffffffffffffffffffffffffffffffff600386901b1c1916600185901b17855561211d565b6000858152602081207fffffffffffffffffffffffffffffffffffffffffffffffffffffffffffffffe08616915b828110156121f3578886015182559484019460019091019084016121d4565b508582101561222f57878501517fffffffffffffffffffffffffffffffffffffffffffffffffffffffffffffffff600388901b60f8161c191681555b5050505050600190811b01905550565b7f4e487b7100000000000000000000000000000000000000000000000000000000600052601160045260246000fd5b808201808211156104505761045061223f565b600080855461228f8161202a565b600182811680156122a757600181146122da57612309565b7fffffffffffffffffffffffffffffffffffffffffffffffffffffffffffffff0084168752821515830287019450612309565b8960005260208060002060005b858110156123005781548a8201529084019082016122e7565b50505082870194505b50505050845161231d818360208901611c7a565b7f2f0000000000000000000000000000000000000000000000000000000000000091019081528351612356816001840160208801611c7a565b0160010195945050505050565b60006001600160a01b038087168352808616602084015250836040830152608060608301526123956080830184611c9e565b9695505050505050565b6000602082840312156123b157600080fd5b8151611c7381611c28565b818103818111156104505761045061223f565b7f4e487b7100000000000000000000000000000000000000000000000000000000600052603160045260246000fdfea164736f6c6343000817000a","linkReferences":{}},"methodIdentifiers":{"approve(address,uint256)":"095ea7b3","balanceOf(address)":"70a08231","baseURI()":"6c0360eb","burn(uint256)":"42966c68","getAllTokensVersion()":"c87abd7b","getApproved(uint256)":"081812fc","getTokenVersion(uint256)":"3b54f406","isApprovedForAll(address,address)":"e985e9c5","mint(address,uint256)":"40c10f19","minterContractAddress()":"0dab46fe","name()":"06fdde03","owner()":"8da5cb5b","ownerOf(uint256)":"6352211e","refreshToken(uint256)":"809b8fad","renounceOwnership()":"715018a6","safeTransferFrom(address,address,uint256)":"42842e0e","safeTransferFrom(address,address,uint256,bytes)":"b88d4fde","setApprovalForAll(address,bool)":"a22cb465","setBaseURI(string)":"55f804b3","setMinterContractAddress(address)":"b0526aca","supportsInterface(bytes4)":"01ffc9a7","symbol()":"95d89b41","tokenByIndex(uint256)":"4f6ccce7","tokenOfOwnerByIndex(address,uint256)":"2f745c59","tokenURI(uint256)":"c87b56dd","totalSupply()":"18160ddd","transferFrom(address,address,uint256)":"23b872dd","transferOwnership(address)":"f2fde38b"},"id":47}