{"abi":[{"type":"constructor","inputs":[{"name":"initialOwner","type":"address","internalType":"address"},{"name":"_minterContractAddress","type":"address","internalType":"address"},{"name":"_baseUri","type":"string","internalType":"string"}],"stateMutability":"nonpayable"},{"type":"function","name":"approve","inputs":[{"name":"to","type":"address","internalType":"address"},{"name":"tokenId","type":"uint256","internalType":"uint256"}],"outputs":[],"stateMutability":"nonpayable"},{"type":"function","name":"balanceOf","inputs":[{"name":"owner","type":"address","internalType":"address"}],"outputs":[{"name":"","type":"uint256","internalType":"uint256"}],"stateMutability":"view"},{"type":"function","name":"baseURI","inputs":[],"outputs":[{"name":"","type":"string","internalType":"string"}],"stateMutability":"view"},{"type":"function","name":"burn","inputs":[{"name":"tokenId","type":"uint256","internalType":"uint256"}],"outputs":[],"stateMutability":"nonpayable"},{"type":"function","name":"burnToReedem","inputs":[{"name":"_tokenId","type":"uint256","internalType":"uint256"},{"name":"_givenCode","type":"uint256","internalType":"uint256"}],"outputs":[],"stateMutability":"nonpayable"},{"type":"function","name":"fundsReceiverAddress","inputs":[],"outputs":[{"name":"","type":"address","internalType":"address payable"}],"stateMutability":"view"},{"type":"function","name":"getAllTokensVersion","inputs":[],"outputs":[{"name":"versions","type":"string[]","internalType":"string[]"}],"stateMutability":"view"},{"type":"function","name":"getApproved","inputs":[{"name":"tokenId","type":"uint256","internalType":"uint256"}],"outputs":[{"name":"","type":"address","internalType":"address"}],"stateMutability":"view"},{"type":"function","name":"getTokenVersion","inputs":[{"name":"tokenId","type":"uint256","internalType":"uint256"}],"outputs":[{"name":"versionStr","type":"string","internalType":"string"}],"stateMutability":"view"},{"type":"function","name":"isApprovedForAll","inputs":[{"name":"owner","type":"address","internalType":"address"},{"name":"operator","type":"address","internalType":"address"}],"outputs":[{"name":"","type":"bool","internalType":"bool"}],"stateMutability":"view"},{"type":"function","name":"mint","inputs":[{"name":"recipient","type":"address","internalType":"address"},{"name":"_id","type":"uint256","internalType":"uint256"}],"outputs":[],"stateMutability":"nonpayable"},{"type":"function","name":"minterContractAddress","inputs":[],"outputs":[{"name":"","type":"address","internalType":"address"}],"stateMutability":"view"},{"type":"function","name":"name","inputs":[],"outputs":[{"name":"","type":"string","internalType":"string"}],"stateMutability":"view"},{"type":"function","name":"owner","inputs":[],"outputs":[{"name":"","type":"address","internalType":"address"}],"stateMutability":"view"},{"type":"function","name":"ownerOf","inputs":[{"name":"tokenId","type":"uint256","internalType":"uint256"}],"outputs":[{"name":"","type":"address","internalType":"address"}],"stateMutability":"view"},{"type":"function","name":"refreshToken","inputs":[{"name":"_tokenId","type":"uint256","internalType":"uint256"}],"outputs":[],"stateMutability":"payable"},{"type":"function","name":"refreshTokenPrice","inputs":[],"outputs":[{"name":"","type":"uint256","internalType":"uint256"}],"stateMutability":"view"},{"type":"function","name":"renounceOwnership","inputs":[],"outputs":[],"stateMutability":"nonpayable"},{"type":"function","name":"safeTransferFrom","inputs":[{"name":"from","type":"address","internalType":"address"},{"name":"to","type":"address","internalType":"address"},{"name":"tokenId","type":"uint256","internalType":"uint256"}],"outputs":[],"stateMutability":"nonpayable"},{"type":"function","name":"safeTransferFrom","inputs":[{"name":"from","type":"address","internalType":"address"},{"name":"to","type":"address","internalType":"address"},{"name":"tokenId","type":"uint256","internalType":"uint256"},{"name":"data","type":"bytes","internalType":"bytes"}],"outputs":[],"stateMutability":"nonpayable"},{"type":"function","name":"setApprovalForAll","inputs":[{"name":"operator","type":"address","internalType":"address"},{"name":"approved","type":"bool","internalType":"bool"}],"outputs":[],"stateMutability":"nonpayable"},{"type":"function","name":"setBaseURI","inputs":[{"name":"newBaseURI","type":"string","internalType":"string"}],"outputs":[],"stateMutability":"nonpayable"},{"type":"function","name":"setFundsReceiverAddress","inputs":[{"name":"newFundsReceiverAddress","type":"address","internalType":"address"}],"outputs":[],"stateMutability":"nonpayable"},{"type":"function","name":"setMinterContractAddress","inputs":[{"name":"newMinterContractAddress","type":"address","internalType":"address"}],"outputs":[],"stateMutability":"nonpayable"},{"type":"function","name":"setRefreshTokenPrice","inputs":[{"name":"newRefreshTokenPriceInWei","type":"uint256","internalType":"uint256"}],"outputs":[],"stateMutability":"nonpayable"},{"type":"function","name":"supportsInterface","inputs":[{"name":"interfaceId","type":"bytes4","internalType":"bytes4"}],"outputs":[{"name":"","type":"bool","internalType":"bool"}],"stateMutability":"view"},{"type":"function","name":"symbol","inputs":[],"outputs":[{"name":"","type":"string","internalType":"string"}],"stateMutability":"view"},{"type":"function","name":"tokenByIndex","inputs":[{"name":"index","type":"uint256","internalType":"uint256"}],"outputs":[{"name":"","type":"uint256","internalType":"uint256"}],"stateMutability":"view"},{"type":"function","name":"tokenOfOwnerByIndex","inputs":[{"name":"owner","type":"address","internalType":"address"},{"name":"index","type":"uint256","internalType":"uint256"}],"outputs":[{"name":"","type":"uint256","internalType":"uint256"}],"stateMutability":"view"},{"type":"function","name":"tokenURI","inputs":[{"name":"tokenId","type":"uint256","internalType":"uint256"}],"outputs":[{"name":"","type":"string","internalType":"string"}],"stateMutability":"view"},{"type":"function","name":"totalSupply","inputs":[],"outputs":[{"name":"","type":"uint256","internalType":"uint256"}],"stateMutability":"pure"},{"type":"function","name":"transferFrom","inputs":[{"name":"from","type":"address","internalType":"address"},{"name":"to","type":"address","internalType":"address"},{"name":"tokenId","type":"uint256","internalType":"uint256"}],"outputs":[],"stateMutability":"nonpayable"},{"type":"function","name":"transferOwnership","inputs":[{"name":"newOwner","type":"address","internalType":"address"}],"outputs":[],"stateMutability":"nonpayable"},{"type":"event","name":"Approval","inputs":[{"name":"owner","type":"address","indexed":true,"internalType":"address"},{"name":"approved","type":"address","indexed":true,"internalType":"address"},{"name":"tokenId","type":"uint256","indexed":true,"internalType":"uint256"}],"anonymous":false},{"type":"event","name":"ApprovalForAll","inputs":[{"name":"owner","type":"address","indexed":true,"internalType":"address"},{"name":"operator","type":"address","indexed":true,"internalType":"address"},{"name":"approved","type":"bool","indexed":false,"internalType":"bool"}],"anonymous":false},{"type":"event","name":"BatchMetadataUpdate","inputs":[{"name":"_fromTokenId","type":"uint256","indexed":false,"internalType":"uint256"},{"name":"_toTokenId","type":"uint256","indexed":false,"internalType":"uint256"}],"anonymous":false},{"type":"event","name":"Burned","inputs":[{"name":"tokenOwner","type":"address","indexed":true,"internalType":"address"},{"name":"tokenId","type":"uint256","indexed":true,"internalType":"uint256"},{"name":"givenCode","type":"uint256","indexed":true,"internalType":"uint256"}],"anonymous":false},{"type":"event","name":"MetadataUpdate","inputs":[{"name":"_tokenId","type":"uint256","indexed":false,"internalType":"uint256"}],"anonymous":false},{"type":"event","name":"Minted","inputs":[{"name":"recipient","type":"address","indexed":true,"internalType":"address"},{"name":"tokenId","type":"uint256","indexed":true,"internalType":"uint256"}],"anonymous":false},{"type":"event","name":"OwnershipTransferred","inputs":[{"name":"previousOwner","type":"address","indexed":true,"internalType":"address"},{"name":"newOwner","type":"address","indexed":true,"internalType":"address"}],"anonymous":false},{"type":"event","name":"Transfer","inputs":[{"name":"from","type":"address","indexed":true,"internalType":"address"},{"name":"to","type":"address","indexed":true,"internalType":"address"},{"name":"tokenId","type":"uint256","indexed":true,"internalType":"uint256"}],"anonymous":false},{"type":"error","name":"ERC721EnumerableForbiddenBatchMint","inputs":[]},{"type":"error","name":"ERC721IncorrectOwner","inputs":[{"name":"sender","type":"address","internalType":"address"},{"name":"tokenId","type":"uint256","internalType":"uint256"},{"name":"owner","type":"address","internalType":"address"}]},{"type":"error","name":"ERC721InsufficientApproval","inputs":[{"name":"operator","type":"address","internalType":"address"},{"name":"tokenId","type":"uint256","internalType":"uint256"}]},{"type":"error","name":"ERC721InvalidApprover","inputs":[{"name":"approver","type":"address","internalType":"address"}]},{"type":"error","name":"ERC721InvalidOperator","inputs":[{"name":"operator","type":"address","internalType":"address"}]},{"type":"error","name":"ERC721InvalidOwner","inputs":[{"name":"owner","type":"address","internalType":"address"}]},{"type":"error","name":"ERC721InvalidReceiver","inputs":[{"name":"receiver","type":"address","internalType":"address"}]},{"type":"error","name":"ERC721InvalidSender","inputs":[{"name":"sender","type":"address","internalType":"address"}]},{"type":"error","name":"ERC721NonexistentToken","inputs":[{"name":"tokenId","type":"uint256","internalType":"uint256"}]},{"type":"error","name":"ERC721OutOfBoundsIndex","inputs":[{"name":"owner","type":"address","internalType":"address"},{"name":"index","type":"uint256","internalType":"uint256"}]},{"type":"error","name":"OwnableInvalidOwner","inputs":[{"name":"owner","type":"address","internalType":"address"}]},{"type":"error","name":"OwnableUnauthorizedAccount","inputs":[{"name":"account","type":"address","internalType":"address"}]},{"type":"error","name":"ReentrancyGuardReentrantCall","inputs":[]}],"bytecode":{"object":"0x60806040526658d15e17628000600d553480156200001c57600080fd5b5060405162002dd438038062002dd48339810160408190526200003f91620001a8565b82604051806040016040528060068152602001650ced8d2e8c6d60d31b8152506040518060400160405280600381526020016211d31560ea1b81525081600090816200008c919062000333565b5060016200009b828262000333565b5050506001600160a01b038116620000cd57604051631e4fbdf760e01b81526000600482015260240160405180910390fd5b620000d88162000123565b506001600c556010620000ec828262000333565b5050600e80546001600160a01b039283166001600160a01b031991821617909155600f8054939092169216919091179055620003ff565b600b80546001600160a01b038381166001600160a01b0319831681179093556040519116919082907f8be0079c531659141344cd1fd0a4f28419497f9722a3daafe3b4186f6b6457e090600090a35050565b80516001600160a01b03811681146200018d57600080fd5b919050565b634e487b7160e01b600052604160045260246000fd5b600080600060608486031215620001be57600080fd5b620001c98462000175565b92506020620001da81860162000175565b60408601519093506001600160401b0380821115620001f857600080fd5b818701915087601f8301126200020d57600080fd5b81518181111562000222576200022262000192565b604051601f8201601f19908116603f011681019083821181831017156200024d576200024d62000192565b816040528281528a868487010111156200026657600080fd5b600093505b828410156200028a57848401860151818501870152928501926200026b565b60008684830101528096505050505050509250925092565b600181811c90821680620002b757607f821691505b602082108103620002d857634e487b7160e01b600052602260045260246000fd5b50919050565b601f8211156200032e576000816000526020600020601f850160051c81016020861015620003095750805b601f850160051c820191505b818110156200032a5782815560010162000315565b5050505b505050565b81516001600160401b038111156200034f576200034f62000192565b6200036781620003608454620002a2565b84620002de565b602080601f8311600181146200039f5760008415620003865750858301515b600019600386901b1c1916600185901b1785556200032a565b600085815260208120601f198616915b82811015620003d057888601518255948401946001909101908401620003af565b5085821015620003ef5787850151600019600388901b60f8161c191681555b5050505050600190811b01905550565b6129c5806200040f6000396000f3fe6080604052600436106101fe5760003560e01c806370a082311161011d578063b0526aca116100b0578063cf4188591161007f578063dd5d8e5611610064578063dd5d8e56146105ba578063e985e9c5146105da578063f2fde38b1461062357600080fd5b8063cf41885914610584578063d9f76f311461059a57600080fd5b8063b0526aca14610502578063b88d4fde14610522578063c87abd7b14610542578063c87b56dd1461056457600080fd5b80638da5cb5b116100ec5780638da5cb5b1461048f57806395d89b41146104ad578063a22cb465146104c2578063ae8e3d2f146104e257600080fd5b806370a0823114610427578063715018a6146104475780637e5c3f291461045c578063809b8fad1461047c57600080fd5b80633b54f406116101955780634f6ccce7116101645780634f6ccce7146103b257806355f804b3146103d25780636352211e146103f25780636c0360eb1461041257600080fd5b80633b54f4061461033257806340c10f191461035257806342842e0e1461037257806342966c681461039257600080fd5b80630dab46fe116101d15780630dab46fe146102b457806318160ddd146102d457806323b872dd146102f25780632f745c591461031257600080fd5b806301ffc9a71461020357806306fdde0314610238578063081812fc1461025a578063095ea7b314610292575b600080fd5b34801561020f57600080fd5b5061022361021e3660046121ee565b610643565b60405190151581526020015b60405180910390f35b34801561024457600080fd5b5061024d610654565b60405161022f9190612280565b34801561026657600080fd5b5061027a610275366004612293565b6106e6565b6040516001600160a01b03909116815260200161022f565b34801561029e57600080fd5b506102b26102ad3660046122c8565b61070f565b005b3480156102c057600080fd5b50600e5461027a906001600160a01b031681565b3480156102e057600080fd5b5060325b60405190815260200161022f565b3480156102fe57600080fd5b506102b261030d3660046122f2565b61071e565b34801561031e57600080fd5b506102e461032d3660046122c8565b610737565b34801561033e57600080fd5b5061024d61034d366004612293565b6107ba565b34801561035e57600080fd5b506102b261036d3660046122c8565b61092a565b34801561037e57600080fd5b506102b261038d3660046122f2565b610a77565b34801561039e57600080fd5b506102b26103ad366004612293565b610a92565b3480156103be57600080fd5b506102e46103cd366004612293565b610a9e565b3480156103de57600080fd5b506102b26103ed3660046123f1565b610b09565b3480156103fe57600080fd5b5061027a61040d366004612293565b610b6f565b34801561041e57600080fd5b5061024d610b7a565b34801561043357600080fd5b506102e461044236600461243a565b610c08565b34801561045357600080fd5b506102b2610c69565b34801561046857600080fd5b506102b2610477366004612293565b610c7d565b6102b261048a366004612293565b610d2c565b34801561049b57600080fd5b50600b546001600160a01b031661027a565b3480156104b957600080fd5b5061024d610e9f565b3480156104ce57600080fd5b506102b26104dd366004612455565b610eae565b3480156104ee57600080fd5b506102b26104fd36600461243a565b610eb9565b34801561050e57600080fd5b506102b261051d36600461243a565b610fa3565b34801561052e57600080fd5b506102b261053d366004612491565b611037565b34801561054e57600080fd5b50610557611054565b60405161022f919061250d565b34801561057057600080fd5b5061024d61057f366004612293565b6110c7565b34801561059057600080fd5b506102e4600d5481565b3480156105a657600080fd5b50600f5461027a906001600160a01b031681565b3480156105c657600080fd5b506102b26105d536600461258f565b61110f565b3480156105e657600080fd5b506102236105f53660046125b1565b6001600160a01b03918216600090815260056020908152604080832093909416825291909152205460ff1690565b34801561062f57600080fd5b506102b261063e36600461243a565b6111b0565b600061064e82611204565b92915050565b606060008054610663906125e4565b80601f016020809104026020016040519081016040528092919081815260200182805461068f906125e4565b80156106dc5780601f106106b1576101008083540402835291602001916106dc565b820191906000526020600020905b8154815290600101906020018083116106bf57829003601f168201915b5050505050905090565b60006106f18261125a565b506000828152600460205260409020546001600160a01b031661064e565b61071a8282336112ac565b5050565b610727816112b9565b6107328383836113cc565b505050565b600061074283610c08565b8210610791576040517fa57d13dc0000000000000000000000000000000000000000000000000000000081526001600160a01b0384166004820152602481018390526044015b60405180910390fd5b506001600160a01b03919091166000908152600660209081526040808320938352929052205490565b60008181526011602052604081205460609160ff909116908160038111156107e4576107e4612631565b03610826576040518060400160405280600181526020017f41000000000000000000000000000000000000000000000000000000000000008152509150610924565b600181600381111561083a5761083a612631565b0361087c576040518060400160405280600181526020017f42000000000000000000000000000000000000000000000000000000000000008152509150610924565b600281600381111561089057610890612631565b036108d2576040518060400160405280600181526020017f43000000000000000000000000000000000000000000000000000000000000008152509150610924565b60038160038111156108e6576108e6612631565b03610924576040518060400160405280600181526020017f440000000000000000000000000000000000000000000000000000000000000081525091505b50919050565b600e546001600160a01b031633146109845760405162461bcd60e51b815260206004820152601460248201527f4f6e6c79206d696e7465722063616e206d696e740000000000000000000000006044820152606401610788565b6001600160a01b0382166109da5760405162461bcd60e51b815260206004820152601b60248201527f43616e6e6f74206d696e7420746f207a65726f206164647265737300000000006044820152606401610788565b603281118015906109eb5750600081115b610a375760405162461bcd60e51b815260206004820152601060248201527f4964206f7574206f6620626f756e6473000000000000000000000000000000006044820152606401610788565b60405181906001600160a01b038416907f30385c845b448a36257a6a1716e6ad2e1bc2cbe333cde1e69fe849ad6511adfe90600090a361071a8282611483565b61073283838360405180602001604052806000815250611037565b61071a6000823361149d565b600060328210610ae4576040517fa57d13dc0000000000000000000000000000000000000000000000000000000081526000600482015260248101839052604401610788565b60088281548110610af757610af7612660565b90600052602060002001549050919050565b600b546001600160a01b03163314610b635760405162461bcd60e51b815260206004820152600a60248201527f4f6e6c79206f776e6572000000000000000000000000000000000000000000006044820152606401610788565b601061071a82826126df565b600061064e8261125a565b60108054610b87906125e4565b80601f0160208091040260200160405190810160405280929190818152602001828054610bb3906125e4565b8015610c005780601f10610bd557610100808354040283529160200191610c00565b820191906000526020600020905b815481529060010190602001808311610be357829003601f168201915b505050505081565b60006001600160a01b038216610c4d576040517f89c62b6400000000000000000000000000000000000000000000000000000000815260006004820152602401610788565b506001600160a01b031660009081526003602052604090205490565b610c716114b2565b610c7b60006114f8565b565b600b546001600160a01b03163314610cd75760405162461bcd60e51b815260206004820152600a60248201527f4f6e6c79206f776e6572000000000000000000000000000000000000000000006044820152606401610788565b60008111610d275760405162461bcd60e51b815260206004820152600d60248201527f496e76616c6964207072696365000000000000000000000000000000000000006044820152606401610788565b600d55565b610d34611562565b600d54341015610d865760405162461bcd60e51b815260206004820152600e60248201527f4e6f7420656e6f756768204554480000000000000000000000000000000000006044820152606401610788565b60008181526011602090815260409182902080547fffffffffffffffffffffffffffffffffffffffffffffffffffffffffffffff0016905590518281527ff8e1a15aba9398e019f0b49df1a4fde98ee17ae345cb5f6b5e2c27f5033e8ce7910160405180910390a1600f546040516000916001600160a01b03169034908381818185875af1925050503d8060008114610e3b576040519150601f19603f3d011682016040523d82523d6000602084013e610e40565b606091505b5050905080610e915760405162461bcd60e51b815260206004820152601060248201527f5472616e73666572206661696c65642e000000000000000000000000000000006044820152606401610788565b50610e9c6001600c55565b50565b606060018054610663906125e4565b61071a3383836115a5565b600b546001600160a01b03163314610f135760405162461bcd60e51b815260206004820152600a60248201527f4f6e6c79206f776e6572000000000000000000000000000000000000000000006044820152606401610788565b6001600160a01b038116610f695760405162461bcd60e51b815260206004820152601760248201527f43616e6e6f7420736574207a65726f20616464726573730000000000000000006044820152606401610788565b600f80547fffffffffffffffffffffffff0000000000000000000000000000000000000000166001600160a01b0392909216919091179055565b600b546001600160a01b03163314610ffd5760405162461bcd60e51b815260206004820152600a60248201527f4f6e6c79206f776e6572000000000000000000000000000000000000000000006044820152606401610788565b600e80547fffffffffffffffffffffffff0000000000000000000000000000000000000000166001600160a01b0392909216919091179055565b61104284848461071e565b61104e8484848461167b565b50505050565b6040805160328082526106608201909252606091816020015b606081526020019060019003908161106d57905050905060005b60328110156110c35761109e61034d826001612828565b8282815181106110b0576110b0612660565b6020908102919091010152600101611087565b5090565b60606110d28261125a565b5060106110de836107ba565b6110e78461183e565b6040516020016110f99392919061283b565b6040516020818303038152906040529050919050565b61111882610b6f565b6001600160a01b0316336001600160a01b0316146111785760405162461bcd60e51b815260206004820152601060248201527f4f6e6c7920746f6b656e206f776e6572000000000000000000000000000000006044820152606401610788565b6040518190839033907f23ff0e75edf108e3d0392d92e13e8c8a868ef19001bd49f9e94876dc46dff87f90600090a461071a82610a92565b6111b86114b2565b6001600160a01b0381166111fb576040517f1e4fbdf700000000000000000000000000000000000000000000000000000000815260006004820152602401610788565b610e9c816114f8565b60007fffffffff0000000000000000000000000000000000000000000000000000000082167f4906490600000000000000000000000000000000000000000000000000000000148061064e575061064e826118fc565b6000818152600260205260408120546001600160a01b03168061064e576040517f7e27328900000000000000000000000000000000000000000000000000000000815260048101849052602401610788565b6107328383836001611952565b60008181526011602052604090205460ff1660038160038111156112df576112df612631565b036112e8575050565b60008160038111156112fc576112fc612631565b0361130957506001611347565b600181600381111561131d5761131d612631565b0361132a57506002611347565b600281600381111561133e5761133e612631565b03611347575060035b600082815260116020526040902080548291907fffffffffffffffffffffffffffffffffffffffffffffffffffffffffffffff0016600183600381111561139057611390612631565b02179055506040518281527ff8e1a15aba9398e019f0b49df1a4fde98ee17ae345cb5f6b5e2c27f5033e8ce79060200160405180910390a15050565b6001600160a01b03821661140f576040517f64a0ae9200000000000000000000000000000000000000000000000000000000815260006004820152602401610788565b600061141c83833361149d565b9050836001600160a01b0316816001600160a01b03161461104e576040517f64283d7b0000000000000000000000000000000000000000000000000000000081526001600160a01b0380861660048301526024820184905282166044820152606401610788565b61071a828260405180602001604052806000815250611aa8565b60006114aa848484611abf565b949350505050565b600b546001600160a01b03163314610c7b576040517f118cdaa7000000000000000000000000000000000000000000000000000000008152336004820152602401610788565b600b80546001600160a01b038381167fffffffffffffffffffffffff0000000000000000000000000000000000000000831681179093556040519116919082907f8be0079c531659141344cd1fd0a4f28419497f9722a3daafe3b4186f6b6457e090600090a35050565b6002600c540361159e576040517f3ee5aeb500000000000000000000000000000000000000000000000000000000815260040160405180910390fd5b6002600c55565b6001600160a01b0382166115f0576040517f5b08ba180000000000000000000000000000000000000000000000000000000081526001600160a01b0383166004820152602401610788565b6001600160a01b0383811660008181526005602090815260408083209487168084529482529182902080547fffffffffffffffffffffffffffffffffffffffffffffffffffffffffffffff001686151590811790915591519182527f17307eab39ab6107e8899845ad3d59bd9653f200f220920489ca2b5937696c31910160405180910390a3505050565b6001600160a01b0383163b1561104e576040517f150b7a020000000000000000000000000000000000000000000000000000000081526001600160a01b0384169063150b7a02906116d690339088908790879060040161291d565b6020604051808303816000875af192505050801561172f575060408051601f3d9081017fffffffffffffffffffffffffffffffffffffffffffffffffffffffffffffffe016820190925261172c91810190612959565b60015b6117b1573d80801561175d576040519150601f19603f3d011682016040523d82523d6000602084013e611762565b606091505b5080516000036117a9576040517f64a0ae920000000000000000000000000000000000000000000000000000000081526001600160a01b0385166004820152602401610788565b805181602001fd5b7fffffffff0000000000000000000000000000000000000000000000000000000081167f150b7a020000000000000000000000000000000000000000000000000000000014611837576040517f64a0ae920000000000000000000000000000000000000000000000000000000081526001600160a01b0385166004820152602401610788565b5050505050565b6060600061184b83611b8c565b600101905060008167ffffffffffffffff81111561186b5761186b61232e565b6040519080825280601f01601f191660200182016040528015611895576020820181803683370190505b5090508181016020015b7fffffffffffffffffffffffffffffffffffffffffffffffffffffffffffffffff017f3031323334353637383961626364656600000000000000000000000000000000600a86061a8153600a850494508461189f57509392505050565b60007fffffffff0000000000000000000000000000000000000000000000000000000082167f780e9d6300000000000000000000000000000000000000000000000000000000148061064e575061064e82611c6e565b808061196657506001600160a01b03821615155b15611a605760006119768461125a565b90506001600160a01b038316158015906119a25750826001600160a01b0316816001600160a01b031614155b80156119d457506001600160a01b0380821660009081526005602090815260408083209387168352929052205460ff16155b15611a16576040517fa9fbf51f0000000000000000000000000000000000000000000000000000000081526001600160a01b0384166004820152602401610788565b8115611a5e5783856001600160a01b0316826001600160a01b03167f8c5be1e5ebec7d5bd14f71427d1e84f3dd0314c0f7b2291e5b200ac8c7c3b92560405160405180910390a45b505b5050600090815260046020526040902080547fffffffffffffffffffffffff0000000000000000000000000000000000000000166001600160a01b0392909216919091179055565b611ab28383611d51565b610732600084848461167b565b600080611acd858585611de8565b90506001600160a01b038116611b2a57611b2584600880546000838152600960205260408120829055600182018355919091527ff3f7a9fe364faab93b216da50a3214154f22a0a2b415b23a84c8169e8b636ee30155565b611b4d565b846001600160a01b0316816001600160a01b031614611b4d57611b4d8185611f17565b6001600160a01b038516611b6957611b6484611fa8565b6114aa565b846001600160a01b0316816001600160a01b0316146114aa576114aa8585612057565b6000807a184f03e93ff9f4daa797ed6e38ed64bf6a1f0100000000000000008310611bd5577a184f03e93ff9f4daa797ed6e38ed64bf6a1f010000000000000000830492506040015b6d04ee2d6d415b85acef81000000008310611c01576d04ee2d6d415b85acef8100000000830492506020015b662386f26fc100008310611c1f57662386f26fc10000830492506010015b6305f5e1008310611c37576305f5e100830492506008015b6127108310611c4b57612710830492506004015b60648310611c5d576064830492506002015b600a831061064e5760010192915050565b60007fffffffff0000000000000000000000000000000000000000000000000000000082167f80ac58cd000000000000000000000000000000000000000000000000000000001480611d0157507fffffffff0000000000000000000000000000000000000000000000000000000082167f5b5e139f00000000000000000000000000000000000000000000000000000000145b8061064e57507f01ffc9a7000000000000000000000000000000000000000000000000000000007fffffffff0000000000000000000000000000000000000000000000000000000083161461064e565b6001600160a01b038216611d94576040517f64a0ae9200000000000000000000000000000000000000000000000000000000815260006004820152602401610788565b6000611da28383600061149d565b90506001600160a01b03811615610732576040517f73c6ac6e00000000000000000000000000000000000000000000000000000000815260006004820152602401610788565b6000828152600260205260408120546001600160a01b0390811690831615611e1557611e158184866120a7565b6001600160a01b03811615611e7157611e32600085600080611952565b6001600160a01b038116600090815260036020526040902080547fffffffffffffffffffffffffffffffffffffffffffffffffffffffffffffffff0190555b6001600160a01b03851615611ea0576001600160a01b0385166000908152600360205260409020805460010190555b60008481526002602052604080822080547fffffffffffffffffffffffff0000000000000000000000000000000000000000166001600160a01b0389811691821790925591518793918516917fddf252ad1be2c89b69c2b068fc378daa952ba7f163c4a11628f55a4df523b3ef91a4949350505050565b6000611f2283610c08565b600083815260076020526040902054909150808214611f75576001600160a01b03841660009081526006602090815260408083208584528252808320548484528184208190558352600790915290208190555b5060009182526007602090815260408084208490556001600160a01b039094168352600681528383209183525290812055565b600854600090611fba90600190612976565b60008381526009602052604081205460088054939450909284908110611fe257611fe2612660565b90600052602060002001549050806008838154811061200357612003612660565b600091825260208083209091019290925582815260099091526040808220849055858252812055600880548061203b5761203b612989565b6001900381819060005260206000200160009055905550505050565b6000600161206484610c08565b61206e9190612976565b6001600160a01b039093166000908152600660209081526040808320868452825280832085905593825260079052919091209190915550565b6120b283838361213d565b610732576001600160a01b0383166120f9576040517f7e27328900000000000000000000000000000000000000000000000000000000815260048101829052602401610788565b6040517f177e802f0000000000000000000000000000000000000000000000000000000081526001600160a01b038316600482015260248101829052604401610788565b60006001600160a01b038316158015906114aa5750826001600160a01b0316846001600160a01b0316148061219757506001600160a01b0380851660009081526005602090815260408083209387168352929052205460ff165b806114aa5750506000908152600460205260409020546001600160a01b03908116911614919050565b7fffffffff0000000000000000000000000000000000000000000000000000000081168114610e9c57600080fd5b60006020828403121561220057600080fd5b813561220b816121c0565b9392505050565b60005b8381101561222d578181015183820152602001612215565b50506000910152565b6000815180845261224e816020860160208601612212565b601f017fffffffffffffffffffffffffffffffffffffffffffffffffffffffffffffffe0169290920160200192915050565b60208152600061220b6020830184612236565b6000602082840312156122a557600080fd5b5035919050565b80356001600160a01b03811681146122c357600080fd5b919050565b600080604083850312156122db57600080fd5b6122e4836122ac565b946020939093013593505050565b60008060006060848603121561230757600080fd5b612310846122ac565b925061231e602085016122ac565b9150604084013590509250925092565b7f4e487b7100000000000000000000000000000000000000000000000000000000600052604160045260246000fd5b600067ffffffffffffffff808411156123785761237861232e565b604051601f85017fffffffffffffffffffffffffffffffffffffffffffffffffffffffffffffffe0908116603f011681019082821181831017156123be576123be61232e565b816040528093508581528686860111156123d757600080fd5b858560208301376000602087830101525050509392505050565b60006020828403121561240357600080fd5b813567ffffffffffffffff81111561241a57600080fd5b8201601f8101841361242b57600080fd5b6114aa8482356020840161235d565b60006020828403121561244c57600080fd5b61220b826122ac565b6000806040838503121561246857600080fd5b612471836122ac565b91506020830135801515811461248657600080fd5b809150509250929050565b600080600080608085870312156124a757600080fd5b6124b0856122ac565b93506124be602086016122ac565b925060408501359150606085013567ffffffffffffffff8111156124e157600080fd5b8501601f810187136124f257600080fd5b6125018782356020840161235d565b91505092959194509250565b600060208083016020845280855180835260408601915060408160051b87010192506020870160005b82811015612582577fffffffffffffffffffffffffffffffffffffffffffffffffffffffffffffffc0888603018452612570858351612236565b94509285019290850190600101612536565b5092979650505050505050565b600080604083850312156125a257600080fd5b50508035926020909101359150565b600080604083850312156125c457600080fd5b6125cd836122ac565b91506125db602084016122ac565b90509250929050565b600181811c908216806125f857607f821691505b602082108103610924577f4e487b7100000000000000000000000000000000000000000000000000000000600052602260045260246000fd5b7f4e487b7100000000000000000000000000000000000000000000000000000000600052602160045260246000fd5b7f4e487b7100000000000000000000000000000000000000000000000000000000600052603260045260246000fd5b601f821115610732576000816000526020600020601f850160051c810160208610156126b85750805b601f850160051c820191505b818110156126d7578281556001016126c4565b505050505050565b815167ffffffffffffffff8111156126f9576126f961232e565b61270d8161270784546125e4565b8461268f565b602080601f831160018114612760576000841561272a5750858301515b7fffffffffffffffffffffffffffffffffffffffffffffffffffffffffffffffff600386901b1c1916600185901b1785556126d7565b6000858152602081207fffffffffffffffffffffffffffffffffffffffffffffffffffffffffffffffe08616915b828110156127ad5788860151825594840194600190910190840161278e565b50858210156127e957878501517fffffffffffffffffffffffffffffffffffffffffffffffffffffffffffffffff600388901b60f8161c191681555b5050505050600190811b01905550565b7f4e487b7100000000000000000000000000000000000000000000000000000000600052601160045260246000fd5b8082018082111561064e5761064e6127f9565b6000808554612849816125e4565b600182811680156128615760018114612894576128c3565b7fffffffffffffffffffffffffffffffffffffffffffffffffffffffffffffff00841687528215158302870194506128c3565b8960005260208060002060005b858110156128ba5781548a8201529084019082016128a1565b50505082870194505b5050505084516128d7818360208901612212565b7f2f0000000000000000000000000000000000000000000000000000000000000091019081528351612910816001840160208801612212565b0160010195945050505050565b60006001600160a01b0380871683528086166020840152508360408301526080606083015261294f6080830184612236565b9695505050505050565b60006020828403121561296b57600080fd5b815161220b816121c0565b8181038181111561064e5761064e6127f9565b7f4e487b7100000000000000000000000000000000000000000000000000000000600052603160045260246000fdfea164736f6c6343000817000a","linkReferences":{}},"methodIdentifiers":{"approve(address,uint256)":"095ea7b3","balanceOf(address)":"70a08231","baseURI()":"6c0360eb","burn(uint256)":"42966c68","burnToReedem(uint256,uint256)":"dd5d8e56","fundsReceiverAddress()":"d9f76f31","getAllTokensVersion()":"c87abd7b","getApproved(uint256)":"081812fc","getTokenVersion(uint256)":"3b54f406","isApprovedForAll(address,address)":"e985e9c5","mint(address,uint256)":"40c10f19","minterContractAddress()":"0dab46fe","name()":"06fdde03","owner()":"8da5cb5b","ownerOf(uint256)":"6352211e","refreshToken(uint256)":"809b8fad","refreshTokenPrice()":"cf418859","renounceOwnership()":"715018a6","safeTransferFrom(address,address,uint256)":"42842e0e","safeTransferFrom(address,address,uint256,bytes)":"b88d4fde","setApprovalForAll(address,bool)":"a22cb465","setBaseURI(string)":"55f804b3","setFundsReceiverAddress(address)":"ae8e3d2f","setMinterContractAddress(address)":"b0526aca","setRefreshTokenPrice(uint256)":"7e5c3f29","supportsInterface(bytes4)":"01ffc9a7","symbol()":"95d89b41","tokenByIndex(uint256)":"4f6ccce7","tokenOfOwnerByIndex(address,uint256)":"2f745c59","tokenURI(uint256)":"c87b56dd","totalSupply()":"18160ddd","transferFrom(address,address,uint256)":"23b872dd","transferOwnership(address)":"f2fde38b"},"id":50}