{"abi":[{"type":"constructor","inputs":[{"name":"_initialOwner","type":"address","internalType":"address"},{"name":"_baseUri","type":"string","internalType":"string"},{"name":"_treasuryWallet","type":"address","internalType":"address"}],"stateMutability":"nonpayable"},{"type":"function","name":"DISCOUNT_PERCENTAGE","inputs":[],"outputs":[{"name":"","type":"uint16","internalType":"uint16"}],"stateMutability":"view"},{"type":"function","name":"FREE_CLAIM_AMOUNT","inputs":[],"outputs":[{"name":"","type":"uint8","internalType":"uint8"}],"stateMutability":"view"},{"type":"function","name":"MAX_SUPPLY","inputs":[],"outputs":[{"name":"","type":"uint16","internalType":"uint16"}],"stateMutability":"view"},{"type":"function","name":"approve","inputs":[{"name":"to","type":"address","internalType":"address"},{"name":"tokenId","type":"uint256","internalType":"uint256"}],"outputs":[],"stateMutability":"nonpayable"},{"type":"function","name":"balanceOf","inputs":[{"name":"owner","type":"address","internalType":"address"}],"outputs":[{"name":"","type":"uint256","internalType":"uint256"}],"stateMutability":"view"},{"type":"function","name":"calculatePrice","inputs":[{"name":"_amount","type":"uint8","internalType":"uint8"},{"name":"_isDiscounted","type":"bool","internalType":"bool"}],"outputs":[{"name":"","type":"uint256","internalType":"uint256"}],"stateMutability":"view"},{"type":"function","name":"checkDiscountMerkleProof","inputs":[{"name":"_merkleProof","type":"bytes32[]","internalType":"bytes32[]"},{"name":"_address","type":"address","internalType":"address"}],"outputs":[{"name":"","type":"bool","internalType":"bool"}],"stateMutability":"view"},{"type":"function","name":"checkFreeClaimAllowlist","inputs":[{"name":"_merkleProof","type":"bytes32[]","internalType":"bytes32[]"},{"name":"_address","type":"address","internalType":"address"},{"name":"_amount","type":"uint8","internalType":"uint8"}],"outputs":[{"name":"","type":"bool","internalType":"bool"}],"stateMutability":"view"},{"type":"function","name":"claim","inputs":[{"name":"_recipient","type":"address","internalType":"address"},{"name":"_amount","type":"uint8","internalType":"uint8"},{"name":"proof","type":"bytes32[]","internalType":"bytes32[]"}],"outputs":[],"stateMutability":"nonpayable"},{"type":"function","name":"freeClaimed","inputs":[],"outputs":[{"name":"","type":"uint16","internalType":"uint16"}],"stateMutability":"view"},{"type":"function","name":"fundsReceiverAddress","inputs":[],"outputs":[{"name":"","type":"address","internalType":"address payable"}],"stateMutability":"view"},{"type":"function","name":"getApproved","inputs":[{"name":"tokenId","type":"uint256","internalType":"uint256"}],"outputs":[{"name":"","type":"address","internalType":"address"}],"stateMutability":"view"},{"type":"function","name":"getConfig","inputs":[],"outputs":[{"name":"","type":"tuple","internalType":"struct GlitchyGridGrid.Config","components":[{"name":"startTime","type":"uint256","internalType":"uint256"},{"name":"endTime","type":"uint256","internalType":"uint256"}]}],"stateMutability":"view"},{"type":"function","name":"isApprovedForAll","inputs":[{"name":"owner","type":"address","internalType":"address"},{"name":"operator","type":"address","internalType":"address"}],"outputs":[{"name":"","type":"bool","internalType":"bool"}],"stateMutability":"view"},{"type":"function","name":"mint","inputs":[{"name":"_recipient","type":"address","internalType":"address"},{"name":"_amount","type":"uint8","internalType":"uint8"},{"name":"_merkleProof","type":"bytes32[]","internalType":"bytes32[]"}],"outputs":[],"stateMutability":"payable"},{"type":"function","name":"name","inputs":[],"outputs":[{"name":"","type":"string","internalType":"string"}],"stateMutability":"view"},{"type":"function","name":"owner","inputs":[],"outputs":[{"name":"","type":"address","internalType":"address"}],"stateMutability":"view"},{"type":"function","name":"ownerMint","inputs":[{"name":"_recipient","type":"address","internalType":"address"},{"name":"_amount","type":"uint16","internalType":"uint16"}],"outputs":[],"stateMutability":"nonpayable"},{"type":"function","name":"ownerOf","inputs":[{"name":"tokenId","type":"uint256","internalType":"uint256"}],"outputs":[{"name":"","type":"address","internalType":"address"}],"stateMutability":"view"},{"type":"function","name":"regularMinted","inputs":[],"outputs":[{"name":"","type":"uint16","internalType":"uint16"}],"stateMutability":"view"},{"type":"function","name":"renounceOwnership","inputs":[],"outputs":[],"stateMutability":"nonpayable"},{"type":"function","name":"safeTransferFrom","inputs":[{"name":"from","type":"address","internalType":"address"},{"name":"to","type":"address","internalType":"address"},{"name":"tokenId","type":"uint256","internalType":"uint256"}],"outputs":[],"stateMutability":"nonpayable"},{"type":"function","name":"safeTransferFrom","inputs":[{"name":"from","type":"address","internalType":"address"},{"name":"to","type":"address","internalType":"address"},{"name":"tokenId","type":"uint256","internalType":"uint256"},{"name":"data","type":"bytes","internalType":"bytes"}],"outputs":[],"stateMutability":"nonpayable"},{"type":"function","name":"setApprovalForAll","inputs":[{"name":"operator","type":"address","internalType":"address"},{"name":"approved","type":"bool","internalType":"bool"}],"outputs":[],"stateMutability":"nonpayable"},{"type":"function","name":"setBaseURI","inputs":[{"name":"_newBaseURI","type":"string","internalType":"string"}],"outputs":[],"stateMutability":"nonpayable"},{"type":"function","name":"setConfig","inputs":[{"name":"_startTime","type":"uint256","internalType":"uint256"},{"name":"_endTime","type":"uint256","internalType":"uint256"}],"outputs":[],"stateMutability":"nonpayable"},{"type":"function","name":"setDiscountAllowlistRoot","inputs":[{"name":"_allowlistRoot","type":"bytes32","internalType":"bytes32"}],"outputs":[],"stateMutability":"nonpayable"},{"type":"function","name":"setFreeClaimAllowlistRoot","inputs":[{"name":"_allowlistRoot","type":"bytes32","internalType":"bytes32"}],"outputs":[],"stateMutability":"nonpayable"},{"type":"function","name":"setFundsReceiverAddress","inputs":[{"name":"newFundsReceiverAddress","type":"address","internalType":"address"}],"outputs":[],"stateMutability":"nonpayable"},{"type":"function","name":"setTokenPrice","inputs":[{"name":"_tokenPrice","type":"uint256","internalType":"uint256"}],"outputs":[],"stateMutability":"nonpayable"},{"type":"function","name":"supportsInterface","inputs":[{"name":"_interfaceId","type":"bytes4","internalType":"bytes4"}],"outputs":[{"name":"","type":"bool","internalType":"bool"}],"stateMutability":"view"},{"type":"function","name":"symbol","inputs":[],"outputs":[{"name":"","type":"string","internalType":"string"}],"stateMutability":"view"},{"type":"function","name":"tokenByIndex","inputs":[{"name":"index","type":"uint256","internalType":"uint256"}],"outputs":[{"name":"","type":"uint256","internalType":"uint256"}],"stateMutability":"view"},{"type":"function","name":"tokenOfOwnerByIndex","inputs":[{"name":"owner","type":"address","internalType":"address"},{"name":"index","type":"uint256","internalType":"uint256"}],"outputs":[{"name":"","type":"uint256","internalType":"uint256"}],"stateMutability":"view"},{"type":"function","name":"tokenPrice","inputs":[],"outputs":[{"name":"","type":"uint256","internalType":"uint256"}],"stateMutability":"view"},{"type":"function","name":"tokenURI","inputs":[{"name":"tokenId","type":"uint256","internalType":"uint256"}],"outputs":[{"name":"","type":"string","internalType":"string"}],"stateMutability":"view"},{"type":"function","name":"totalSupply","inputs":[],"outputs":[{"name":"","type":"uint256","internalType":"uint256"}],"stateMutability":"view"},{"type":"function","name":"transferFrom","inputs":[{"name":"from","type":"address","internalType":"address"},{"name":"to","type":"address","internalType":"address"},{"name":"tokenId","type":"uint256","internalType":"uint256"}],"outputs":[],"stateMutability":"nonpayable"},{"type":"function","name":"transferOwnership","inputs":[{"name":"newOwner","type":"address","internalType":"address"}],"outputs":[],"stateMutability":"nonpayable"},{"type":"function","name":"withdraw","inputs":[],"outputs":[],"stateMutability":"nonpayable"},{"type":"event","name":"Approval","inputs":[{"name":"owner","type":"address","indexed":true,"internalType":"address"},{"name":"approved","type":"address","indexed":true,"internalType":"address"},{"name":"tokenId","type":"uint256","indexed":true,"internalType":"uint256"}],"anonymous":false},{"type":"event","name":"ApprovalForAll","inputs":[{"name":"owner","type":"address","indexed":true,"internalType":"address"},{"name":"operator","type":"address","indexed":true,"internalType":"address"},{"name":"approved","type":"bool","indexed":false,"internalType":"bool"}],"anonymous":false},{"type":"event","name":"BatchMetadataUpdate","inputs":[{"name":"_fromTokenId","type":"uint256","indexed":false,"internalType":"uint256"},{"name":"_toTokenId","type":"uint256","indexed":false,"internalType":"uint256"}],"anonymous":false},{"type":"event","name":"MetadataUpdate","inputs":[{"name":"_tokenId","type":"uint256","indexed":false,"internalType":"uint256"}],"anonymous":false},{"type":"event","name":"OwnershipTransferred","inputs":[{"name":"previousOwner","type":"address","indexed":true,"internalType":"address"},{"name":"newOwner","type":"address","indexed":true,"internalType":"address"}],"anonymous":false},{"type":"event","name":"TokenClaimed","inputs":[{"name":"recipient","type":"address","indexed":false,"internalType":"address"},{"name":"amount","type":"uint16","indexed":false,"internalType":"uint16"}],"anonymous":false},{"type":"event","name":"TokenMinted","inputs":[{"name":"recipient","type":"address","indexed":false,"internalType":"address"},{"name":"amount","type":"uint16","indexed":false,"internalType":"uint16"}],"anonymous":false},{"type":"event","name":"Transfer","inputs":[{"name":"from","type":"address","indexed":true,"internalType":"address"},{"name":"to","type":"address","indexed":true,"internalType":"address"},{"name":"tokenId","type":"uint256","indexed":true,"internalType":"uint256"}],"anonymous":false},{"type":"error","name":"AddressInsufficientBalance","inputs":[{"name":"account","type":"address","internalType":"address"}]},{"type":"error","name":"ConfigNotSet","inputs":[]},{"type":"error","name":"ERC721EnumerableForbiddenBatchMint","inputs":[]},{"type":"error","name":"ERC721IncorrectOwner","inputs":[{"name":"sender","type":"address","internalType":"address"},{"name":"tokenId","type":"uint256","internalType":"uint256"},{"name":"owner","type":"address","internalType":"address"}]},{"type":"error","name":"ERC721InsufficientApproval","inputs":[{"name":"operator","type":"address","internalType":"address"},{"name":"tokenId","type":"uint256","internalType":"uint256"}]},{"type":"error","name":"ERC721InvalidApprover","inputs":[{"name":"approver","type":"address","internalType":"address"}]},{"type":"error","name":"ERC721InvalidOperator","inputs":[{"name":"operator","type":"address","internalType":"address"}]},{"type":"error","name":"ERC721InvalidOwner","inputs":[{"name":"owner","type":"address","internalType":"address"}]},{"type":"error","name":"ERC721InvalidReceiver","inputs":[{"name":"receiver","type":"address","internalType":"address"}]},{"type":"error","name":"ERC721InvalidSender","inputs":[{"name":"sender","type":"address","internalType":"address"}]},{"type":"error","name":"ERC721NonexistentToken","inputs":[{"name":"tokenId","type":"uint256","internalType":"uint256"}]},{"type":"error","name":"ERC721OutOfBoundsIndex","inputs":[{"name":"owner","type":"address","internalType":"address"},{"name":"index","type":"uint256","internalType":"uint256"}]},{"type":"error","name":"FailedInnerCall","inputs":[]},{"type":"error","name":"FreeClaimedExceeded","inputs":[]},{"type":"error","name":"InsufficientFunds","inputs":[]},{"type":"error","name":"InvalidProof","inputs":[]},{"type":"error","name":"InvalidStartEndTime","inputs":[{"name":"startTime","type":"uint256","internalType":"uint256"},{"name":"endTime","type":"uint256","internalType":"uint256"}]},{"type":"error","name":"MaxNumberOfMintedTokensExceeded","inputs":[]},{"type":"error","name":"MaxSupplyExceeded","inputs":[]},{"type":"error","name":"OnlyMinter","inputs":[]},{"type":"error","name":"OnlyOwner","inputs":[]},{"type":"error","name":"OwnableInvalidOwner","inputs":[{"name":"owner","type":"address","internalType":"address"}]},{"type":"error","name":"OwnableUnauthorizedAccount","inputs":[{"name":"account","type":"address","internalType":"address"}]},{"type":"error","name":"RegularMintedExceeded","inputs":[]},{"type":"error","name":"ZeroAddress","inputs":[]}],"bytecode":{"object":"0x60806040526658d15e17628000600f553480156200001c57600080fd5b506040516200332d3803806200332d8339810160408190526200003f91620001a1565b826040518060400160405280601181526020017019db1a5d18da1e4819dc9a590819dc9a59607a1b8152506040518060400160405280600381526020016247474760e81b81525081600090816200009791906200032d565b506001620000a682826200032d565b5050506001600160a01b038116620000d857604051631e4fbdf760e01b81526000600482015260240160405180910390fd5b620000e3816200011c565b50600d620000f283826200032d565b50601080546001600160a01b0319166001600160a01b039290921691909117905550620003f99050565b600b80546001600160a01b038381166001600160a01b0319831681179093556040519116919082907f8be0079c531659141344cd1fd0a4f28419497f9722a3daafe3b4186f6b6457e090600090a35050565b80516001600160a01b03811681146200018657600080fd5b919050565b634e487b7160e01b600052604160045260246000fd5b600080600060608486031215620001b757600080fd5b620001c2846200016e565b602085810151919450906001600160401b0380821115620001e257600080fd5b818701915087601f830112620001f757600080fd5b8151818111156200020c576200020c6200018b565b604051601f8201601f19908116603f011681019083821181831017156200023757620002376200018b565b816040528281528a868487010111156200025057600080fd5b600093505b8284101562000274578484018601518185018701529285019262000255565b600086848301015280975050505050505062000293604085016200016e565b90509250925092565b600181811c90821680620002b157607f821691505b602082108103620002d257634e487b7160e01b600052602260045260246000fd5b50919050565b601f82111562000328576000816000526020600020601f850160051c81016020861015620003035750805b601f850160051c820191505b8181101562000324578281556001016200030f565b5050505b505050565b81516001600160401b038111156200034957620003496200018b565b62000361816200035a84546200029c565b84620002d8565b602080601f831160018114620003995760008415620003805750858301515b600019600386901b1c1916600185901b17855562000324565b600085815260208120601f198616915b82811015620003ca57888601518255948401946001909101908401620003a9565b5085821015620003e95787850151600019600388901b60f8161c191681555b5050505050600190811b01905550565b612f2480620004096000396000f3fe6080604052600436106102ba5760003560e01c806370a082311161016e578063af760d6c116100cb578063d9f76f311161007f578063e985e9c511610064578063e985e9c51461078e578063f2fde38b146107d7578063f9628b7c146107f757600080fd5b8063d9f76f311461074e578063e23870281461076e57600080fd5b8063b88d4fde116100b0578063b88d4fde146106c3578063c3f909d4146106e3578063c87b56dd1461072e57600080fd5b8063af760d6c14610687578063b2af06f91461069c57600080fd5b80638da5cb5b11610122578063a22cb46511610107578063a22cb46514610627578063aa981b4814610647578063ae8e3d2f1461066757600080fd5b80638da5cb5b146105f457806395d89b411461061257600080fd5b80637ab05865116101535780637ab058651461059e5780637ff9b596146105be57806389b08d30146105d457600080fd5b806370a0823114610569578063715018a61461058957600080fd5b80632ad74e121161021c5780634f6ccce7116101d057806355f804b3116101b557806355f804b3146105095780636352211e146105295780636a61e5fc1461054957600080fd5b80634f6ccce7146104c957806353493a0e146104e957600080fd5b806332cb6b0c1161020157806332cb6b0c1461047e5780633ccfd60b1461049457806342842e0e146104a957600080fd5b80632ad74e121461043d5780632f745c591461045e57600080fd5b806318160ddd116102735780631e34c585116102585780631e34c585146103dd57806323b872dd146103fd578063295439e11461041d57600080fd5b806318160ddd146103905780631b47ec3a146103af57600080fd5b806306fdde03116102a457806306fdde0314610316578063081812fc14610338578063095ea7b31461037057600080fd5b8062fc92b9146102bf57806301ffc9a7146102e1575b600080fd5b3480156102cb57600080fd5b506102df6102da36600461257b565b61080a565b005b3480156102ed57600080fd5b506103016102fc3660046125c2565b610853565b60405190151581526020015b60405180910390f35b34801561032257600080fd5b5061032b610864565b60405161030d919061262f565b34801561034457600080fd5b5061035861035336600461257b565b6108f6565b6040516001600160a01b03909116815260200161030d565b34801561037c57600080fd5b506102df61038b36600461265e565b61091f565b34801561039c57600080fd5b506008545b60405190815260200161030d565b3480156103bb57600080fd5b506015546103ca9061ffff1681565b60405161ffff909116815260200161030d565b3480156103e957600080fd5b506102df6103f8366004612688565b61092e565b34801561040957600080fd5b506102df6104183660046126aa565b6109e3565b34801561042957600080fd5b506102df6104383660046126e6565b610aa0565b34801561044957600080fd5b506015546103ca9062010000900461ffff1681565b34801561046a57600080fd5b506103a161047936600461265e565b610aee565b34801561048a57600080fd5b506103ca6101fe81565b3480156104a057600080fd5b506102df610b6c565b3480156104b557600080fd5b506102df6104c43660046126aa565b610bc8565b3480156104d557600080fd5b506103a16104e436600461257b565b610be8565b3480156104f557600080fd5b50610301610504366004612770565b610c5a565b34801561051557600080fd5b506102df610524366004612869565b610cf3565b34801561053557600080fd5b5061035861054436600461257b565b610d43565b34801561055557600080fd5b506102df61056436600461257b565b610d4e565b34801561057557600080fd5b506103a16105843660046128b2565b610d97565b34801561059557600080fd5b506102df610df8565b3480156105aa57600080fd5b506103016105b93660046128de565b610e0a565b3480156105ca57600080fd5b506103a1600f5481565b3480156105e057600080fd5b506102df6105ef36600461257b565b610f27565b34801561060057600080fd5b50600b546001600160a01b0316610358565b34801561061e57600080fd5b5061032b610f70565b34801561063357600080fd5b506102df610642366004612953565b610f7f565b34801561065357600080fd5b506103a1610662366004612986565b610f8a565b34801561067357600080fd5b506102df6106823660046128b2565b610fd5565b34801561069357600080fd5b506103ca600f81565b3480156106a857600080fd5b506106b1602981565b60405160ff909116815260200161030d565b3480156106cf57600080fd5b506102df6106de3660046129a2565b611093565b3480156106ef57600080fd5b5060408051808201825260008082526020918201528151808301835260135480825260145491830191825283519081529051918101919091520161030d565b34801561073a57600080fd5b5061032b61074936600461257b565b6110aa565b34801561075a57600080fd5b50601054610358906001600160a01b031681565b34801561077a57600080fd5b506102df610789366004612a1e565b6110e8565b34801561079a57600080fd5b506103016107a9366004612a7f565b6001600160a01b03918216600090815260056020908152604080832093909416825291909152205460ff1690565b3480156107e357600080fd5b506102df6107f23660046128b2565b61132e565b6102df610805366004612a1e565b611385565b600b546001600160a01b0316331461084e576040517f5fc483c500000000000000000000000000000000000000000000000000000000815260040160405180910390fd5b601255565b600061085e82611592565b92915050565b60606000805461087390612aa9565b80601f016020809104026020016040519081016040528092919081815260200182805461089f90612aa9565b80156108ec5780601f106108c1576101008083540402835291602001916108ec565b820191906000526020600020905b8154815290600101906020018083116108cf57829003601f168201915b5050505050905090565b6000610901826115e8565b506000828152600460205260409020546001600160a01b031661085e565b61092a82823361163a565b5050565b600b546001600160a01b03163314610972576040517f5fc483c500000000000000000000000000000000000000000000000000000000815260040160405180910390fd5b81158061097f5750808210155b156109c5576040517f2221fc9c00000000000000000000000000000000000000000000000000000000815260048101839052602481018290526044015b60405180910390fd5b60408051808201909152828152602001819052601391909155601455565b6001600160a01b038216610a26576040517f64a0ae92000000000000000000000000000000000000000000000000000000008152600060048201526024016109bc565b6000610a33838333611647565b9050836001600160a01b0316816001600160a01b031614610a9a576040517f64283d7b0000000000000000000000000000000000000000000000000000000081526001600160a01b03808616600483015260248201849052821660448201526064016109bc565b50505050565b600b546001600160a01b03163314610ae4576040517f5fc483c500000000000000000000000000000000000000000000000000000000815260040160405180910390fd5b61092a828261165c565b6000610af983610d97565b8210610b43576040517fa57d13dc0000000000000000000000000000000000000000000000000000000081526001600160a01b0384166004820152602481018390526044016109bc565b506001600160a01b03919091166000908152600660209081526040808320938352929052205490565b600b546001600160a01b03163314610bb0576040517f5fc483c500000000000000000000000000000000000000000000000000000000815260040160405180910390fd5b601054610bc6906001600160a01b03164761176a565b565b610be383838360405180602001604052806000815250611093565b505050565b6000610bf360085490565b8210610c35576040517fa57d13dc00000000000000000000000000000000000000000000000000000000815260006004820152602481018390526044016109bc565b60088281548110610c4857610c48612afc565b90600052602060002001549050919050565b6040517fffffffffffffffffffffffffffffffffffffffff000000000000000000000000606083901b1660208201526000908190603401604051602081830303815290604052805190602001209050610cea858580806020026020016040519081016040528093929190818152602001838360200280828437600092019190915250506011549150849050611833565b95945050505050565b600b546001600160a01b03163314610d37576040517f5fc483c500000000000000000000000000000000000000000000000000000000815260040160405180910390fd5b600d61092a8282612b7b565b600061085e826115e8565b600b546001600160a01b03163314610d92576040517f5fc483c500000000000000000000000000000000000000000000000000000000815260040160405180910390fd5b600f55565b60006001600160a01b038216610ddc576040517f89c62b64000000000000000000000000000000000000000000000000000000008152600060048201526024016109bc565b506001600160a01b031660009081526003602052604090205490565b610e00611849565b610bc6600061188f565b604080516001600160a01b038416602082015260ff831691810191909152600090819060600160408051601f1981840301815282825280516020918201209083015201604051602081830303815290604052805190602001209050600e60008787604051602001610e7c929190612c77565b60408051601f198184030181529181528151602092830120835290820192909252016000205460ff1615610edc576040517f09bde33900000000000000000000000000000000000000000000000000000000815260040160405180910390fd5b610f1d868680806020026020016040519081016040528093929190818152602001838360200280828437600092019190915250506012549150849050611833565b9695505050505050565b600b546001600160a01b03163314610f6b576040517f5fc483c500000000000000000000000000000000000000000000000000000000815260040160405180910390fd5b601155565b60606001805461087390612aa9565b61092a3383836118f9565b6000808360ff16600f54610f9e9190612ce8565b90508215610fce576064610fb3600f82612cff565b610fc19061ffff1683612ce8565b610fcb9190612d21565b90505b9392505050565b600b546001600160a01b03163314611019576040517f5fc483c500000000000000000000000000000000000000000000000000000000815260040160405180910390fd5b6001600160a01b038116611059576040517fd92e233d00000000000000000000000000000000000000000000000000000000815260040160405180910390fd5b601080547fffffffffffffffffffffffff0000000000000000000000000000000000000000166001600160a01b0392909216919091179055565b61109e8484846109e3565b610a9a848484846119cf565b60606110b5826115e8565b50600d6110c183611b6d565b6040516020016110d2929190612d5c565b6040516020818303038152906040529050919050565b601354600003611124576040517face124bc00000000000000000000000000000000000000000000000000000000815260040160405180910390fd5b604080518082019091526013548152601454602082018190524210158061114c575080514211155b1561119357805160208201516040517f2221fc9c000000000000000000000000000000000000000000000000000000008152600481019290925260248201526044016109bc565b6015546029906111ab9060ff87169061ffff16612e01565b61ffff1611156111e7576040517f94578c2400000000000000000000000000000000000000000000000000000000815260040160405180910390fd5b6111f383838787610e0a565b611229576040517f09bde33900000000000000000000000000000000000000000000000000000000815260040160405180910390fd5b6001600e60008585604051602001611242929190612c77565b60408051808303601f19018152918152815160209283012083529082019290925201600090812080547fffffffffffffffffffffffffffffffffffffffffffffffffffffffffffffff0016921515929092179091556015805460ff871692906112b090849061ffff16612e01565b92506101000a81548161ffff021916908361ffff1602179055507f88313928f1dbadec0c20b84f12b7ed8c6643f37f0f7c7e2e00ad0a6ae5c69c8585856040516113129291906001600160a01b0392909216825260ff16602082015260400190565b60405180910390a1611327858560ff1661165c565b5050505050565b611336611849565b6001600160a01b038116611379576040517f1e4fbdf7000000000000000000000000000000000000000000000000000000008152600060048201526024016109bc565b6113828161188f565b50565b6013546000036113c1576040517face124bc00000000000000000000000000000000000000000000000000000000815260040160405180910390fd5b60408051808201909152601354815260145460208201819052421015806113e9575080514211155b1561143057805160208201516040517f2221fc9c000000000000000000000000000000000000000000000000000000008152600481019290925260248201526044016109bc565b61143d60296101fe612cff565b60155461ffff9182169161145d9160ff8816916201000090910416612e01565b61ffff161115611499576040517fe190bbde00000000000000000000000000000000000000000000000000000000815260040160405180910390fd5b60006114a6848433610c5a565b905060006114b48683610f8a565b9050803410156114f0576040517f356680b700000000000000000000000000000000000000000000000000000000815260040160405180910390fd5b8560ff16601560028282829054906101000a900461ffff166115129190612e01565b92506101000a81548161ffff021916908361ffff1602179055507f91de6807059d965565527b1521c54271af4eea115734d20551013741310725cc87876040516115749291906001600160a01b0392909216825260ff16602082015260400190565b60405180910390a1611589878760ff1661165c565b50505050505050565b60007fffffffff0000000000000000000000000000000000000000000000000000000082167f4906490600000000000000000000000000000000000000000000000000000000148061085e575061085e82611c2b565b6000818152600260205260408120546001600160a01b03168061085e576040517f7e273289000000000000000000000000000000000000000000000000000000008152600481018490526024016109bc565b610be38383836001611c81565b6000611654848484611dd7565b949350505050565b6001600160a01b03821661169c576040517fd92e233d00000000000000000000000000000000000000000000000000000000815260040160405180910390fd5b600a61ffff821611156116db576040517f9b61b77500000000000000000000000000000000000000000000000000000000815260040160405180910390fd5b600c546101fe906116f19061ffff841690612e1c565b1115611729576040517f8a164f6300000000000000000000000000000000000000000000000000000000815260040160405180910390fd5b60005b8161ffff168160ff161015610be35761175883600c6000815461174e90612e2f565b9182905550611ea4565b8061176281612e67565b91505061172c565b804710156117a6576040517fcd7860590000000000000000000000000000000000000000000000000000000081523060048201526024016109bc565b6000826001600160a01b03168260405160006040518083038185875af1925050503d80600081146117f3576040519150601f19603f3d011682016040523d82523d6000602084013e6117f8565b606091505b5050905080610be3576040517f1425ea4200000000000000000000000000000000000000000000000000000000815260040160405180910390fd5b6000826118408584611ebe565b14949350505050565b600b546001600160a01b03163314610bc6576040517f118cdaa70000000000000000000000000000000000000000000000000000000081523360048201526024016109bc565b600b80546001600160a01b038381167fffffffffffffffffffffffff0000000000000000000000000000000000000000831681179093556040519116919082907f8be0079c531659141344cd1fd0a4f28419497f9722a3daafe3b4186f6b6457e090600090a35050565b6001600160a01b038216611944576040517f5b08ba180000000000000000000000000000000000000000000000000000000081526001600160a01b03831660048201526024016109bc565b6001600160a01b0383811660008181526005602090815260408083209487168084529482529182902080547fffffffffffffffffffffffffffffffffffffffffffffffffffffffffffffff001686151590811790915591519182527f17307eab39ab6107e8899845ad3d59bd9653f200f220920489ca2b5937696c31910160405180910390a3505050565b6001600160a01b0383163b15610a9a576040517f150b7a020000000000000000000000000000000000000000000000000000000081526001600160a01b0384169063150b7a0290611a2a903390889087908790600401612e86565b6020604051808303816000875af1925050508015611a65575060408051601f3d908101601f19168201909252611a6291810190612eb8565b60015b611ae7573d808015611a93576040519150601f19603f3d011682016040523d82523d6000602084013e611a98565b606091505b508051600003611adf576040517f64a0ae920000000000000000000000000000000000000000000000000000000081526001600160a01b03851660048201526024016109bc565b805181602001fd5b7fffffffff0000000000000000000000000000000000000000000000000000000081167f150b7a020000000000000000000000000000000000000000000000000000000014611327576040517f64a0ae920000000000000000000000000000000000000000000000000000000081526001600160a01b03851660048201526024016109bc565b60606000611b7a83611f01565b600101905060008167ffffffffffffffff811115611b9a57611b9a6127c4565b6040519080825280601f01601f191660200182016040528015611bc4576020820181803683370190505b5090508181016020015b7fffffffffffffffffffffffffffffffffffffffffffffffffffffffffffffffff017f3031323334353637383961626364656600000000000000000000000000000000600a86061a8153600a8504945084611bce57509392505050565b60007fffffffff0000000000000000000000000000000000000000000000000000000082167f780e9d6300000000000000000000000000000000000000000000000000000000148061085e575061085e82611fe3565b8080611c9557506001600160a01b03821615155b15611d8f576000611ca5846115e8565b90506001600160a01b03831615801590611cd15750826001600160a01b0316816001600160a01b031614155b8015611d0357506001600160a01b0380821660009081526005602090815260408083209387168352929052205460ff16155b15611d45576040517fa9fbf51f0000000000000000000000000000000000000000000000000000000081526001600160a01b03841660048201526024016109bc565b8115611d8d5783856001600160a01b0316826001600160a01b03167f8c5be1e5ebec7d5bd14f71427d1e84f3dd0314c0f7b2291e5b200ac8c7c3b92560405160405180910390a45b505b5050600090815260046020526040902080547fffffffffffffffffffffffff0000000000000000000000000000000000000000166001600160a01b0392909216919091179055565b600080611de58585856120c6565b90506001600160a01b038116611e4257611e3d84600880546000838152600960205260408120829055600182018355919091527ff3f7a9fe364faab93b216da50a3214154f22a0a2b415b23a84c8169e8b636ee30155565b611e65565b846001600160a01b0316816001600160a01b031614611e6557611e6581856121f5565b6001600160a01b038516611e8157611e7c84612286565b611654565b846001600160a01b0316816001600160a01b031614611654576116548585612335565b61092a828260405180602001604052806000815250612385565b600081815b8451811015611ef957611eef82868381518110611ee257611ee2612afc565b602002602001015161239c565b9150600101611ec3565b509392505050565b6000807a184f03e93ff9f4daa797ed6e38ed64bf6a1f0100000000000000008310611f4a577a184f03e93ff9f4daa797ed6e38ed64bf6a1f010000000000000000830492506040015b6d04ee2d6d415b85acef81000000008310611f76576d04ee2d6d415b85acef8100000000830492506020015b662386f26fc100008310611f9457662386f26fc10000830492506010015b6305f5e1008310611fac576305f5e100830492506008015b6127108310611fc057612710830492506004015b60648310611fd2576064830492506002015b600a831061085e5760010192915050565b60007fffffffff0000000000000000000000000000000000000000000000000000000082167f80ac58cd00000000000000000000000000000000000000000000000000000000148061207657507fffffffff0000000000000000000000000000000000000000000000000000000082167f5b5e139f00000000000000000000000000000000000000000000000000000000145b8061085e57507f01ffc9a7000000000000000000000000000000000000000000000000000000007fffffffff0000000000000000000000000000000000000000000000000000000083161461085e565b6000828152600260205260408120546001600160a01b03908116908316156120f3576120f38184866123cb565b6001600160a01b0381161561214f57612110600085600080611c81565b6001600160a01b038116600090815260036020526040902080547fffffffffffffffffffffffffffffffffffffffffffffffffffffffffffffffff0190555b6001600160a01b0385161561217e576001600160a01b0385166000908152600360205260409020805460010190555b60008481526002602052604080822080547fffffffffffffffffffffffff0000000000000000000000000000000000000000166001600160a01b0389811691821790925591518793918516917fddf252ad1be2c89b69c2b068fc378daa952ba7f163c4a11628f55a4df523b3ef91a4949350505050565b600061220083610d97565b600083815260076020526040902054909150808214612253576001600160a01b03841660009081526006602090815260408083208584528252808320548484528184208190558352600790915290208190555b5060009182526007602090815260408084208490556001600160a01b039094168352600681528383209183525290812055565b60085460009061229890600190612ed5565b600083815260096020526040812054600880549394509092849081106122c0576122c0612afc565b9060005260206000200154905080600883815481106122e1576122e1612afc565b600091825260208083209091019290925582815260099091526040808220849055858252812055600880548061231957612319612ee8565b6001900381819060005260206000200160009055905550505050565b6000600161234284610d97565b61234c9190612ed5565b6001600160a01b039093166000908152600660209081526040808320868452825280832085905593825260079052919091209190915550565b61238f8383612461565b610be360008484846119cf565b60008183106123b8576000828152602084905260409020610fce565b6000838152602083905260409020610fce565b6123d68383836124f8565b610be3576001600160a01b03831661241d576040517f7e273289000000000000000000000000000000000000000000000000000000008152600481018290526024016109bc565b6040517f177e802f0000000000000000000000000000000000000000000000000000000081526001600160a01b0383166004820152602481018290526044016109bc565b6001600160a01b0382166124a4576040517f64a0ae92000000000000000000000000000000000000000000000000000000008152600060048201526024016109bc565b60006124b283836000611647565b90506001600160a01b03811615610be3576040517f73c6ac6e000000000000000000000000000000000000000000000000000000008152600060048201526024016109bc565b60006001600160a01b038316158015906116545750826001600160a01b0316846001600160a01b0316148061255257506001600160a01b0380851660009081526005602090815260408083209387168352929052205460ff165b806116545750506000908152600460205260409020546001600160a01b03908116911614919050565b60006020828403121561258d57600080fd5b5035919050565b7fffffffff000000000000000000000000000000000000000000000000000000008116811461138257600080fd5b6000602082840312156125d457600080fd5b8135610fce81612594565b60005b838110156125fa5781810151838201526020016125e2565b50506000910152565b6000815180845261261b8160208601602086016125df565b601f01601f19169290920160200192915050565b602081526000610fce6020830184612603565b80356001600160a01b038116811461265957600080fd5b919050565b6000806040838503121561267157600080fd5b61267a83612642565b946020939093013593505050565b6000806040838503121561269b57600080fd5b50508035926020909101359150565b6000806000606084860312156126bf57600080fd5b6126c884612642565b92506126d660208501612642565b9150604084013590509250925092565b600080604083850312156126f957600080fd5b61270283612642565b9150602083013561ffff8116811461271957600080fd5b809150509250929050565b60008083601f84011261273657600080fd5b50813567ffffffffffffffff81111561274e57600080fd5b6020830191508360208260051b850101111561276957600080fd5b9250929050565b60008060006040848603121561278557600080fd5b833567ffffffffffffffff81111561279c57600080fd5b6127a886828701612724565b90945092506127bb905060208501612642565b90509250925092565b7f4e487b7100000000000000000000000000000000000000000000000000000000600052604160045260246000fd5b600067ffffffffffffffff8084111561280e5761280e6127c4565b604051601f8501601f19908116603f01168101908282118183101715612836576128366127c4565b8160405280935085815286868601111561284f57600080fd5b858560208301376000602087830101525050509392505050565b60006020828403121561287b57600080fd5b813567ffffffffffffffff81111561289257600080fd5b8201601f810184136128a357600080fd5b611654848235602084016127f3565b6000602082840312156128c457600080fd5b610fce82612642565b803560ff8116811461265957600080fd5b600080600080606085870312156128f457600080fd5b843567ffffffffffffffff81111561290b57600080fd5b61291787828801612724565b909550935061292a905060208601612642565b9150612938604086016128cd565b905092959194509250565b8035801515811461265957600080fd5b6000806040838503121561296657600080fd5b61296f83612642565b915061297d60208401612943565b90509250929050565b6000806040838503121561299957600080fd5b61296f836128cd565b600080600080608085870312156129b857600080fd5b6129c185612642565b93506129cf60208601612642565b925060408501359150606085013567ffffffffffffffff8111156129f257600080fd5b8501601f81018713612a0357600080fd5b612a12878235602084016127f3565b91505092959194509250565b60008060008060608587031215612a3457600080fd5b612a3d85612642565b9350612a4b602086016128cd565b9250604085013567ffffffffffffffff811115612a6757600080fd5b612a7387828801612724565b95989497509550505050565b60008060408385031215612a9257600080fd5b612a9b83612642565b915061297d60208401612642565b600181811c90821680612abd57607f821691505b602082108103612af6577f4e487b7100000000000000000000000000000000000000000000000000000000600052602260045260246000fd5b50919050565b7f4e487b7100000000000000000000000000000000000000000000000000000000600052603260045260246000fd5b601f821115610be3576000816000526020600020601f850160051c81016020861015612b545750805b601f850160051c820191505b81811015612b7357828155600101612b60565b505050505050565b815167ffffffffffffffff811115612b9557612b956127c4565b612ba981612ba38454612aa9565b84612b2b565b602080601f831160018114612bfc5760008415612bc65750858301515b7fffffffffffffffffffffffffffffffffffffffffffffffffffffffffffffffff600386901b1c1916600185901b178555612b73565b600085815260208120601f198616915b82811015612c2b57888601518255948401946001909101908401612c0c565b5085821015612c6757878501517fffffffffffffffffffffffffffffffffffffffffffffffffffffffffffffffff600388901b60f8161c191681555b5050505050600190811b01905550565b60007f07ffffffffffffffffffffffffffffffffffffffffffffffffffffffffffffff831115612ca657600080fd5b8260051b80858437919091019392505050565b7f4e487b7100000000000000000000000000000000000000000000000000000000600052601160045260246000fd5b808202811582820484141761085e5761085e612cb9565b61ffff828116828216039080821115612d1a57612d1a612cb9565b5092915050565b600082612d57577f4e487b7100000000000000000000000000000000000000000000000000000000600052601260045260246000fd5b500490565b6000808454612d6a81612aa9565b60018281168015612d825760018114612db557612de4565b7fffffffffffffffffffffffffffffffffffffffffffffffffffffffffffffff0084168752821515830287019450612de4565b8860005260208060002060005b85811015612ddb5781548a820152908401908201612dc2565b50505082870194505b505050508351612df88183602088016125df565b01949350505050565b61ffff818116838216019080821115612d1a57612d1a612cb9565b8082018082111561085e5761085e612cb9565b60007fffffffffffffffffffffffffffffffffffffffffffffffffffffffffffffffff8203612e6057612e60612cb9565b5060010190565b600060ff821660ff8103612e7d57612e7d612cb9565b60010192915050565b60006001600160a01b03808716835280861660208401525083604083015260806060830152610f1d6080830184612603565b600060208284031215612eca57600080fd5b8151610fce81612594565b8181038181111561085e5761085e612cb9565b7f4e487b7100000000000000000000000000000000000000000000000000000000600052603160045260246000fdfea164736f6c6343000817000a","linkReferences":{}},"methodIdentifiers":{"DISCOUNT_PERCENTAGE()":"af760d6c","FREE_CLAIM_AMOUNT()":"b2af06f9","MAX_SUPPLY()":"32cb6b0c","approve(address,uint256)":"095ea7b3","balanceOf(address)":"70a08231","calculatePrice(uint8,bool)":"aa981b48","checkDiscountMerkleProof(bytes32[],address)":"53493a0e","checkFreeClaimAllowlist(bytes32[],address,uint8)":"7ab05865","claim(address,uint8,bytes32[])":"e2387028","freeClaimed()":"1b47ec3a","fundsReceiverAddress()":"d9f76f31","getApproved(uint256)":"081812fc","getConfig()":"c3f909d4","isApprovedForAll(address,address)":"e985e9c5","mint(address,uint8,bytes32[])":"f9628b7c","name()":"06fdde03","owner()":"8da5cb5b","ownerMint(address,uint16)":"295439e1","ownerOf(uint256)":"6352211e","regularMinted()":"2ad74e12","renounceOwnership()":"715018a6","safeTransferFrom(address,address,uint256)":"42842e0e","safeTransferFrom(address,address,uint256,bytes)":"b88d4fde","setApprovalForAll(address,bool)":"a22cb465","setBaseURI(string)":"55f804b3","setConfig(uint256,uint256)":"1e34c585","setDiscountAllowlistRoot(bytes32)":"89b08d30","setFreeClaimAllowlistRoot(bytes32)":"00fc92b9","setFundsReceiverAddress(address)":"ae8e3d2f","setTokenPrice(uint256)":"6a61e5fc","supportsInterface(bytes4)":"01ffc9a7","symbol()":"95d89b41","tokenByIndex(uint256)":"4f6ccce7","tokenOfOwnerByIndex(address,uint256)":"2f745c59","tokenPrice()":"7ff9b596","tokenURI(uint256)":"c87b56dd","totalSupply()":"18160ddd","transferFrom(address,address,uint256)":"23b872dd","transferOwnership(address)":"f2fde38b","withdraw()":"3ccfd60b"},"id":53}