{"abi":[{"type":"constructor","inputs":[{"name":"initialOwner","type":"address","internalType":"address"},{"name":"_minterContractAddress","type":"address","internalType":"address"},{"name":"_baseUri","type":"string","internalType":"string"}],"stateMutability":"nonpayable"},{"type":"function","name":"approve","inputs":[{"name":"to","type":"address","internalType":"address"},{"name":"tokenId","type":"uint256","internalType":"uint256"}],"outputs":[],"stateMutability":"nonpayable"},{"type":"function","name":"balanceOf","inputs":[{"name":"owner","type":"address","internalType":"address"}],"outputs":[{"name":"","type":"uint256","internalType":"uint256"}],"stateMutability":"view"},{"type":"function","name":"baseURI","inputs":[],"outputs":[{"name":"","type":"string","internalType":"string"}],"stateMutability":"view"},{"type":"function","name":"burnToReedem","inputs":[{"name":"_tokenId","type":"uint256","internalType":"uint256"},{"name":"_givenCode","type":"uint256","internalType":"uint256"}],"outputs":[],"stateMutability":"nonpayable"},{"type":"function","name":"fundsReceiverAddress","inputs":[],"outputs":[{"name":"","type":"address","internalType":"address payable"}],"stateMutability":"view"},{"type":"function","name":"getAllTokensVersion","inputs":[],"outputs":[{"name":"versions","type":"string[]","internalType":"string[]"}],"stateMutability":"view"},{"type":"function","name":"getApproved","inputs":[{"name":"tokenId","type":"uint256","internalType":"uint256"}],"outputs":[{"name":"","type":"address","internalType":"address"}],"stateMutability":"view"},{"type":"function","name":"getTokenVersion","inputs":[{"name":"tokenId","type":"uint256","internalType":"uint256"}],"outputs":[{"name":"versionStr","type":"string","internalType":"string"}],"stateMutability":"view"},{"type":"function","name":"isApprovedForAll","inputs":[{"name":"owner","type":"address","internalType":"address"},{"name":"operator","type":"address","internalType":"address"}],"outputs":[{"name":"","type":"bool","internalType":"bool"}],"stateMutability":"view"},{"type":"function","name":"mint","inputs":[{"name":"recipient","type":"address","internalType":"address"},{"name":"_id","type":"uint256","internalType":"uint256"}],"outputs":[],"stateMutability":"nonpayable"},{"type":"function","name":"minterContractAddress","inputs":[],"outputs":[{"name":"","type":"address","internalType":"address"}],"stateMutability":"view"},{"type":"function","name":"name","inputs":[],"outputs":[{"name":"","type":"string","internalType":"string"}],"stateMutability":"view"},{"type":"function","name":"owner","inputs":[],"outputs":[{"name":"","type":"address","internalType":"address"}],"stateMutability":"view"},{"type":"function","name":"ownerOf","inputs":[{"name":"tokenId","type":"uint256","internalType":"uint256"}],"outputs":[{"name":"","type":"address","internalType":"address"}],"stateMutability":"view"},{"type":"function","name":"refreshToken","inputs":[{"name":"_tokenId","type":"uint256","internalType":"uint256"}],"outputs":[],"stateMutability":"payable"},{"type":"function","name":"refreshTokenPrice","inputs":[],"outputs":[{"name":"","type":"uint256","internalType":"uint256"}],"stateMutability":"view"},{"type":"function","name":"renounceOwnership","inputs":[],"outputs":[],"stateMutability":"nonpayable"},{"type":"function","name":"safeTransferFrom","inputs":[{"name":"from","type":"address","internalType":"address"},{"name":"to","type":"address","internalType":"address"},{"name":"tokenId","type":"uint256","internalType":"uint256"}],"outputs":[],"stateMutability":"nonpayable"},{"type":"function","name":"safeTransferFrom","inputs":[{"name":"from","type":"address","internalType":"address"},{"name":"to","type":"address","internalType":"address"},{"name":"tokenId","type":"uint256","internalType":"uint256"},{"name":"data","type":"bytes","internalType":"bytes"}],"outputs":[],"stateMutability":"nonpayable"},{"type":"function","name":"setApprovalForAll","inputs":[{"name":"operator","type":"address","internalType":"address"},{"name":"approved","type":"bool","internalType":"bool"}],"outputs":[],"stateMutability":"nonpayable"},{"type":"function","name":"setBaseURI","inputs":[{"name":"newBaseURI","type":"string","internalType":"string"}],"outputs":[],"stateMutability":"nonpayable"},{"type":"function","name":"setFundsReceiverAddress","inputs":[{"name":"newFundsReceiverAddress","type":"address","internalType":"address"}],"outputs":[],"stateMutability":"nonpayable"},{"type":"function","name":"setMinterContractAddress","inputs":[{"name":"newMinterContractAddress","type":"address","internalType":"address"}],"outputs":[],"stateMutability":"nonpayable"},{"type":"function","name":"setRefreshTokenPrice","inputs":[{"name":"newRefreshTokenPriceInWei","type":"uint256","internalType":"uint256"}],"outputs":[],"stateMutability":"nonpayable"},{"type":"function","name":"supportsInterface","inputs":[{"name":"interfaceId","type":"bytes4","internalType":"bytes4"}],"outputs":[{"name":"","type":"bool","internalType":"bool"}],"stateMutability":"view"},{"type":"function","name":"symbol","inputs":[],"outputs":[{"name":"","type":"string","internalType":"string"}],"stateMutability":"view"},{"type":"function","name":"tokenByIndex","inputs":[{"name":"index","type":"uint256","internalType":"uint256"}],"outputs":[{"name":"","type":"uint256","internalType":"uint256"}],"stateMutability":"view"},{"type":"function","name":"tokenOfOwnerByIndex","inputs":[{"name":"owner","type":"address","internalType":"address"},{"name":"index","type":"uint256","internalType":"uint256"}],"outputs":[{"name":"","type":"uint256","internalType":"uint256"}],"stateMutability":"view"},{"type":"function","name":"tokenURI","inputs":[{"name":"tokenId","type":"uint256","internalType":"uint256"}],"outputs":[{"name":"","type":"string","internalType":"string"}],"stateMutability":"view"},{"type":"function","name":"totalSupply","inputs":[],"outputs":[{"name":"","type":"uint256","internalType":"uint256"}],"stateMutability":"view"},{"type":"function","name":"transferFrom","inputs":[{"name":"from","type":"address","internalType":"address"},{"name":"to","type":"address","internalType":"address"},{"name":"tokenId","type":"uint256","internalType":"uint256"}],"outputs":[],"stateMutability":"nonpayable"},{"type":"function","name":"transferOwnership","inputs":[{"name":"newOwner","type":"address","internalType":"address"}],"outputs":[],"stateMutability":"nonpayable"},{"type":"event","name":"Approval","inputs":[{"name":"owner","type":"address","indexed":true,"internalType":"address"},{"name":"approved","type":"address","indexed":true,"internalType":"address"},{"name":"tokenId","type":"uint256","indexed":true,"internalType":"uint256"}],"anonymous":false},{"type":"event","name":"ApprovalForAll","inputs":[{"name":"owner","type":"address","indexed":true,"internalType":"address"},{"name":"operator","type":"address","indexed":true,"internalType":"address"},{"name":"approved","type":"bool","indexed":false,"internalType":"bool"}],"anonymous":false},{"type":"event","name":"BatchMetadataUpdate","inputs":[{"name":"_fromTokenId","type":"uint256","indexed":false,"internalType":"uint256"},{"name":"_toTokenId","type":"uint256","indexed":false,"internalType":"uint256"}],"anonymous":false},{"type":"event","name":"Burned","inputs":[{"name":"tokenOwner","type":"address","indexed":true,"internalType":"address"},{"name":"tokenId","type":"uint256","indexed":true,"internalType":"uint256"},{"name":"givenCode","type":"uint256","indexed":true,"internalType":"uint256"}],"anonymous":false},{"type":"event","name":"MetadataUpdate","inputs":[{"name":"_tokenId","type":"uint256","indexed":false,"internalType":"uint256"}],"anonymous":false},{"type":"event","name":"Minted","inputs":[{"name":"recipient","type":"address","indexed":true,"internalType":"address"},{"name":"tokenId","type":"uint256","indexed":true,"internalType":"uint256"}],"anonymous":false},{"type":"event","name":"OwnershipTransferred","inputs":[{"name":"previousOwner","type":"address","indexed":true,"internalType":"address"},{"name":"newOwner","type":"address","indexed":true,"internalType":"address"}],"anonymous":false},{"type":"event","name":"TokenRefreshed","inputs":[{"name":"tokenId","type":"uint256","indexed":true,"internalType":"uint256"},{"name":"refresherAddress","type":"address","indexed":false,"internalType":"address"}],"anonymous":false},{"type":"event","name":"Transfer","inputs":[{"name":"from","type":"address","indexed":true,"internalType":"address"},{"name":"to","type":"address","indexed":true,"internalType":"address"},{"name":"tokenId","type":"uint256","indexed":true,"internalType":"uint256"}],"anonymous":false},{"type":"error","name":"AddressInsufficientBalance","inputs":[{"name":"account","type":"address","internalType":"address"}]},{"type":"error","name":"ERC721EnumerableForbiddenBatchMint","inputs":[]},{"type":"error","name":"ERC721IncorrectOwner","inputs":[{"name":"sender","type":"address","internalType":"address"},{"name":"tokenId","type":"uint256","internalType":"uint256"},{"name":"owner","type":"address","internalType":"address"}]},{"type":"error","name":"ERC721InsufficientApproval","inputs":[{"name":"operator","type":"address","internalType":"address"},{"name":"tokenId","type":"uint256","internalType":"uint256"}]},{"type":"error","name":"ERC721InvalidApprover","inputs":[{"name":"approver","type":"address","internalType":"address"}]},{"type":"error","name":"ERC721InvalidOperator","inputs":[{"name":"operator","type":"address","internalType":"address"}]},{"type":"error","name":"ERC721InvalidOwner","inputs":[{"name":"owner","type":"address","internalType":"address"}]},{"type":"error","name":"ERC721InvalidReceiver","inputs":[{"name":"receiver","type":"address","internalType":"address"}]},{"type":"error","name":"ERC721InvalidSender","inputs":[{"name":"sender","type":"address","internalType":"address"}]},{"type":"error","name":"ERC721NonexistentToken","inputs":[{"name":"tokenId","type":"uint256","internalType":"uint256"}]},{"type":"error","name":"ERC721OutOfBoundsIndex","inputs":[{"name":"owner","type":"address","internalType":"address"},{"name":"index","type":"uint256","internalType":"uint256"}]},{"type":"error","name":"FailedInnerCall","inputs":[]},{"type":"error","name":"IdOutOfBounds","inputs":[]},{"type":"error","name":"InvalidPrice","inputs":[]},{"type":"error","name":"NotEnoughETH","inputs":[]},{"type":"error","name":"OnlyMinter","inputs":[]},{"type":"error","name":"OnlyOwner","inputs":[]},{"type":"error","name":"OnlyTokenOwner","inputs":[]},{"type":"error","name":"OwnableInvalidOwner","inputs":[{"name":"owner","type":"address","internalType":"address"}]},{"type":"error","name":"OwnableUnauthorizedAccount","inputs":[{"name":"account","type":"address","internalType":"address"}]},{"type":"error","name":"ReentrancyGuardReentrantCall","inputs":[]},{"type":"error","name":"ZeroAddress","inputs":[]}],"bytecode":{"object":"0x60806040526658d15e17628000600d553480156200001c57600080fd5b5060405162002d7538038062002d758339810160408190526200003f91620001a8565b82604051806040016040528060068152602001650ced8d2e8c6d60d31b8152506040518060400160405280600381526020016211d31560ea1b81525081600090816200008c919062000333565b5060016200009b828262000333565b5050506001600160a01b038116620000cd57604051631e4fbdf760e01b81526000600482015260240160405180910390fd5b620000d88162000123565b506001600c556010620000ec828262000333565b5050600e80546001600160a01b039283166001600160a01b031991821617909155600f8054939092169216919091179055620003ff565b600b80546001600160a01b038381166001600160a01b0319831681179093556040519116919082907f8be0079c531659141344cd1fd0a4f28419497f9722a3daafe3b4186f6b6457e090600090a35050565b80516001600160a01b03811681146200018d57600080fd5b919050565b634e487b7160e01b600052604160045260246000fd5b600080600060608486031215620001be57600080fd5b620001c98462000175565b92506020620001da81860162000175565b60408601519093506001600160401b0380821115620001f857600080fd5b818701915087601f8301126200020d57600080fd5b81518181111562000222576200022262000192565b604051601f8201601f19908116603f011681019083821181831017156200024d576200024d62000192565b816040528281528a868487010111156200026657600080fd5b600093505b828410156200028a57848401860151818501870152928501926200026b565b60008684830101528096505050505050509250925092565b600181811c90821680620002b757607f821691505b602082108103620002d857634e487b7160e01b600052602260045260246000fd5b50919050565b601f8211156200032e576000816000526020600020601f850160051c81016020861015620003095750805b601f850160051c820191505b818110156200032a5782815560010162000315565b5050505b505050565b81516001600160401b038111156200034f576200034f62000192565b6200036781620003608454620002a2565b84620002de565b602080601f8311600181146200039f5760008415620003865750858301515b600019600386901b1c1916600185901b1785556200032a565b600085815260208120601f198616915b82811015620003d057888601518255948401946001909101908401620003af565b5085821015620003ef5787850151600019600388901b60f8161c191681555b5050505050600190811b01905550565b612966806200040f6000396000f3fe6080604052600436106101e35760003560e01c8063715018a611610102578063b88d4fde11610095578063d9f76f3111610064578063d9f76f3114610560578063dd5d8e5614610580578063e985e9c5146105a0578063f2fde38b146105e957600080fd5b8063b88d4fde146104e8578063c87abd7b14610508578063c87b56dd1461052a578063cf4188591461054a57600080fd5b806395d89b41116100d157806395d89b4114610473578063a22cb46514610488578063ae8e3d2f146104a8578063b0526aca146104c857600080fd5b8063715018a61461040d5780637e5c3f2914610422578063809b8fad146104425780638da5cb5b1461045557600080fd5b80633b54f4061161017a57806355f804b31161014957806355f804b3146103985780636352211e146103b85780636c0360eb146103d857806370a08231146103ed57600080fd5b80633b54f4061461031857806340c10f191461033857806342842e0e146103585780634f6ccce71461037857600080fd5b80630dab46fe116101b65780630dab46fe1461029957806318160ddd146102b957806323b872dd146102d85780632f745c59146102f857600080fd5b806301ffc9a7146101e857806306fdde031461021d578063081812fc1461023f578063095ea7b314610277575b600080fd5b3480156101f457600080fd5b5061020861020336600461218f565b610609565b60405190151581526020015b60405180910390f35b34801561022957600080fd5b5061023261061a565b6040516102149190612221565b34801561024b57600080fd5b5061025f61025a366004612234565b6106ac565b6040516001600160a01b039091168152602001610214565b34801561028357600080fd5b50610297610292366004612269565b6106d5565b005b3480156102a557600080fd5b50600e5461025f906001600160a01b031681565b3480156102c557600080fd5b506008545b604051908152602001610214565b3480156102e457600080fd5b506102976102f3366004612293565b6106e4565b34801561030457600080fd5b506102ca610313366004612269565b6106fd565b34801561032457600080fd5b50610232610333366004612234565b610780565b34801561034457600080fd5b50610297610353366004612269565b6108f0565b34801561036457600080fd5b50610297610373366004612293565b610a01565b34801561038457600080fd5b506102ca610393366004612234565b610a1c565b3480156103a457600080fd5b506102976103b3366004612392565b610a8e565b3480156103c457600080fd5b5061025f6103d3366004612234565b610ade565b3480156103e457600080fd5b50610232610ae9565b3480156103f957600080fd5b506102ca6104083660046123db565b610b77565b34801561041957600080fd5b50610297610bd8565b34801561042e57600080fd5b5061029761043d366004612234565b610bec565b610297610450366004612234565b610c6e565b34801561046157600080fd5b50600b546001600160a01b031661025f565b34801561047f57600080fd5b50610232610d7b565b34801561049457600080fd5b506102976104a33660046123f6565b610d8a565b3480156104b457600080fd5b506102976104c33660046123db565b610d95565b3480156104d457600080fd5b506102976104e33660046123db565b610e53565b3480156104f457600080fd5b50610297610503366004612432565b610ed1565b34801561051457600080fd5b5061051d610eee565b60405161021491906124ae565b34801561053657600080fd5b50610232610545366004612234565b610f61565b34801561055657600080fd5b506102ca600d5481565b34801561056c57600080fd5b50600f5461025f906001600160a01b031681565b34801561058c57600080fd5b5061029761059b366004612530565b610fa9565b3480156105ac57600080fd5b506102086105bb366004612552565b6001600160a01b03918216600090815260056020908152604080832093909416825291909152205460ff1690565b3480156105f557600080fd5b506102976106043660046123db565b611034565b600061061482611088565b92915050565b60606000805461062990612585565b80601f016020809104026020016040519081016040528092919081815260200182805461065590612585565b80156106a25780601f10610677576101008083540402835291602001916106a2565b820191906000526020600020905b81548152906001019060200180831161068557829003601f168201915b5050505050905090565b60006106b7826110de565b506000828152600460205260409020546001600160a01b0316610614565b6106e0828233611130565b5050565b6106ed8161113d565b6106f8838383611250565b505050565b600061070883610b77565b8210610757576040517fa57d13dc0000000000000000000000000000000000000000000000000000000081526001600160a01b0384166004820152602481018390526044015b60405180910390fd5b506001600160a01b03919091166000908152600660209081526040808320938352929052205490565b60008181526011602052604081205460609160ff909116908160038111156107aa576107aa6125d2565b036107ec576040518060400160405280600181526020017f410000000000000000000000000000000000000000000000000000000000000081525091506108ea565b6001816003811115610800576108006125d2565b03610842576040518060400160405280600181526020017f420000000000000000000000000000000000000000000000000000000000000081525091506108ea565b6002816003811115610856576108566125d2565b03610898576040518060400160405280600181526020017f430000000000000000000000000000000000000000000000000000000000000081525091506108ea565b60038160038111156108ac576108ac6125d2565b036108ea576040518060400160405280600181526020017f440000000000000000000000000000000000000000000000000000000000000081525091505b50919050565b600e546001600160a01b0316336001600160a01b03161461093d576040517f9cdc2ed500000000000000000000000000000000000000000000000000000000815260040160405180910390fd5b6001600160a01b03821661097d576040517fd92e233d00000000000000000000000000000000000000000000000000000000815260040160405180910390fd5b603281118061098a575080155b156109c1576040517fe812b7c600000000000000000000000000000000000000000000000000000000815260040160405180910390fd5b60405181906001600160a01b038416907f30385c845b448a36257a6a1716e6ad2e1bc2cbe333cde1e69fe849ad6511adfe90600090a36106e08282611307565b6106f883838360405180602001604052806000815250610ed1565b6000610a2760085490565b8210610a69576040517fa57d13dc000000000000000000000000000000000000000000000000000000008152600060048201526024810183905260440161074e565b60088281548110610a7c57610a7c612601565b90600052602060002001549050919050565b600b546001600160a01b03163314610ad2576040517f5fc483c500000000000000000000000000000000000000000000000000000000815260040160405180910390fd5b60106106e08282612680565b6000610614826110de565b60108054610af690612585565b80601f0160208091040260200160405190810160405280929190818152602001828054610b2290612585565b8015610b6f5780601f10610b4457610100808354040283529160200191610b6f565b820191906000526020600020905b815481529060010190602001808311610b5257829003601f168201915b505050505081565b60006001600160a01b038216610bbc576040517f89c62b640000000000000000000000000000000000000000000000000000000081526000600482015260240161074e565b506001600160a01b031660009081526003602052604090205490565b610be0611321565b610bea6000611367565b565b600b546001600160a01b03163314610c30576040517f5fc483c500000000000000000000000000000000000000000000000000000000815260040160405180910390fd5b80600003610c69576040517ebfc92100000000000000000000000000000000000000000000000000000000815260040160405180910390fd5b600d55565b610c766113d1565b600d54341015610cb2576040517f583aa02600000000000000000000000000000000000000000000000000000000815260040160405180910390fd5b60008181526011602090815260409182902080547fffffffffffffffffffffffffffffffffffffffffffffffffffffffffffffff0016905590518281527ff8e1a15aba9398e019f0b49df1a4fde98ee17ae345cb5f6b5e2c27f5033e8ce7910160405180910390a1807f81676a2d008e56eb1e8b27e8ccaa7962197f078610bf25e5f354b98850c2526c336040516001600160a01b03909116815260200160405180910390a2600f54610d6e906001600160a01b031634611414565b610d786001600c55565b50565b60606001805461062990612585565b6106e03383836114dd565b600b546001600160a01b03163314610dd9576040517f5fc483c500000000000000000000000000000000000000000000000000000000815260040160405180910390fd5b6001600160a01b038116610e19576040517fd92e233d00000000000000000000000000000000000000000000000000000000815260040160405180910390fd5b600f80547fffffffffffffffffffffffff0000000000000000000000000000000000000000166001600160a01b0392909216919091179055565b600b546001600160a01b03163314610e97576040517f5fc483c500000000000000000000000000000000000000000000000000000000815260040160405180910390fd5b600e80547fffffffffffffffffffffffff0000000000000000000000000000000000000000166001600160a01b0392909216919091179055565b610edc8484846106e4565b610ee8848484846115b3565b50505050565b6040805160328082526106608201909252606091816020015b6060815260200190600190039081610f0757905050905060005b6032811015610f5d57610f386103338260016127c9565b828281518110610f4a57610f4a612601565b6020908102919091010152600101610f21565b5090565b6060610f6c826110de565b506010610f7883610780565b610f8184611776565b604051602001610f93939291906127dc565b6040516020818303038152906040529050919050565b610fb282610ade565b6001600160a01b0316336001600160a01b031614610ffc576040517fcdf1f8f900000000000000000000000000000000000000000000000000000000815260040160405180910390fd5b6040518190839033907f23ff0e75edf108e3d0392d92e13e8c8a868ef19001bd49f9e94876dc46dff87f90600090a46106e082611834565b61103c611321565b6001600160a01b03811661107f576040517f1e4fbdf70000000000000000000000000000000000000000000000000000000081526000600482015260240161074e565b610d7881611367565b60007fffffffff0000000000000000000000000000000000000000000000000000000082167f49064906000000000000000000000000000000000000000000000000000000001480610614575061061482611888565b6000818152600260205260408120546001600160a01b031680610614576040517f7e2732890000000000000000000000000000000000000000000000000000000081526004810184905260240161074e565b6106f883838360016118de565b60008181526011602052604090205460ff166003816003811115611163576111636125d2565b0361116c575050565b6000816003811115611180576111806125d2565b0361118d575060016111cb565b60018160038111156111a1576111a16125d2565b036111ae575060026111cb565b60028160038111156111c2576111c26125d2565b036111cb575060035b600082815260116020526040902080548291907fffffffffffffffffffffffffffffffffffffffffffffffffffffffffffffff00166001836003811115611214576112146125d2565b02179055506040518281527ff8e1a15aba9398e019f0b49df1a4fde98ee17ae345cb5f6b5e2c27f5033e8ce79060200160405180910390a15050565b6001600160a01b038216611293576040517f64a0ae920000000000000000000000000000000000000000000000000000000081526000600482015260240161074e565b60006112a0838333611a34565b9050836001600160a01b0316816001600160a01b031614610ee8576040517f64283d7b0000000000000000000000000000000000000000000000000000000081526001600160a01b038086166004830152602482018490528216604482015260640161074e565b6106e0828260405180602001604052806000815250611a49565b600b546001600160a01b03163314610bea576040517f118cdaa700000000000000000000000000000000000000000000000000000000815233600482015260240161074e565b600b80546001600160a01b038381167fffffffffffffffffffffffff0000000000000000000000000000000000000000831681179093556040519116919082907f8be0079c531659141344cd1fd0a4f28419497f9722a3daafe3b4186f6b6457e090600090a35050565b6002600c540361140d576040517f3ee5aeb500000000000000000000000000000000000000000000000000000000815260040160405180910390fd5b6002600c55565b80471015611450576040517fcd78605900000000000000000000000000000000000000000000000000000000815230600482015260240161074e565b6000826001600160a01b03168260405160006040518083038185875af1925050503d806000811461149d576040519150601f19603f3d011682016040523d82523d6000602084013e6114a2565b606091505b50509050806106f8576040517f1425ea4200000000000000000000000000000000000000000000000000000000815260040160405180910390fd5b6001600160a01b038216611528576040517f5b08ba180000000000000000000000000000000000000000000000000000000081526001600160a01b038316600482015260240161074e565b6001600160a01b0383811660008181526005602090815260408083209487168084529482529182902080547fffffffffffffffffffffffffffffffffffffffffffffffffffffffffffffff001686151590811790915591519182527f17307eab39ab6107e8899845ad3d59bd9653f200f220920489ca2b5937696c31910160405180910390a3505050565b6001600160a01b0383163b15610ee8576040517f150b7a020000000000000000000000000000000000000000000000000000000081526001600160a01b0384169063150b7a029061160e9033908890879087906004016128be565b6020604051808303816000875af1925050508015611667575060408051601f3d9081017fffffffffffffffffffffffffffffffffffffffffffffffffffffffffffffffe0168201909252611664918101906128fa565b60015b6116e9573d808015611695576040519150601f19603f3d011682016040523d82523d6000602084013e61169a565b606091505b5080516000036116e1576040517f64a0ae920000000000000000000000000000000000000000000000000000000081526001600160a01b038516600482015260240161074e565b805181602001fd5b7fffffffff0000000000000000000000000000000000000000000000000000000081167f150b7a02000000000000000000000000000000000000000000000000000000001461176f576040517f64a0ae920000000000000000000000000000000000000000000000000000000081526001600160a01b038516600482015260240161074e565b5050505050565b6060600061178383611a60565b600101905060008167ffffffffffffffff8111156117a3576117a36122cf565b6040519080825280601f01601f1916602001820160405280156117cd576020820181803683370190505b5090508181016020015b7fffffffffffffffffffffffffffffffffffffffffffffffffffffffffffffffff017f3031323334353637383961626364656600000000000000000000000000000000600a86061a8153600a85049450846117d757509392505050565b60006118436000836000611a34565b90506001600160a01b0381166106e0576040517f7e2732890000000000000000000000000000000000000000000000000000000081526004810183905260240161074e565b60007fffffffff0000000000000000000000000000000000000000000000000000000082167f780e9d63000000000000000000000000000000000000000000000000000000001480610614575061061482611b42565b80806118f257506001600160a01b03821615155b156119ec576000611902846110de565b90506001600160a01b0383161580159061192e5750826001600160a01b0316816001600160a01b031614155b801561196057506001600160a01b0380821660009081526005602090815260408083209387168352929052205460ff16155b156119a2576040517fa9fbf51f0000000000000000000000000000000000000000000000000000000081526001600160a01b038416600482015260240161074e565b81156119ea5783856001600160a01b0316826001600160a01b03167f8c5be1e5ebec7d5bd14f71427d1e84f3dd0314c0f7b2291e5b200ac8c7c3b92560405160405180910390a45b505b5050600090815260046020526040902080547fffffffffffffffffffffffff0000000000000000000000000000000000000000166001600160a01b0392909216919091179055565b6000611a41848484611c25565b949350505050565b611a538383611cf2565b6106f860008484846115b3565b6000807a184f03e93ff9f4daa797ed6e38ed64bf6a1f0100000000000000008310611aa9577a184f03e93ff9f4daa797ed6e38ed64bf6a1f010000000000000000830492506040015b6d04ee2d6d415b85acef81000000008310611ad5576d04ee2d6d415b85acef8100000000830492506020015b662386f26fc100008310611af357662386f26fc10000830492506010015b6305f5e1008310611b0b576305f5e100830492506008015b6127108310611b1f57612710830492506004015b60648310611b31576064830492506002015b600a83106106145760010192915050565b60007fffffffff0000000000000000000000000000000000000000000000000000000082167f80ac58cd000000000000000000000000000000000000000000000000000000001480611bd557507fffffffff0000000000000000000000000000000000000000000000000000000082167f5b5e139f00000000000000000000000000000000000000000000000000000000145b8061061457507f01ffc9a7000000000000000000000000000000000000000000000000000000007fffffffff00000000000000000000000000000000000000000000000000000000831614610614565b600080611c33858585611d89565b90506001600160a01b038116611c9057611c8b84600880546000838152600960205260408120829055600182018355919091527ff3f7a9fe364faab93b216da50a3214154f22a0a2b415b23a84c8169e8b636ee30155565b611cb3565b846001600160a01b0316816001600160a01b031614611cb357611cb38185611eb8565b6001600160a01b038516611ccf57611cca84611f49565b611a41565b846001600160a01b0316816001600160a01b031614611a4157611a418585611ff8565b6001600160a01b038216611d35576040517f64a0ae920000000000000000000000000000000000000000000000000000000081526000600482015260240161074e565b6000611d4383836000611a34565b90506001600160a01b038116156106f8576040517f73c6ac6e0000000000000000000000000000000000000000000000000000000081526000600482015260240161074e565b6000828152600260205260408120546001600160a01b0390811690831615611db657611db6818486612048565b6001600160a01b03811615611e1257611dd36000856000806118de565b6001600160a01b038116600090815260036020526040902080547fffffffffffffffffffffffffffffffffffffffffffffffffffffffffffffffff0190555b6001600160a01b03851615611e41576001600160a01b0385166000908152600360205260409020805460010190555b60008481526002602052604080822080547fffffffffffffffffffffffff0000000000000000000000000000000000000000166001600160a01b0389811691821790925591518793918516917fddf252ad1be2c89b69c2b068fc378daa952ba7f163c4a11628f55a4df523b3ef91a4949350505050565b6000611ec383610b77565b600083815260076020526040902054909150808214611f16576001600160a01b03841660009081526006602090815260408083208584528252808320548484528184208190558352600790915290208190555b5060009182526007602090815260408084208490556001600160a01b039094168352600681528383209183525290812055565b600854600090611f5b90600190612917565b60008381526009602052604081205460088054939450909284908110611f8357611f83612601565b906000526020600020015490508060088381548110611fa457611fa4612601565b6000918252602080832090910192909255828152600990915260408082208490558582528120556008805480611fdc57611fdc61292a565b6001900381819060005260206000200160009055905550505050565b6000600161200584610b77565b61200f9190612917565b6001600160a01b039093166000908152600660209081526040808320868452825280832085905593825260079052919091209190915550565b6120538383836120de565b6106f8576001600160a01b03831661209a576040517f7e2732890000000000000000000000000000000000000000000000000000000081526004810182905260240161074e565b6040517f177e802f0000000000000000000000000000000000000000000000000000000081526001600160a01b03831660048201526024810182905260440161074e565b60006001600160a01b03831615801590611a415750826001600160a01b0316846001600160a01b0316148061213857506001600160a01b0380851660009081526005602090815260408083209387168352929052205460ff165b80611a415750506000908152600460205260409020546001600160a01b03908116911614919050565b7fffffffff0000000000000000000000000000000000000000000000000000000081168114610d7857600080fd5b6000602082840312156121a157600080fd5b81356121ac81612161565b9392505050565b60005b838110156121ce5781810151838201526020016121b6565b50506000910152565b600081518084526121ef8160208601602086016121b3565b601f017fffffffffffffffffffffffffffffffffffffffffffffffffffffffffffffffe0169290920160200192915050565b6020815260006121ac60208301846121d7565b60006020828403121561224657600080fd5b5035919050565b80356001600160a01b038116811461226457600080fd5b919050565b6000806040838503121561227c57600080fd5b6122858361224d565b946020939093013593505050565b6000806000606084860312156122a857600080fd5b6122b18461224d565b92506122bf6020850161224d565b9150604084013590509250925092565b7f4e487b7100000000000000000000000000000000000000000000000000000000600052604160045260246000fd5b600067ffffffffffffffff80841115612319576123196122cf565b604051601f85017fffffffffffffffffffffffffffffffffffffffffffffffffffffffffffffffe0908116603f0116810190828211818310171561235f5761235f6122cf565b8160405280935085815286868601111561237857600080fd5b858560208301376000602087830101525050509392505050565b6000602082840312156123a457600080fd5b813567ffffffffffffffff8111156123bb57600080fd5b8201601f810184136123cc57600080fd5b611a41848235602084016122fe565b6000602082840312156123ed57600080fd5b6121ac8261224d565b6000806040838503121561240957600080fd5b6124128361224d565b91506020830135801515811461242757600080fd5b809150509250929050565b6000806000806080858703121561244857600080fd5b6124518561224d565b935061245f6020860161224d565b925060408501359150606085013567ffffffffffffffff81111561248257600080fd5b8501601f8101871361249357600080fd5b6124a2878235602084016122fe565b91505092959194509250565b600060208083016020845280855180835260408601915060408160051b87010192506020870160005b82811015612523577fffffffffffffffffffffffffffffffffffffffffffffffffffffffffffffffc08886030184526125118583516121d7565b945092850192908501906001016124d7565b5092979650505050505050565b6000806040838503121561254357600080fd5b50508035926020909101359150565b6000806040838503121561256557600080fd5b61256e8361224d565b915061257c6020840161224d565b90509250929050565b600181811c9082168061259957607f821691505b6020821081036108ea577f4e487b7100000000000000000000000000000000000000000000000000000000600052602260045260246000fd5b7f4e487b7100000000000000000000000000000000000000000000000000000000600052602160045260246000fd5b7f4e487b7100000000000000000000000000000000000000000000000000000000600052603260045260246000fd5b601f8211156106f8576000816000526020600020601f850160051c810160208610156126595750805b601f850160051c820191505b8181101561267857828155600101612665565b505050505050565b815167ffffffffffffffff81111561269a5761269a6122cf565b6126ae816126a88454612585565b84612630565b602080601f83116001811461270157600084156126cb5750858301515b7fffffffffffffffffffffffffffffffffffffffffffffffffffffffffffffffff600386901b1c1916600185901b178555612678565b6000858152602081207fffffffffffffffffffffffffffffffffffffffffffffffffffffffffffffffe08616915b8281101561274e5788860151825594840194600190910190840161272f565b508582101561278a57878501517fffffffffffffffffffffffffffffffffffffffffffffffffffffffffffffffff600388901b60f8161c191681555b5050505050600190811b01905550565b7f4e487b7100000000000000000000000000000000000000000000000000000000600052601160045260246000fd5b808201808211156106145761061461279a565b60008085546127ea81612585565b60018281168015612802576001811461283557612864565b7fffffffffffffffffffffffffffffffffffffffffffffffffffffffffffffff0084168752821515830287019450612864565b8960005260208060002060005b8581101561285b5781548a820152908401908201612842565b50505082870194505b5050505084516128788183602089016121b3565b7f2f00000000000000000000000000000000000000000000000000000000000000910190815283516128b18160018401602088016121b3565b0160010195945050505050565b60006001600160a01b038087168352808616602084015250836040830152608060608301526128f060808301846121d7565b9695505050505050565b60006020828403121561290c57600080fd5b81516121ac81612161565b818103818111156106145761061461279a565b7f4e487b7100000000000000000000000000000000000000000000000000000000600052603160045260246000fdfea164736f6c6343000817000a","linkReferences":{}},"methodIdentifiers":{"approve(address,uint256)":"095ea7b3","balanceOf(address)":"70a08231","baseURI()":"6c0360eb","burnToReedem(uint256,uint256)":"dd5d8e56","fundsReceiverAddress()":"d9f76f31","getAllTokensVersion()":"c87abd7b","getApproved(uint256)":"081812fc","getTokenVersion(uint256)":"3b54f406","isApprovedForAll(address,address)":"e985e9c5","mint(address,uint256)":"40c10f19","minterContractAddress()":"0dab46fe","name()":"06fdde03","owner()":"8da5cb5b","ownerOf(uint256)":"6352211e","refreshToken(uint256)":"809b8fad","refreshTokenPrice()":"cf418859","renounceOwnership()":"715018a6","safeTransferFrom(address,address,uint256)":"42842e0e","safeTransferFrom(address,address,uint256,bytes)":"b88d4fde","setApprovalForAll(address,bool)":"a22cb465","setBaseURI(string)":"55f804b3","setFundsReceiverAddress(address)":"ae8e3d2f","setMinterContractAddress(address)":"b0526aca","setRefreshTokenPrice(uint256)":"7e5c3f29","supportsInterface(bytes4)":"01ffc9a7","symbol()":"95d89b41","tokenByIndex(uint256)":"4f6ccce7","tokenOfOwnerByIndex(address,uint256)":"2f745c59","tokenURI(uint256)":"c87b56dd","totalSupply()":"18160ddd","transferFrom(address,address,uint256)":"23b872dd","transferOwnership(address)":"f2fde38b"},"id":33}