{"abi":[{"type":"constructor","inputs":[{"name":"_initialOwner","type":"address","internalType":"address"},{"name":"_glitchAddress","type":"address","internalType":"address"},{"name":"_treasuryWallet","type":"address","internalType":"address"}],"stateMutability":"nonpayable"},{"type":"function","name":"MAX_TOP_BIDS","inputs":[],"outputs":[{"name":"","type":"uint256","internalType":"uint256"}],"stateMutability":"view"},{"type":"function","name":"adminMintRemaining","inputs":[{"name":"_recipient","type":"address","internalType":"address"}],"outputs":[],"stateMutability":"nonpayable"},{"type":"function","name":"bid","inputs":[{"name":"_bidAmount","type":"uint256","internalType":"uint256"},{"name":"_merkleProof","type":"bytes32[]","internalType":"bytes32[]"}],"outputs":[],"stateMutability":"payable"},{"type":"function","name":"bidBalances","inputs":[{"name":"","type":"address","internalType":"address"}],"outputs":[{"name":"","type":"uint256","internalType":"uint256"}],"stateMutability":"view"},{"type":"function","name":"checkMerkleProof","inputs":[{"name":"_merkleProof","type":"bytes32[]","internalType":"bytes32[]"},{"name":"_address","type":"address","internalType":"address"},{"name":"_root","type":"bytes32","internalType":"bytes32"}],"outputs":[{"name":"","type":"bool","internalType":"bool"}],"stateMutability":"pure"},{"type":"function","name":"claimAll","inputs":[{"name":"_to","type":"address","internalType":"address"}],"outputs":[],"stateMutability":"nonpayable"},{"type":"function","name":"claimed","inputs":[{"name":"","type":"address","internalType":"address"}],"outputs":[{"name":"","type":"bool","internalType":"bool"}],"stateMutability":"view"},{"type":"function","name":"firstTierMerkleRoot","inputs":[],"outputs":[{"name":"","type":"bytes32","internalType":"bytes32"}],"stateMutability":"view"},{"type":"function","name":"getConfig","inputs":[],"outputs":[{"name":"","type":"tuple","internalType":"struct GlitchAuction.Config","components":[{"name":"startTime","type":"uint256","internalType":"uint256"},{"name":"endTime","type":"uint256","internalType":"uint256"},{"name":"minBidIncrementInWei","type":"uint256","internalType":"uint256"},{"name":"startAmountInWei","type":"uint256","internalType":"uint256"}]}],"stateMutability":"view"},{"type":"function","name":"getMinimumBid","inputs":[],"outputs":[{"name":"","type":"uint256","internalType":"uint256"}],"stateMutability":"view"},{"type":"function","name":"getSettledPrice","inputs":[],"outputs":[{"name":"","type":"uint256","internalType":"uint256"}],"stateMutability":"view"},{"type":"function","name":"getSettledPriceWithDiscount","inputs":[{"name":"_discountType","type":"uint8","internalType":"enum GlitchAuction.DiscountType"}],"outputs":[{"name":"","type":"uint256","internalType":"uint256"}],"stateMutability":"view"},{"type":"function","name":"getTopBids","inputs":[],"outputs":[{"name":"","type":"tuple[50]","internalType":"struct GlitchAuction.Bid[50]","components":[{"name":"bidder","type":"address","internalType":"address"},{"name":"amount","type":"uint256","internalType":"uint256"},{"name":"discountType","type":"uint8","internalType":"enum GlitchAuction.DiscountType"}]}],"stateMutability":"view"},{"type":"function","name":"glitchAddress","inputs":[],"outputs":[{"name":"","type":"address","internalType":"contract IGlitch"}],"stateMutability":"view"},{"type":"function","name":"owner","inputs":[],"outputs":[{"name":"","type":"address","internalType":"address"}],"stateMutability":"view"},{"type":"function","name":"pause","inputs":[],"outputs":[],"stateMutability":"nonpayable"},{"type":"function","name":"paused","inputs":[],"outputs":[{"name":"","type":"bool","internalType":"bool"}],"stateMutability":"view"},{"type":"function","name":"renounceOwnership","inputs":[],"outputs":[],"stateMutability":"nonpayable"},{"type":"function","name":"setConfig","inputs":[{"name":"_startTime","type":"uint256","internalType":"uint256"},{"name":"_endTime","type":"uint256","internalType":"uint256"},{"name":"_minBidIncrementInWei","type":"uint256","internalType":"uint256"},{"name":"_startAmountInWei","type":"uint256","internalType":"uint256"}],"outputs":[],"stateMutability":"nonpayable"},{"type":"function","name":"setGlitchAddress","inputs":[{"name":"_glitchAddress","type":"address","internalType":"address"}],"outputs":[],"stateMutability":"nonpayable"},{"type":"function","name":"setMerkleRoots","inputs":[{"name":"_firstTierRoot","type":"bytes32","internalType":"bytes32"}],"outputs":[],"stateMutability":"nonpayable"},{"type":"function","name":"setTreasuryWallet","inputs":[{"name":"_newWallet","type":"address","internalType":"address"}],"outputs":[],"stateMutability":"nonpayable"},{"type":"function","name":"topBids","inputs":[{"name":"","type":"uint256","internalType":"uint256"}],"outputs":[{"name":"bidder","type":"address","internalType":"address"},{"name":"amount","type":"uint256","internalType":"uint256"},{"name":"discountType","type":"uint8","internalType":"enum GlitchAuction.DiscountType"}],"stateMutability":"view"},{"type":"function","name":"transferOwnership","inputs":[{"name":"newOwner","type":"address","internalType":"address"}],"outputs":[],"stateMutability":"nonpayable"},{"type":"function","name":"treasuryWallet","inputs":[],"outputs":[{"name":"","type":"address","internalType":"address payable"}],"stateMutability":"view"},{"type":"function","name":"unpause","inputs":[],"outputs":[],"stateMutability":"nonpayable"},{"type":"function","name":"withdraw","inputs":[],"outputs":[],"stateMutability":"nonpayable"},{"type":"function","name":"withdrawn","inputs":[],"outputs":[{"name":"","type":"bool","internalType":"bool"}],"stateMutability":"view"},{"type":"event","name":"BidPlaced","inputs":[{"name":"bidder","type":"address","indexed":true,"internalType":"address"},{"name":"amount","type":"uint256","indexed":false,"internalType":"uint256"}],"anonymous":false},{"type":"event","name":"Claimed","inputs":[{"name":"to","type":"address","indexed":true,"internalType":"address"},{"name":"nftAmount","type":"uint256","indexed":false,"internalType":"uint256"},{"name":"refundAmount","type":"uint256","indexed":false,"internalType":"uint256"}],"anonymous":false},{"type":"event","name":"Outbidded","inputs":[{"name":"bidder","type":"address","indexed":true,"internalType":"address"},{"name":"amount","type":"uint256","indexed":false,"internalType":"uint256"},{"name":"lastBidPosition","type":"uint256","indexed":false,"internalType":"uint256"}],"anonymous":false},{"type":"event","name":"OwnershipTransferred","inputs":[{"name":"previousOwner","type":"address","indexed":true,"internalType":"address"},{"name":"newOwner","type":"address","indexed":true,"internalType":"address"}],"anonymous":false},{"type":"event","name":"Paused","inputs":[{"name":"account","type":"address","indexed":false,"internalType":"address"}],"anonymous":false},{"type":"event","name":"Unpaused","inputs":[{"name":"account","type":"address","indexed":false,"internalType":"address"}],"anonymous":false},{"type":"error","name":"AddressInsufficientBalance","inputs":[{"name":"account","type":"address","internalType":"address"}]},{"type":"error","name":"AlreadyClaimed","inputs":[]},{"type":"error","name":"AuctionNotEnded","inputs":[]},{"type":"error","name":"BidDoesNotQualifyForTopBids","inputs":[]},{"type":"error","name":"BidTooLow","inputs":[]},{"type":"error","name":"ConfigNotSet","inputs":[]},{"type":"error","name":"EnforcedPause","inputs":[]},{"type":"error","name":"ExpectedPause","inputs":[]},{"type":"error","name":"FailedInnerCall","inputs":[]},{"type":"error","name":"InsufficientFundsForBid","inputs":[]},{"type":"error","name":"InvalidAddress","inputs":[]},{"type":"error","name":"InvalidAmountInWei","inputs":[]},{"type":"error","name":"InvalidMinBidIncrementValue","inputs":[]},{"type":"error","name":"InvalidStartEndTime","inputs":[{"name":"startTime","type":"uint256","internalType":"uint256"},{"name":"endTime","type":"uint256","internalType":"uint256"}]},{"type":"error","name":"OnlyOwner","inputs":[]},{"type":"error","name":"OwnableInvalidOwner","inputs":[{"name":"owner","type":"address","internalType":"address"}]},{"type":"error","name":"OwnableUnauthorizedAccount","inputs":[{"name":"account","type":"address","internalType":"address"}]},{"type":"error","name":"ReentrancyGuardReentrantCall","inputs":[]},{"type":"error","name":"TransferFailed","inputs":[]}],"bytecode":{"object":"0x60806040523480156200001157600080fd5b506040516200230c3803806200230c83398101604081905262000034916200011e565b826001600160a01b0381166200006457604051631e4fbdf760e01b81526000600482015260240160405180910390fd5b6200006f81620000b1565b50600180556002805460ff19169055600580546001600160a01b039384166001600160a01b031991821617909155600480549290931691161790555062000168565b600080546001600160a01b038381166001600160a01b0319831681178455604051919092169283917f8be0079c531659141344cd1fd0a4f28419497f9722a3daafe3b4186f6b6457e09190a35050565b80516001600160a01b03811681146200011957600080fd5b919050565b6000806000606084860312156200013457600080fd5b6200013f8462000101565b92506200014f6020850162000101565b91506200015f6040850162000101565b90509250925092565b61219480620001786000396000f3fe6080604052600436106101b65760003560e01c806377329f35116100ec578063c3f909d41161008a578063c884ef8311610064578063c884ef8314610516578063d745f58f14610546578063e5c389cd14610566578063f2fde38b1461058657600080fd5b8063c3f909d414610487578063c5b63600146104cf578063c80ec522146104e457600080fd5b80638da5cb5b116100c65780638da5cb5b1461040957806395d6a3cc14610434578063a06a5b3514610454578063a8602fea1461046757600080fd5b806377329f35146103bf5780637e907e64146103df5780638456cb59146103f457600080fd5b80633f4ba83a11610159578063577824191161013357806357782419146103395780635c975abb1461035957806367ba52501461037d578063715018a6146103aa57600080fd5b80633f4ba83a146102b05780634626402b146102c557806354f567411461031757600080fd5b80630d16e28c116101955780630d16e28c1461025057806319bcb4cd146102665780632931ec161461027b5780633ccfd60b1461029b57600080fd5b8062f2a368146101bb578063010d9813146101dd578063031778f914610215575b600080fd5b3480156101c757600080fd5b506101db6101d6366004611dc3565b6105a6565b005b3480156101e957600080fd5b506101fd6101f8366004611dde565b610750565b60405161020c93929190611e61565b60405180910390f35b34801561022157600080fd5b50610242610230366004611dc3565b609c6020526000908152604090205481565b60405190815260200161020c565b34801561025c57600080fd5b5061024260035481565b34801561027257600080fd5b50610242603281565b34801561028757600080fd5b506101db610296366004611dde565b610791565b3480156102a757600080fd5b506101db61079e565b3480156102bc57600080fd5b506101db6109d3565b3480156102d157600080fd5b506004546102f29073ffffffffffffffffffffffffffffffffffffffff1681565b60405173ffffffffffffffffffffffffffffffffffffffff909116815260200161020c565b34801561032357600080fd5b5061032c6109e3565b60405161020c9190611e92565b34801561034557600080fd5b50610242610354366004611efd565b610a89565b34801561036557600080fd5b5060025460ff165b604051901515815260200161020c565b34801561038957600080fd5b506005546102f29073ffffffffffffffffffffffffffffffffffffffff1681565b3480156103b657600080fd5b506101db610adb565b3480156103cb57600080fd5b506101db6103da366004611dc3565b610aed565b3480156103eb57600080fd5b50610242610e7c565b34801561040057600080fd5b506101db610ec5565b34801561041557600080fd5b5060005473ffffffffffffffffffffffffffffffffffffffff166102f2565b34801561044057600080fd5b5061036d61044f366004611f6a565b610ed5565b6101db610462366004611fc6565b610f70565b34801561047357600080fd5b506101db610482366004611dc3565b6110e1565b34801561049357600080fd5b5061049c6111c6565b60405161020c91908151815260208083015190820152604080830151908201526060918201519181019190915260800190565b3480156104db57600080fd5b5061024261121e565b3480156104f057600080fd5b5060045461036d9074010000000000000000000000000000000000000000900460ff1681565b34801561052257600080fd5b5061036d610531366004611dc3565b609d6020526000908152604090205460ff1681565b34801561055257600080fd5b506101db610561366004611dc3565b611271565b34801561057257600080fd5b506101db610581366004612012565b611356565b34801561059257600080fd5b506101db6105a1366004611dc3565b61149d565b60005473ffffffffffffffffffffffffffffffffffffffff1633146105f7576040517f5fc483c500000000000000000000000000000000000000000000000000000000815260040160405180910390fd5b609e54600003610633576040517face124bc00000000000000000000000000000000000000000000000000000000815260040160405180910390fd5b609f54421161066e576040517f6463738900000000000000000000000000000000000000000000000000000000815260040160405180910390fd5b60006106786114fe565b90506000610687826001612073565b90505b603281101561074b5760055473ffffffffffffffffffffffffffffffffffffffff166340c10f19846106bd846001612073565b6040517fffffffff0000000000000000000000000000000000000000000000000000000060e085901b16815273ffffffffffffffffffffffffffffffffffffffff90921660048301526024820152604401600060405180830381600087803b15801561072857600080fd5b505af115801561073c573d6000803e3d6000fd5b5050505080600101905061068a565b505050565b6006816032811061076057600080fd5b600302018054600182015460029092015473ffffffffffffffffffffffffffffffffffffffff909116925060ff1683565b610799611558565b600355565b60005473ffffffffffffffffffffffffffffffffffffffff1633146107ef576040517f5fc483c500000000000000000000000000000000000000000000000000000000815260040160405180910390fd5b6107f76115ab565b609f544211610832576040517f6463738900000000000000000000000000000000000000000000000000000000815260040160405180910390fd5b60045474010000000000000000000000000000000000000000900460ff1615610887576040517f646cf55800000000000000000000000000000000000000000000000000000000815260040160405180910390fd5b600480547fffffffffffffffffffffff00ffffffffffffffffffffffffffffffffffffffff1674010000000000000000000000000000000000000000179055600080805b6032811015610967576000600682603281106108e9576108e9612086565b600302015473ffffffffffffffffffffffffffffffffffffffff16146109675760016006826032811061091e5761091e612086565b600302016002015460ff16600181111561093a5761093a611df7565b036109515782610949816120b5565b93505061095f565b8161095b816120b5565b9250505b6001016108cb565b506000826109756001610a89565b61097f91906120ed565b905060008261098c610e7c565b61099691906120ed565b90506109c46109a58284612073565b60045473ffffffffffffffffffffffffffffffffffffffff16906115ee565b505050506109d160018055565b565b6109db611558565b6109d16116c4565b6109eb611d53565b604080516106408101909152600660326000835b82821015610a805760408051606081018252600384028601805473ffffffffffffffffffffffffffffffffffffffff16825260018082015460208401526002820154929391929184019160ff1690811115610a5c57610a5c611df7565b6001811115610a6d57610a6d611df7565b81525050815260200190600101906109ff565b50505050905090565b60006001826001811115610a9f57610a9f611df7565b03610ad3576064610ab1600f82612104565b610ab9610e7c565b610ac391906120ed565b610acd9190612117565b92915050565b610acd610e7c565b610ae3611558565b6109d16000611741565b609e54600003610b29576040517face124bc00000000000000000000000000000000000000000000000000000000815260040160405180910390fd5b610b316117b6565b610b396115ab565b609f544211610b74576040517f6463738900000000000000000000000000000000000000000000000000000000815260040160405180910390fd5b73ffffffffffffffffffffffffffffffffffffffff81166000908152609d602052604090205460ff1615610bd4576040517f646cf55800000000000000000000000000000000000000000000000000000000815260040160405180910390fd5b73ffffffffffffffffffffffffffffffffffffffff81166000908152609c6020908152604080832054609d909252822080547fffffffffffffffffffffffffffffffffffffffffffffffffffffffffffffff0016600117905581908190815b6032811015610dc8578573ffffffffffffffffffffffffffffffffffffffff1660068260328110610c6657610c66612086565b600302015473ffffffffffffffffffffffffffffffffffffffff1603610dc05760055473ffffffffffffffffffffffffffffffffffffffff166340c10f1987610cb0846001612073565b6040517fffffffff0000000000000000000000000000000000000000000000000000000060e085901b16815273ffffffffffffffffffffffffffffffffffffffff90921660048301526024820152604401600060405180830381600087803b158015610d1b57600080fd5b505af1158015610d2f573d6000803e3d6000fd5b505050508480610d3e906120b5565b95505060068160328110610d5457610d54612086565b600302016001015484610d679190612073565b9350600060068260328110610d7e57610d7e612086565b600302016002015460ff166001811115610d9a57610d9a611df7565b14610dc05760068160328110610db257610db2612086565b600302016002015460ff1692505b600101610c33565b506000610dd483610a89565b610dde90866120ed565b610de89085612104565b610df29083612073565b90508015610e1a57610e1a73ffffffffffffffffffffffffffffffffffffffff8716826115ee565b604080518681526020810183905273ffffffffffffffffffffffffffffffffffffffff8816917f987d620f307ff6b94d58743cb7a7509f24071586a77759b77c2d4e29f75a2f9a910160405180910390a25050505050610e7960018055565b50565b600080610e876114fe565b9050600060068260328110610e9e57610e9e612086565b60030201600101549050609e600301548110610eba5780610ebe565b60a1545b9250505090565b610ecd611558565b6109d16117f3565b6040517fffffffffffffffffffffffffffffffffffffffff000000000000000000000000606084901b1660208201526000908190603401604051602081830303815290604052805190602001209050610f6486868080602002602001604051908101604052809392919081815260200183836020028082843760009201919091525087925085915061184e9050565b9150505b949350505050565b609e54600003610fac576040517face124bc00000000000000000000000000000000000000000000000000000000815260040160405180910390fd5b60408051608081018252609e548152609f546020820181905260a0549282019290925260a15460608201529042101580610fe7575080514211155b1561103357805160208201516040517f2221fc9c000000000000000000000000000000000000000000000000000000008152600481019290925260248201526044015b60405180910390fd5b61103b6117b6565b6110436115ab565b61104b61121e565b841015611084576040517fa0d26eb600000000000000000000000000000000000000000000000000000000815260040160405180910390fd5b8334146110bd576040517f4094c8bb00000000000000000000000000000000000000000000000000000000815260040160405180910390fd5b6110d233856110cd868633611866565b61188d565b6110db60018055565b50505050565b60005473ffffffffffffffffffffffffffffffffffffffff163314611132576040517f5fc483c500000000000000000000000000000000000000000000000000000000815260040160405180910390fd5b73ffffffffffffffffffffffffffffffffffffffff811661117f576040517fe6c4247b00000000000000000000000000000000000000000000000000000000815260040160405180910390fd5b600480547fffffffffffffffffffffffff00000000000000000000000000000000000000001673ffffffffffffffffffffffffffffffffffffffff92909216919091179055565b6111f16040518060800160405280600081526020016000815260200160008152602001600081525090565b5060408051608081018252609e548152609f54602082015260a0549181019190915260a154606082015290565b600080600661122f60016032612104565b6032811061123f5761123f612086565b60030201600101549050609e6003015481106112675760a0546112629082612073565b61126b565b60a1545b91505090565b60005473ffffffffffffffffffffffffffffffffffffffff1633146112c2576040517f5fc483c500000000000000000000000000000000000000000000000000000000815260040160405180910390fd5b73ffffffffffffffffffffffffffffffffffffffff811661130f576040517fe6c4247b00000000000000000000000000000000000000000000000000000000815260040160405180910390fd5b600580547fffffffffffffffffffffffff00000000000000000000000000000000000000001673ffffffffffffffffffffffffffffffffffffffff92909216919091179055565b60005473ffffffffffffffffffffffffffffffffffffffff1633146113a7576040517f5fc483c500000000000000000000000000000000000000000000000000000000815260040160405180910390fd5b8315806113b45750828410155b156113f5576040517f2221fc9c000000000000000000000000000000000000000000000000000000008152600481018590526024810184905260440161102a565b8060000361142f576040517fee99522400000000000000000000000000000000000000000000000000000000815260040160405180910390fd5b81600003611469576040517fb0fd644300000000000000000000000000000000000000000000000000000000815260040160405180910390fd5b6040805160808101825285815260208101859052908101839052606001819052609e93909355609f9190915560a05560a155565b6114a5611558565b73ffffffffffffffffffffffffffffffffffffffff81166114f5576040517f1e4fbdf70000000000000000000000000000000000000000000000000000000081526000600482015260240161102a565b610e7981611741565b60325b60008111801561153557506006611519600183612104565b6032811061152957611529612086565b60030201600101546000145b1561154a5761154381612152565b9050611501565b61155381612152565b905090565b60005473ffffffffffffffffffffffffffffffffffffffff1633146109d1576040517f118cdaa700000000000000000000000000000000000000000000000000000000815233600482015260240161102a565b6002600154036115e7576040517f3ee5aeb500000000000000000000000000000000000000000000000000000000815260040160405180910390fd5b6002600155565b8047101561162a576040517fcd78605900000000000000000000000000000000000000000000000000000000815230600482015260240161102a565b60008273ffffffffffffffffffffffffffffffffffffffff168260405160006040518083038185875af1925050503d8060008114611684576040519150601f19603f3d011682016040523d82523d6000602084013e611689565b606091505b505090508061074b576040517f1425ea4200000000000000000000000000000000000000000000000000000000815260040160405180910390fd5b6116cc611ca8565b600280547fffffffffffffffffffffffffffffffffffffffffffffffffffffffffffffff001690557f5db9ee0a495bf2e6ff9c91a7834c1ba4fdd244a5e8aa4e537bd38aeae4b073aa335b60405173ffffffffffffffffffffffffffffffffffffffff909116815260200160405180910390a1565b6000805473ffffffffffffffffffffffffffffffffffffffff8381167fffffffffffffffffffffffff0000000000000000000000000000000000000000831681178455604051919092169283917f8be0079c531659141344cd1fd0a4f28419497f9722a3daafe3b4186f6b6457e09190a35050565b60025460ff16156109d1576040517fd93c066500000000000000000000000000000000000000000000000000000000815260040160405180910390fd5b6117fb6117b6565b600280547fffffffffffffffffffffffffffffffffffffffffffffffffffffffffffffff001660011790557f62e78cea01bee320cd4e420270b5ea74000d11b0c9f74754ebdbfc544b05a2586117173390565b60008261185b8584611ce4565b1490505b9392505050565b6000611876848484600354610ed5565b156118835750600161185f565b5060009392505050565b60005b6032811080156118ba575082600682603281106118af576118af612086565b600302016001015410155b156118c757600101611890565b60328110611901576040517ff8f9b73800000000000000000000000000000000000000000000000000000000815260040160405180910390fd5b6000600661191160016032612104565b6032811061192157611921612086565b6040805160608101825260039290920292909201805473ffffffffffffffffffffffffffffffffffffffff16825260018082015460208401526002820154929391929184019160ff169081111561197a5761197a611df7565b600181111561198b5761198b611df7565b905250805190915073ffffffffffffffffffffffffffffffffffffffff1615611a6f57806000015173ffffffffffffffffffffffffffffffffffffffff167fa2cff9008d30bf3adae9404caec9ac9706b134b383d4c7868f2c0b557d2e3af3826020015184604051611a07929190918252602082015260400190565b60405180910390a2602080820151825173ffffffffffffffffffffffffffffffffffffffff166000908152609c909252604090912054611a479190612073565b815173ffffffffffffffffffffffffffffffffffffffff166000908152609c60205260409020555b6000611a7d60016032612104565b90505b82811115611b76576006611a95600183612104565b60328110611aa557611aa5612086565b6003020160068260328110611abc57611abc612086565b82546003919091029190910180547fffffffffffffffffffffffff00000000000000000000000000000000000000001673ffffffffffffffffffffffffffffffffffffffff90921691909117815560018083015481830155600280840154908301805460ff9092169290917fffffffffffffffffffffffffffffffffffffffffffffffffffffffffffffff0016908381811115611b5b57611b5b611df7565b02179055509050508080611b6e90612152565b915050611a80565b508473ffffffffffffffffffffffffffffffffffffffff167f3fabff0a9c3ecd6814702e247fa9733e5d0aa69e3a38590f92cb18f623a2254d85604051611bbf91815260200190565b60405180910390a260405180606001604052808673ffffffffffffffffffffffffffffffffffffffff168152602001858152602001846001811115611c0657611c06611df7565b905260068360328110611c1b57611c1b612086565b6003020160008201518160000160006101000a81548173ffffffffffffffffffffffffffffffffffffffff021916908373ffffffffffffffffffffffffffffffffffffffff1602179055506020820151816001015560408201518160020160006101000a81548160ff02191690836001811115611c9a57611c9a611df7565b021790555050505050505050565b60025460ff166109d1576040517f8dfc202b00000000000000000000000000000000000000000000000000000000815260040160405180910390fd5b600081815b8451811015611d1f57611d1582868381518110611d0857611d08612086565b6020026020010151611d27565b9150600101611ce9565b509392505050565b6000818310611d4357600082815260208490526040902061185f565b5060009182526020526040902090565b6040518061064001604052806032905b611d8460408051606081018252600080825260208201819052909182015290565b815260200190600190039081611d635790505090565b803573ffffffffffffffffffffffffffffffffffffffff81168114611dbe57600080fd5b919050565b600060208284031215611dd557600080fd5b61185f82611d9a565b600060208284031215611df057600080fd5b5035919050565b7f4e487b7100000000000000000000000000000000000000000000000000000000600052602160045260246000fd5b60028110611e5d577f4e487b7100000000000000000000000000000000000000000000000000000000600052602160045260246000fd5b9052565b73ffffffffffffffffffffffffffffffffffffffff841681526020810183905260608101610f686040830184611e26565b6112c08101818360005b6032811015611ef4578151805173ffffffffffffffffffffffffffffffffffffffff1684526020808201518186015260409182015191611ede81870184611e26565b5060609490940193929092019150600101611e9c565b50505092915050565b600060208284031215611f0f57600080fd5b81356002811061185f57600080fd5b60008083601f840112611f3057600080fd5b50813567ffffffffffffffff811115611f4857600080fd5b6020830191508360208260051b8501011115611f6357600080fd5b9250929050565b60008060008060608587031215611f8057600080fd5b843567ffffffffffffffff811115611f9757600080fd5b611fa387828801611f1e565b9095509350611fb6905060208601611d9a565b9396929550929360400135925050565b600080600060408486031215611fdb57600080fd5b83359250602084013567ffffffffffffffff811115611ff957600080fd5b61200586828701611f1e565b9497909650939450505050565b6000806000806080858703121561202857600080fd5b5050823594602084013594506040840135936060013592509050565b7f4e487b7100000000000000000000000000000000000000000000000000000000600052601160045260246000fd5b80820180821115610acd57610acd612044565b7f4e487b7100000000000000000000000000000000000000000000000000000000600052603260045260246000fd5b60007fffffffffffffffffffffffffffffffffffffffffffffffffffffffffffffffff82036120e6576120e6612044565b5060010190565b8082028115828204841417610acd57610acd612044565b81810381811115610acd57610acd612044565b60008261214d577f4e487b7100000000000000000000000000000000000000000000000000000000600052601260045260246000fd5b500490565b60008161216157612161612044565b507fffffffffffffffffffffffffffffffffffffffffffffffffffffffffffffffff019056fea164736f6c6343000817000a","linkReferences":{}},"methodIdentifiers":{"MAX_TOP_BIDS()":"19bcb4cd","adminMintRemaining(address)":"00f2a368","bid(uint256,bytes32[])":"a06a5b35","bidBalances(address)":"031778f9","checkMerkleProof(bytes32[],address,bytes32)":"95d6a3cc","claimAll(address)":"77329f35","claimed(address)":"c884ef83","firstTierMerkleRoot()":"0d16e28c","getConfig()":"c3f909d4","getMinimumBid()":"c5b63600","getSettledPrice()":"7e907e64","getSettledPriceWithDiscount(uint8)":"57782419","getTopBids()":"54f56741","glitchAddress()":"67ba5250","owner()":"8da5cb5b","pause()":"8456cb59","paused()":"5c975abb","renounceOwnership()":"715018a6","setConfig(uint256,uint256,uint256,uint256)":"e5c389cd","setGlitchAddress(address)":"d745f58f","setMerkleRoots(bytes32)":"2931ec16","setTreasuryWallet(address)":"a8602fea","topBids(uint256)":"010d9813","transferOwnership(address)":"f2fde38b","treasuryWallet()":"4626402b","unpause()":"3f4ba83a","withdraw()":"3ccfd60b","withdrawn()":"c80ec522"},"id":50}