{"abi":[{"type":"constructor","inputs":[{"name":"initialOwner","type":"address","internalType":"address"},{"name":"_erc721Address","type":"address","internalType":"address"}],"stateMutability":"nonpayable"},{"type":"function","name":"MAX_TOP_BIDS","inputs":[],"outputs":[{"name":"","type":"uint256","internalType":"uint256"}],"stateMutability":"view"},{"type":"function","name":"bid","inputs":[{"name":"bidAmount","type":"uint256","internalType":"uint256"}],"outputs":[],"stateMutability":"payable"},{"type":"function","name":"bidBalances","inputs":[{"name":"","type":"address","internalType":"address"}],"outputs":[{"name":"","type":"uint256","internalType":"uint256"}],"stateMutability":"view"},{"type":"function","name":"claimNFT","inputs":[],"outputs":[],"stateMutability":"nonpayable"},{"type":"function","name":"claimRefund","inputs":[],"outputs":[],"stateMutability":"nonpayable"},{"type":"function","name":"erc721Address","inputs":[],"outputs":[{"name":"","type":"address","internalType":"contract IERC721Enumerable"}],"stateMutability":"view"},{"type":"function","name":"getConfig","inputs":[],"outputs":[{"name":"","type":"tuple","internalType":"struct Config","components":[{"name":"startTime","type":"uint256","internalType":"uint256"},{"name":"endTime","type":"uint256","internalType":"uint256"},{"name":"minBidIncrementInWei","type":"uint256","internalType":"uint256"}]}],"stateMutability":"view"},{"type":"function","name":"owner","inputs":[],"outputs":[{"name":"","type":"address","internalType":"address"}],"stateMutability":"view"},{"type":"function","name":"renounceOwnership","inputs":[],"outputs":[],"stateMutability":"nonpayable"},{"type":"function","name":"setConfig","inputs":[{"name":"_startTime","type":"uint256","internalType":"uint256"},{"name":"_endTime","type":"uint256","internalType":"uint256"},{"name":"_minBidIncrementInWei","type":"uint256","internalType":"uint256"},{"name":"_startAmountInWei","type":"uint256","internalType":"uint256"}],"outputs":[],"stateMutability":"nonpayable"},{"type":"function","name":"topBids","inputs":[{"name":"","type":"uint256","internalType":"uint256"}],"outputs":[{"name":"bidder","type":"address","internalType":"address"},{"name":"amount","type":"uint256","internalType":"uint256"}],"stateMutability":"view"},{"type":"function","name":"transferOwnership","inputs":[{"name":"newOwner","type":"address","internalType":"address"}],"outputs":[],"stateMutability":"nonpayable"},{"type":"event","name":"OwnershipTransferred","inputs":[{"name":"previousOwner","type":"address","indexed":true,"internalType":"address"},{"name":"newOwner","type":"address","indexed":true,"internalType":"address"}],"anonymous":false},{"type":"error","name":"ConfigAlreadySet","inputs":[]},{"type":"error","name":"ConfigNotSet","inputs":[]},{"type":"error","name":"InvalidAmountInWei","inputs":[]},{"type":"error","name":"InvalidMinBidIncrementValue","inputs":[]},{"type":"error","name":"InvalidStartEndTime","inputs":[{"name":"startTime","type":"uint256","internalType":"uint256"},{"name":"endTime","type":"uint256","internalType":"uint256"}]},{"type":"error","name":"OwnableInvalidOwner","inputs":[{"name":"owner","type":"address","internalType":"address"}]},{"type":"error","name":"OwnableUnauthorizedAccount","inputs":[{"name":"account","type":"address","internalType":"address"}]}],"bytecode":{"object":"0x608060405234801561001057600080fd5b50604051610f84380380610f8483398101604081905261002f916100fa565b816001600160a01b03811661005e57604051631e4fbdf760e01b81526000600482015260240160405180910390fd5b6100678161008e565b50600180546001600160a01b0319166001600160a01b03929092169190911790555061012d565b600080546001600160a01b038381166001600160a01b0319831681178455604051919092169283917f8be0079c531659141344cd1fd0a4f28419497f9722a3daafe3b4186f6b6457e09190a35050565b80516001600160a01b03811681146100f557600080fd5b919050565b6000806040838503121561010d57600080fd5b610116836100de565b9150610124602084016100de565b90509250929050565b610e488061013c6000396000f3fe6080604052600436106100c75760003560e01c8063715018a611610074578063c3f909d41161004e578063c3f909d41461023e578063e5c389cd14610275578063f2fde38b1461029557600080fd5b8063715018a6146101e95780638da5cb5b146101fe578063b5545a3c1461022957600080fd5b80632352a864116100a55780632352a8641461016d578063454a2ab3146101bf578063672756ad146101d457600080fd5b8063010d9813146100cc578063031778f91461011d57806319bcb4cd14610158575b600080fd5b3480156100d857600080fd5b506100ec6100e7366004610cf4565b6102b5565b6040805173ffffffffffffffffffffffffffffffffffffffff90931683526020830191909152015b60405180910390f35b34801561012957600080fd5b5061014a610138366004610d0d565b60166020526000908152604090205481565b604051908152602001610114565b34801561016457600080fd5b5061014a600a81565b34801561017957600080fd5b5060015461019a9073ffffffffffffffffffffffffffffffffffffffff1681565b60405173ffffffffffffffffffffffffffffffffffffffff9091168152602001610114565b6101d26101cd366004610cf4565b6102ee565b005b3480156101e057600080fd5b506101d26104c7565b3480156101f557600080fd5b506101d26106b1565b34801561020a57600080fd5b5060005473ffffffffffffffffffffffffffffffffffffffff1661019a565b34801561023557600080fd5b506101d26106c5565b34801561024a57600080fd5b506102536107e6565b6040805182518152602080840151908201529181015190820152606001610114565b34801561028157600080fd5b506101d2610290366004610d4a565b61082f565b3480156102a157600080fd5b506101d26102b0366004610d0d565b6109e3565b600281600a81106102c557600080fd5b60020201805460019091015473ffffffffffffffffffffffffffffffffffffffff909116915082565b60175460000361032a576040517face124bc00000000000000000000000000000000000000000000000000000000815260040160405180910390fd5b6040805160608101825260175481526018546020820181905260195492820192909252904210158061035d575080514211155b156103a957805160208201516040517f2221fc9c000000000000000000000000000000000000000000000000000000008152600481019290925260248201526044015b60405180910390fd5b6015548211610414576040517f08c379a000000000000000000000000000000000000000000000000000000000815260206004820152600b60248201527f42696420746f6f206c6f7700000000000000000000000000000000000000000060448201526064016103a0565b3360009081526016602052604081205461042f903490610dda565b90508281101561049b576040517f08c379a000000000000000000000000000000000000000000000000000000000815260206004820152601a60248201527f496e73756666696369656e742066756e647320666f722062696400000000000060448201526064016103a0565b6104a58382610df3565b336000818152601660205260409020919091556104c29084610a47565b505050565b6018544210610532576040517f08c379a000000000000000000000000000000000000000000000000000000000815260206004820152601160248201527f41756374696f6e206e6f7420656e64656400000000000000000000000000000060448201526064016103a0565b6000805b600a81101561058d5733600282600a811061055357610553610d7c565b600202015473ffffffffffffffffffffffffffffffffffffffff16036105855761057e816001610dda565b915061058d565b600101610536565b506000811161061e576040517f08c379a000000000000000000000000000000000000000000000000000000000815260206004820152602360248201527f4e6f74206120746f7020626964646572206f7220616c726561647920636c616960448201527f6d6564000000000000000000000000000000000000000000000000000000000060648201526084016103a0565b6001546040517f42842e0e0000000000000000000000000000000000000000000000000000000081523060048201523360248201526044810183905273ffffffffffffffffffffffffffffffffffffffff909116906342842e0e90606401600060405180830381600087803b15801561069657600080fd5b505af11580156106aa573d6000803e3d6000fd5b5050505050565b6106b9610c2c565b6106c36000610c7f565b565b6018544210610730576040517f08c379a000000000000000000000000000000000000000000000000000000000815260206004820152601160248201527f41756374696f6e206e6f7420656e64656400000000000000000000000000000060448201526064016103a0565b33600090815260166020526040902054806107a7576040517f08c379a000000000000000000000000000000000000000000000000000000000815260206004820152601360248201527f4e6f20726566756e6420617661696c61626c650000000000000000000000000060448201526064016103a0565b336000818152601660205260408082208290555183156108fc0291849190818181858888f193505050501580156107e2573d6000803e3d6000fd5b5050565b61080a60405180606001604052806000815260200160008152602001600081525090565b5060408051606081018252601754815260185460208201526019549181019190915290565b60005473ffffffffffffffffffffffffffffffffffffffff1633146108b0576040517f08c379a000000000000000000000000000000000000000000000000000000000815260206004820152600a60248201527f4f6e6c79206f776e65720000000000000000000000000000000000000000000060448201526064016103a0565b601754158015906108c357506017544210155b156108fa576040517fc7c5196500000000000000000000000000000000000000000000000000000000815260040160405180910390fd5b8315806109075750828410155b15610948576040517f2221fc9c00000000000000000000000000000000000000000000000000000000815260048101859052602481018490526044016103a0565b80600003610982576040517fee99522400000000000000000000000000000000000000000000000000000000815260040160405180910390fd5b816000036109bc576040517fb0fd644300000000000000000000000000000000000000000000000000000000815260040160405180910390fd5b50604080516060810182528481526020810184905201819052601792909255601855601955565b6109eb610c2c565b73ffffffffffffffffffffffffffffffffffffffff8116610a3b576040517f1e4fbdf7000000000000000000000000000000000000000000000000000000008152600060048201526024016103a0565b610a4481610c7f565b50565b60005b600a811015610a7c57600281600a8110610a6657610a66610d7c565b60020201600101548211610a7c57600101610a4a565b600a8110610ae6576040517f08c379a000000000000000000000000000000000000000000000000000000000815260206004820152601f60248201527f42696420646f6573206e6f74207175616c69667920666f7220746f702031300060448201526064016103a0565b60095b81811115610b8e576002610afe600183610df3565b600a8110610b0e57610b0e610d7c565b60020201600282600a8110610b2557610b25610d7c565b82546002919091029190910180547fffffffffffffffffffffffff00000000000000000000000000000000000000001673ffffffffffffffffffffffffffffffffffffffff90921691909117815560019182015491015580610b8681610e06565b915050610ae9565b5060405180604001604052808473ffffffffffffffffffffffffffffffffffffffff16815260200183815250600282600a8110610bcd57610bcd610d7c565b82516002919091029190910180547fffffffffffffffffffffffff00000000000000000000000000000000000000001673ffffffffffffffffffffffffffffffffffffffff909216919091178155602090910151600190910155505050565b60005473ffffffffffffffffffffffffffffffffffffffff1633146106c3576040517f118cdaa70000000000000000000000000000000000000000000000000000000081523360048201526024016103a0565b6000805473ffffffffffffffffffffffffffffffffffffffff8381167fffffffffffffffffffffffff0000000000000000000000000000000000000000831681178455604051919092169283917f8be0079c531659141344cd1fd0a4f28419497f9722a3daafe3b4186f6b6457e09190a35050565b600060208284031215610d0657600080fd5b5035919050565b600060208284031215610d1f57600080fd5b813573ffffffffffffffffffffffffffffffffffffffff81168114610d4357600080fd5b9392505050565b60008060008060808587031215610d6057600080fd5b5050823594602084013594506040840135936060013592509050565b7f4e487b7100000000000000000000000000000000000000000000000000000000600052603260045260246000fd5b7f4e487b7100000000000000000000000000000000000000000000000000000000600052601160045260246000fd5b80820180821115610ded57610ded610dab565b92915050565b81810381811115610ded57610ded610dab565b600081610e1557610e15610dab565b507fffffffffffffffffffffffffffffffffffffffffffffffffffffffffffffffff019056fea164736f6c6343000817000a","linkReferences":{}},"methodIdentifiers":{"MAX_TOP_BIDS()":"19bcb4cd","bid(uint256)":"454a2ab3","bidBalances(address)":"031778f9","claimNFT()":"672756ad","claimRefund()":"b5545a3c","erc721Address()":"2352a864","getConfig()":"c3f909d4","owner()":"8da5cb5b","renounceOwnership()":"715018a6","setConfig(uint256,uint256,uint256,uint256)":"e5c389cd","topBids(uint256)":"010d9813","transferOwnership(address)":"f2fde38b"},"id":21}