{"abi":[{"type":"constructor","inputs":[{"name":"initialOwner","type":"address","internalType":"address"},{"name":"_minterContractAddress","type":"address","internalType":"address"},{"name":"_baseUri","type":"string","internalType":"string"}],"stateMutability":"nonpayable"},{"type":"function","name":"approve","inputs":[{"name":"to","type":"address","internalType":"address"},{"name":"tokenId","type":"uint256","internalType":"uint256"}],"outputs":[],"stateMutability":"nonpayable"},{"type":"function","name":"balanceOf","inputs":[{"name":"owner","type":"address","internalType":"address"}],"outputs":[{"name":"","type":"uint256","internalType":"uint256"}],"stateMutability":"view"},{"type":"function","name":"baseURI","inputs":[],"outputs":[{"name":"","type":"string","internalType":"string"}],"stateMutability":"view"},{"type":"function","name":"burn","inputs":[{"name":"tokenId","type":"uint256","internalType":"uint256"}],"outputs":[],"stateMutability":"nonpayable"},{"type":"function","name":"getAllTokensVersion","inputs":[],"outputs":[{"name":"versions","type":"string[]","internalType":"string[]"}],"stateMutability":"view"},{"type":"function","name":"getApproved","inputs":[{"name":"tokenId","type":"uint256","internalType":"uint256"}],"outputs":[{"name":"","type":"address","internalType":"address"}],"stateMutability":"view"},{"type":"function","name":"getTokenVersion","inputs":[{"name":"tokenId","type":"uint256","internalType":"uint256"}],"outputs":[{"name":"versionStr","type":"string","internalType":"string"}],"stateMutability":"view"},{"type":"function","name":"isApprovedForAll","inputs":[{"name":"owner","type":"address","internalType":"address"},{"name":"operator","type":"address","internalType":"address"}],"outputs":[{"name":"","type":"bool","internalType":"bool"}],"stateMutability":"view"},{"type":"function","name":"mint","inputs":[{"name":"recipient","type":"address","internalType":"address"},{"name":"_id","type":"uint256","internalType":"uint256"}],"outputs":[],"stateMutability":"nonpayable"},{"type":"function","name":"minterContractAddress","inputs":[],"outputs":[{"name":"","type":"address","internalType":"address"}],"stateMutability":"view"},{"type":"function","name":"name","inputs":[],"outputs":[{"name":"","type":"string","internalType":"string"}],"stateMutability":"view"},{"type":"function","name":"owner","inputs":[],"outputs":[{"name":"","type":"address","internalType":"address"}],"stateMutability":"view"},{"type":"function","name":"ownerOf","inputs":[{"name":"tokenId","type":"uint256","internalType":"uint256"}],"outputs":[{"name":"","type":"address","internalType":"address"}],"stateMutability":"view"},{"type":"function","name":"refreshToken","inputs":[{"name":"tokenId","type":"uint256","internalType":"uint256"}],"outputs":[],"stateMutability":"nonpayable"},{"type":"function","name":"renounceOwnership","inputs":[],"outputs":[],"stateMutability":"nonpayable"},{"type":"function","name":"safeTransferFrom","inputs":[{"name":"from","type":"address","internalType":"address"},{"name":"to","type":"address","internalType":"address"},{"name":"tokenId","type":"uint256","internalType":"uint256"}],"outputs":[],"stateMutability":"nonpayable"},{"type":"function","name":"safeTransferFrom","inputs":[{"name":"from","type":"address","internalType":"address"},{"name":"to","type":"address","internalType":"address"},{"name":"tokenId","type":"uint256","internalType":"uint256"},{"name":"data","type":"bytes","internalType":"bytes"}],"outputs":[],"stateMutability":"nonpayable"},{"type":"function","name":"setApprovalForAll","inputs":[{"name":"operator","type":"address","internalType":"address"},{"name":"approved","type":"bool","internalType":"bool"}],"outputs":[],"stateMutability":"nonpayable"},{"type":"function","name":"setBaseURI","inputs":[{"name":"newBaseURI","type":"string","internalType":"string"}],"outputs":[],"stateMutability":"nonpayable"},{"type":"function","name":"setMinterContractAddress","inputs":[{"name":"newMinterContractAddress","type":"address","internalType":"address"}],"outputs":[],"stateMutability":"nonpayable"},{"type":"function","name":"supportsInterface","inputs":[{"name":"interfaceId","type":"bytes4","internalType":"bytes4"}],"outputs":[{"name":"","type":"bool","internalType":"bool"}],"stateMutability":"view"},{"type":"function","name":"symbol","inputs":[],"outputs":[{"name":"","type":"string","internalType":"string"}],"stateMutability":"view"},{"type":"function","name":"tokenByIndex","inputs":[{"name":"index","type":"uint256","internalType":"uint256"}],"outputs":[{"name":"","type":"uint256","internalType":"uint256"}],"stateMutability":"view"},{"type":"function","name":"tokenOfOwnerByIndex","inputs":[{"name":"owner","type":"address","internalType":"address"},{"name":"index","type":"uint256","internalType":"uint256"}],"outputs":[{"name":"","type":"uint256","internalType":"uint256"}],"stateMutability":"view"},{"type":"function","name":"tokenURI","inputs":[{"name":"tokenId","type":"uint256","internalType":"uint256"}],"outputs":[{"name":"","type":"string","internalType":"string"}],"stateMutability":"view"},{"type":"function","name":"totalSupply","inputs":[],"outputs":[{"name":"","type":"uint256","internalType":"uint256"}],"stateMutability":"pure"},{"type":"function","name":"transferFrom","inputs":[{"name":"from","type":"address","internalType":"address"},{"name":"to","type":"address","internalType":"address"},{"name":"tokenId","type":"uint256","internalType":"uint256"}],"outputs":[],"stateMutability":"nonpayable"},{"type":"function","name":"transferOwnership","inputs":[{"name":"newOwner","type":"address","internalType":"address"}],"outputs":[],"stateMutability":"nonpayable"},{"type":"event","name":"Approval","inputs":[{"name":"owner","type":"address","indexed":true,"internalType":"address"},{"name":"approved","type":"address","indexed":true,"internalType":"address"},{"name":"tokenId","type":"uint256","indexed":true,"internalType":"uint256"}],"anonymous":false},{"type":"event","name":"ApprovalForAll","inputs":[{"name":"owner","type":"address","indexed":true,"internalType":"address"},{"name":"operator","type":"address","indexed":true,"internalType":"address"},{"name":"approved","type":"bool","indexed":false,"internalType":"bool"}],"anonymous":false},{"type":"event","name":"BatchMetadataUpdate","inputs":[{"name":"_fromTokenId","type":"uint256","indexed":false,"internalType":"uint256"},{"name":"_toTokenId","type":"uint256","indexed":false,"internalType":"uint256"}],"anonymous":false},{"type":"event","name":"MetadataUpdate","inputs":[{"name":"_tokenId","type":"uint256","indexed":false,"internalType":"uint256"}],"anonymous":false},{"type":"event","name":"OwnershipTransferred","inputs":[{"name":"previousOwner","type":"address","indexed":true,"internalType":"address"},{"name":"newOwner","type":"address","indexed":true,"internalType":"address"}],"anonymous":false},{"type":"event","name":"Transfer","inputs":[{"name":"from","type":"address","indexed":true,"internalType":"address"},{"name":"to","type":"address","indexed":true,"internalType":"address"},{"name":"tokenId","type":"uint256","indexed":true,"internalType":"uint256"}],"anonymous":false},{"type":"error","name":"ERC721EnumerableForbiddenBatchMint","inputs":[]},{"type":"error","name":"ERC721IncorrectOwner","inputs":[{"name":"sender","type":"address","internalType":"address"},{"name":"tokenId","type":"uint256","internalType":"uint256"},{"name":"owner","type":"address","internalType":"address"}]},{"type":"error","name":"ERC721InsufficientApproval","inputs":[{"name":"operator","type":"address","internalType":"address"},{"name":"tokenId","type":"uint256","internalType":"uint256"}]},{"type":"error","name":"ERC721InvalidApprover","inputs":[{"name":"approver","type":"address","internalType":"address"}]},{"type":"error","name":"ERC721InvalidOperator","inputs":[{"name":"operator","type":"address","internalType":"address"}]},{"type":"error","name":"ERC721InvalidOwner","inputs":[{"name":"owner","type":"address","internalType":"address"}]},{"type":"error","name":"ERC721InvalidReceiver","inputs":[{"name":"receiver","type":"address","internalType":"address"}]},{"type":"error","name":"ERC721InvalidSender","inputs":[{"name":"sender","type":"address","internalType":"address"}]},{"type":"error","name":"ERC721NonexistentToken","inputs":[{"name":"tokenId","type":"uint256","internalType":"uint256"}]},{"type":"error","name":"ERC721OutOfBoundsIndex","inputs":[{"name":"owner","type":"address","internalType":"address"},{"name":"index","type":"uint256","internalType":"uint256"}]},{"type":"error","name":"OwnableInvalidOwner","inputs":[{"name":"owner","type":"address","internalType":"address"}]},{"type":"error","name":"OwnableUnauthorizedAccount","inputs":[{"name":"account","type":"address","internalType":"address"}]}],"bytecode":{"object":"0x60806040523480156200001157600080fd5b50604051620027c2380380620027c283398101604081905262000034916200018a565b82604051806040016040528060068152602001650ced8d2e8c6d60d31b8152506040518060400160405280600381526020016211d31560ea1b815250816000908162000081919062000315565b50600162000090828262000315565b5050506001600160a01b038116620000c257604051631e4fbdf760e01b81526000600482015260240160405180910390fd5b620000cd8162000105565b50600d620000dc828262000315565b5050600c80546001600160a01b0319166001600160a01b039290921691909117905550620003e1565b600b80546001600160a01b038381166001600160a01b0319831681179093556040519116919082907f8be0079c531659141344cd1fd0a4f28419497f9722a3daafe3b4186f6b6457e090600090a35050565b80516001600160a01b03811681146200016f57600080fd5b919050565b634e487b7160e01b600052604160045260246000fd5b600080600060608486031215620001a057600080fd5b620001ab8462000157565b92506020620001bc81860162000157565b60408601519093506001600160401b0380821115620001da57600080fd5b818701915087601f830112620001ef57600080fd5b81518181111562000204576200020462000174565b604051601f8201601f19908116603f011681019083821181831017156200022f576200022f62000174565b816040528281528a868487010111156200024857600080fd5b600093505b828410156200026c57848401860151818501870152928501926200024d565b60008684830101528096505050505050509250925092565b600181811c908216806200029957607f821691505b602082108103620002ba57634e487b7160e01b600052602260045260246000fd5b50919050565b601f82111562000310576000816000526020600020601f850160051c81016020861015620002eb5750805b601f850160051c820191505b818110156200030c57828155600101620002f7565b5050505b505050565b81516001600160401b0381111562000331576200033162000174565b620003498162000342845462000284565b84620002c0565b602080601f831160018114620003815760008415620003685750858301515b600019600386901b1c1916600185901b1785556200030c565b600085815260208120601f198616915b82811015620003b25788860151825594840194600190910190840162000391565b5085821015620003d15787850151600019600388901b60f8161c191681555b5050505050600190811b01905550565b6123d180620003f16000396000f3fe608060405234801561001057600080fd5b50600436106101c45760003560e01c80636352211e116100f9578063a22cb46511610097578063c87abd7b11610071578063c87abd7b146103ce578063c87b56dd146103e3578063e985e9c5146103f6578063f2fde38b1461043257600080fd5b8063a22cb46514610395578063b0526aca146103a8578063b88d4fde146103bb57600080fd5b8063715018a6116100d3578063715018a614610330578063809b8fad146103385780638da5cb5b1461037c57806395d89b411461038d57600080fd5b80636352211e146103025780636c0360eb1461031557806370a082311461031d57600080fd5b80632f745c591161016657806342842e0e1161014057806342842e0e146102b657806342966c68146102c95780634f6ccce7146102dc57806355f804b3146102ef57600080fd5b80632f745c591461027d5780633b54f4061461029057806340c10f19146102a357600080fd5b8063095ea7b3116101a2578063095ea7b3146102315780630dab46fe1461024657806318160ddd1461025957806323b872dd1461026a57600080fd5b806301ffc9a7146101c957806306fdde03146101f1578063081812fc14610206575b600080fd5b6101dc6101d7366004611c1c565b610445565b60405190151581526020015b60405180910390f35b6101f9610456565b6040516101e89190611cae565b610219610214366004611cc1565b6104e8565b6040516001600160a01b0390911681526020016101e8565b61024461023f366004611cf6565b610511565b005b600c54610219906001600160a01b031681565b60325b6040519081526020016101e8565b610244610278366004611d20565b610520565b61025c61028b366004611cf6565b610539565b6101f961029e366004611cc1565b6105bc565b6102446102b1366004611cf6565b61072c565b6102446102c4366004611d20565b610891565b6102446102d7366004611cc1565b6108ac565b61025c6102ea366004611cc1565b6108b8565b6102446102fd366004611e1f565b610923565b610219610310366004611cc1565b6109a3565b6101f96109ae565b61025c61032b366004611e68565b610a3c565b610244610a9d565b610244610346366004611cc1565b6000908152600e6020526040902080547fffffffffffffffffffffffffffffffffffffffffffffffffffffffffffffff00169055565b600b546001600160a01b0316610219565b6101f9610ab1565b6102446103a3366004611e83565b610ac0565b6102446103b6366004611e68565b610acb565b6102446103c9366004611ebf565b610b79565b6103d6610b96565b6040516101e89190611f3b565b6101f96103f1366004611cc1565b610c09565b6101dc610404366004611fbd565b6001600160a01b03918216600090815260056020908152604080832093909416825291909152205460ff1690565b610244610440366004611e68565b610c51565b600061045082610ca8565b92915050565b60606000805461046590611ff0565b80601f016020809104026020016040519081016040528092919081815260200182805461049190611ff0565b80156104de5780601f106104b3576101008083540402835291602001916104de565b820191906000526020600020905b8154815290600101906020018083116104c157829003601f168201915b5050505050905090565b60006104f382610cfe565b506000828152600460205260409020546001600160a01b0316610450565b61051c828233610d50565b5050565b61052981610d5d565b610534838383610e3d565b505050565b600061054483610a3c565b8210610593576040517fa57d13dc0000000000000000000000000000000000000000000000000000000081526001600160a01b0384166004820152602481018390526044015b60405180910390fd5b506001600160a01b03919091166000908152600660209081526040808320938352929052205490565b6000818152600e602052604081205460609160ff909116908160038111156105e6576105e661203d565b03610628576040518060400160405280600181526020017f41000000000000000000000000000000000000000000000000000000000000008152509150610726565b600181600381111561063c5761063c61203d565b0361067e576040518060400160405280600181526020017f42000000000000000000000000000000000000000000000000000000000000008152509150610726565b60028160038111156106925761069261203d565b036106d4576040518060400160405280600181526020017f43000000000000000000000000000000000000000000000000000000000000008152509150610726565b60038160038111156106e8576106e861203d565b03610726576040518060400160405280600181526020017f440000000000000000000000000000000000000000000000000000000000000081525091505b50919050565b600c546001600160a01b031633146107a0576040517f08c379a000000000000000000000000000000000000000000000000000000000815260206004820152601460248201527f4f6e6c79206d696e7465722063616e206d696e74000000000000000000000000604482015260640161058a565b6001600160a01b038216610810576040517f08c379a000000000000000000000000000000000000000000000000000000000815260206004820152601b60248201527f43616e6e6f74206d696e7420746f207a65726f20616464726573730000000000604482015260640161058a565b603281118015906108215750600081115b610887576040517f08c379a000000000000000000000000000000000000000000000000000000000815260206004820152601060248201527f4964206f7574206f6620626f756e647300000000000000000000000000000000604482015260640161058a565b61051c8282610ef4565b61053483838360405180602001604052806000815250610b79565b61051c60008233610f0e565b6000603282106108fe576040517fa57d13dc000000000000000000000000000000000000000000000000000000008152600060048201526024810183905260440161058a565b600882815481106109115761091161206c565b90600052602060002001549050919050565b600b546001600160a01b03163314610997576040517f08c379a000000000000000000000000000000000000000000000000000000000815260206004820152600a60248201527f4f6e6c79206f776e657200000000000000000000000000000000000000000000604482015260640161058a565b600d61051c82826120eb565b600061045082610cfe565b600d80546109bb90611ff0565b80601f01602080910402602001604051908101604052809291908181526020018280546109e790611ff0565b8015610a345780601f10610a0957610100808354040283529160200191610a34565b820191906000526020600020905b815481529060010190602001808311610a1757829003601f168201915b505050505081565b60006001600160a01b038216610a81576040517f89c62b640000000000000000000000000000000000000000000000000000000081526000600482015260240161058a565b506001600160a01b031660009081526003602052604090205490565b610aa5610f23565b610aaf6000610f69565b565b60606001805461046590611ff0565b61051c338383610fd3565b600b546001600160a01b03163314610b3f576040517f08c379a000000000000000000000000000000000000000000000000000000000815260206004820152600a60248201527f4f6e6c79206f776e657200000000000000000000000000000000000000000000604482015260640161058a565b600c80547fffffffffffffffffffffffff0000000000000000000000000000000000000000166001600160a01b0392909216919091179055565b610b84848484610520565b610b90848484846110a9565b50505050565b6040805160328082526106608201909252606091816020015b6060815260200190600190039081610baf57905050905060005b6032811015610c0557610be061029e826001612234565b828281518110610bf257610bf261206c565b6020908102919091010152600101610bc9565b5090565b6060610c1482610cfe565b50600d610c20836105bc565b610c298461126c565b604051602001610c3b93929190612247565b6040516020818303038152906040529050919050565b610c59610f23565b6001600160a01b038116610c9c576040517f1e4fbdf70000000000000000000000000000000000000000000000000000000081526000600482015260240161058a565b610ca581610f69565b50565b60007fffffffff0000000000000000000000000000000000000000000000000000000082167f4906490600000000000000000000000000000000000000000000000000000000148061045057506104508261132a565b6000818152600260205260408120546001600160a01b031680610450576040517f7e2732890000000000000000000000000000000000000000000000000000000081526004810184905260240161058a565b6105348383836001611380565b6000818152600e602052604090205460ff166003816003811115610d8357610d8361203d565b03610d8c575050565b6000816003811115610da057610da061203d565b03610dad57506001610deb565b6001816003811115610dc157610dc161203d565b03610dce57506002610deb565b6002816003811115610de257610de261203d565b03610deb575060035b6000828152600e6020526040902080548291907fffffffffffffffffffffffffffffffffffffffffffffffffffffffffffffff00166001836003811115610e3457610e3461203d565b02179055505050565b6001600160a01b038216610e80576040517f64a0ae920000000000000000000000000000000000000000000000000000000081526000600482015260240161058a565b6000610e8d838333610f0e565b9050836001600160a01b0316816001600160a01b031614610b90576040517f64283d7b0000000000000000000000000000000000000000000000000000000081526001600160a01b038086166004830152602482018490528216604482015260640161058a565b61051c8282604051806020016040528060008152506114d6565b6000610f1b8484846114ed565b949350505050565b600b546001600160a01b03163314610aaf576040517f118cdaa700000000000000000000000000000000000000000000000000000000815233600482015260240161058a565b600b80546001600160a01b038381167fffffffffffffffffffffffff0000000000000000000000000000000000000000831681179093556040519116919082907f8be0079c531659141344cd1fd0a4f28419497f9722a3daafe3b4186f6b6457e090600090a35050565b6001600160a01b03821661101e576040517f5b08ba180000000000000000000000000000000000000000000000000000000081526001600160a01b038316600482015260240161058a565b6001600160a01b0383811660008181526005602090815260408083209487168084529482529182902080547fffffffffffffffffffffffffffffffffffffffffffffffffffffffffffffff001686151590811790915591519182527f17307eab39ab6107e8899845ad3d59bd9653f200f220920489ca2b5937696c31910160405180910390a3505050565b6001600160a01b0383163b15610b90576040517f150b7a020000000000000000000000000000000000000000000000000000000081526001600160a01b0384169063150b7a0290611104903390889087908790600401612329565b6020604051808303816000875af192505050801561115d575060408051601f3d9081017fffffffffffffffffffffffffffffffffffffffffffffffffffffffffffffffe016820190925261115a91810190612365565b60015b6111df573d80801561118b576040519150601f19603f3d011682016040523d82523d6000602084013e611190565b606091505b5080516000036111d7576040517f64a0ae920000000000000000000000000000000000000000000000000000000081526001600160a01b038516600482015260240161058a565b805181602001fd5b7fffffffff0000000000000000000000000000000000000000000000000000000081167f150b7a020000000000000000000000000000000000000000000000000000000014611265576040517f64a0ae920000000000000000000000000000000000000000000000000000000081526001600160a01b038516600482015260240161058a565b5050505050565b60606000611279836115ba565b600101905060008167ffffffffffffffff81111561129957611299611d5c565b6040519080825280601f01601f1916602001820160405280156112c3576020820181803683370190505b5090508181016020015b7fffffffffffffffffffffffffffffffffffffffffffffffffffffffffffffffff017f3031323334353637383961626364656600000000000000000000000000000000600a86061a8153600a85049450846112cd57509392505050565b60007fffffffff0000000000000000000000000000000000000000000000000000000082167f780e9d6300000000000000000000000000000000000000000000000000000000148061045057506104508261169c565b808061139457506001600160a01b03821615155b1561148e5760006113a484610cfe565b90506001600160a01b038316158015906113d05750826001600160a01b0316816001600160a01b031614155b801561140257506001600160a01b0380821660009081526005602090815260408083209387168352929052205460ff16155b15611444576040517fa9fbf51f0000000000000000000000000000000000000000000000000000000081526001600160a01b038416600482015260240161058a565b811561148c5783856001600160a01b0316826001600160a01b03167f8c5be1e5ebec7d5bd14f71427d1e84f3dd0314c0f7b2291e5b200ac8c7c3b92560405160405180910390a45b505b5050600090815260046020526040902080547fffffffffffffffffffffffff0000000000000000000000000000000000000000166001600160a01b0392909216919091179055565b6114e0838361177f565b61053460008484846110a9565b6000806114fb858585611816565b90506001600160a01b0381166115585761155384600880546000838152600960205260408120829055600182018355919091527ff3f7a9fe364faab93b216da50a3214154f22a0a2b415b23a84c8169e8b636ee30155565b61157b565b846001600160a01b0316816001600160a01b03161461157b5761157b8185611945565b6001600160a01b03851661159757611592846119d6565b610f1b565b846001600160a01b0316816001600160a01b031614610f1b57610f1b8585611a85565b6000807a184f03e93ff9f4daa797ed6e38ed64bf6a1f0100000000000000008310611603577a184f03e93ff9f4daa797ed6e38ed64bf6a1f010000000000000000830492506040015b6d04ee2d6d415b85acef8100000000831061162f576d04ee2d6d415b85acef8100000000830492506020015b662386f26fc10000831061164d57662386f26fc10000830492506010015b6305f5e1008310611665576305f5e100830492506008015b612710831061167957612710830492506004015b6064831061168b576064830492506002015b600a83106104505760010192915050565b60007fffffffff0000000000000000000000000000000000000000000000000000000082167f80ac58cd00000000000000000000000000000000000000000000000000000000148061172f57507fffffffff0000000000000000000000000000000000000000000000000000000082167f5b5e139f00000000000000000000000000000000000000000000000000000000145b8061045057507f01ffc9a7000000000000000000000000000000000000000000000000000000007fffffffff00000000000000000000000000000000000000000000000000000000831614610450565b6001600160a01b0382166117c2576040517f64a0ae920000000000000000000000000000000000000000000000000000000081526000600482015260240161058a565b60006117d083836000610f0e565b90506001600160a01b03811615610534576040517f73c6ac6e0000000000000000000000000000000000000000000000000000000081526000600482015260240161058a565b6000828152600260205260408120546001600160a01b039081169083161561184357611843818486611ad5565b6001600160a01b0381161561189f57611860600085600080611380565b6001600160a01b038116600090815260036020526040902080547fffffffffffffffffffffffffffffffffffffffffffffffffffffffffffffffff0190555b6001600160a01b038516156118ce576001600160a01b0385166000908152600360205260409020805460010190555b60008481526002602052604080822080547fffffffffffffffffffffffff0000000000000000000000000000000000000000166001600160a01b0389811691821790925591518793918516917fddf252ad1be2c89b69c2b068fc378daa952ba7f163c4a11628f55a4df523b3ef91a4949350505050565b600061195083610a3c565b6000838152600760205260409020549091508082146119a3576001600160a01b03841660009081526006602090815260408083208584528252808320548484528184208190558352600790915290208190555b5060009182526007602090815260408084208490556001600160a01b039094168352600681528383209183525290812055565b6008546000906119e890600190612382565b60008381526009602052604081205460088054939450909284908110611a1057611a1061206c565b906000526020600020015490508060088381548110611a3157611a3161206c565b6000918252602080832090910192909255828152600990915260408082208490558582528120556008805480611a6957611a69612395565b6001900381819060005260206000200160009055905550505050565b60006001611a9284610a3c565b611a9c9190612382565b6001600160a01b039093166000908152600660209081526040808320868452825280832085905593825260079052919091209190915550565b611ae0838383611b6b565b610534576001600160a01b038316611b27576040517f7e2732890000000000000000000000000000000000000000000000000000000081526004810182905260240161058a565b6040517f177e802f0000000000000000000000000000000000000000000000000000000081526001600160a01b03831660048201526024810182905260440161058a565b60006001600160a01b03831615801590610f1b5750826001600160a01b0316846001600160a01b03161480611bc557506001600160a01b0380851660009081526005602090815260408083209387168352929052205460ff165b80610f1b5750506000908152600460205260409020546001600160a01b03908116911614919050565b7fffffffff0000000000000000000000000000000000000000000000000000000081168114610ca557600080fd5b600060208284031215611c2e57600080fd5b8135611c3981611bee565b9392505050565b60005b83811015611c5b578181015183820152602001611c43565b50506000910152565b60008151808452611c7c816020860160208601611c40565b601f017fffffffffffffffffffffffffffffffffffffffffffffffffffffffffffffffe0169290920160200192915050565b602081526000611c396020830184611c64565b600060208284031215611cd357600080fd5b5035919050565b80356001600160a01b0381168114611cf157600080fd5b919050565b60008060408385031215611d0957600080fd5b611d1283611cda565b946020939093013593505050565b600080600060608486031215611d3557600080fd5b611d3e84611cda565b9250611d4c60208501611cda565b9150604084013590509250925092565b7f4e487b7100000000000000000000000000000000000000000000000000000000600052604160045260246000fd5b600067ffffffffffffffff80841115611da657611da6611d5c565b604051601f85017fffffffffffffffffffffffffffffffffffffffffffffffffffffffffffffffe0908116603f01168101908282118183101715611dec57611dec611d5c565b81604052809350858152868686011115611e0557600080fd5b858560208301376000602087830101525050509392505050565b600060208284031215611e3157600080fd5b813567ffffffffffffffff811115611e4857600080fd5b8201601f81018413611e5957600080fd5b610f1b84823560208401611d8b565b600060208284031215611e7a57600080fd5b611c3982611cda565b60008060408385031215611e9657600080fd5b611e9f83611cda565b915060208301358015158114611eb457600080fd5b809150509250929050565b60008060008060808587031215611ed557600080fd5b611ede85611cda565b9350611eec60208601611cda565b925060408501359150606085013567ffffffffffffffff811115611f0f57600080fd5b8501601f81018713611f2057600080fd5b611f2f87823560208401611d8b565b91505092959194509250565b600060208083016020845280855180835260408601915060408160051b87010192506020870160005b82811015611fb0577fffffffffffffffffffffffffffffffffffffffffffffffffffffffffffffffc0888603018452611f9e858351611c64565b94509285019290850190600101611f64565b5092979650505050505050565b60008060408385031215611fd057600080fd5b611fd983611cda565b9150611fe760208401611cda565b90509250929050565b600181811c9082168061200457607f821691505b602082108103610726577f4e487b7100000000000000000000000000000000000000000000000000000000600052602260045260246000fd5b7f4e487b7100000000000000000000000000000000000000000000000000000000600052602160045260246000fd5b7f4e487b7100000000000000000000000000000000000000000000000000000000600052603260045260246000fd5b601f821115610534576000816000526020600020601f850160051c810160208610156120c45750805b601f850160051c820191505b818110156120e3578281556001016120d0565b505050505050565b815167ffffffffffffffff81111561210557612105611d5c565b612119816121138454611ff0565b8461209b565b602080601f83116001811461216c57600084156121365750858301515b7fffffffffffffffffffffffffffffffffffffffffffffffffffffffffffffffff600386901b1c1916600185901b1785556120e3565b6000858152602081207fffffffffffffffffffffffffffffffffffffffffffffffffffffffffffffffe08616915b828110156121b95788860151825594840194600190910190840161219a565b50858210156121f557878501517fffffffffffffffffffffffffffffffffffffffffffffffffffffffffffffffff600388901b60f8161c191681555b5050505050600190811b01905550565b7f4e487b7100000000000000000000000000000000000000000000000000000000600052601160045260246000fd5b8082018082111561045057610450612205565b600080855461225581611ff0565b6001828116801561226d57600181146122a0576122cf565b7fffffffffffffffffffffffffffffffffffffffffffffffffffffffffffffff00841687528215158302870194506122cf565b8960005260208060002060005b858110156122c65781548a8201529084019082016122ad565b50505082870194505b5050505084516122e3818360208901611c40565b7f2f000000000000000000000000000000000000000000000000000000000000009101908152835161231c816001840160208801611c40565b0160010195945050505050565b60006001600160a01b0380871683528086166020840152508360408301526080606083015261235b6080830184611c64565b9695505050505050565b60006020828403121561237757600080fd5b8151611c3981611bee565b8181038181111561045057610450612205565b7f4e487b7100000000000000000000000000000000000000000000000000000000600052603160045260246000fdfea164736f6c6343000817000a","linkReferences":{}},"methodIdentifiers":{"approve(address,uint256)":"095ea7b3","balanceOf(address)":"70a08231","baseURI()":"6c0360eb","burn(uint256)":"42966c68","getAllTokensVersion()":"c87abd7b","getApproved(uint256)":"081812fc","getTokenVersion(uint256)":"3b54f406","isApprovedForAll(address,address)":"e985e9c5","mint(address,uint256)":"40c10f19","minterContractAddress()":"0dab46fe","name()":"06fdde03","owner()":"8da5cb5b","ownerOf(uint256)":"6352211e","refreshToken(uint256)":"809b8fad","renounceOwnership()":"715018a6","safeTransferFrom(address,address,uint256)":"42842e0e","safeTransferFrom(address,address,uint256,bytes)":"b88d4fde","setApprovalForAll(address,bool)":"a22cb465","setBaseURI(string)":"55f804b3","setMinterContractAddress(address)":"b0526aca","supportsInterface(bytes4)":"01ffc9a7","symbol()":"95d89b41","tokenByIndex(uint256)":"4f6ccce7","tokenOfOwnerByIndex(address,uint256)":"2f745c59","tokenURI(uint256)":"c87b56dd","totalSupply()":"18160ddd","transferFrom(address,address,uint256)":"23b872dd","transferOwnership(address)":"f2fde38b"},"id":46}