{"abi":[{"type":"constructor","inputs":[{"name":"initialOwner","type":"address","internalType":"address"}],"stateMutability":"nonpayable"},{"type":"function","name":"approve","inputs":[{"name":"to","type":"address","internalType":"address"},{"name":"tokenId","type":"uint256","internalType":"uint256"}],"outputs":[],"stateMutability":"nonpayable"},{"type":"function","name":"balanceOf","inputs":[{"name":"owner","type":"address","internalType":"address"}],"outputs":[{"name":"","type":"uint256","internalType":"uint256"}],"stateMutability":"view"},{"type":"function","name":"burn","inputs":[{"name":"tokenId","type":"uint256","internalType":"uint256"}],"outputs":[],"stateMutability":"nonpayable"},{"type":"function","name":"getAllTokensVersion","inputs":[],"outputs":[{"name":"versions","type":"string[]","internalType":"string[]"}],"stateMutability":"view"},{"type":"function","name":"getApproved","inputs":[{"name":"tokenId","type":"uint256","internalType":"uint256"}],"outputs":[{"name":"","type":"address","internalType":"address"}],"stateMutability":"view"},{"type":"function","name":"getTokenVersion","inputs":[{"name":"tokenId","type":"uint256","internalType":"uint256"}],"outputs":[{"name":"versionStr","type":"string","internalType":"string"}],"stateMutability":"view"},{"type":"function","name":"isApprovedForAll","inputs":[{"name":"owner","type":"address","internalType":"address"},{"name":"operator","type":"address","internalType":"address"}],"outputs":[{"name":"","type":"bool","internalType":"bool"}],"stateMutability":"view"},{"type":"function","name":"mint","inputs":[{"name":"recipient","type":"address","internalType":"address"}],"outputs":[],"stateMutability":"nonpayable"},{"type":"function","name":"name","inputs":[],"outputs":[{"name":"","type":"string","internalType":"string"}],"stateMutability":"view"},{"type":"function","name":"owner","inputs":[],"outputs":[{"name":"","type":"address","internalType":"address"}],"stateMutability":"view"},{"type":"function","name":"ownerOf","inputs":[{"name":"tokenId","type":"uint256","internalType":"uint256"}],"outputs":[{"name":"","type":"address","internalType":"address"}],"stateMutability":"view"},{"type":"function","name":"refreshToken","inputs":[{"name":"tokenId","type":"uint256","internalType":"uint256"}],"outputs":[],"stateMutability":"nonpayable"},{"type":"function","name":"renounceOwnership","inputs":[],"outputs":[],"stateMutability":"nonpayable"},{"type":"function","name":"safeTransferFrom","inputs":[{"name":"from","type":"address","internalType":"address"},{"name":"to","type":"address","internalType":"address"},{"name":"tokenId","type":"uint256","internalType":"uint256"}],"outputs":[],"stateMutability":"nonpayable"},{"type":"function","name":"safeTransferFrom","inputs":[{"name":"from","type":"address","internalType":"address"},{"name":"to","type":"address","internalType":"address"},{"name":"tokenId","type":"uint256","internalType":"uint256"},{"name":"data","type":"bytes","internalType":"bytes"}],"outputs":[],"stateMutability":"nonpayable"},{"type":"function","name":"setApprovalForAll","inputs":[{"name":"operator","type":"address","internalType":"address"},{"name":"approved","type":"bool","internalType":"bool"}],"outputs":[],"stateMutability":"nonpayable"},{"type":"function","name":"setMinterContractAddress","inputs":[{"name":"minterContractAddress","type":"address","internalType":"address"}],"outputs":[],"stateMutability":"nonpayable"},{"type":"function","name":"supportsInterface","inputs":[{"name":"interfaceId","type":"bytes4","internalType":"bytes4"}],"outputs":[{"name":"","type":"bool","internalType":"bool"}],"stateMutability":"view"},{"type":"function","name":"symbol","inputs":[],"outputs":[{"name":"","type":"string","internalType":"string"}],"stateMutability":"view"},{"type":"function","name":"tokenURI","inputs":[{"name":"tokenId","type":"uint256","internalType":"uint256"}],"outputs":[{"name":"","type":"string","internalType":"string"}],"stateMutability":"view"},{"type":"function","name":"totalSupply","inputs":[],"outputs":[{"name":"","type":"uint256","internalType":"uint256"}],"stateMutability":"view"},{"type":"function","name":"transferFrom","inputs":[{"name":"from","type":"address","internalType":"address"},{"name":"to","type":"address","internalType":"address"},{"name":"tokenId","type":"uint256","internalType":"uint256"}],"outputs":[],"stateMutability":"nonpayable"},{"type":"function","name":"transferOwnership","inputs":[{"name":"newOwner","type":"address","internalType":"address"}],"outputs":[],"stateMutability":"nonpayable"},{"type":"event","name":"Approval","inputs":[{"name":"owner","type":"address","indexed":true,"internalType":"address"},{"name":"approved","type":"address","indexed":true,"internalType":"address"},{"name":"tokenId","type":"uint256","indexed":true,"internalType":"uint256"}],"anonymous":false},{"type":"event","name":"ApprovalForAll","inputs":[{"name":"owner","type":"address","indexed":true,"internalType":"address"},{"name":"operator","type":"address","indexed":true,"internalType":"address"},{"name":"approved","type":"bool","indexed":false,"internalType":"bool"}],"anonymous":false},{"type":"event","name":"BatchMetadataUpdate","inputs":[{"name":"_fromTokenId","type":"uint256","indexed":false,"internalType":"uint256"},{"name":"_toTokenId","type":"uint256","indexed":false,"internalType":"uint256"}],"anonymous":false},{"type":"event","name":"MetadataUpdate","inputs":[{"name":"_tokenId","type":"uint256","indexed":false,"internalType":"uint256"}],"anonymous":false},{"type":"event","name":"OwnershipTransferred","inputs":[{"name":"previousOwner","type":"address","indexed":true,"internalType":"address"},{"name":"newOwner","type":"address","indexed":true,"internalType":"address"}],"anonymous":false},{"type":"event","name":"Transfer","inputs":[{"name":"from","type":"address","indexed":true,"internalType":"address"},{"name":"to","type":"address","indexed":true,"internalType":"address"},{"name":"tokenId","type":"uint256","indexed":true,"internalType":"uint256"}],"anonymous":false},{"type":"error","name":"ERC721IncorrectOwner","inputs":[{"name":"sender","type":"address","internalType":"address"},{"name":"tokenId","type":"uint256","internalType":"uint256"},{"name":"owner","type":"address","internalType":"address"}]},{"type":"error","name":"ERC721InsufficientApproval","inputs":[{"name":"operator","type":"address","internalType":"address"},{"name":"tokenId","type":"uint256","internalType":"uint256"}]},{"type":"error","name":"ERC721InvalidApprover","inputs":[{"name":"approver","type":"address","internalType":"address"}]},{"type":"error","name":"ERC721InvalidOperator","inputs":[{"name":"operator","type":"address","internalType":"address"}]},{"type":"error","name":"ERC721InvalidOwner","inputs":[{"name":"owner","type":"address","internalType":"address"}]},{"type":"error","name":"ERC721InvalidReceiver","inputs":[{"name":"receiver","type":"address","internalType":"address"}]},{"type":"error","name":"ERC721InvalidSender","inputs":[{"name":"sender","type":"address","internalType":"address"}]},{"type":"error","name":"ERC721NonexistentToken","inputs":[{"name":"tokenId","type":"uint256","internalType":"uint256"}]},{"type":"error","name":"OwnableInvalidOwner","inputs":[{"name":"owner","type":"address","internalType":"address"}]},{"type":"error","name":"OwnableUnauthorizedAccount","inputs":[{"name":"account","type":"address","internalType":"address"}]}],"bytecode":{"object":"0x608060405260016008556009805461ffff191660321790553480156200002457600080fd5b506040516200207d3803806200207d83398101604081905262000047916200019d565b80604051806040016040528060068152602001650ced8d2e8c6d60d31b8152506040518060400160405280600381526020016211d31560ea1b815250816000908162000094919062000276565b506001620000a3828262000276565b5050506001600160a01b038116620000d557604051631e4fbdf760e01b81526000600482015260240160405180910390fd5b620000e0816200014b565b5060408051808201909152601b81527f687474703a2f2f6c6f63616c686f73743a333030302f617274732f00000000006020820152600a9062000124908262000276565b50600b80546001600160a01b0319166001600160a01b039290921691909117905562000342565b600780546001600160a01b038381166001600160a01b0319831681179093556040519116919082907f8be0079c531659141344cd1fd0a4f28419497f9722a3daafe3b4186f6b6457e090600090a35050565b600060208284031215620001b057600080fd5b81516001600160a01b0381168114620001c857600080fd5b9392505050565b634e487b7160e01b600052604160045260246000fd5b600181811c90821680620001fa57607f821691505b6020821081036200021b57634e487b7160e01b600052602260045260246000fd5b50919050565b601f82111562000271576000816000526020600020601f850160051c810160208610156200024c5750805b601f850160051c820191505b818110156200026d5782815560010162000258565b5050505b505050565b81516001600160401b03811115620002925762000292620001cf565b620002aa81620002a38454620001e5565b8462000221565b602080601f831160018114620002e25760008415620002c95750858301515b600019600386901b1c1916600185901b1785556200026d565b600085815260208120601f198616915b828110156200031357888601518255948401946001909101908401620002f2565b5085821015620003325787850151600019600388901b60f8161c191681555b5050505050600190811b01905550565b611d2b80620003526000396000f3fe608060405234801561001057600080fd5b506004361061018d5760003560e01c806370a08231116100e3578063b0526aca1161008c578063c87b56dd11610066578063c87b56dd14610359578063e985e9c51461036c578063f2fde38b146103a857600080fd5b8063b0526aca1461031e578063b88d4fde14610331578063c87abd7b1461034457600080fd5b80638da5cb5b116100bd5780638da5cb5b146102f257806395d89b4114610303578063a22cb4651461030b57600080fd5b806370a0823114610293578063715018a6146102a6578063809b8fad146102ae57600080fd5b806323b872dd1161014557806342966c681161011f57806342966c681461025a5780636352211e1461026d5780636a6278421461028057600080fd5b806323b872dd146102215780633b54f4061461023457806342842e0e1461024757600080fd5b8063081812fc11610176578063081812fc146101cf578063095ea7b3146101fa57806318160ddd1461020f57600080fd5b806301ffc9a71461019257806306fdde03146101ba575b600080fd5b6101a56101a036600461171b565b6103bb565b60405190151581526020015b60405180910390f35b6101c26103cc565b6040516101b191906117ad565b6101e26101dd3660046117c0565b61045e565b6040516001600160a01b0390911681526020016101b1565b61020d6102083660046117f5565b610487565b005b6008545b6040519081526020016101b1565b61020d61022f36600461181f565b610496565b6101c26102423660046117c0565b6104af565b61020d61025536600461181f565b61061f565b61020d6102683660046117c0565b61063a565b6101e261027b3660046117c0565b610646565b61020d61028e36600461185b565b610651565b6102136102a136600461185b565b6107e4565b61020d610845565b61020d6102bc3660046117c0565b6000908152600c6020526040902080547fffffffffffffffffffffffffffffffffffffffffffffffffffffffffffffff00169055565b6007546001600160a01b03166101e2565b6101c2610859565b61020d610319366004611876565b610868565b61020d61032c36600461185b565b610873565b61020d61033f3660046118e1565b610921565b61034c61093e565b6040516101b191906119db565b6101c26103673660046117c0565b6109d0565b6101a561037a366004611a5d565b6001600160a01b03918216600090815260056020908152604080832093909416825291909152205460ff1690565b61020d6103b636600461185b565b610a18565b60006103c682610a6c565b92915050565b6060600080546103db90611a90565b80601f016020809104026020016040519081016040528092919081815260200182805461040790611a90565b80156104545780601f1061042957610100808354040283529160200191610454565b820191906000526020600020905b81548152906001019060200180831161043757829003601f168201915b5050505050905090565b600061046982610ac2565b506000828152600460205260409020546001600160a01b03166103c6565b610492828233610b14565b5050565b61049f81610b21565b6104aa838383610c01565b505050565b6000818152600c602052604081205460609160ff909116908160038111156104d9576104d9611add565b0361051b576040518060400160405280600181526020017f41000000000000000000000000000000000000000000000000000000000000008152509150610619565b600181600381111561052f5761052f611add565b03610571576040518060400160405280600181526020017f42000000000000000000000000000000000000000000000000000000000000008152509150610619565b600281600381111561058557610585611add565b036105c7576040518060400160405280600181526020017f43000000000000000000000000000000000000000000000000000000000000008152509150610619565b60038160038111156105db576105db611add565b03610619576040518060400160405280600181526020017f440000000000000000000000000000000000000000000000000000000000000081525091505b50919050565b6104aa83838360405180602001604052806000815250610921565b61049260008233610cb8565b60006103c682610ac2565b600b546001600160a01b031633148061067457506007546001600160a01b031633145b6106df576040517f08c379a000000000000000000000000000000000000000000000000000000000815260206004820152601e60248201527f4f6e6c79206d696e74657220636f6e747261637420616e64206f776e6572000060448201526064015b60405180910390fd5b6001600160a01b03811661074f576040517f08c379a000000000000000000000000000000000000000000000000000000000815260206004820152601b60248201527f43616e6e6f74206d696e7420746f207a65726f2061646472657373000000000060448201526064016106d6565b60095460085461ffff909116116107c2576040517f08c379a000000000000000000000000000000000000000000000000000000000815260206004820152601360248201527f4d61782e20737570706c7920726561636865640000000000000000000000000060448201526064016106d6565b600880546107e19183919060006107d883611b0c565b91905055610de7565b50565b60006001600160a01b038216610829576040517f89c62b64000000000000000000000000000000000000000000000000000000008152600060048201526024016106d6565b506001600160a01b031660009081526003602052604090205490565b61084d610e01565b6108576000610e47565b565b6060600180546103db90611a90565b610492338383610eb1565b6007546001600160a01b031633146108e7576040517f08c379a000000000000000000000000000000000000000000000000000000000815260206004820152600a60248201527f4f6e6c79206f776e65720000000000000000000000000000000000000000000060448201526064016106d6565b600b80547fffffffffffffffffffffffff0000000000000000000000000000000000000000166001600160a01b0392909216919091179055565b61092c848484610496565b61093884848484610f87565b50505050565b606060085467ffffffffffffffff81111561095b5761095b6118b2565b60405190808252806020026020018201604052801561098e57816020015b60608152602001906001900390816109795790505b50905060005b6008548110156109cc576109a7816104af565b8282815181106109b9576109b9611b6b565b6020908102919091010152600101610994565b5090565b60606109db82610ac2565b50600a6109e7836104af565b6109f08461114a565b604051602001610a0293929190611bb6565b6040516020818303038152906040529050919050565b610a20610e01565b6001600160a01b038116610a63576040517f1e4fbdf7000000000000000000000000000000000000000000000000000000008152600060048201526024016106d6565b6107e181610e47565b60007fffffffff0000000000000000000000000000000000000000000000000000000082167f490649060000000000000000000000000000000000000000000000000000000014806103c657506103c682611208565b6000818152600260205260408120546001600160a01b0316806103c6576040517f7e273289000000000000000000000000000000000000000000000000000000008152600481018490526024016106d6565b6104aa83838360016112eb565b6000818152600c602052604090205460ff166003816003811115610b4757610b47611add565b03610b50575050565b6000816003811115610b6457610b64611add565b03610b7157506001610baf565b6001816003811115610b8557610b85611add565b03610b9257506002610baf565b6002816003811115610ba657610ba6611add565b03610baf575060035b6000828152600c6020526040902080548291907fffffffffffffffffffffffffffffffffffffffffffffffffffffffffffffff00166001836003811115610bf857610bf8611add565b02179055505050565b6001600160a01b038216610c44576040517f64a0ae92000000000000000000000000000000000000000000000000000000008152600060048201526024016106d6565b6000610c51838333610cb8565b9050836001600160a01b0316816001600160a01b031614610938576040517f64283d7b0000000000000000000000000000000000000000000000000000000081526001600160a01b03808616600483015260248201849052821660448201526064016106d6565b6000828152600260205260408120546001600160a01b0390811690831615610ce557610ce5818486611441565b6001600160a01b03811615610d4157610d026000856000806112eb565b6001600160a01b038116600090815260036020526040902080547fffffffffffffffffffffffffffffffffffffffffffffffffffffffffffffffff0190555b6001600160a01b03851615610d70576001600160a01b0385166000908152600360205260409020805460010190555b60008481526002602052604080822080547fffffffffffffffffffffffff0000000000000000000000000000000000000000166001600160a01b0389811691821790925591518793918516917fddf252ad1be2c89b69c2b068fc378daa952ba7f163c4a11628f55a4df523b3ef91a4949350505050565b6104928282604051806020016040528060008152506114d7565b6007546001600160a01b03163314610857576040517f118cdaa70000000000000000000000000000000000000000000000000000000081523360048201526024016106d6565b600780546001600160a01b038381167fffffffffffffffffffffffff0000000000000000000000000000000000000000831681179093556040519116919082907f8be0079c531659141344cd1fd0a4f28419497f9722a3daafe3b4186f6b6457e090600090a35050565b6001600160a01b038216610efc576040517f5b08ba180000000000000000000000000000000000000000000000000000000081526001600160a01b03831660048201526024016106d6565b6001600160a01b0383811660008181526005602090815260408083209487168084529482529182902080547fffffffffffffffffffffffffffffffffffffffffffffffffffffffffffffff001686151590811790915591519182527f17307eab39ab6107e8899845ad3d59bd9653f200f220920489ca2b5937696c31910160405180910390a3505050565b6001600160a01b0383163b15610938576040517f150b7a020000000000000000000000000000000000000000000000000000000081526001600160a01b0384169063150b7a0290610fe2903390889087908790600401611ccf565b6020604051808303816000875af192505050801561103b575060408051601f3d9081017fffffffffffffffffffffffffffffffffffffffffffffffffffffffffffffffe016820190925261103891810190611d01565b60015b6110bd573d808015611069576040519150601f19603f3d011682016040523d82523d6000602084013e61106e565b606091505b5080516000036110b5576040517f64a0ae920000000000000000000000000000000000000000000000000000000081526001600160a01b03851660048201526024016106d6565b805181602001fd5b7fffffffff0000000000000000000000000000000000000000000000000000000081167f150b7a020000000000000000000000000000000000000000000000000000000014611143576040517f64a0ae920000000000000000000000000000000000000000000000000000000081526001600160a01b03851660048201526024016106d6565b5050505050565b60606000611157836114ee565b600101905060008167ffffffffffffffff811115611177576111776118b2565b6040519080825280601f01601f1916602001820160405280156111a1576020820181803683370190505b5090508181016020015b7fffffffffffffffffffffffffffffffffffffffffffffffffffffffffffffffff017f3031323334353637383961626364656600000000000000000000000000000000600a86061a8153600a85049450846111ab57509392505050565b60007fffffffff0000000000000000000000000000000000000000000000000000000082167f80ac58cd00000000000000000000000000000000000000000000000000000000148061129b57507fffffffff0000000000000000000000000000000000000000000000000000000082167f5b5e139f00000000000000000000000000000000000000000000000000000000145b806103c657507f01ffc9a7000000000000000000000000000000000000000000000000000000007fffffffff000000000000000000000000000000000000000000000000000000008316146103c6565b80806112ff57506001600160a01b03821615155b156113f957600061130f84610ac2565b90506001600160a01b0383161580159061133b5750826001600160a01b0316816001600160a01b031614155b801561136d57506001600160a01b0380821660009081526005602090815260408083209387168352929052205460ff16155b156113af576040517fa9fbf51f0000000000000000000000000000000000000000000000000000000081526001600160a01b03841660048201526024016106d6565b81156113f75783856001600160a01b0316826001600160a01b03167f8c5be1e5ebec7d5bd14f71427d1e84f3dd0314c0f7b2291e5b200ac8c7c3b92560405160405180910390a45b505b5050600090815260046020526040902080547fffffffffffffffffffffffff0000000000000000000000000000000000000000166001600160a01b0392909216919091179055565b61144c8383836115d0565b6104aa576001600160a01b038316611493576040517f7e273289000000000000000000000000000000000000000000000000000000008152600481018290526024016106d6565b6040517f177e802f0000000000000000000000000000000000000000000000000000000081526001600160a01b0383166004820152602481018290526044016106d6565b6114e18383611656565b6104aa6000848484610f87565b6000807a184f03e93ff9f4daa797ed6e38ed64bf6a1f0100000000000000008310611537577a184f03e93ff9f4daa797ed6e38ed64bf6a1f010000000000000000830492506040015b6d04ee2d6d415b85acef81000000008310611563576d04ee2d6d415b85acef8100000000830492506020015b662386f26fc10000831061158157662386f26fc10000830492506010015b6305f5e1008310611599576305f5e100830492506008015b61271083106115ad57612710830492506004015b606483106115bf576064830492506002015b600a83106103c65760010192915050565b60006001600160a01b0383161580159061164e5750826001600160a01b0316846001600160a01b0316148061162a57506001600160a01b0380851660009081526005602090815260408083209387168352929052205460ff165b8061164e57506000828152600460205260409020546001600160a01b038481169116145b949350505050565b6001600160a01b038216611699576040517f64a0ae92000000000000000000000000000000000000000000000000000000008152600060048201526024016106d6565b60006116a783836000610cb8565b90506001600160a01b038116156104aa576040517f73c6ac6e000000000000000000000000000000000000000000000000000000008152600060048201526024016106d6565b7fffffffff00000000000000000000000000000000000000000000000000000000811681146107e157600080fd5b60006020828403121561172d57600080fd5b8135611738816116ed565b9392505050565b60005b8381101561175a578181015183820152602001611742565b50506000910152565b6000815180845261177b81602086016020860161173f565b601f017fffffffffffffffffffffffffffffffffffffffffffffffffffffffffffffffe0169290920160200192915050565b6020815260006117386020830184611763565b6000602082840312156117d257600080fd5b5035919050565b80356001600160a01b03811681146117f057600080fd5b919050565b6000806040838503121561180857600080fd5b611811836117d9565b946020939093013593505050565b60008060006060848603121561183457600080fd5b61183d846117d9565b925061184b602085016117d9565b9150604084013590509250925092565b60006020828403121561186d57600080fd5b611738826117d9565b6000806040838503121561188957600080fd5b611892836117d9565b9150602083013580151581146118a757600080fd5b809150509250929050565b7f4e487b7100000000000000000000000000000000000000000000000000000000600052604160045260246000fd5b600080600080608085870312156118f757600080fd5b611900856117d9565b935061190e602086016117d9565b925060408501359150606085013567ffffffffffffffff8082111561193257600080fd5b818701915087601f83011261194657600080fd5b813581811115611958576119586118b2565b604051601f82017fffffffffffffffffffffffffffffffffffffffffffffffffffffffffffffffe0908116603f0116810190838211818310171561199e5761199e6118b2565b816040528281528a60208487010111156119b757600080fd5b82602086016020830137600060208483010152809550505050505092959194509250565b600060208083016020845280855180835260408601915060408160051b87010192506020870160005b82811015611a50577fffffffffffffffffffffffffffffffffffffffffffffffffffffffffffffffc0888603018452611a3e858351611763565b94509285019290850190600101611a04565b5092979650505050505050565b60008060408385031215611a7057600080fd5b611a79836117d9565b9150611a87602084016117d9565b90509250929050565b600181811c90821680611aa457607f821691505b602082108103610619577f4e487b7100000000000000000000000000000000000000000000000000000000600052602260045260246000fd5b7f4e487b7100000000000000000000000000000000000000000000000000000000600052602160045260246000fd5b60007fffffffffffffffffffffffffffffffffffffffffffffffffffffffffffffffff8203611b64577f4e487b7100000000000000000000000000000000000000000000000000000000600052601160045260246000fd5b5060010190565b7f4e487b7100000000000000000000000000000000000000000000000000000000600052603260045260246000fd5b60008151611bac81856020860161173f565b9290920192915050565b60008085548160018260011c91506001831680611bd457607f831692505b60208084108203611c0c577f4e487b710000000000000000000000000000000000000000000000000000000086526022600452602486fd5b818015611c205760018114611c5357611c80565b7fffffffffffffffffffffffffffffffffffffffffffffffffffffffffffffff0086168952841515850289019650611c80565b60008c81526020902060005b86811015611c785781548b820152908501908301611c5f565b505084890196505b505050505050611cc5611cbf611c968388611b9a565b7f2f00000000000000000000000000000000000000000000000000000000000000815260010190565b85611b9a565b9695505050505050565b60006001600160a01b03808716835280861660208401525083604083015260806060830152611cc56080830184611763565b600060208284031215611d1357600080fd5b8151611738816116ed56fea164736f6c6343000817000a","linkReferences":{}},"methodIdentifiers":{"approve(address,uint256)":"095ea7b3","balanceOf(address)":"70a08231","burn(uint256)":"42966c68","getAllTokensVersion()":"c87abd7b","getApproved(uint256)":"081812fc","getTokenVersion(uint256)":"3b54f406","isApprovedForAll(address,address)":"e985e9c5","mint(address)":"6a627842","name()":"06fdde03","owner()":"8da5cb5b","ownerOf(uint256)":"6352211e","refreshToken(uint256)":"809b8fad","renounceOwnership()":"715018a6","safeTransferFrom(address,address,uint256)":"42842e0e","safeTransferFrom(address,address,uint256,bytes)":"b88d4fde","setApprovalForAll(address,bool)":"a22cb465","setMinterContractAddress(address)":"b0526aca","supportsInterface(bytes4)":"01ffc9a7","symbol()":"95d89b41","tokenURI(uint256)":"c87b56dd","totalSupply()":"18160ddd","transferFrom(address,address,uint256)":"23b872dd","transferOwnership(address)":"f2fde38b"},"id":39}