{"abi":[{"type":"constructor","inputs":[{"name":"initialOwner","type":"address","internalType":"address"},{"name":"_erc721Address","type":"address","internalType":"address"},{"name":"_treasuryWallet","type":"address","internalType":"address"}],"stateMutability":"nonpayable"},{"type":"function","name":"MAX_TOP_BIDS","inputs":[],"outputs":[{"name":"","type":"uint256","internalType":"uint256"}],"stateMutability":"view"},{"type":"function","name":"adminMintRemaining","inputs":[{"name":"_recipient","type":"address","internalType":"address"}],"outputs":[],"stateMutability":"nonpayable"},{"type":"function","name":"bid","inputs":[{"name":"bidAmount","type":"uint256","internalType":"uint256"},{"name":"merkleProof","type":"bytes32[]","internalType":"bytes32[]"}],"outputs":[],"stateMutability":"payable"},{"type":"function","name":"bidBalances","inputs":[{"name":"","type":"address","internalType":"address"}],"outputs":[{"name":"","type":"uint256","internalType":"uint256"}],"stateMutability":"view"},{"type":"function","name":"checkMerkleProof","inputs":[{"name":"merkleProof","type":"bytes32[]","internalType":"bytes32[]"},{"name":"_address","type":"address","internalType":"address"},{"name":"_root","type":"bytes32","internalType":"bytes32"}],"outputs":[{"name":"","type":"bool","internalType":"bool"}],"stateMutability":"pure"},{"type":"function","name":"claimAll","inputs":[{"name":"_to","type":"address","internalType":"address"}],"outputs":[],"stateMutability":"nonpayable"},{"type":"function","name":"claimed","inputs":[{"name":"","type":"address","internalType":"address"}],"outputs":[{"name":"","type":"bool","internalType":"bool"}],"stateMutability":"view"},{"type":"function","name":"erc721Address","inputs":[],"outputs":[{"name":"","type":"address","internalType":"contract IGlitch"}],"stateMutability":"view"},{"type":"function","name":"firstTierMerkleRoot","inputs":[],"outputs":[{"name":"","type":"bytes32","internalType":"bytes32"}],"stateMutability":"view"},{"type":"function","name":"getConfig","inputs":[],"outputs":[{"name":"","type":"tuple","internalType":"struct Config","components":[{"name":"startTime","type":"uint256","internalType":"uint256"},{"name":"endTime","type":"uint256","internalType":"uint256"},{"name":"minBidIncrementInWei","type":"uint256","internalType":"uint256"},{"name":"startAmountInWei","type":"uint256","internalType":"uint256"}]}],"stateMutability":"view"},{"type":"function","name":"getMinimumBid","inputs":[],"outputs":[{"name":"","type":"uint256","internalType":"uint256"}],"stateMutability":"view"},{"type":"function","name":"getSettledPrice","inputs":[],"outputs":[{"name":"","type":"uint256","internalType":"uint256"}],"stateMutability":"view"},{"type":"function","name":"getSettledPriceWithDiscount","inputs":[{"name":"discountType","type":"uint8","internalType":"enum DiscountType"}],"outputs":[{"name":"","type":"uint256","internalType":"uint256"}],"stateMutability":"view"},{"type":"function","name":"getTopBids","inputs":[],"outputs":[{"name":"","type":"tuple[10]","internalType":"struct Bid[10]","components":[{"name":"bidder","type":"address","internalType":"address"},{"name":"amount","type":"uint256","internalType":"uint256"},{"name":"discountType","type":"uint8","internalType":"enum DiscountType"}]}],"stateMutability":"view"},{"type":"function","name":"owner","inputs":[],"outputs":[{"name":"","type":"address","internalType":"address"}],"stateMutability":"view"},{"type":"function","name":"pause","inputs":[],"outputs":[],"stateMutability":"nonpayable"},{"type":"function","name":"paused","inputs":[],"outputs":[{"name":"","type":"bool","internalType":"bool"}],"stateMutability":"view"},{"type":"function","name":"renounceOwnership","inputs":[],"outputs":[],"stateMutability":"nonpayable"},{"type":"function","name":"secondTierMerkleRoot","inputs":[],"outputs":[{"name":"","type":"bytes32","internalType":"bytes32"}],"stateMutability":"view"},{"type":"function","name":"setConfig","inputs":[{"name":"_startTime","type":"uint256","internalType":"uint256"},{"name":"_endTime","type":"uint256","internalType":"uint256"},{"name":"_minBidIncrementInWei","type":"uint256","internalType":"uint256"},{"name":"_startAmountInWei","type":"uint256","internalType":"uint256"}],"outputs":[],"stateMutability":"nonpayable"},{"type":"function","name":"setMerkleRoots","inputs":[{"name":"_firstTierRoot","type":"bytes32","internalType":"bytes32"},{"name":"_secondTierRoot","type":"bytes32","internalType":"bytes32"}],"outputs":[],"stateMutability":"nonpayable"},{"type":"function","name":"setTreasuryWallet","inputs":[{"name":"newWallet","type":"address","internalType":"address"}],"outputs":[],"stateMutability":"nonpayable"},{"type":"function","name":"topBids","inputs":[{"name":"","type":"uint256","internalType":"uint256"}],"outputs":[{"name":"bidder","type":"address","internalType":"address"},{"name":"amount","type":"uint256","internalType":"uint256"},{"name":"discountType","type":"uint8","internalType":"enum DiscountType"}],"stateMutability":"view"},{"type":"function","name":"transferOwnership","inputs":[{"name":"newOwner","type":"address","internalType":"address"}],"outputs":[],"stateMutability":"nonpayable"},{"type":"function","name":"treasuryWallet","inputs":[],"outputs":[{"name":"","type":"address","internalType":"address payable"}],"stateMutability":"view"},{"type":"function","name":"unpause","inputs":[],"outputs":[],"stateMutability":"nonpayable"},{"type":"function","name":"withdraw","inputs":[],"outputs":[],"stateMutability":"nonpayable"},{"type":"function","name":"withdrawn","inputs":[],"outputs":[{"name":"","type":"bool","internalType":"bool"}],"stateMutability":"view"},{"type":"event","name":"BidPlaced","inputs":[{"name":"bidder","type":"address","indexed":true,"internalType":"address"},{"name":"amount","type":"uint256","indexed":false,"internalType":"uint256"}],"anonymous":false},{"type":"event","name":"Outbid","inputs":[{"name":"bidder","type":"address","indexed":true,"internalType":"address"},{"name":"amount","type":"uint256","indexed":false,"internalType":"uint256"},{"name":"lastBidPosition","type":"uint256","indexed":false,"internalType":"uint256"}],"anonymous":false},{"type":"event","name":"OwnershipTransferred","inputs":[{"name":"previousOwner","type":"address","indexed":true,"internalType":"address"},{"name":"newOwner","type":"address","indexed":true,"internalType":"address"}],"anonymous":false},{"type":"event","name":"Paused","inputs":[{"name":"account","type":"address","indexed":false,"internalType":"address"}],"anonymous":false},{"type":"event","name":"Unpaused","inputs":[{"name":"account","type":"address","indexed":false,"internalType":"address"}],"anonymous":false},{"type":"error","name":"ConfigNotSet","inputs":[]},{"type":"error","name":"EnforcedPause","inputs":[]},{"type":"error","name":"ExpectedPause","inputs":[]},{"type":"error","name":"InvalidAmountInWei","inputs":[]},{"type":"error","name":"InvalidMinBidIncrementValue","inputs":[]},{"type":"error","name":"InvalidStartEndTime","inputs":[{"name":"startTime","type":"uint256","internalType":"uint256"},{"name":"endTime","type":"uint256","internalType":"uint256"}]},{"type":"error","name":"OwnableInvalidOwner","inputs":[{"name":"owner","type":"address","internalType":"address"}]},{"type":"error","name":"OwnableUnauthorizedAccount","inputs":[{"name":"account","type":"address","internalType":"address"}]},{"type":"error","name":"ReentrancyGuardReentrantCall","inputs":[]}],"bytecode":{"object":"0x60806040523480156200001157600080fd5b50604051620024183803806200241883398101604081905262000034916200011e565b826001600160a01b0381166200006457604051631e4fbdf760e01b81526000600482015260240160405180910390fd5b6200006f81620000b1565b50600180556002805460ff19169055600680546001600160a01b039384166001600160a01b031991821617909155600580549290931691161790555062000168565b600080546001600160a01b038381166001600160a01b0319831681178455604051919092169283917f8be0079c531659141344cd1fd0a4f28419497f9722a3daafe3b4186f6b6457e09190a35050565b80516001600160a01b03811681146200011957600080fd5b919050565b6000806000606084860312156200013457600080fd5b6200013f8462000101565b92506200014f6020850162000101565b91506200015f6040850162000101565b90509250925092565b6122a080620001786000396000f3fe6080604052600436106101b65760003560e01c806377329f35116100ec578063a8602fea1161008a578063c80ec52211610064578063c80ec522146104fa578063c884ef831461052c578063e5c389cd1461055c578063f2fde38b1461057c57600080fd5b8063a8602fea1461047d578063c3f909d41461049d578063c5b63600146104e557600080fd5b80638da5cb5b116100c65780638da5cb5b146103ff57806395d6a3cc1461042a5780639a48eb511461044a578063a06a5b351461046a57600080fd5b806377329f35146103b55780637e907e64146103d55780638456cb59146103ea57600080fd5b80633ccfd60b1161015957806354f567411161013357806354f567411461033a578063577824191461035c5780635c975abb1461037c578063715018a6146103a057600080fd5b80633ccfd60b146102e35780633f4ba83a146102f85780634626402b1461030d57600080fd5b80630b950be6116101955780630b950be6146102505780630d16e28c1461026657806319bcb4cd1461027c5780632352a8641461029157600080fd5b8062f2a368146101bb578063010d9813146101dd578063031778f914610215575b600080fd5b3480156101c757600080fd5b506101db6101d6366004611ead565b61059c565b005b3480156101e957600080fd5b506101fd6101f8366004611ec8565b610778565b60405161020c93929190611f4b565b60405180910390f35b34801561022157600080fd5b50610242610230366004611ead565b60256020526000908152604090205481565b60405190815260200161020c565b34801561025c57600080fd5b5061024260045481565b34801561027257600080fd5b5061024260035481565b34801561028857600080fd5b50610242600a81565b34801561029d57600080fd5b506006546102be9073ffffffffffffffffffffffffffffffffffffffff1681565b60405173ffffffffffffffffffffffffffffffffffffffff909116815260200161020c565b3480156102ef57600080fd5b506101db6107b9565b34801561030457600080fd5b506101db610b3b565b34801561031957600080fd5b506005546102be9073ffffffffffffffffffffffffffffffffffffffff1681565b34801561034657600080fd5b5061034f610b4b565b60405161020c9190611f7c565b34801561036857600080fd5b50610242610377366004611fe7565b610bf1565b34801561038857600080fd5b5060025460ff165b604051901515815260200161020c565b3480156103ac57600080fd5b506101db610c66565b3480156103c157600080fd5b506101db6103d0366004611ead565b610c78565b3480156103e157600080fd5b50610242611016565b3480156103f657600080fd5b506101db61105f565b34801561040b57600080fd5b5060005473ffffffffffffffffffffffffffffffffffffffff166102be565b34801561043657600080fd5b50610390610445366004612054565b61106f565b34801561045657600080fd5b506101db6104653660046120b0565b61110a565b6101db6104783660046120d2565b61111d565b34801561048957600080fd5b506101db610498366004611ead565b6112f1565b3480156104a957600080fd5b506104b2611402565b60405161020c91908151815260208083015190820152604080830151908201526060918201519181019190915260800190565b3480156104f157600080fd5b5061024261145a565b34801561050657600080fd5b506005546103909074010000000000000000000000000000000000000000900460ff1681565b34801561053857600080fd5b50610390610547366004611ead565b60266020526000908152604090205460ff1681565b34801561056857600080fd5b506101db61057736600461211e565b6114ad565b34801561058857600080fd5b506101db610597366004611ead565b61160a565b60005473ffffffffffffffffffffffffffffffffffffffff1633146106085760405162461bcd60e51b815260206004820152600a60248201527f4f6e6c79206f776e65720000000000000000000000000000000000000000000060448201526064015b60405180910390fd5b602754600003610644576040517face124bc00000000000000000000000000000000000000000000000000000000815260040160405180910390fd5b60285442116106955760405162461bcd60e51b815260206004820152601160248201527f41756374696f6e206e6f7420656e64656400000000000000000000000000000060448201526064016105ff565b600061069f61166b565b905060006106ae82600161217f565b90505b600a8110156107735760065473ffffffffffffffffffffffffffffffffffffffff166340c10f19846106e484600161217f565b6040517fffffffff0000000000000000000000000000000000000000000000000000000060e085901b16815273ffffffffffffffffffffffffffffffffffffffff90921660048301526024820152604401600060405180830381600087803b15801561074f57600080fd5b505af1158015610763573d6000803e3d6000fd5b5050600190920191506106b19050565b505050565b600781600a811061078857600080fd5b600302018054600182015460029092015473ffffffffffffffffffffffffffffffffffffffff909116925060ff1683565b60005473ffffffffffffffffffffffffffffffffffffffff1633146108205760405162461bcd60e51b815260206004820152600a60248201527f4f6e6c79206f776e65720000000000000000000000000000000000000000000060448201526064016105ff565b6108286116c3565b60285442116108795760405162461bcd60e51b815260206004820152601160248201527f41756374696f6e206e6f7420656e64656400000000000000000000000000000060448201526064016105ff565b60055474010000000000000000000000000000000000000000900460ff16156108e45760405162461bcd60e51b815260206004820152601160248201527f416c72656164792077697468647261776e00000000000000000000000000000060448201526064016105ff565b600580547fffffffffffffffffffffff00ffffffffffffffffffffffffffffffffffffffff167401000000000000000000000000000000000000000017905560008080805b600a811015610a21576000600782600a811061094757610947612192565b600302015473ffffffffffffffffffffffffffffffffffffffff1614610a21576001600782600a811061097c5761097c612192565b6003020160020160009054906101000a900460ff1660028111156109a2576109a2611ee1565b036109b957836109b1816121c1565b945050610a19565b6002600782600a81106109ce576109ce612192565b6003020160020160009054906101000a900460ff1660028111156109f4576109f4611ee1565b03610a0b5782610a03816121c1565b935050610a19565b81610a15816121c1565b9250505b600101610929565b50600082610a2f6002610bf1565b610a3991906121f9565b84610a446001610bf1565b610a4e91906121f9565b610a58919061217f565b9050600082610a65611016565b610a6f91906121f9565b60055490915060009073ffffffffffffffffffffffffffffffffffffffff16610a98838561217f565b604051600081818185875af1925050503d8060008114610ad4576040519150601f19603f3d011682016040523d82523d6000602084013e610ad9565b606091505b5050905080610b2a5760405162461bcd60e51b815260206004820152601060248201527f5472616e73666572206661696c65642e0000000000000000000000000000000060448201526064016105ff565b505050505050610b3960018055565b565b610b43611706565b610b39611759565b610b53611e3d565b6040805161014081019091526007600a6000835b82821015610be85760408051606081018252600384028601805473ffffffffffffffffffffffffffffffffffffffff16825260018101546020830152600280820154929391929184019160ff1690811115610bc457610bc4611ee1565b6002811115610bd557610bd5611ee1565b8152505081526020019060010190610b67565b50505050905090565b600080826002811115610c0657610c06611ee1565b03610c1957610c13611016565b92915050565b6001826002811115610c2d57610c2d611ee1565b03610c51576064610c3c611016565b610c479060506121f9565b610c139190612210565b6064610c5b611016565b610c479060556121f9565b610c6e611706565b610b3960006117d6565b602754600003610cb4576040517face124bc00000000000000000000000000000000000000000000000000000000815260040160405180910390fd5b610cbc61184b565b610cc46116c3565b6028544211610d155760405162461bcd60e51b815260206004820152601160248201527f41756374696f6e206e6f7420656e64656400000000000000000000000000000060448201526064016105ff565b73ffffffffffffffffffffffffffffffffffffffff811660009081526026602052604090205460ff1615610d8b5760405162461bcd60e51b815260206004820152600f60248201527f416c726561647920636c61696d6564000000000000000000000000000000000060448201526064016105ff565b73ffffffffffffffffffffffffffffffffffffffff811660009081526025602090815260408083208054908490556026909252822080547fffffffffffffffffffffffffffffffffffffffffffffffffffffffffffffff0016600117905581908190815b600a811015610f8e578573ffffffffffffffffffffffffffffffffffffffff16600782600a8110610e2257610e22612192565b600302015473ffffffffffffffffffffffffffffffffffffffff1603610f865760065473ffffffffffffffffffffffffffffffffffffffff166340c10f1987610e6c84600161217f565b6040517fffffffff0000000000000000000000000000000000000000000000000000000060e085901b16815273ffffffffffffffffffffffffffffffffffffffff90921660048301526024820152604401600060405180830381600087803b158015610ed757600080fd5b505af1158015610eeb573d6000803e3d6000fd5b505050508480610efa906121c1565b955050600781600a8110610f1057610f10612192565b600302016001015484610f23919061217f565b93506000600782600a8110610f3a57610f3a612192565b6003020160020160009054906101000a900460ff166002811115610f6057610f60611ee1565b14610f8657600781600a8110610f7857610f78612192565b600302016002015460ff1692505b600101610def565b506000610f9a83610bf1565b610fa490866121f9565b610fae908561224b565b610fb8908361217f565b905080156110055760405173ffffffffffffffffffffffffffffffffffffffff87169082156108fc029083906000818181858888f19350505050158015611003573d6000803e3d6000fd5b505b505050505061101360018055565b50565b60008061102161166b565b90506000600782600a811061103857611038612192565b6003020160010154905060276003015481106110545780611058565b602a545b9250505090565b611067611706565b610b39611888565b6040517fffffffffffffffffffffffffffffffffffffffff000000000000000000000000606084901b16602082015260009081906034016040516020818303038152906040528051906020012090506110fe8686808060200260200160405190810160405280939291908181526020018383602002808284376000920191909152508792508591506118e39050565b9150505b949350505050565b611112611706565b600391909155600455565b602754600003611159576040517face124bc00000000000000000000000000000000000000000000000000000000815260040160405180910390fd5b6040805160808101825260275481526028546020820181905260295492820192909252602a5460608201529042101580611194575080514211155b156111db57805160208201516040517f2221fc9c000000000000000000000000000000000000000000000000000000008152600481019290925260248201526044016105ff565b6111e361184b565b6111eb6116c3565b6111f361145a565b8410156112425760405162461bcd60e51b815260206004820152600b60248201527f42696420746f6f206c6f7700000000000000000000000000000000000000000060448201526064016105ff565b3360009081526025602052604081205461125d90349061217f565b9050848110156112af5760405162461bcd60e51b815260206004820152601a60248201527f496e73756666696369656e742066756e647320666f722062696400000000000060448201526064016105ff565b6112b9858261224b565b336000818152602560205260409020919091556112e190866112dc8787846118fb565b61194c565b506112eb60018055565b50505050565b60005473ffffffffffffffffffffffffffffffffffffffff1633146113585760405162461bcd60e51b815260206004820152600a60248201527f4f6e6c79206f776e65720000000000000000000000000000000000000000000060448201526064016105ff565b73ffffffffffffffffffffffffffffffffffffffff81166113bb5760405162461bcd60e51b815260206004820152600f60248201527f496e76616c69642061646472657373000000000000000000000000000000000060448201526064016105ff565b600580547fffffffffffffffffffffffff00000000000000000000000000000000000000001673ffffffffffffffffffffffffffffffffffffffff92909216919091179055565b61142d6040518060800160405280600081526020016000815260200160008152602001600081525090565b50604080516080810182526027548152602854602082015260295491810191909152602a54606082015290565b600080600761146b6001600a61224b565b600a811061147b5761147b612192565b6003020160010154905060276003015481106114a35760295461149e908261217f565b6114a7565b602a545b91505090565b60005473ffffffffffffffffffffffffffffffffffffffff1633146115145760405162461bcd60e51b815260206004820152600a60248201527f4f6e6c79206f776e65720000000000000000000000000000000000000000000060448201526064016105ff565b8315806115215750828410155b15611562576040517f2221fc9c00000000000000000000000000000000000000000000000000000000815260048101859052602481018490526044016105ff565b8060000361159c576040517fee99522400000000000000000000000000000000000000000000000000000000815260040160405180910390fd5b816000036115d6576040517fb0fd644300000000000000000000000000000000000000000000000000000000815260040160405180910390fd5b6040805160808101825285815260208101859052908101839052606001819052602793909355602891909155602955602a55565b611612611706565b73ffffffffffffffffffffffffffffffffffffffff8116611662576040517f1e4fbdf7000000000000000000000000000000000000000000000000000000008152600060048201526024016105ff565b611013816117d6565b600a5b6000811180156116a25750600761168660018361224b565b600a811061169657611696612192565b60030201600101546000145b156116b957806116b18161225e565b91505061166e565b806114a78161225e565b6002600154036116ff576040517f3ee5aeb500000000000000000000000000000000000000000000000000000000815260040160405180910390fd5b6002600155565b60005473ffffffffffffffffffffffffffffffffffffffff163314610b39576040517f118cdaa70000000000000000000000000000000000000000000000000000000081523360048201526024016105ff565b611761611d92565b600280547fffffffffffffffffffffffffffffffffffffffffffffffffffffffffffffff001690557f5db9ee0a495bf2e6ff9c91a7834c1ba4fdd244a5e8aa4e537bd38aeae4b073aa335b60405173ffffffffffffffffffffffffffffffffffffffff909116815260200160405180910390a1565b6000805473ffffffffffffffffffffffffffffffffffffffff8381167fffffffffffffffffffffffff0000000000000000000000000000000000000000831681178455604051919092169283917f8be0079c531659141344cd1fd0a4f28419497f9722a3daafe3b4186f6b6457e09190a35050565b60025460ff1615610b39576040517fd93c066500000000000000000000000000000000000000000000000000000000815260040160405180910390fd5b61189061184b565b600280547fffffffffffffffffffffffffffffffffffffffffffffffffffffffffffffff001660011790557f62e78cea01bee320cd4e420270b5ea74000d11b0c9f74754ebdbfc544b05a2586117ac3390565b6000826118f08584611dce565b1490505b9392505050565b600082810361190c575060006118f4565b61191a84848460035461106f565b15611927575060016118f4565b61193584848460045461106f565b15611942575060026118f4565b5060009392505050565b60005b600a81108015611979575082600782600a811061196e5761196e612192565b600302016001015410155b156119905780611988816121c1565b91505061194f565b600a8110611a065760405162461bcd60e51b815260206004820152602160248201527f42696420646f6573206e6f74207175616c69667920666f7220746f702062696460448201527f730000000000000000000000000000000000000000000000000000000000000060648201526084016105ff565b60006007611a166001600a61224b565b600a8110611a2657611a26612192565b6040805160608101825260039290920292909201805473ffffffffffffffffffffffffffffffffffffffff16825260018101546020830152600280820154929391929184019160ff1690811115611a7f57611a7f611ee1565b6002811115611a9057611a90611ee1565b905250805190915073ffffffffffffffffffffffffffffffffffffffff1615611b5c57602080820151825173ffffffffffffffffffffffffffffffffffffffff1660009081526025909252604090912054611aeb919061217f565b815173ffffffffffffffffffffffffffffffffffffffff908116600090815260256020908152604091829020939093558351838501518251908152938401869052909116917f032dcd270c2e80a70f38d5539b346f68da4e900b762c8e07b15ec32830664f43910160405180910390a25b6000611b6a6001600a61224b565b90505b82811115611c65576007611b8260018361224b565b600a8110611b9257611b92612192565b60030201600782600a8110611ba957611ba9612192565b82546003919091029190910180547fffffffffffffffffffffffff00000000000000000000000000000000000000001673ffffffffffffffffffffffffffffffffffffffff90921691909117815560018083015481830155600280840154818401805460ff9092169390927fffffffffffffffffffffffffffffffffffffffffffffffffffffffffffffff00909216918490811115611c4a57611c4a611ee1565b02179055509050508080611c5d9061225e565b915050611b6d565b5060405180606001604052808673ffffffffffffffffffffffffffffffffffffffff168152602001858152602001846002811115611ca557611ca5611ee1565b9052600783600a8110611cba57611cba612192565b6003020160008201518160000160006101000a81548173ffffffffffffffffffffffffffffffffffffffff021916908373ffffffffffffffffffffffffffffffffffffffff1602179055506020820151816001015560408201518160020160006101000a81548160ff02191690836002811115611d3957611d39611ee1565b02179055505060405185815273ffffffffffffffffffffffffffffffffffffffff871691507f3fabff0a9c3ecd6814702e247fa9733e5d0aa69e3a38590f92cb18f623a2254d9060200160405180910390a25050505050565b60025460ff16610b39576040517f8dfc202b00000000000000000000000000000000000000000000000000000000815260040160405180910390fd5b600081815b8451811015611e0957611dff82868381518110611df257611df2612192565b6020026020010151611e11565b9150600101611dd3565b509392505050565b6000818310611e2d5760008281526020849052604090206118f4565b5060009182526020526040902090565b604051806101400160405280600a905b611e6e60408051606081018252600080825260208201819052909182015290565b815260200190600190039081611e4d5790505090565b803573ffffffffffffffffffffffffffffffffffffffff81168114611ea857600080fd5b919050565b600060208284031215611ebf57600080fd5b6118f482611e84565b600060208284031215611eda57600080fd5b5035919050565b7f4e487b7100000000000000000000000000000000000000000000000000000000600052602160045260246000fd5b60038110611f47577f4e487b7100000000000000000000000000000000000000000000000000000000600052602160045260246000fd5b9052565b73ffffffffffffffffffffffffffffffffffffffff8416815260208101839052606081016111026040830184611f10565b6103c08101818360005b600a811015611fde578151805173ffffffffffffffffffffffffffffffffffffffff1684526020808201518186015260409182015191611fc881870184611f10565b5060609490940193929092019150600101611f86565b50505092915050565b600060208284031215611ff957600080fd5b8135600381106118f457600080fd5b60008083601f84011261201a57600080fd5b50813567ffffffffffffffff81111561203257600080fd5b6020830191508360208260051b850101111561204d57600080fd5b9250929050565b6000806000806060858703121561206a57600080fd5b843567ffffffffffffffff81111561208157600080fd5b61208d87828801612008565b90955093506120a0905060208601611e84565b9396929550929360400135925050565b600080604083850312156120c357600080fd5b50508035926020909101359150565b6000806000604084860312156120e757600080fd5b83359250602084013567ffffffffffffffff81111561210557600080fd5b61211186828701612008565b9497909650939450505050565b6000806000806080858703121561213457600080fd5b5050823594602084013594506040840135936060013592509050565b7f4e487b7100000000000000000000000000000000000000000000000000000000600052601160045260246000fd5b80820180821115610c1357610c13612150565b7f4e487b7100000000000000000000000000000000000000000000000000000000600052603260045260246000fd5b60007fffffffffffffffffffffffffffffffffffffffffffffffffffffffffffffffff82036121f2576121f2612150565b5060010190565b8082028115828204841417610c1357610c13612150565b600082612246577f4e487b7100000000000000000000000000000000000000000000000000000000600052601260045260246000fd5b500490565b81810381811115610c1357610c13612150565b60008161226d5761226d612150565b507fffffffffffffffffffffffffffffffffffffffffffffffffffffffffffffffff019056fea164736f6c6343000817000a","linkReferences":{}},"methodIdentifiers":{"MAX_TOP_BIDS()":"19bcb4cd","adminMintRemaining(address)":"00f2a368","bid(uint256,bytes32[])":"a06a5b35","bidBalances(address)":"031778f9","checkMerkleProof(bytes32[],address,bytes32)":"95d6a3cc","claimAll(address)":"77329f35","claimed(address)":"c884ef83","erc721Address()":"2352a864","firstTierMerkleRoot()":"0d16e28c","getConfig()":"c3f909d4","getMinimumBid()":"c5b63600","getSettledPrice()":"7e907e64","getSettledPriceWithDiscount(uint8)":"57782419","getTopBids()":"54f56741","owner()":"8da5cb5b","pause()":"8456cb59","paused()":"5c975abb","renounceOwnership()":"715018a6","secondTierMerkleRoot()":"0b950be6","setConfig(uint256,uint256,uint256,uint256)":"e5c389cd","setMerkleRoots(bytes32,bytes32)":"9a48eb51","setTreasuryWallet(address)":"a8602fea","topBids(uint256)":"010d9813","transferOwnership(address)":"f2fde38b","treasuryWallet()":"4626402b","unpause()":"3f4ba83a","withdraw()":"3ccfd60b","withdrawn()":"c80ec522"},"id":51}