{"abi":[{"type":"constructor","inputs":[{"name":"initialOwner","type":"address","internalType":"address"}],"stateMutability":"nonpayable"},{"type":"function","name":"approve","inputs":[{"name":"to","type":"address","internalType":"address"},{"name":"tokenId","type":"uint256","internalType":"uint256"}],"outputs":[],"stateMutability":"nonpayable"},{"type":"function","name":"balanceOf","inputs":[{"name":"owner","type":"address","internalType":"address"}],"outputs":[{"name":"","type":"uint256","internalType":"uint256"}],"stateMutability":"view"},{"type":"function","name":"burn","inputs":[{"name":"tokenId","type":"uint256","internalType":"uint256"}],"outputs":[],"stateMutability":"nonpayable"},{"type":"function","name":"getAllTokensVersion","inputs":[],"outputs":[{"name":"versions","type":"string[]","internalType":"string[]"}],"stateMutability":"view"},{"type":"function","name":"getApproved","inputs":[{"name":"tokenId","type":"uint256","internalType":"uint256"}],"outputs":[{"name":"","type":"address","internalType":"address"}],"stateMutability":"view"},{"type":"function","name":"getTokenVersion","inputs":[{"name":"tokenId","type":"uint256","internalType":"uint256"}],"outputs":[{"name":"versionStr","type":"string","internalType":"string"}],"stateMutability":"view"},{"type":"function","name":"isApprovedForAll","inputs":[{"name":"owner","type":"address","internalType":"address"},{"name":"operator","type":"address","internalType":"address"}],"outputs":[{"name":"","type":"bool","internalType":"bool"}],"stateMutability":"view"},{"type":"function","name":"mint","inputs":[{"name":"recipient","type":"address","internalType":"address"}],"outputs":[],"stateMutability":"nonpayable"},{"type":"function","name":"name","inputs":[],"outputs":[{"name":"","type":"string","internalType":"string"}],"stateMutability":"view"},{"type":"function","name":"owner","inputs":[],"outputs":[{"name":"","type":"address","internalType":"address"}],"stateMutability":"view"},{"type":"function","name":"ownerOf","inputs":[{"name":"tokenId","type":"uint256","internalType":"uint256"}],"outputs":[{"name":"","type":"address","internalType":"address"}],"stateMutability":"view"},{"type":"function","name":"refreshToken","inputs":[{"name":"tokenId","type":"uint256","internalType":"uint256"}],"outputs":[],"stateMutability":"nonpayable"},{"type":"function","name":"renounceOwnership","inputs":[],"outputs":[],"stateMutability":"nonpayable"},{"type":"function","name":"safeTransferFrom","inputs":[{"name":"from","type":"address","internalType":"address"},{"name":"to","type":"address","internalType":"address"},{"name":"tokenId","type":"uint256","internalType":"uint256"}],"outputs":[],"stateMutability":"nonpayable"},{"type":"function","name":"safeTransferFrom","inputs":[{"name":"from","type":"address","internalType":"address"},{"name":"to","type":"address","internalType":"address"},{"name":"tokenId","type":"uint256","internalType":"uint256"},{"name":"data","type":"bytes","internalType":"bytes"}],"outputs":[],"stateMutability":"nonpayable"},{"type":"function","name":"setApprovalForAll","inputs":[{"name":"operator","type":"address","internalType":"address"},{"name":"approved","type":"bool","internalType":"bool"}],"outputs":[],"stateMutability":"nonpayable"},{"type":"function","name":"supportsInterface","inputs":[{"name":"interfaceId","type":"bytes4","internalType":"bytes4"}],"outputs":[{"name":"","type":"bool","internalType":"bool"}],"stateMutability":"view"},{"type":"function","name":"symbol","inputs":[],"outputs":[{"name":"","type":"string","internalType":"string"}],"stateMutability":"view"},{"type":"function","name":"tokenURI","inputs":[{"name":"tokenId","type":"uint256","internalType":"uint256"}],"outputs":[{"name":"","type":"string","internalType":"string"}],"stateMutability":"view"},{"type":"function","name":"totalSupply","inputs":[],"outputs":[{"name":"","type":"uint256","internalType":"uint256"}],"stateMutability":"view"},{"type":"function","name":"transferFrom","inputs":[{"name":"from","type":"address","internalType":"address"},{"name":"to","type":"address","internalType":"address"},{"name":"tokenId","type":"uint256","internalType":"uint256"}],"outputs":[],"stateMutability":"nonpayable"},{"type":"function","name":"transferOwnership","inputs":[{"name":"newOwner","type":"address","internalType":"address"}],"outputs":[],"stateMutability":"nonpayable"},{"type":"event","name":"Approval","inputs":[{"name":"owner","type":"address","indexed":true,"internalType":"address"},{"name":"approved","type":"address","indexed":true,"internalType":"address"},{"name":"tokenId","type":"uint256","indexed":true,"internalType":"uint256"}],"anonymous":false},{"type":"event","name":"ApprovalForAll","inputs":[{"name":"owner","type":"address","indexed":true,"internalType":"address"},{"name":"operator","type":"address","indexed":true,"internalType":"address"},{"name":"approved","type":"bool","indexed":false,"internalType":"bool"}],"anonymous":false},{"type":"event","name":"BatchMetadataUpdate","inputs":[{"name":"_fromTokenId","type":"uint256","indexed":false,"internalType":"uint256"},{"name":"_toTokenId","type":"uint256","indexed":false,"internalType":"uint256"}],"anonymous":false},{"type":"event","name":"MetadataUpdate","inputs":[{"name":"_tokenId","type":"uint256","indexed":false,"internalType":"uint256"}],"anonymous":false},{"type":"event","name":"OwnershipTransferred","inputs":[{"name":"previousOwner","type":"address","indexed":true,"internalType":"address"},{"name":"newOwner","type":"address","indexed":true,"internalType":"address"}],"anonymous":false},{"type":"event","name":"Transfer","inputs":[{"name":"from","type":"address","indexed":true,"internalType":"address"},{"name":"to","type":"address","indexed":true,"internalType":"address"},{"name":"tokenId","type":"uint256","indexed":true,"internalType":"uint256"}],"anonymous":false},{"type":"error","name":"ERC721IncorrectOwner","inputs":[{"name":"sender","type":"address","internalType":"address"},{"name":"tokenId","type":"uint256","internalType":"uint256"},{"name":"owner","type":"address","internalType":"address"}]},{"type":"error","name":"ERC721InsufficientApproval","inputs":[{"name":"operator","type":"address","internalType":"address"},{"name":"tokenId","type":"uint256","internalType":"uint256"}]},{"type":"error","name":"ERC721InvalidApprover","inputs":[{"name":"approver","type":"address","internalType":"address"}]},{"type":"error","name":"ERC721InvalidOperator","inputs":[{"name":"operator","type":"address","internalType":"address"}]},{"type":"error","name":"ERC721InvalidOwner","inputs":[{"name":"owner","type":"address","internalType":"address"}]},{"type":"error","name":"ERC721InvalidReceiver","inputs":[{"name":"receiver","type":"address","internalType":"address"}]},{"type":"error","name":"ERC721InvalidSender","inputs":[{"name":"sender","type":"address","internalType":"address"}]},{"type":"error","name":"ERC721NonexistentToken","inputs":[{"name":"tokenId","type":"uint256","internalType":"uint256"}]},{"type":"error","name":"OwnableInvalidOwner","inputs":[{"name":"owner","type":"address","internalType":"address"}]},{"type":"error","name":"OwnableUnauthorizedAccount","inputs":[{"name":"account","type":"address","internalType":"address"}]}],"bytecode":{"object":"0x608060405260006008556009805461ffff191660641790553480156200002457600080fd5b5060405162001f6738038062001f6783398101604081905262000047916200019d565b80604051806040016040528060068152602001650ced8d2e8c6d60d31b8152506040518060400160405280600381526020016211d31560ea1b815250816000908162000094919062000276565b506001620000a3828262000276565b5050506001600160a01b038116620000d557604051631e4fbdf760e01b81526000600482015260240160405180910390fd5b620000e0816200014b565b5060408051808201909152601b81527f687474703a2f2f6c6f63616c686f73743a333030302f617274732f00000000006020820152600a9062000124908262000276565b50600b80546001600160a01b0319166001600160a01b039290921691909117905562000342565b600780546001600160a01b038381166001600160a01b0319831681179093556040519116919082907f8be0079c531659141344cd1fd0a4f28419497f9722a3daafe3b4186f6b6457e090600090a35050565b600060208284031215620001b057600080fd5b81516001600160a01b0381168114620001c857600080fd5b9392505050565b634e487b7160e01b600052604160045260246000fd5b600181811c90821680620001fa57607f821691505b6020821081036200021b57634e487b7160e01b600052602260045260246000fd5b50919050565b601f82111562000271576000816000526020600020601f850160051c810160208610156200024c5750805b601f850160051c820191505b818110156200026d5782815560010162000258565b5050505b505050565b81516001600160401b03811115620002925762000292620001cf565b620002aa81620002a38454620001e5565b8462000221565b602080601f831160018114620002e25760008415620002c95750858301515b600019600386901b1c1916600185901b1785556200026d565b600085815260208120601f198616915b828110156200031357888601518255948401946001909101908401620002f2565b5085821015620003325787850151600019600388901b60f8161c191681555b5050505050600190811b01905550565b611c1580620003526000396000f3fe608060405234801561001057600080fd5b50600436106101825760003560e01c806370a08231116100d8578063a22cb4651161008c578063c87b56dd11610066578063c87b56dd1461033b578063e985e9c51461034e578063f2fde38b1461038a57600080fd5b8063a22cb46514610300578063b88d4fde14610313578063c87abd7b1461032657600080fd5b8063809b8fad116100bd578063809b8fad146102a35780638da5cb5b146102e757806395d89b41146102f857600080fd5b806370a0823114610288578063715018a61461029b57600080fd5b806323b872dd1161013a57806342966c681161011457806342966c681461024f5780636352211e146102625780636a6278421461027557600080fd5b806323b872dd146102165780633b54f4061461022957806342842e0e1461023c57600080fd5b8063081812fc1161016b578063081812fc146101c4578063095ea7b3146101ef57806318160ddd1461020457600080fd5b806301ffc9a71461018757806306fdde03146101af575b600080fd5b61019a610195366004611605565b61039d565b60405190151581526020015b60405180910390f35b6101b76103ae565b6040516101a69190611697565b6101d76101d23660046116aa565b610440565b6040516001600160a01b0390911681526020016101a6565b6102026101fd3660046116df565b610469565b005b6008545b6040519081526020016101a6565b610202610224366004611709565b610478565b6101b76102373660046116aa565b610491565b61020261024a366004611709565b610601565b61020261025d3660046116aa565b61061c565b6101d76102703660046116aa565b610628565b610202610283366004611745565b610633565b610208610296366004611745565b61077c565b6102026107dd565b6102026102b13660046116aa565b6000908152600c6020526040902080547fffffffffffffffffffffffffffffffffffffffffffffffffffffffffffffff00169055565b6007546001600160a01b03166101d7565b6101b76107f1565b61020261030e366004611760565b610800565b6102026103213660046117cb565b61080b565b61032e610828565b6040516101a691906118c5565b6101b76103493660046116aa565b6108ba565b61019a61035c366004611947565b6001600160a01b03918216600090815260056020908152604080832093909416825291909152205460ff1690565b610202610398366004611745565b610902565b60006103a882610956565b92915050565b6060600080546103bd9061197a565b80601f01602080910402602001604051908101604052809291908181526020018280546103e99061197a565b80156104365780601f1061040b57610100808354040283529160200191610436565b820191906000526020600020905b81548152906001019060200180831161041957829003601f168201915b5050505050905090565b600061044b826109ac565b506000828152600460205260409020546001600160a01b03166103a8565b6104748282336109fe565b5050565b610483838383610a0b565b61048c81610ac2565b505050565b6000818152600c602052604081205460609160ff909116908160038111156104bb576104bb6119c7565b036104fd576040518060400160405280600181526020017f410000000000000000000000000000000000000000000000000000000000000081525091506105fb565b6001816003811115610511576105116119c7565b03610553576040518060400160405280600181526020017f420000000000000000000000000000000000000000000000000000000000000081525091506105fb565b6002816003811115610567576105676119c7565b036105a9576040518060400160405280600181526020017f430000000000000000000000000000000000000000000000000000000000000081525091506105fb565b60038160038111156105bd576105bd6119c7565b036105fb576040518060400160405280600181526020017f440000000000000000000000000000000000000000000000000000000000000081525091505b50919050565b61048c8383836040518060200160405280600081525061080b565b61047460008233610ba2565b60006103a8826109ac565b600b546001600160a01b031633148061065657506007546001600160a01b031633145b6106e7576040517f08c379a000000000000000000000000000000000000000000000000000000000815260206004820152602760248201527f4f6e6c79206d696e74657220636f6e747261637420616e64206f776e6572206360448201527f616e206d696e740000000000000000000000000000000000000000000000000060648201526084015b60405180910390fd5b60095460085461ffff9091161161075a576040517f08c379a000000000000000000000000000000000000000000000000000000000815260206004820152601360248201527f4d61782e20737570706c7920726561636865640000000000000000000000000060448201526064016106de565b60088054610779918391906000610770836119f6565b91905055610cd1565b50565b60006001600160a01b0382166107c1576040517f89c62b64000000000000000000000000000000000000000000000000000000008152600060048201526024016106de565b506001600160a01b031660009081526003602052604090205490565b6107e5610ceb565b6107ef6000610d31565b565b6060600180546103bd9061197a565b610474338383610d9b565b610816848484610478565b61082284848484610e71565b50505050565b606060085467ffffffffffffffff8111156108455761084561179c565b60405190808252806020026020018201604052801561087857816020015b60608152602001906001900390816108635790505b50905060005b6008548110156108b65761089181610491565b8282815181106108a3576108a3611a55565b602090810291909101015260010161087e565b5090565b60606108c5826109ac565b50600a6108d183610491565b6108da84611034565b6040516020016108ec93929190611aa0565b6040516020818303038152906040529050919050565b61090a610ceb565b6001600160a01b03811661094d576040517f1e4fbdf7000000000000000000000000000000000000000000000000000000008152600060048201526024016106de565b61077981610d31565b60007fffffffff0000000000000000000000000000000000000000000000000000000082167f490649060000000000000000000000000000000000000000000000000000000014806103a857506103a8826110f2565b6000818152600260205260408120546001600160a01b0316806103a8576040517f7e273289000000000000000000000000000000000000000000000000000000008152600481018490526024016106de565b61048c83838360016111d5565b6001600160a01b038216610a4e576040517f64a0ae92000000000000000000000000000000000000000000000000000000008152600060048201526024016106de565b6000610a5b838333610ba2565b9050836001600160a01b0316816001600160a01b031614610822576040517f64283d7b0000000000000000000000000000000000000000000000000000000081526001600160a01b03808616600483015260248201849052821660448201526064016106de565b6000818152600c602052604090205460ff166003816003811115610ae857610ae86119c7565b03610af1575050565b6000816003811115610b0557610b056119c7565b03610b1257506001610b50565b6001816003811115610b2657610b266119c7565b03610b3357506002610b50565b6002816003811115610b4757610b476119c7565b03610b50575060035b6000828152600c6020526040902080548291907fffffffffffffffffffffffffffffffffffffffffffffffffffffffffffffff00166001836003811115610b9957610b996119c7565b02179055505050565b6000828152600260205260408120546001600160a01b0390811690831615610bcf57610bcf81848661132b565b6001600160a01b03811615610c2b57610bec6000856000806111d5565b6001600160a01b038116600090815260036020526040902080547fffffffffffffffffffffffffffffffffffffffffffffffffffffffffffffffff0190555b6001600160a01b03851615610c5a576001600160a01b0385166000908152600360205260409020805460010190555b60008481526002602052604080822080547fffffffffffffffffffffffff0000000000000000000000000000000000000000166001600160a01b0389811691821790925591518793918516917fddf252ad1be2c89b69c2b068fc378daa952ba7f163c4a11628f55a4df523b3ef91a4949350505050565b6104748282604051806020016040528060008152506113c1565b6007546001600160a01b031633146107ef576040517f118cdaa70000000000000000000000000000000000000000000000000000000081523360048201526024016106de565b600780546001600160a01b038381167fffffffffffffffffffffffff0000000000000000000000000000000000000000831681179093556040519116919082907f8be0079c531659141344cd1fd0a4f28419497f9722a3daafe3b4186f6b6457e090600090a35050565b6001600160a01b038216610de6576040517f5b08ba180000000000000000000000000000000000000000000000000000000081526001600160a01b03831660048201526024016106de565b6001600160a01b0383811660008181526005602090815260408083209487168084529482529182902080547fffffffffffffffffffffffffffffffffffffffffffffffffffffffffffffff001686151590811790915591519182527f17307eab39ab6107e8899845ad3d59bd9653f200f220920489ca2b5937696c31910160405180910390a3505050565b6001600160a01b0383163b15610822576040517f150b7a020000000000000000000000000000000000000000000000000000000081526001600160a01b0384169063150b7a0290610ecc903390889087908790600401611bb9565b6020604051808303816000875af1925050508015610f25575060408051601f3d9081017fffffffffffffffffffffffffffffffffffffffffffffffffffffffffffffffe0168201909252610f2291810190611beb565b60015b610fa7573d808015610f53576040519150601f19603f3d011682016040523d82523d6000602084013e610f58565b606091505b508051600003610f9f576040517f64a0ae920000000000000000000000000000000000000000000000000000000081526001600160a01b03851660048201526024016106de565b805181602001fd5b7fffffffff0000000000000000000000000000000000000000000000000000000081167f150b7a02000000000000000000000000000000000000000000000000000000001461102d576040517f64a0ae920000000000000000000000000000000000000000000000000000000081526001600160a01b03851660048201526024016106de565b5050505050565b60606000611041836113d8565b600101905060008167ffffffffffffffff8111156110615761106161179c565b6040519080825280601f01601f19166020018201604052801561108b576020820181803683370190505b5090508181016020015b7fffffffffffffffffffffffffffffffffffffffffffffffffffffffffffffffff017f3031323334353637383961626364656600000000000000000000000000000000600a86061a8153600a850494508461109557509392505050565b60007fffffffff0000000000000000000000000000000000000000000000000000000082167f80ac58cd00000000000000000000000000000000000000000000000000000000148061118557507fffffffff0000000000000000000000000000000000000000000000000000000082167f5b5e139f00000000000000000000000000000000000000000000000000000000145b806103a857507f01ffc9a7000000000000000000000000000000000000000000000000000000007fffffffff000000000000000000000000000000000000000000000000000000008316146103a8565b80806111e957506001600160a01b03821615155b156112e35760006111f9846109ac565b90506001600160a01b038316158015906112255750826001600160a01b0316816001600160a01b031614155b801561125757506001600160a01b0380821660009081526005602090815260408083209387168352929052205460ff16155b15611299576040517fa9fbf51f0000000000000000000000000000000000000000000000000000000081526001600160a01b03841660048201526024016106de565b81156112e15783856001600160a01b0316826001600160a01b03167f8c5be1e5ebec7d5bd14f71427d1e84f3dd0314c0f7b2291e5b200ac8c7c3b92560405160405180910390a45b505b5050600090815260046020526040902080547fffffffffffffffffffffffff0000000000000000000000000000000000000000166001600160a01b0392909216919091179055565b6113368383836114ba565b61048c576001600160a01b03831661137d576040517f7e273289000000000000000000000000000000000000000000000000000000008152600481018290526024016106de565b6040517f177e802f0000000000000000000000000000000000000000000000000000000081526001600160a01b0383166004820152602481018290526044016106de565b6113cb8383611540565b61048c6000848484610e71565b6000807a184f03e93ff9f4daa797ed6e38ed64bf6a1f0100000000000000008310611421577a184f03e93ff9f4daa797ed6e38ed64bf6a1f010000000000000000830492506040015b6d04ee2d6d415b85acef8100000000831061144d576d04ee2d6d415b85acef8100000000830492506020015b662386f26fc10000831061146b57662386f26fc10000830492506010015b6305f5e1008310611483576305f5e100830492506008015b612710831061149757612710830492506004015b606483106114a9576064830492506002015b600a83106103a85760010192915050565b60006001600160a01b038316158015906115385750826001600160a01b0316846001600160a01b0316148061151457506001600160a01b0380851660009081526005602090815260408083209387168352929052205460ff165b8061153857506000828152600460205260409020546001600160a01b038481169116145b949350505050565b6001600160a01b038216611583576040517f64a0ae92000000000000000000000000000000000000000000000000000000008152600060048201526024016106de565b600061159183836000610ba2565b90506001600160a01b0381161561048c576040517f73c6ac6e000000000000000000000000000000000000000000000000000000008152600060048201526024016106de565b7fffffffff000000000000000000000000000000000000000000000000000000008116811461077957600080fd5b60006020828403121561161757600080fd5b8135611622816115d7565b9392505050565b60005b8381101561164457818101518382015260200161162c565b50506000910152565b60008151808452611665816020860160208601611629565b601f017fffffffffffffffffffffffffffffffffffffffffffffffffffffffffffffffe0169290920160200192915050565b602081526000611622602083018461164d565b6000602082840312156116bc57600080fd5b5035919050565b80356001600160a01b03811681146116da57600080fd5b919050565b600080604083850312156116f257600080fd5b6116fb836116c3565b946020939093013593505050565b60008060006060848603121561171e57600080fd5b611727846116c3565b9250611735602085016116c3565b9150604084013590509250925092565b60006020828403121561175757600080fd5b611622826116c3565b6000806040838503121561177357600080fd5b61177c836116c3565b91506020830135801515811461179157600080fd5b809150509250929050565b7f4e487b7100000000000000000000000000000000000000000000000000000000600052604160045260246000fd5b600080600080608085870312156117e157600080fd5b6117ea856116c3565b93506117f8602086016116c3565b925060408501359150606085013567ffffffffffffffff8082111561181c57600080fd5b818701915087601f83011261183057600080fd5b8135818111156118425761184261179c565b604051601f82017fffffffffffffffffffffffffffffffffffffffffffffffffffffffffffffffe0908116603f011681019083821181831017156118885761188861179c565b816040528281528a60208487010111156118a157600080fd5b82602086016020830137600060208483010152809550505050505092959194509250565b600060208083016020845280855180835260408601915060408160051b87010192506020870160005b8281101561193a577fffffffffffffffffffffffffffffffffffffffffffffffffffffffffffffffc088860301845261192885835161164d565b945092850192908501906001016118ee565b5092979650505050505050565b6000806040838503121561195a57600080fd5b611963836116c3565b9150611971602084016116c3565b90509250929050565b600181811c9082168061198e57607f821691505b6020821081036105fb577f4e487b7100000000000000000000000000000000000000000000000000000000600052602260045260246000fd5b7f4e487b7100000000000000000000000000000000000000000000000000000000600052602160045260246000fd5b60007fffffffffffffffffffffffffffffffffffffffffffffffffffffffffffffffff8203611a4e577f4e487b7100000000000000000000000000000000000000000000000000000000600052601160045260246000fd5b5060010190565b7f4e487b7100000000000000000000000000000000000000000000000000000000600052603260045260246000fd5b60008151611a96818560208601611629565b9290920192915050565b60008085548160018260011c91506001831680611abe57607f831692505b60208084108203611af6577f4e487b710000000000000000000000000000000000000000000000000000000086526022600452602486fd5b818015611b0a5760018114611b3d57611b6a565b7fffffffffffffffffffffffffffffffffffffffffffffffffffffffffffffff0086168952841515850289019650611b6a565b60008c81526020902060005b86811015611b625781548b820152908501908301611b49565b505084890196505b505050505050611baf611ba9611b808388611a84565b7f2f00000000000000000000000000000000000000000000000000000000000000815260010190565b85611a84565b9695505050505050565b60006001600160a01b03808716835280861660208401525083604083015260806060830152611baf608083018461164d565b600060208284031215611bfd57600080fd5b8151611622816115d756fea164736f6c6343000817000a","linkReferences":{}},"methodIdentifiers":{"approve(address,uint256)":"095ea7b3","balanceOf(address)":"70a08231","burn(uint256)":"42966c68","getAllTokensVersion()":"c87abd7b","getApproved(uint256)":"081812fc","getTokenVersion(uint256)":"3b54f406","isApprovedForAll(address,address)":"e985e9c5","mint(address)":"6a627842","name()":"06fdde03","owner()":"8da5cb5b","ownerOf(uint256)":"6352211e","refreshToken(uint256)":"809b8fad","renounceOwnership()":"715018a6","safeTransferFrom(address,address,uint256)":"42842e0e","safeTransferFrom(address,address,uint256,bytes)":"b88d4fde","setApprovalForAll(address,bool)":"a22cb465","supportsInterface(bytes4)":"01ffc9a7","symbol()":"95d89b41","tokenURI(uint256)":"c87b56dd","totalSupply()":"18160ddd","transferFrom(address,address,uint256)":"23b872dd","transferOwnership(address)":"f2fde38b"},"id":39}