{"abi":[{"type":"constructor","inputs":[{"name":"initialOwner","type":"address","internalType":"address"},{"name":"_erc721Address","type":"address","internalType":"address"},{"name":"_treasuryWallet","type":"address","internalType":"address"}],"stateMutability":"nonpayable"},{"type":"function","name":"MAX_TOP_BIDS","inputs":[],"outputs":[{"name":"","type":"uint256","internalType":"uint256"}],"stateMutability":"view"},{"type":"function","name":"adminMintRemaining","inputs":[{"name":"_recipient","type":"address","internalType":"address"}],"outputs":[],"stateMutability":"nonpayable"},{"type":"function","name":"bid","inputs":[{"name":"bidAmount","type":"uint256","internalType":"uint256"},{"name":"merkleProof","type":"bytes32[]","internalType":"bytes32[]"}],"outputs":[],"stateMutability":"payable"},{"type":"function","name":"bidBalances","inputs":[{"name":"","type":"address","internalType":"address"}],"outputs":[{"name":"","type":"uint256","internalType":"uint256"}],"stateMutability":"view"},{"type":"function","name":"checkMerkleProof","inputs":[{"name":"merkleProof","type":"bytes32[]","internalType":"bytes32[]"},{"name":"_address","type":"address","internalType":"address"},{"name":"_root","type":"bytes32","internalType":"bytes32"}],"outputs":[{"name":"","type":"bool","internalType":"bool"}],"stateMutability":"pure"},{"type":"function","name":"claimAll","inputs":[],"outputs":[],"stateMutability":"nonpayable"},{"type":"function","name":"claimed","inputs":[{"name":"","type":"address","internalType":"address"}],"outputs":[{"name":"","type":"bool","internalType":"bool"}],"stateMutability":"view"},{"type":"function","name":"erc721Address","inputs":[],"outputs":[{"name":"","type":"address","internalType":"contract IGlitch"}],"stateMutability":"view"},{"type":"function","name":"firstTierMerkleRoot","inputs":[],"outputs":[{"name":"","type":"bytes32","internalType":"bytes32"}],"stateMutability":"view"},{"type":"function","name":"getConfig","inputs":[],"outputs":[{"name":"","type":"tuple","internalType":"struct Config","components":[{"name":"startTime","type":"uint256","internalType":"uint256"},{"name":"endTime","type":"uint256","internalType":"uint256"},{"name":"minBidIncrementInWei","type":"uint256","internalType":"uint256"},{"name":"startAmountInWei","type":"uint256","internalType":"uint256"}]}],"stateMutability":"view"},{"type":"function","name":"getMinimumBid","inputs":[],"outputs":[{"name":"","type":"uint256","internalType":"uint256"}],"stateMutability":"view"},{"type":"function","name":"getSettledPrice","inputs":[],"outputs":[{"name":"","type":"uint256","internalType":"uint256"}],"stateMutability":"view"},{"type":"function","name":"getSettledPriceWithDiscount","inputs":[{"name":"discountType","type":"uint8","internalType":"enum DiscountType"}],"outputs":[{"name":"","type":"uint256","internalType":"uint256"}],"stateMutability":"view"},{"type":"function","name":"getTopBids","inputs":[],"outputs":[{"name":"","type":"tuple[10]","internalType":"struct Bid[10]","components":[{"name":"bidder","type":"address","internalType":"address"},{"name":"amount","type":"uint256","internalType":"uint256"},{"name":"discountType","type":"uint8","internalType":"enum DiscountType"}]}],"stateMutability":"view"},{"type":"function","name":"owner","inputs":[],"outputs":[{"name":"","type":"address","internalType":"address"}],"stateMutability":"view"},{"type":"function","name":"pause","inputs":[],"outputs":[],"stateMutability":"nonpayable"},{"type":"function","name":"paused","inputs":[],"outputs":[{"name":"","type":"bool","internalType":"bool"}],"stateMutability":"view"},{"type":"function","name":"renounceOwnership","inputs":[],"outputs":[],"stateMutability":"nonpayable"},{"type":"function","name":"secondTierMerkleRoot","inputs":[],"outputs":[{"name":"","type":"bytes32","internalType":"bytes32"}],"stateMutability":"view"},{"type":"function","name":"setConfig","inputs":[{"name":"_startTime","type":"uint256","internalType":"uint256"},{"name":"_endTime","type":"uint256","internalType":"uint256"},{"name":"_minBidIncrementInWei","type":"uint256","internalType":"uint256"},{"name":"_startAmountInWei","type":"uint256","internalType":"uint256"}],"outputs":[],"stateMutability":"nonpayable"},{"type":"function","name":"setMerkleRoots","inputs":[{"name":"_firstTierRoot","type":"bytes32","internalType":"bytes32"},{"name":"_secondTierRoot","type":"bytes32","internalType":"bytes32"}],"outputs":[],"stateMutability":"nonpayable"},{"type":"function","name":"setTreasuryWallet","inputs":[{"name":"newWallet","type":"address","internalType":"address"}],"outputs":[],"stateMutability":"nonpayable"},{"type":"function","name":"topBids","inputs":[{"name":"","type":"uint256","internalType":"uint256"}],"outputs":[{"name":"bidder","type":"address","internalType":"address"},{"name":"amount","type":"uint256","internalType":"uint256"},{"name":"discountType","type":"uint8","internalType":"enum DiscountType"}],"stateMutability":"view"},{"type":"function","name":"transferOwnership","inputs":[{"name":"newOwner","type":"address","internalType":"address"}],"outputs":[],"stateMutability":"nonpayable"},{"type":"function","name":"treasuryWallet","inputs":[],"outputs":[{"name":"","type":"address","internalType":"address payable"}],"stateMutability":"view"},{"type":"function","name":"unpause","inputs":[],"outputs":[],"stateMutability":"nonpayable"},{"type":"function","name":"withdraw","inputs":[],"outputs":[],"stateMutability":"nonpayable"},{"type":"function","name":"withdrawn","inputs":[],"outputs":[{"name":"","type":"bool","internalType":"bool"}],"stateMutability":"view"},{"type":"event","name":"BidPlaced","inputs":[{"name":"bidder","type":"address","indexed":true,"internalType":"address"},{"name":"amount","type":"uint256","indexed":false,"internalType":"uint256"}],"anonymous":false},{"type":"event","name":"Outbid","inputs":[{"name":"bidder","type":"address","indexed":true,"internalType":"address"},{"name":"amount","type":"uint256","indexed":false,"internalType":"uint256"},{"name":"lastBidPosition","type":"uint256","indexed":false,"internalType":"uint256"}],"anonymous":false},{"type":"event","name":"OwnershipTransferred","inputs":[{"name":"previousOwner","type":"address","indexed":true,"internalType":"address"},{"name":"newOwner","type":"address","indexed":true,"internalType":"address"}],"anonymous":false},{"type":"event","name":"Paused","inputs":[{"name":"account","type":"address","indexed":false,"internalType":"address"}],"anonymous":false},{"type":"event","name":"Unpaused","inputs":[{"name":"account","type":"address","indexed":false,"internalType":"address"}],"anonymous":false},{"type":"error","name":"ConfigNotSet","inputs":[]},{"type":"error","name":"EnforcedPause","inputs":[]},{"type":"error","name":"ExpectedPause","inputs":[]},{"type":"error","name":"InvalidAmountInWei","inputs":[]},{"type":"error","name":"InvalidMinBidIncrementValue","inputs":[]},{"type":"error","name":"InvalidStartEndTime","inputs":[{"name":"startTime","type":"uint256","internalType":"uint256"},{"name":"endTime","type":"uint256","internalType":"uint256"}]},{"type":"error","name":"OwnableInvalidOwner","inputs":[{"name":"owner","type":"address","internalType":"address"}]},{"type":"error","name":"OwnableUnauthorizedAccount","inputs":[{"name":"account","type":"address","internalType":"address"}]},{"type":"error","name":"ReentrancyGuardReentrantCall","inputs":[]}],"bytecode":{"object":"0x60a0604052620334506080523480156200001857600080fd5b50604051620023a2380380620023a28339810160408190526200003b9162000125565b826001600160a01b0381166200006b57604051631e4fbdf760e01b81526000600482015260240160405180910390fd5b6200007681620000b8565b50600180556002805460ff19169055600680546001600160a01b039384166001600160a01b03199182161790915560058054929093169116179055506200016f565b600080546001600160a01b038381166001600160a01b0319831681178455604051919092169283917f8be0079c531659141344cd1fd0a4f28419497f9722a3daafe3b4186f6b6457e09190a35050565b80516001600160a01b03811681146200012057600080fd5b919050565b6000806000606084860312156200013b57600080fd5b620001468462000108565b9250620001566020850162000108565b9150620001666040850162000108565b90509250925092565b6080516122176200018b6000396000610a5f01526122176000f3fe6080604052600436106101b65760003560e01c80637e907e64116100ec578063c3f909d41161008a578063c884ef8311610064578063c884ef831461050c578063d1058e591461053c578063e5c389cd14610551578063f2fde38b1461057157600080fd5b8063c3f909d41461047d578063c5b63600146104c5578063c80ec522146104da57600080fd5b806395d6a3cc116100c657806395d6a3cc1461040a5780639a48eb511461042a578063a06a5b351461044a578063a8602fea1461045d57600080fd5b80637e907e64146103b55780638456cb59146103ca5780638da5cb5b146103df57600080fd5b80633ccfd60b1161015957806354f567411161013357806354f567411461033a578063577824191461035c5780635c975abb1461037c578063715018a6146103a057600080fd5b80633ccfd60b146102e35780633f4ba83a146102f85780634626402b1461030d57600080fd5b80630b950be6116101955780630b950be6146102505780630d16e28c1461026657806319bcb4cd1461027c5780632352a8641461029157600080fd5b8062f2a368146101bb578063010d9813146101dd578063031778f914610215575b600080fd5b3480156101c757600080fd5b506101db6101d6366004611e24565b610591565b005b3480156101e957600080fd5b506101fd6101f8366004611e3f565b61076d565b60405161020c93929190611ec2565b60405180910390f35b34801561022157600080fd5b50610242610230366004611e24565b60256020526000908152604090205481565b60405190815260200161020c565b34801561025c57600080fd5b5061024260045481565b34801561027257600080fd5b5061024260035481565b34801561028857600080fd5b50610242600a81565b34801561029d57600080fd5b506006546102be9073ffffffffffffffffffffffffffffffffffffffff1681565b60405173ffffffffffffffffffffffffffffffffffffffff909116815260200161020c565b3480156102ef57600080fd5b506101db6107ae565b34801561030457600080fd5b506101db610b20565b34801561031957600080fd5b506005546102be9073ffffffffffffffffffffffffffffffffffffffff1681565b34801561034657600080fd5b5061034f610b30565b60405161020c9190611ef3565b34801561036857600080fd5b50610242610377366004611f5e565b610bd6565b34801561038857600080fd5b5060025460ff165b604051901515815260200161020c565b3480156103ac57600080fd5b506101db610c4b565b3480156103c157600080fd5b50610242610c5d565b3480156103d657600080fd5b506101db610ca6565b3480156103eb57600080fd5b5060005473ffffffffffffffffffffffffffffffffffffffff166102be565b34801561041657600080fd5b50610390610425366004611fcb565b610cb6565b34801561043657600080fd5b506101db610445366004612027565b610d51565b6101db610458366004612049565b610d64565b34801561046957600080fd5b506101db610478366004611e24565b610f38565b34801561048957600080fd5b50610492611049565b60405161020c91908151815260208083015190820152604080830151908201526060918201519181019190915260800190565b3480156104d157600080fd5b506102426110a1565b3480156104e657600080fd5b506005546103909074010000000000000000000000000000000000000000900460ff1681565b34801561051857600080fd5b50610390610527366004611e24565b60266020526000908152604090205460ff1681565b34801561054857600080fd5b506101db6110f4565b34801561055d57600080fd5b506101db61056c366004612095565b611440565b34801561057d57600080fd5b506101db61058c366004611e24565b61159d565b60005473ffffffffffffffffffffffffffffffffffffffff1633146105fd5760405162461bcd60e51b815260206004820152600a60248201527f4f6e6c79206f776e65720000000000000000000000000000000000000000000060448201526064015b60405180910390fd5b602754600003610639576040517face124bc00000000000000000000000000000000000000000000000000000000815260040160405180910390fd5b602854421161068a5760405162461bcd60e51b815260206004820152601160248201527f41756374696f6e206e6f7420656e64656400000000000000000000000000000060448201526064016105f4565b6000610694611601565b905060006106a38260016120f6565b90505b600a8110156107685760065473ffffffffffffffffffffffffffffffffffffffff166340c10f19846106d98460016120f6565b6040517fffffffff0000000000000000000000000000000000000000000000000000000060e085901b16815273ffffffffffffffffffffffffffffffffffffffff90921660048301526024820152604401600060405180830381600087803b15801561074457600080fd5b505af1158015610758573d6000803e3d6000fd5b5050600190920191506106a69050565b505050565b600781600a811061077d57600080fd5b600302018054600182015460029092015473ffffffffffffffffffffffffffffffffffffffff909116925060ff1683565b60005473ffffffffffffffffffffffffffffffffffffffff1633146108155760405162461bcd60e51b815260206004820152600a60248201527f4f6e6c79206f776e65720000000000000000000000000000000000000000000060448201526064016105f4565b61081d611649565b602854421161086e5760405162461bcd60e51b815260206004820152601160248201527f41756374696f6e206e6f7420656e64656400000000000000000000000000000060448201526064016105f4565b60055474010000000000000000000000000000000000000000900460ff16156108d95760405162461bcd60e51b815260206004820152601160248201527f416c72656164792077697468647261776e00000000000000000000000000000060448201526064016105f4565b600580547fffffffffffffffffffffff00ffffffffffffffffffffffffffffffffffffffff1674010000000000000000000000000000000000000000179055600080805b600a8110156109ce576001600782600a811061093b5761093b612109565b6003020160020160009054906101000a900460ff16600281111561096157610961611e58565b03610978578261097081612138565b9350506109c6565b6002600782600a811061098d5761098d612109565b6003020160020160009054906101000a900460ff1660028111156109b3576109b3611e58565b036109c657816109c281612138565b9250505b60010161091d565b506000816109dc6002610bd6565b6109e69190612170565b836109f16001610bd6565b6109fb9190612170565b610a0591906120f6565b9050600082610a1585600a612187565b610a1f9190612187565b610a27610c5d565b610a319190612170565b60055490915060009073ffffffffffffffffffffffffffffffffffffffff16610a5a83856120f6565b6040517f000000000000000000000000000000000000000000000000000000000000000091906000818181858888f193505050503d8060008114610aba576040519150601f19603f3d011682016040523d82523d6000602084013e610abf565b606091505b5050905080610b105760405162461bcd60e51b815260206004820152601060248201527f5472616e73666572206661696c65642e0000000000000000000000000000000060448201526064016105f4565b5050505050610b1e60018055565b565b610b2861168c565b610b1e6116df565b610b38611db4565b6040805161014081019091526007600a6000835b82821015610bcd5760408051606081018252600384028601805473ffffffffffffffffffffffffffffffffffffffff16825260018101546020830152600280820154929391929184019160ff1690811115610ba957610ba9611e58565b6002811115610bba57610bba611e58565b8152505081526020019060010190610b4c565b50505050905090565b600080826002811115610beb57610beb611e58565b03610bfe57610bf8610c5d565b92915050565b6001826002811115610c1257610c12611e58565b03610c36576064610c21610c5d565b610c2c906050612170565b610bf8919061219a565b6064610c40610c5d565b610c2c906055612170565b610c5361168c565b610b1e600061175c565b600080610c68611601565b90506000600782600a8110610c7f57610c7f612109565b600302016001015490506027600301548110610c9b5780610c9f565b602a545b9250505090565b610cae61168c565b610b1e6117d1565b6040517fffffffffffffffffffffffffffffffffffffffff000000000000000000000000606084901b1660208201526000908190603401604051602081830303815290604052805190602001209050610d4586868080602002602001604051908101604052809392919081815260200183836020028082843760009201919091525087925085915061182c9050565b9150505b949350505050565b610d5961168c565b600391909155600455565b602754600003610da0576040517face124bc00000000000000000000000000000000000000000000000000000000815260040160405180910390fd5b6040805160808101825260275481526028546020820181905260295492820192909252602a5460608201529042101580610ddb575080514211155b15610e2257805160208201516040517f2221fc9c000000000000000000000000000000000000000000000000000000008152600481019290925260248201526044016105f4565b610e2a611844565b610e32611649565b610e3a6110a1565b841015610e895760405162461bcd60e51b815260206004820152600b60248201527f42696420746f6f206c6f7700000000000000000000000000000000000000000060448201526064016105f4565b33600090815260256020526040812054610ea49034906120f6565b905084811015610ef65760405162461bcd60e51b815260206004820152601a60248201527f496e73756666696369656e742066756e647320666f722062696400000000000060448201526064016105f4565b610f008582612187565b33600081815260256020526040902091909155610f289086610f23878784611881565b6118d2565b50610f3260018055565b50505050565b60005473ffffffffffffffffffffffffffffffffffffffff163314610f9f5760405162461bcd60e51b815260206004820152600a60248201527f4f6e6c79206f776e65720000000000000000000000000000000000000000000060448201526064016105f4565b73ffffffffffffffffffffffffffffffffffffffff81166110025760405162461bcd60e51b815260206004820152600f60248201527f496e76616c69642061646472657373000000000000000000000000000000000060448201526064016105f4565b600580547fffffffffffffffffffffffff00000000000000000000000000000000000000001673ffffffffffffffffffffffffffffffffffffffff92909216919091179055565b6110746040518060800160405280600081526020016000815260200160008152602001600081525090565b50604080516080810182526027548152602854602082015260295491810191909152602a54606082015290565b60008060076110b26001600a612187565b600a81106110c2576110c2612109565b6003020160010154905060276003015481106110ea576029546110e590826120f6565b6110ee565b602a545b91505090565b602754600003611130576040517face124bc00000000000000000000000000000000000000000000000000000000815260040160405180910390fd5b611138611844565b611140611649565b60285442116111915760405162461bcd60e51b815260206004820152601160248201527f41756374696f6e206e6f7420656e64656400000000000000000000000000000060448201526064016105f4565b3360009081526026602052604090205460ff16156111f15760405162461bcd60e51b815260206004820152600f60248201527f416c726561647920636c61696d6564000000000000000000000000000000000060448201526064016105f4565b33600090815260266020526040812080547fffffffffffffffffffffffffffffffffffffffffffffffffffffffffffffff001660011790558080805b600a8110156113b65733600782600a811061124a5761124a612109565b600302015473ffffffffffffffffffffffffffffffffffffffff16036113ae5760065473ffffffffffffffffffffffffffffffffffffffff166340c10f19336112948460016120f6565b6040517fffffffff0000000000000000000000000000000000000000000000000000000060e085901b16815273ffffffffffffffffffffffffffffffffffffffff90921660048301526024820152604401600060405180830381600087803b1580156112ff57600080fd5b505af1158015611313573d6000803e3d6000fd5b50505050838061132290612138565b945050600781600a811061133857611338612109565b60030201600101548361134b91906120f6565b92506000600782600a811061136257611362612109565b6003020160020160009054906101000a900460ff16600281111561138857611388611e58565b146113ae57600781600a81106113a0576113a0612109565b600302016002015460ff1691505b60010161122d565b5060006113c282610bd6565b6113cc9085612170565b6113d69084612187565b336000908152602560205260409020546113f091906120f6565b9050801561143357336000818152602560205260408082208290555183156108fc0291849190818181858888f19350505050158015610b10573d6000803e3d6000fd5b50505050610b1e60018055565b60005473ffffffffffffffffffffffffffffffffffffffff1633146114a75760405162461bcd60e51b815260206004820152600a60248201527f4f6e6c79206f776e65720000000000000000000000000000000000000000000060448201526064016105f4565b8315806114b45750828410155b156114f5576040517f2221fc9c00000000000000000000000000000000000000000000000000000000815260048101859052602481018490526044016105f4565b8060000361152f576040517fee99522400000000000000000000000000000000000000000000000000000000815260040160405180910390fd5b81600003611569576040517fb0fd644300000000000000000000000000000000000000000000000000000000815260040160405180910390fd5b6040805160808101825285815260208101859052908101839052606001819052602793909355602891909155602955602a55565b6115a561168c565b73ffffffffffffffffffffffffffffffffffffffff81166115f5576040517f1e4fbdf7000000000000000000000000000000000000000000000000000000008152600060048201526024016105f4565b6115fe8161175c565b50565b600061160f6001600a612187565b90505b600781600a811061162557611625612109565b6003020160010154600003611646578061163e816121d5565b915050611612565b90565b600260015403611685576040517f3ee5aeb500000000000000000000000000000000000000000000000000000000815260040160405180910390fd5b6002600155565b60005473ffffffffffffffffffffffffffffffffffffffff163314610b1e576040517f118cdaa70000000000000000000000000000000000000000000000000000000081523360048201526024016105f4565b6116e7611d09565b600280547fffffffffffffffffffffffffffffffffffffffffffffffffffffffffffffff001690557f5db9ee0a495bf2e6ff9c91a7834c1ba4fdd244a5e8aa4e537bd38aeae4b073aa335b60405173ffffffffffffffffffffffffffffffffffffffff909116815260200160405180910390a1565b6000805473ffffffffffffffffffffffffffffffffffffffff8381167fffffffffffffffffffffffff0000000000000000000000000000000000000000831681178455604051919092169283917f8be0079c531659141344cd1fd0a4f28419497f9722a3daafe3b4186f6b6457e09190a35050565b6117d9611844565b600280547fffffffffffffffffffffffffffffffffffffffffffffffffffffffffffffff001660011790557f62e78cea01bee320cd4e420270b5ea74000d11b0c9f74754ebdbfc544b05a2586117323390565b6000826118398584611d45565b1490505b9392505050565b60025460ff1615610b1e576040517fd93c066500000000000000000000000000000000000000000000000000000000815260040160405180910390fd5b60008281036118925750600061183d565b6118a0848484600354610cb6565b156118ad5750600161183d565b6118bb848484600454610cb6565b156118c85750600261183d565b5060009392505050565b60005b600a81101561190757600781600a81106118f1576118f1612109565b60030201600101548311611907576001016118d5565b600a811061197d5760405162461bcd60e51b815260206004820152602160248201527f42696420646f6573206e6f74207175616c69667920666f7220746f702062696460448201527f730000000000000000000000000000000000000000000000000000000000000060648201526084016105f4565b6000600761198d6001600a612187565b600a811061199d5761199d612109565b6040805160608101825260039290920292909201805473ffffffffffffffffffffffffffffffffffffffff16825260018101546020830152600280820154929391929184019160ff16908111156119f6576119f6611e58565b6002811115611a0757611a07611e58565b905250805190915073ffffffffffffffffffffffffffffffffffffffff1615611ad357602080820151825173ffffffffffffffffffffffffffffffffffffffff1660009081526025909252604090912054611a6291906120f6565b815173ffffffffffffffffffffffffffffffffffffffff908116600090815260256020908152604091829020939093558351838501518251908152938401869052909116917f032dcd270c2e80a70f38d5539b346f68da4e900b762c8e07b15ec32830664f43910160405180910390a25b6000611ae16001600a612187565b90505b82811115611bdc576007611af9600183612187565b600a8110611b0957611b09612109565b60030201600782600a8110611b2057611b20612109565b82546003919091029190910180547fffffffffffffffffffffffff00000000000000000000000000000000000000001673ffffffffffffffffffffffffffffffffffffffff90921691909117815560018083015481830155600280840154818401805460ff9092169390927fffffffffffffffffffffffffffffffffffffffffffffffffffffffffffffff00909216918490811115611bc157611bc1611e58565b02179055509050508080611bd4906121d5565b915050611ae4565b5060405180606001604052808673ffffffffffffffffffffffffffffffffffffffff168152602001858152602001846002811115611c1c57611c1c611e58565b9052600783600a8110611c3157611c31612109565b6003020160008201518160000160006101000a81548173ffffffffffffffffffffffffffffffffffffffff021916908373ffffffffffffffffffffffffffffffffffffffff1602179055506020820151816001015560408201518160020160006101000a81548160ff02191690836002811115611cb057611cb0611e58565b02179055505060405185815273ffffffffffffffffffffffffffffffffffffffff871691507f3fabff0a9c3ecd6814702e247fa9733e5d0aa69e3a38590f92cb18f623a2254d9060200160405180910390a25050505050565b60025460ff16610b1e576040517f8dfc202b00000000000000000000000000000000000000000000000000000000815260040160405180910390fd5b600081815b8451811015611d8057611d7682868381518110611d6957611d69612109565b6020026020010151611d88565b9150600101611d4a565b509392505050565b6000818310611da457600082815260208490526040902061183d565b5060009182526020526040902090565b604051806101400160405280600a905b611de560408051606081018252600080825260208201819052909182015290565b815260200190600190039081611dc45790505090565b803573ffffffffffffffffffffffffffffffffffffffff81168114611e1f57600080fd5b919050565b600060208284031215611e3657600080fd5b61183d82611dfb565b600060208284031215611e5157600080fd5b5035919050565b7f4e487b7100000000000000000000000000000000000000000000000000000000600052602160045260246000fd5b60038110611ebe577f4e487b7100000000000000000000000000000000000000000000000000000000600052602160045260246000fd5b9052565b73ffffffffffffffffffffffffffffffffffffffff841681526020810183905260608101610d496040830184611e87565b6103c08101818360005b600a811015611f55578151805173ffffffffffffffffffffffffffffffffffffffff1684526020808201518186015260409182015191611f3f81870184611e87565b5060609490940193929092019150600101611efd565b50505092915050565b600060208284031215611f7057600080fd5b81356003811061183d57600080fd5b60008083601f840112611f9157600080fd5b50813567ffffffffffffffff811115611fa957600080fd5b6020830191508360208260051b8501011115611fc457600080fd5b9250929050565b60008060008060608587031215611fe157600080fd5b843567ffffffffffffffff811115611ff857600080fd5b61200487828801611f7f565b9095509350612017905060208601611dfb565b9396929550929360400135925050565b6000806040838503121561203a57600080fd5b50508035926020909101359150565b60008060006040848603121561205e57600080fd5b83359250602084013567ffffffffffffffff81111561207c57600080fd5b61208886828701611f7f565b9497909650939450505050565b600080600080608085870312156120ab57600080fd5b5050823594602084013594506040840135936060013592509050565b7f4e487b7100000000000000000000000000000000000000000000000000000000600052601160045260246000fd5b80820180821115610bf857610bf86120c7565b7f4e487b7100000000000000000000000000000000000000000000000000000000600052603260045260246000fd5b60007fffffffffffffffffffffffffffffffffffffffffffffffffffffffffffffffff8203612169576121696120c7565b5060010190565b8082028115828204841417610bf857610bf86120c7565b81810381811115610bf857610bf86120c7565b6000826121d0577f4e487b7100000000000000000000000000000000000000000000000000000000600052601260045260246000fd5b500490565b6000816121e4576121e46120c7565b507fffffffffffffffffffffffffffffffffffffffffffffffffffffffffffffffff019056fea164736f6c6343000817000a","linkReferences":{}},"methodIdentifiers":{"MAX_TOP_BIDS()":"19bcb4cd","adminMintRemaining(address)":"00f2a368","bid(uint256,bytes32[])":"a06a5b35","bidBalances(address)":"031778f9","checkMerkleProof(bytes32[],address,bytes32)":"95d6a3cc","claimAll()":"d1058e59","claimed(address)":"c884ef83","erc721Address()":"2352a864","firstTierMerkleRoot()":"0d16e28c","getConfig()":"c3f909d4","getMinimumBid()":"c5b63600","getSettledPrice()":"7e907e64","getSettledPriceWithDiscount(uint8)":"57782419","getTopBids()":"54f56741","owner()":"8da5cb5b","pause()":"8456cb59","paused()":"5c975abb","renounceOwnership()":"715018a6","secondTierMerkleRoot()":"0b950be6","setConfig(uint256,uint256,uint256,uint256)":"e5c389cd","setMerkleRoots(bytes32,bytes32)":"9a48eb51","setTreasuryWallet(address)":"a8602fea","topBids(uint256)":"010d9813","transferOwnership(address)":"f2fde38b","treasuryWallet()":"4626402b","unpause()":"3f4ba83a","withdraw()":"3ccfd60b","withdrawn()":"c80ec522"},"id":51}