{"abi":[{"type":"constructor","inputs":[{"name":"initialOwner","type":"address","internalType":"address"},{"name":"_erc721Address","type":"address","internalType":"address"},{"name":"_treasuryWallet","type":"address","internalType":"address"}],"stateMutability":"nonpayable"},{"type":"function","name":"MAX_TOP_BIDS","inputs":[],"outputs":[{"name":"","type":"uint256","internalType":"uint256"}],"stateMutability":"view"},{"type":"function","name":"adminMintRemaining","inputs":[{"name":"_recipient","type":"address","internalType":"address"}],"outputs":[],"stateMutability":"nonpayable"},{"type":"function","name":"bid","inputs":[{"name":"bidAmount","type":"uint256","internalType":"uint256"},{"name":"merkleProof","type":"bytes32[]","internalType":"bytes32[]"}],"outputs":[],"stateMutability":"payable"},{"type":"function","name":"bidBalances","inputs":[{"name":"","type":"address","internalType":"address"}],"outputs":[{"name":"","type":"uint256","internalType":"uint256"}],"stateMutability":"view"},{"type":"function","name":"checkMerkleProof","inputs":[{"name":"merkleProof","type":"bytes32[]","internalType":"bytes32[]"},{"name":"_address","type":"address","internalType":"address"},{"name":"_root","type":"bytes32","internalType":"bytes32"}],"outputs":[{"name":"","type":"bool","internalType":"bool"}],"stateMutability":"pure"},{"type":"function","name":"claimAll","inputs":[],"outputs":[],"stateMutability":"nonpayable"},{"type":"function","name":"claimed","inputs":[{"name":"","type":"address","internalType":"address"}],"outputs":[{"name":"","type":"bool","internalType":"bool"}],"stateMutability":"view"},{"type":"function","name":"erc721Address","inputs":[],"outputs":[{"name":"","type":"address","internalType":"contract IGlitch"}],"stateMutability":"view"},{"type":"function","name":"firstTierMerkleRoot","inputs":[],"outputs":[{"name":"","type":"bytes32","internalType":"bytes32"}],"stateMutability":"view"},{"type":"function","name":"getConfig","inputs":[],"outputs":[{"name":"","type":"tuple","internalType":"struct Config","components":[{"name":"startTime","type":"uint256","internalType":"uint256"},{"name":"endTime","type":"uint256","internalType":"uint256"},{"name":"minBidIncrementInWei","type":"uint256","internalType":"uint256"},{"name":"startAmountInWei","type":"uint256","internalType":"uint256"}]}],"stateMutability":"view"},{"type":"function","name":"getMinimumBid","inputs":[],"outputs":[{"name":"","type":"uint256","internalType":"uint256"}],"stateMutability":"view"},{"type":"function","name":"getSettledPrice","inputs":[],"outputs":[{"name":"","type":"uint256","internalType":"uint256"}],"stateMutability":"view"},{"type":"function","name":"getSettledPriceWithDiscount","inputs":[{"name":"discountType","type":"uint8","internalType":"enum DiscountType"}],"outputs":[{"name":"","type":"uint256","internalType":"uint256"}],"stateMutability":"view"},{"type":"function","name":"getTopBids","inputs":[],"outputs":[{"name":"","type":"tuple[10]","internalType":"struct Bid[10]","components":[{"name":"bidder","type":"address","internalType":"address"},{"name":"amount","type":"uint256","internalType":"uint256"},{"name":"discountType","type":"uint8","internalType":"enum DiscountType"}]}],"stateMutability":"view"},{"type":"function","name":"owner","inputs":[],"outputs":[{"name":"","type":"address","internalType":"address"}],"stateMutability":"view"},{"type":"function","name":"renounceOwnership","inputs":[],"outputs":[],"stateMutability":"nonpayable"},{"type":"function","name":"secondTierMerkleRoot","inputs":[],"outputs":[{"name":"","type":"bytes32","internalType":"bytes32"}],"stateMutability":"view"},{"type":"function","name":"setConfig","inputs":[{"name":"_startTime","type":"uint256","internalType":"uint256"},{"name":"_endTime","type":"uint256","internalType":"uint256"},{"name":"_minBidIncrementInWei","type":"uint256","internalType":"uint256"},{"name":"_startAmountInWei","type":"uint256","internalType":"uint256"}],"outputs":[],"stateMutability":"nonpayable"},{"type":"function","name":"setMerkleRoots","inputs":[{"name":"_firstTierRoot","type":"bytes32","internalType":"bytes32"},{"name":"_secondTierRoot","type":"bytes32","internalType":"bytes32"}],"outputs":[],"stateMutability":"nonpayable"},{"type":"function","name":"setTreasuryWallet","inputs":[{"name":"newWallet","type":"address","internalType":"address"}],"outputs":[],"stateMutability":"nonpayable"},{"type":"function","name":"topBids","inputs":[{"name":"","type":"uint256","internalType":"uint256"}],"outputs":[{"name":"bidder","type":"address","internalType":"address"},{"name":"amount","type":"uint256","internalType":"uint256"},{"name":"discountType","type":"uint8","internalType":"enum DiscountType"}],"stateMutability":"view"},{"type":"function","name":"transferOwnership","inputs":[{"name":"newOwner","type":"address","internalType":"address"}],"outputs":[],"stateMutability":"nonpayable"},{"type":"function","name":"treasuryWallet","inputs":[],"outputs":[{"name":"","type":"address","internalType":"address payable"}],"stateMutability":"view"},{"type":"function","name":"withdraw","inputs":[],"outputs":[],"stateMutability":"nonpayable"},{"type":"function","name":"withdrawn","inputs":[],"outputs":[{"name":"","type":"bool","internalType":"bool"}],"stateMutability":"view"},{"type":"event","name":"BidPlaced","inputs":[{"name":"bidder","type":"address","indexed":true,"internalType":"address"},{"name":"amount","type":"uint256","indexed":false,"internalType":"uint256"}],"anonymous":false},{"type":"event","name":"Outbid","inputs":[{"name":"bidder","type":"address","indexed":true,"internalType":"address"},{"name":"amount","type":"uint256","indexed":false,"internalType":"uint256"},{"name":"lastBidPosition","type":"uint256","indexed":false,"internalType":"uint256"}],"anonymous":false},{"type":"event","name":"OwnershipTransferred","inputs":[{"name":"previousOwner","type":"address","indexed":true,"internalType":"address"},{"name":"newOwner","type":"address","indexed":true,"internalType":"address"}],"anonymous":false},{"type":"error","name":"ConfigNotSet","inputs":[]},{"type":"error","name":"InvalidAmountInWei","inputs":[]},{"type":"error","name":"InvalidMinBidIncrementValue","inputs":[]},{"type":"error","name":"InvalidStartEndTime","inputs":[{"name":"startTime","type":"uint256","internalType":"uint256"},{"name":"endTime","type":"uint256","internalType":"uint256"}]},{"type":"error","name":"OwnableInvalidOwner","inputs":[{"name":"owner","type":"address","internalType":"address"}]},{"type":"error","name":"OwnableUnauthorizedAccount","inputs":[{"name":"account","type":"address","internalType":"address"}]}],"bytecode":{"object":"0x60a0604052620334506080523480156200001857600080fd5b5060405162002135380380620021358339810160408190526200003b9162000117565b826001600160a01b0381166200006b57604051631e4fbdf760e01b81526000600482015260240160405180910390fd5b6200007681620000aa565b50600480546001600160a01b039384166001600160a01b031991821617909155600380549290931691161790555062000161565b600080546001600160a01b038381166001600160a01b0319831681178455604051919092169283917f8be0079c531659141344cd1fd0a4f28419497f9722a3daafe3b4186f6b6457e09190a35050565b80516001600160a01b03811681146200011257600080fd5b919050565b6000806000606084860312156200012d57600080fd5b6200013884620000fa565b92506200014860208501620000fa565b91506200015860408501620000fa565b90509250925092565b608051611fb86200017d60003960006109f80152611fb86000f3fe6080604052600436106101955760003560e01c80637e907e64116100e1578063c3f909d41161008a578063c884ef8311610064578063c884ef83146104ad578063d1058e59146104dd578063e5c389cd146104f2578063f2fde38b1461051257600080fd5b8063c3f909d41461041e578063c5b6360014610466578063c80ec5221461047b57600080fd5b80639a48eb51116100bb5780639a48eb51146103cb578063a06a5b35146103eb578063a8602fea146103fe57600080fd5b80637e907e641461035b5780638da5cb5b1461037057806395d6a3cc1461039b57600080fd5b80632352a8641161014357806354f567411161011d57806354f56741146103045780635778241914610326578063715018a61461034657600080fd5b80632352a864146102705780633ccfd60b146102c25780634626402b146102d757600080fd5b80630b950be6116101745780630b950be61461022f5780630d16e28c1461024557806319bcb4cd1461025b57600080fd5b8062f2a3681461019a578063010d9813146101bc578063031778f9146101f4575b600080fd5b3480156101a657600080fd5b506101ba6101b5366004611bc5565b610532565b005b3480156101c857600080fd5b506101dc6101d7366004611be0565b61070e565b6040516101eb93929190611c63565b60405180910390f35b34801561020057600080fd5b5061022161020f366004611bc5565b60236020526000908152604090205481565b6040519081526020016101eb565b34801561023b57600080fd5b5061022160025481565b34801561025157600080fd5b5061022160015481565b34801561026757600080fd5b50610221600a81565b34801561027c57600080fd5b5060045461029d9073ffffffffffffffffffffffffffffffffffffffff1681565b60405173ffffffffffffffffffffffffffffffffffffffff90911681526020016101eb565b3480156102ce57600080fd5b506101ba61074f565b3480156102e357600080fd5b5060035461029d9073ffffffffffffffffffffffffffffffffffffffff1681565b34801561031057600080fd5b50610319610ab0565b6040516101eb9190611c94565b34801561033257600080fd5b50610221610341366004611cff565b610b56565b34801561035257600080fd5b506101ba610bcb565b34801561036757600080fd5b50610221610bdf565b34801561037c57600080fd5b5060005473ffffffffffffffffffffffffffffffffffffffff1661029d565b3480156103a757600080fd5b506103bb6103b6366004611d6c565b610c28565b60405190151581526020016101eb565b3480156103d757600080fd5b506101ba6103e6366004611dc8565b610cc3565b6101ba6103f9366004611dea565b610cd6565b34801561040a57600080fd5b506101ba610419366004611bc5565b610e8a565b34801561042a57600080fd5b50610433610f9b565b6040516101eb91908151815260208083015190820152604080830151908201526060918201519181019190915260800190565b34801561047257600080fd5b50610221610ff3565b34801561048757600080fd5b506003546103bb9074010000000000000000000000000000000000000000900460ff1681565b3480156104b957600080fd5b506103bb6104c8366004611bc5565b60246020526000908152604090205460ff1681565b3480156104e957600080fd5b506101ba611046565b3480156104fe57600080fd5b506101ba61050d366004611e36565b61137b565b34801561051e57600080fd5b506101ba61052d366004611bc5565b6114d8565b60005473ffffffffffffffffffffffffffffffffffffffff16331461059e5760405162461bcd60e51b815260206004820152600a60248201527f4f6e6c79206f776e65720000000000000000000000000000000000000000000060448201526064015b60405180910390fd5b6025546000036105da576040517face124bc00000000000000000000000000000000000000000000000000000000815260040160405180910390fd5b602654421161062b5760405162461bcd60e51b815260206004820152601160248201527f41756374696f6e206e6f7420656e6465640000000000000000000000000000006044820152606401610595565b600061063561153c565b90506000610644826001611e97565b90505b600a8110156107095760045473ffffffffffffffffffffffffffffffffffffffff166340c10f198461067a846001611e97565b6040517fffffffff0000000000000000000000000000000000000000000000000000000060e085901b16815273ffffffffffffffffffffffffffffffffffffffff90921660048301526024820152604401600060405180830381600087803b1580156106e557600080fd5b505af11580156106f9573d6000803e3d6000fd5b5050600190920191506106479050565b505050565b600581600a811061071e57600080fd5b600302018054600182015460029092015473ffffffffffffffffffffffffffffffffffffffff909116925060ff1683565b60005473ffffffffffffffffffffffffffffffffffffffff1633146107b65760405162461bcd60e51b815260206004820152600a60248201527f4f6e6c79206f776e6572000000000000000000000000000000000000000000006044820152606401610595565b60265442116108075760405162461bcd60e51b815260206004820152601160248201527f41756374696f6e206e6f7420656e6465640000000000000000000000000000006044820152606401610595565b60035474010000000000000000000000000000000000000000900460ff16156108725760405162461bcd60e51b815260206004820152601160248201527f416c72656164792077697468647261776e0000000000000000000000000000006044820152606401610595565b600380547fffffffffffffffffffffff00ffffffffffffffffffffffffffffffffffffffff1674010000000000000000000000000000000000000000179055600080805b600a811015610967576001600582600a81106108d4576108d4611eaa565b6003020160020160009054906101000a900460ff1660028111156108fa576108fa611bf9565b03610911578261090981611ed9565b93505061095f565b6002600582600a811061092657610926611eaa565b6003020160020160009054906101000a900460ff16600281111561094c5761094c611bf9565b0361095f578161095b81611ed9565b9250505b6001016108b6565b506000816109756002610b56565b61097f9190611f11565b8361098a6001610b56565b6109949190611f11565b61099e9190611e97565b90506000826109ae85600a611f28565b6109b89190611f28565b6109c0610bdf565b6109ca9190611f11565b60035490915060009073ffffffffffffffffffffffffffffffffffffffff166109f38385611e97565b6040517f000000000000000000000000000000000000000000000000000000000000000091906000818181858888f193505050503d8060008114610a53576040519150601f19603f3d011682016040523d82523d6000602084013e610a58565b606091505b5050905080610aa95760405162461bcd60e51b815260206004820152601060248201527f5472616e73666572206661696c65642e000000000000000000000000000000006044820152606401610595565b5050505050565b610ab8611b55565b6040805161014081019091526005600a6000835b82821015610b4d5760408051606081018252600384028601805473ffffffffffffffffffffffffffffffffffffffff16825260018101546020830152600280820154929391929184019160ff1690811115610b2957610b29611bf9565b6002811115610b3a57610b3a611bf9565b8152505081526020019060010190610acc565b50505050905090565b600080826002811115610b6b57610b6b611bf9565b03610b7e57610b78610bdf565b92915050565b6001826002811115610b9257610b92611bf9565b03610bb6576064610ba1610bdf565b610bac906050611f11565b610b789190611f3b565b6064610bc0610bdf565b610bac906055611f11565b610bd3611584565b610bdd60006115d7565b565b600080610bea61153c565b90506000600582600a8110610c0157610c01611eaa565b600302016001015490506025600301548110610c1d5780610c21565b6028545b9250505090565b6040517fffffffffffffffffffffffffffffffffffffffff000000000000000000000000606084901b1660208201526000908190603401604051602081830303815290604052805190602001209050610cb786868080602002602001604051908101604052809392919081815260200183836020028082843760009201919091525087925085915061164c9050565b9150505b949350505050565b610ccb611584565b600191909155600255565b602554600003610d12576040517face124bc00000000000000000000000000000000000000000000000000000000815260040160405180910390fd5b604080516080810182526025548152602654602082018190526027549282019290925260285460608201529042101580610d4d575080514211155b15610d9457805160208201516040517f2221fc9c00000000000000000000000000000000000000000000000000000000815260048101929092526024820152604401610595565b610d9c610ff3565b841015610deb5760405162461bcd60e51b815260206004820152600b60248201527f42696420746f6f206c6f770000000000000000000000000000000000000000006044820152606401610595565b33600090815260236020526040812054610e06903490611e97565b905084811015610e585760405162461bcd60e51b815260206004820152601a60248201527f496e73756666696369656e742066756e647320666f72206269640000000000006044820152606401610595565b610e628582611f28565b33600081815260236020526040902091909155610aa99086610e85878784611664565b6116b5565b60005473ffffffffffffffffffffffffffffffffffffffff163314610ef15760405162461bcd60e51b815260206004820152600a60248201527f4f6e6c79206f776e6572000000000000000000000000000000000000000000006044820152606401610595565b73ffffffffffffffffffffffffffffffffffffffff8116610f545760405162461bcd60e51b815260206004820152600f60248201527f496e76616c6964206164647265737300000000000000000000000000000000006044820152606401610595565b600380547fffffffffffffffffffffffff00000000000000000000000000000000000000001673ffffffffffffffffffffffffffffffffffffffff92909216919091179055565b610fc66040518060800160405280600081526020016000815260200160008152602001600081525090565b50604080516080810182526025548152602654602082015260275491810191909152602854606082015290565b60008060056110046001600a611f28565b600a811061101457611014611eaa565b60030201600101549050602560030154811061103c576027546110379082611e97565b611040565b6028545b91505090565b602554600003611082576040517face124bc00000000000000000000000000000000000000000000000000000000815260040160405180910390fd5b60265442116110d35760405162461bcd60e51b815260206004820152601160248201527f41756374696f6e206e6f7420656e6465640000000000000000000000000000006044820152606401610595565b3360009081526024602052604090205460ff16156111335760405162461bcd60e51b815260206004820152600f60248201527f416c726561647920636c61696d656400000000000000000000000000000000006044820152606401610595565b33600090815260246020526040812080547fffffffffffffffffffffffffffffffffffffffffffffffffffffffffffffff001660011790558080805b600a8110156112f85733600582600a811061118c5761118c611eaa565b600302015473ffffffffffffffffffffffffffffffffffffffff16036112f05760045473ffffffffffffffffffffffffffffffffffffffff166340c10f19336111d6846001611e97565b6040517fffffffff0000000000000000000000000000000000000000000000000000000060e085901b16815273ffffffffffffffffffffffffffffffffffffffff90921660048301526024820152604401600060405180830381600087803b15801561124157600080fd5b505af1158015611255573d6000803e3d6000fd5b50505050838061126490611ed9565b945050600581600a811061127a5761127a611eaa565b60030201600101548361128d9190611e97565b92506000600582600a81106112a4576112a4611eaa565b6003020160020160009054906101000a900460ff1660028111156112ca576112ca611bf9565b146112f057600581600a81106112e2576112e2611eaa565b600302016002015460ff1691505b60010161116f565b50600061130482610b56565b61130e9085611f11565b6113189084611f28565b336000908152602360205260409020546113329190611e97565b9050801561137557336000818152602360205260408082208290555183156108fc0291849190818181858888f19350505050158015610aa9573d6000803e3d6000fd5b50505050565b60005473ffffffffffffffffffffffffffffffffffffffff1633146113e25760405162461bcd60e51b815260206004820152600a60248201527f4f6e6c79206f776e6572000000000000000000000000000000000000000000006044820152606401610595565b8315806113ef5750828410155b15611430576040517f2221fc9c0000000000000000000000000000000000000000000000000000000081526004810185905260248101849052604401610595565b8060000361146a576040517fee99522400000000000000000000000000000000000000000000000000000000815260040160405180910390fd5b816000036114a4576040517fb0fd644300000000000000000000000000000000000000000000000000000000815260040160405180910390fd5b6040805160808101825285815260208101859052908101839052606001819052602593909355602691909155602755602855565b6114e0611584565b73ffffffffffffffffffffffffffffffffffffffff8116611530576040517f1e4fbdf700000000000000000000000000000000000000000000000000000000815260006004820152602401610595565b611539816115d7565b50565b600061154a6001600a611f28565b90505b600581600a811061156057611560611eaa565b6003020160010154600003611581578061157981611f76565b91505061154d565b90565b60005473ffffffffffffffffffffffffffffffffffffffff163314610bdd576040517f118cdaa7000000000000000000000000000000000000000000000000000000008152336004820152602401610595565b6000805473ffffffffffffffffffffffffffffffffffffffff8381167fffffffffffffffffffffffff0000000000000000000000000000000000000000831681178455604051919092169283917f8be0079c531659141344cd1fd0a4f28419497f9722a3daafe3b4186f6b6457e09190a35050565b6000826116598584611ae6565b1490505b9392505050565b60008281036116755750600061165d565b611683848484600154610c28565b156116905750600161165d565b61169e848484600254610c28565b156116ab5750600261165d565b5060009392505050565b60005b600a8110156116ea57600581600a81106116d4576116d4611eaa565b600302016001015483116116ea576001016116b8565b600a81106117605760405162461bcd60e51b815260206004820152602160248201527f42696420646f6573206e6f74207175616c69667920666f7220746f702062696460448201527f73000000000000000000000000000000000000000000000000000000000000006064820152608401610595565b600060056117706001600a611f28565b600a811061178057611780611eaa565b6040805160608101825260039290920292909201805473ffffffffffffffffffffffffffffffffffffffff16825260018101546020830152600280820154929391929184019160ff16908111156117d9576117d9611bf9565b60028111156117ea576117ea611bf9565b905250602080820151825173ffffffffffffffffffffffffffffffffffffffff166000908152602390925260409091205491925061182791611e97565b815173ffffffffffffffffffffffffffffffffffffffff1660009081526023602052604081209190915561185d6001600a611f28565b90505b82811115611958576005611875600183611f28565b600a811061188557611885611eaa565b60030201600582600a811061189c5761189c611eaa565b82546003919091029190910180547fffffffffffffffffffffffff00000000000000000000000000000000000000001673ffffffffffffffffffffffffffffffffffffffff90921691909117815560018083015481830155600280840154818401805460ff9092169390927fffffffffffffffffffffffffffffffffffffffffffffffffffffffffffffff0090921691849081111561193d5761193d611bf9565b0217905550905050808061195090611f76565b915050611860565b5060405180606001604052808673ffffffffffffffffffffffffffffffffffffffff16815260200185815260200184600281111561199857611998611bf9565b9052600583600a81106119ad576119ad611eaa565b6003020160008201518160000160006101000a81548173ffffffffffffffffffffffffffffffffffffffff021916908373ffffffffffffffffffffffffffffffffffffffff1602179055506020820151816001015560408201518160020160006101000a81548160ff02191690836002811115611a2c57611a2c611bf9565b02179055505060405185815273ffffffffffffffffffffffffffffffffffffffff871691507f3fabff0a9c3ecd6814702e247fa9733e5d0aa69e3a38590f92cb18f623a2254d9060200160405180910390a2806000015173ffffffffffffffffffffffffffffffffffffffff167f032dcd270c2e80a70f38d5539b346f68da4e900b762c8e07b15ec32830664f43826020015184604051611ad7929190918252602082015260400190565b60405180910390a25050505050565b600081815b8451811015611b2157611b1782868381518110611b0a57611b0a611eaa565b6020026020010151611b29565b9150600101611aeb565b509392505050565b6000818310611b4557600082815260208490526040902061165d565b5060009182526020526040902090565b604051806101400160405280600a905b611b8660408051606081018252600080825260208201819052909182015290565b815260200190600190039081611b655790505090565b803573ffffffffffffffffffffffffffffffffffffffff81168114611bc057600080fd5b919050565b600060208284031215611bd757600080fd5b61165d82611b9c565b600060208284031215611bf257600080fd5b5035919050565b7f4e487b7100000000000000000000000000000000000000000000000000000000600052602160045260246000fd5b60038110611c5f577f4e487b7100000000000000000000000000000000000000000000000000000000600052602160045260246000fd5b9052565b73ffffffffffffffffffffffffffffffffffffffff841681526020810183905260608101610cbb6040830184611c28565b6103c08101818360005b600a811015611cf6578151805173ffffffffffffffffffffffffffffffffffffffff1684526020808201518186015260409182015191611ce081870184611c28565b5060609490940193929092019150600101611c9e565b50505092915050565b600060208284031215611d1157600080fd5b81356003811061165d57600080fd5b60008083601f840112611d3257600080fd5b50813567ffffffffffffffff811115611d4a57600080fd5b6020830191508360208260051b8501011115611d6557600080fd5b9250929050565b60008060008060608587031215611d8257600080fd5b843567ffffffffffffffff811115611d9957600080fd5b611da587828801611d20565b9095509350611db8905060208601611b9c565b9396929550929360400135925050565b60008060408385031215611ddb57600080fd5b50508035926020909101359150565b600080600060408486031215611dff57600080fd5b83359250602084013567ffffffffffffffff811115611e1d57600080fd5b611e2986828701611d20565b9497909650939450505050565b60008060008060808587031215611e4c57600080fd5b5050823594602084013594506040840135936060013592509050565b7f4e487b7100000000000000000000000000000000000000000000000000000000600052601160045260246000fd5b80820180821115610b7857610b78611e68565b7f4e487b7100000000000000000000000000000000000000000000000000000000600052603260045260246000fd5b60007fffffffffffffffffffffffffffffffffffffffffffffffffffffffffffffffff8203611f0a57611f0a611e68565b5060010190565b8082028115828204841417610b7857610b78611e68565b81810381811115610b7857610b78611e68565b600082611f71577f4e487b7100000000000000000000000000000000000000000000000000000000600052601260045260246000fd5b500490565b600081611f8557611f85611e68565b507fffffffffffffffffffffffffffffffffffffffffffffffffffffffffffffffff019056fea164736f6c6343000817000a","linkReferences":{}},"methodIdentifiers":{"MAX_TOP_BIDS()":"19bcb4cd","adminMintRemaining(address)":"00f2a368","bid(uint256,bytes32[])":"a06a5b35","bidBalances(address)":"031778f9","checkMerkleProof(bytes32[],address,bytes32)":"95d6a3cc","claimAll()":"d1058e59","claimed(address)":"c884ef83","erc721Address()":"2352a864","firstTierMerkleRoot()":"0d16e28c","getConfig()":"c3f909d4","getMinimumBid()":"c5b63600","getSettledPrice()":"7e907e64","getSettledPriceWithDiscount(uint8)":"57782419","getTopBids()":"54f56741","owner()":"8da5cb5b","renounceOwnership()":"715018a6","secondTierMerkleRoot()":"0b950be6","setConfig(uint256,uint256,uint256,uint256)":"e5c389cd","setMerkleRoots(bytes32,bytes32)":"9a48eb51","setTreasuryWallet(address)":"a8602fea","topBids(uint256)":"010d9813","transferOwnership(address)":"f2fde38b","treasuryWallet()":"4626402b","withdraw()":"3ccfd60b","withdrawn()":"c80ec522"},"id":48}