{"abi":[{"type":"constructor","inputs":[{"name":"initialOwner","type":"address","internalType":"address"}],"stateMutability":"nonpayable"},{"type":"function","name":"adminMint","inputs":[{"name":"recipient","type":"address","internalType":"address"},{"name":"amount","type":"uint256","internalType":"uint256"}],"outputs":[],"stateMutability":"nonpayable"},{"type":"function","name":"approve","inputs":[{"name":"to","type":"address","internalType":"address"},{"name":"tokenId","type":"uint256","internalType":"uint256"}],"outputs":[],"stateMutability":"nonpayable"},{"type":"function","name":"balanceOf","inputs":[{"name":"owner","type":"address","internalType":"address"}],"outputs":[{"name":"","type":"uint256","internalType":"uint256"}],"stateMutability":"view"},{"type":"function","name":"baseURI","inputs":[],"outputs":[{"name":"","type":"string","internalType":"string"}],"stateMutability":"view"},{"type":"function","name":"burn","inputs":[{"name":"tokenId","type":"uint256","internalType":"uint256"}],"outputs":[],"stateMutability":"nonpayable"},{"type":"function","name":"getAllTokensVersion","inputs":[],"outputs":[{"name":"versions","type":"string[]","internalType":"string[]"}],"stateMutability":"view"},{"type":"function","name":"getApproved","inputs":[{"name":"tokenId","type":"uint256","internalType":"uint256"}],"outputs":[{"name":"","type":"address","internalType":"address"}],"stateMutability":"view"},{"type":"function","name":"getTokenVersion","inputs":[{"name":"tokenId","type":"uint256","internalType":"uint256"}],"outputs":[{"name":"versionStr","type":"string","internalType":"string"}],"stateMutability":"view"},{"type":"function","name":"isApprovedForAll","inputs":[{"name":"owner","type":"address","internalType":"address"},{"name":"operator","type":"address","internalType":"address"}],"outputs":[{"name":"","type":"bool","internalType":"bool"}],"stateMutability":"view"},{"type":"function","name":"mint","inputs":[{"name":"recipient","type":"address","internalType":"address"}],"outputs":[],"stateMutability":"nonpayable"},{"type":"function","name":"minterContractAddress","inputs":[],"outputs":[{"name":"","type":"address","internalType":"address"}],"stateMutability":"view"},{"type":"function","name":"name","inputs":[],"outputs":[{"name":"","type":"string","internalType":"string"}],"stateMutability":"view"},{"type":"function","name":"owner","inputs":[],"outputs":[{"name":"","type":"address","internalType":"address"}],"stateMutability":"view"},{"type":"function","name":"ownerOf","inputs":[{"name":"tokenId","type":"uint256","internalType":"uint256"}],"outputs":[{"name":"","type":"address","internalType":"address"}],"stateMutability":"view"},{"type":"function","name":"refreshToken","inputs":[{"name":"tokenId","type":"uint256","internalType":"uint256"}],"outputs":[],"stateMutability":"nonpayable"},{"type":"function","name":"renounceOwnership","inputs":[],"outputs":[],"stateMutability":"nonpayable"},{"type":"function","name":"safeTransferFrom","inputs":[{"name":"from","type":"address","internalType":"address"},{"name":"to","type":"address","internalType":"address"},{"name":"tokenId","type":"uint256","internalType":"uint256"}],"outputs":[],"stateMutability":"nonpayable"},{"type":"function","name":"safeTransferFrom","inputs":[{"name":"from","type":"address","internalType":"address"},{"name":"to","type":"address","internalType":"address"},{"name":"tokenId","type":"uint256","internalType":"uint256"},{"name":"data","type":"bytes","internalType":"bytes"}],"outputs":[],"stateMutability":"nonpayable"},{"type":"function","name":"setApprovalForAll","inputs":[{"name":"operator","type":"address","internalType":"address"},{"name":"approved","type":"bool","internalType":"bool"}],"outputs":[],"stateMutability":"nonpayable"},{"type":"function","name":"setBaseURI","inputs":[{"name":"newBaseURI","type":"string","internalType":"string"}],"outputs":[],"stateMutability":"nonpayable"},{"type":"function","name":"setMinterContractAddress","inputs":[{"name":"newMinterContractAddress","type":"address","internalType":"address"}],"outputs":[],"stateMutability":"nonpayable"},{"type":"function","name":"supportsInterface","inputs":[{"name":"interfaceId","type":"bytes4","internalType":"bytes4"}],"outputs":[{"name":"","type":"bool","internalType":"bool"}],"stateMutability":"view"},{"type":"function","name":"symbol","inputs":[],"outputs":[{"name":"","type":"string","internalType":"string"}],"stateMutability":"view"},{"type":"function","name":"tokenByIndex","inputs":[{"name":"index","type":"uint256","internalType":"uint256"}],"outputs":[{"name":"","type":"uint256","internalType":"uint256"}],"stateMutability":"view"},{"type":"function","name":"tokenOfOwnerByIndex","inputs":[{"name":"owner","type":"address","internalType":"address"},{"name":"index","type":"uint256","internalType":"uint256"}],"outputs":[{"name":"","type":"uint256","internalType":"uint256"}],"stateMutability":"view"},{"type":"function","name":"tokenURI","inputs":[{"name":"tokenId","type":"uint256","internalType":"uint256"}],"outputs":[{"name":"","type":"string","internalType":"string"}],"stateMutability":"view"},{"type":"function","name":"totalSupply","inputs":[],"outputs":[{"name":"","type":"uint256","internalType":"uint256"}],"stateMutability":"view"},{"type":"function","name":"transferFrom","inputs":[{"name":"from","type":"address","internalType":"address"},{"name":"to","type":"address","internalType":"address"},{"name":"tokenId","type":"uint256","internalType":"uint256"}],"outputs":[],"stateMutability":"nonpayable"},{"type":"function","name":"transferOwnership","inputs":[{"name":"newOwner","type":"address","internalType":"address"}],"outputs":[],"stateMutability":"nonpayable"},{"type":"event","name":"Approval","inputs":[{"name":"owner","type":"address","indexed":true,"internalType":"address"},{"name":"approved","type":"address","indexed":true,"internalType":"address"},{"name":"tokenId","type":"uint256","indexed":true,"internalType":"uint256"}],"anonymous":false},{"type":"event","name":"ApprovalForAll","inputs":[{"name":"owner","type":"address","indexed":true,"internalType":"address"},{"name":"operator","type":"address","indexed":true,"internalType":"address"},{"name":"approved","type":"bool","indexed":false,"internalType":"bool"}],"anonymous":false},{"type":"event","name":"BatchMetadataUpdate","inputs":[{"name":"_fromTokenId","type":"uint256","indexed":false,"internalType":"uint256"},{"name":"_toTokenId","type":"uint256","indexed":false,"internalType":"uint256"}],"anonymous":false},{"type":"event","name":"MetadataUpdate","inputs":[{"name":"_tokenId","type":"uint256","indexed":false,"internalType":"uint256"}],"anonymous":false},{"type":"event","name":"OwnershipTransferred","inputs":[{"name":"previousOwner","type":"address","indexed":true,"internalType":"address"},{"name":"newOwner","type":"address","indexed":true,"internalType":"address"}],"anonymous":false},{"type":"event","name":"Transfer","inputs":[{"name":"from","type":"address","indexed":true,"internalType":"address"},{"name":"to","type":"address","indexed":true,"internalType":"address"},{"name":"tokenId","type":"uint256","indexed":true,"internalType":"uint256"}],"anonymous":false},{"type":"error","name":"ERC721EnumerableForbiddenBatchMint","inputs":[]},{"type":"error","name":"ERC721IncorrectOwner","inputs":[{"name":"sender","type":"address","internalType":"address"},{"name":"tokenId","type":"uint256","internalType":"uint256"},{"name":"owner","type":"address","internalType":"address"}]},{"type":"error","name":"ERC721InsufficientApproval","inputs":[{"name":"operator","type":"address","internalType":"address"},{"name":"tokenId","type":"uint256","internalType":"uint256"}]},{"type":"error","name":"ERC721InvalidApprover","inputs":[{"name":"approver","type":"address","internalType":"address"}]},{"type":"error","name":"ERC721InvalidOperator","inputs":[{"name":"operator","type":"address","internalType":"address"}]},{"type":"error","name":"ERC721InvalidOwner","inputs":[{"name":"owner","type":"address","internalType":"address"}]},{"type":"error","name":"ERC721InvalidReceiver","inputs":[{"name":"receiver","type":"address","internalType":"address"}]},{"type":"error","name":"ERC721InvalidSender","inputs":[{"name":"sender","type":"address","internalType":"address"}]},{"type":"error","name":"ERC721NonexistentToken","inputs":[{"name":"tokenId","type":"uint256","internalType":"uint256"}]},{"type":"error","name":"ERC721OutOfBoundsIndex","inputs":[{"name":"owner","type":"address","internalType":"address"},{"name":"index","type":"uint256","internalType":"uint256"}]},{"type":"error","name":"OwnableInvalidOwner","inputs":[{"name":"owner","type":"address","internalType":"address"}]},{"type":"error","name":"OwnableUnauthorizedAccount","inputs":[{"name":"account","type":"address","internalType":"address"}]}],"bytecode":{"object":"0x60806040526001600c55600d805461ffff191660321790553480156200002457600080fd5b506040516200288d3803806200288d8339810160408190526200004791620001a5565b80604051806040016040528060068152602001650ced8d2e8c6d60d31b8152506040518060400160405280600381526020016211d31560ea1b81525081600090816200009491906200027e565b506001620000a382826200027e565b5050506001600160a01b038116620000d557604051631e4fbdf760e01b81526000600482015260240160405180910390fd5b620000e08162000153565b5060408051808201909152601b81527f687474703a2f2f6c6f63616c686f73743a333030302f617274732f00000000006020820152600e906200012490826200027e565b50600d80546001600160a01b03909216620100000262010000600160b01b03199092169190911790556200034a565b600b80546001600160a01b038381166001600160a01b0319831681179093556040519116919082907f8be0079c531659141344cd1fd0a4f28419497f9722a3daafe3b4186f6b6457e090600090a35050565b600060208284031215620001b857600080fd5b81516001600160a01b0381168114620001d057600080fd5b9392505050565b634e487b7160e01b600052604160045260246000fd5b600181811c908216806200020257607f821691505b6020821081036200022357634e487b7160e01b600052602260045260246000fd5b50919050565b601f82111562000279576000816000526020600020601f850160051c81016020861015620002545750805b601f850160051c820191505b81811015620002755782815560010162000260565b5050505b505050565b81516001600160401b038111156200029a576200029a620001d7565b620002b281620002ab8454620001ed565b8462000229565b602080601f831160018114620002ea5760008415620002d15750858301515b600019600386901b1c1916600185901b17855562000275565b600085815260208120601f198616915b828110156200031b57888601518255948401946001909101908401620002fa565b50858210156200033a5787850151600019600388901b60f8161c191681555b5050505050600190811b01905550565b612533806200035a6000396000f3fe608060405234801561001057600080fd5b50600436106101cf5760003560e01c80636a62784211610104578063a22cb465116100a2578063c87b56dd11610071578063c87b56dd146103f5578063e58306f914610408578063e985e9c51461041b578063f2fde38b1461045757600080fd5b8063a22cb465146103a7578063b0526aca146103ba578063b88d4fde146103cd578063c87abd7b146103e057600080fd5b8063715018a6116100de578063715018a614610342578063809b8fad1461034a5780638da5cb5b1461038e57806395d89b411461039f57600080fd5b80636a627842146103145780636c0360eb1461032757806370a082311461032f57600080fd5b80632f745c591161017157806342966c681161014b57806342966c68146102c85780634f6ccce7146102db57806355f804b3146102ee5780636352211e1461030157600080fd5b80632f745c591461028f5780633b54f406146102a257806342842e0e146102b557600080fd5b8063095ea7b3116101ad578063095ea7b31461023c5780630dab46fe1461025157806318160ddd1461026a57806323b872dd1461027c57600080fd5b806301ffc9a7146101d457806306fdde03146101fc578063081812fc14610211575b600080fd5b6101e76101e2366004611d46565b61046a565b60405190151581526020015b60405180910390f35b61020461047b565b6040516101f39190611dd8565b61022461021f366004611deb565b61050d565b6040516001600160a01b0390911681526020016101f3565b61024f61024a366004611e20565b610536565b005b600d54610224906201000090046001600160a01b031681565b600c545b6040519081526020016101f3565b61024f61028a366004611e4a565b610545565b61026e61029d366004611e20565b61055e565b6102046102b0366004611deb565b6105e1565b61024f6102c3366004611e4a565b610751565b61024f6102d6366004611deb565b61076c565b61026e6102e9366004611deb565b610778565b61024f6102fc366004611f49565b6107ea565b61022461030f366004611deb565b61086a565b61024f610322366004611f92565b610875565b610204610a09565b61026e61033d366004611f92565b610a97565b61024f610af8565b61024f610358366004611deb565b6000908152600f6020526040902080547fffffffffffffffffffffffffffffffffffffffffffffffffffffffffffffff00169055565b600b546001600160a01b0316610224565b610204610b0c565b61024f6103b5366004611fad565b610b1b565b61024f6103c8366004611f92565b610b26565b61024f6103db366004611fe9565b610bda565b6103e8610bf7565b6040516101f39190612065565b610204610403366004611deb565b610c99565b61024f610416366004611e20565b610ce1565b6101e76104293660046120e7565b6001600160a01b03918216600090815260056020908152604080832093909416825291909152205460ff1690565b61024f610465366004611f92565b610d7e565b600061047582610dd2565b92915050565b60606000805461048a9061211a565b80601f01602080910402602001604051908101604052809291908181526020018280546104b69061211a565b80156105035780601f106104d857610100808354040283529160200191610503565b820191906000526020600020905b8154815290600101906020018083116104e657829003601f168201915b5050505050905090565b600061051882610e28565b506000828152600460205260409020546001600160a01b0316610475565b610541828233610e7a565b5050565b61054e81610e87565b610559838383610f67565b505050565b600061056983610a97565b82106105b8576040517fa57d13dc0000000000000000000000000000000000000000000000000000000081526001600160a01b0384166004820152602481018390526044015b60405180910390fd5b506001600160a01b03919091166000908152600660209081526040808320938352929052205490565b6000818152600f602052604081205460609160ff9091169081600381111561060b5761060b612167565b0361064d576040518060400160405280600181526020017f4100000000000000000000000000000000000000000000000000000000000000815250915061074b565b600181600381111561066157610661612167565b036106a3576040518060400160405280600181526020017f4200000000000000000000000000000000000000000000000000000000000000815250915061074b565b60028160038111156106b7576106b7612167565b036106f9576040518060400160405280600181526020017f4300000000000000000000000000000000000000000000000000000000000000815250915061074b565b600381600381111561070d5761070d612167565b0361074b576040518060400160405280600181526020017f440000000000000000000000000000000000000000000000000000000000000081525091505b50919050565b61055983838360405180602001604052806000815250610bda565b6105416000823361101e565b6000610783600c5490565b82106107c5576040517fa57d13dc00000000000000000000000000000000000000000000000000000000815260006004820152602481018390526044016105af565b600882815481106107d8576107d8612196565b90600052602060002001549050919050565b600b546001600160a01b0316331461085e576040517f08c379a000000000000000000000000000000000000000000000000000000000815260206004820152600a60248201527f4f6e6c79206f776e65720000000000000000000000000000000000000000000060448201526064016105af565b600e6105418282612215565b600061047582610e28565b600d546201000090046001600160a01b031633148061089e5750600b546001600160a01b031633145b610904576040517f08c379a000000000000000000000000000000000000000000000000000000000815260206004820152601e60248201527f4f6e6c79206d696e74657220636f6e747261637420616e64206f776e6572000060448201526064016105af565b6001600160a01b038116610974576040517f08c379a000000000000000000000000000000000000000000000000000000000815260206004820152601b60248201527f43616e6e6f74206d696e7420746f207a65726f2061646472657373000000000060448201526064016105af565b600d54600c5461ffff909116116109e7576040517f08c379a000000000000000000000000000000000000000000000000000000000815260206004820152601360248201527f4d61782e20737570706c7920726561636865640000000000000000000000000060448201526064016105af565b600c8054610a069183919060006109fd8361235e565b91905055611033565b50565b600e8054610a169061211a565b80601f0160208091040260200160405190810160405280929190818152602001828054610a429061211a565b8015610a8f5780601f10610a6457610100808354040283529160200191610a8f565b820191906000526020600020905b815481529060010190602001808311610a7257829003601f168201915b505050505081565b60006001600160a01b038216610adc576040517f89c62b64000000000000000000000000000000000000000000000000000000008152600060048201526024016105af565b506001600160a01b031660009081526003602052604090205490565b610b0061104d565b610b0a6000611093565b565b60606001805461048a9061211a565b6105413383836110fd565b600b546001600160a01b03163314610b9a576040517f08c379a000000000000000000000000000000000000000000000000000000000815260206004820152600a60248201527f4f6e6c79206f776e65720000000000000000000000000000000000000000000060448201526064016105af565b600d80546001600160a01b0390921662010000027fffffffffffffffffffff0000000000000000000000000000000000000000ffff909216919091179055565b610be5848484610545565b610bf1848484846111d3565b50505050565b60606001600c54610c089190612396565b67ffffffffffffffff811115610c2057610c20611e86565b604051908082528060200260200182016040528015610c5357816020015b6060815260200190600190039081610c3e5790505b50905060005b8151811015610c9557610c706102b08260016123a9565b828281518110610c8257610c82612196565b6020908102919091010152600101610c59565b5090565b6060610ca482610e28565b50600e610cb0836105e1565b610cb984611396565b604051602001610ccb939291906123bc565b6040516020818303038152906040529050919050565b600b546001600160a01b03163314610d55576040517f08c379a000000000000000000000000000000000000000000000000000000000815260206004820152600a60248201527f4f6e6c79206f776e65720000000000000000000000000000000000000000000060448201526064016105af565b60005b8181101561055957600c8054610d769185919060006109fd8361235e565b600101610d58565b610d8661104d565b6001600160a01b038116610dc9576040517f1e4fbdf7000000000000000000000000000000000000000000000000000000008152600060048201526024016105af565b610a0681611093565b60007fffffffff0000000000000000000000000000000000000000000000000000000082167f49064906000000000000000000000000000000000000000000000000000000001480610475575061047582611454565b6000818152600260205260408120546001600160a01b031680610475576040517f7e273289000000000000000000000000000000000000000000000000000000008152600481018490526024016105af565b61055983838360016114aa565b6000818152600f602052604090205460ff166003816003811115610ead57610ead612167565b03610eb6575050565b6000816003811115610eca57610eca612167565b03610ed757506001610f15565b6001816003811115610eeb57610eeb612167565b03610ef857506002610f15565b6002816003811115610f0c57610f0c612167565b03610f15575060035b6000828152600f6020526040902080548291907fffffffffffffffffffffffffffffffffffffffffffffffffffffffffffffff00166001836003811115610f5e57610f5e612167565b02179055505050565b6001600160a01b038216610faa576040517f64a0ae92000000000000000000000000000000000000000000000000000000008152600060048201526024016105af565b6000610fb783833361101e565b9050836001600160a01b0316816001600160a01b031614610bf1576040517f64283d7b0000000000000000000000000000000000000000000000000000000081526001600160a01b03808616600483015260248201849052821660448201526064016105af565b600061102b848484611600565b949350505050565b6105418282604051806020016040528060008152506116cd565b600b546001600160a01b03163314610b0a576040517f118cdaa70000000000000000000000000000000000000000000000000000000081523360048201526024016105af565b600b80546001600160a01b038381167fffffffffffffffffffffffff0000000000000000000000000000000000000000831681179093556040519116919082907f8be0079c531659141344cd1fd0a4f28419497f9722a3daafe3b4186f6b6457e090600090a35050565b6001600160a01b038216611148576040517f5b08ba180000000000000000000000000000000000000000000000000000000081526001600160a01b03831660048201526024016105af565b6001600160a01b0383811660008181526005602090815260408083209487168084529482529182902080547fffffffffffffffffffffffffffffffffffffffffffffffffffffffffffffff001686151590811790915591519182527f17307eab39ab6107e8899845ad3d59bd9653f200f220920489ca2b5937696c31910160405180910390a3505050565b6001600160a01b0383163b15610bf1576040517f150b7a020000000000000000000000000000000000000000000000000000000081526001600160a01b0384169063150b7a029061122e90339088908790879060040161249e565b6020604051808303816000875af1925050508015611287575060408051601f3d9081017fffffffffffffffffffffffffffffffffffffffffffffffffffffffffffffffe0168201909252611284918101906124da565b60015b611309573d8080156112b5576040519150601f19603f3d011682016040523d82523d6000602084013e6112ba565b606091505b508051600003611301576040517f64a0ae920000000000000000000000000000000000000000000000000000000081526001600160a01b03851660048201526024016105af565b805181602001fd5b7fffffffff0000000000000000000000000000000000000000000000000000000081167f150b7a02000000000000000000000000000000000000000000000000000000001461138f576040517f64a0ae920000000000000000000000000000000000000000000000000000000081526001600160a01b03851660048201526024016105af565b5050505050565b606060006113a3836116e4565b600101905060008167ffffffffffffffff8111156113c3576113c3611e86565b6040519080825280601f01601f1916602001820160405280156113ed576020820181803683370190505b5090508181016020015b7fffffffffffffffffffffffffffffffffffffffffffffffffffffffffffffffff017f3031323334353637383961626364656600000000000000000000000000000000600a86061a8153600a85049450846113f757509392505050565b60007fffffffff0000000000000000000000000000000000000000000000000000000082167f780e9d630000000000000000000000000000000000000000000000000000000014806104755750610475826117c6565b80806114be57506001600160a01b03821615155b156115b85760006114ce84610e28565b90506001600160a01b038316158015906114fa5750826001600160a01b0316816001600160a01b031614155b801561152c57506001600160a01b0380821660009081526005602090815260408083209387168352929052205460ff16155b1561156e576040517fa9fbf51f0000000000000000000000000000000000000000000000000000000081526001600160a01b03841660048201526024016105af565b81156115b65783856001600160a01b0316826001600160a01b03167f8c5be1e5ebec7d5bd14f71427d1e84f3dd0314c0f7b2291e5b200ac8c7c3b92560405160405180910390a45b505b5050600090815260046020526040902080547fffffffffffffffffffffffff0000000000000000000000000000000000000000166001600160a01b0392909216919091179055565b60008061160e8585856118a9565b90506001600160a01b03811661166b5761166684600880546000838152600960205260408120829055600182018355919091527ff3f7a9fe364faab93b216da50a3214154f22a0a2b415b23a84c8169e8b636ee30155565b61168e565b846001600160a01b0316816001600160a01b03161461168e5761168e81856119d8565b6001600160a01b0385166116aa576116a584611a69565b61102b565b846001600160a01b0316816001600160a01b03161461102b5761102b8585611b18565b6116d78383611b68565b61055960008484846111d3565b6000807a184f03e93ff9f4daa797ed6e38ed64bf6a1f010000000000000000831061172d577a184f03e93ff9f4daa797ed6e38ed64bf6a1f010000000000000000830492506040015b6d04ee2d6d415b85acef81000000008310611759576d04ee2d6d415b85acef8100000000830492506020015b662386f26fc10000831061177757662386f26fc10000830492506010015b6305f5e100831061178f576305f5e100830492506008015b61271083106117a357612710830492506004015b606483106117b5576064830492506002015b600a83106104755760010192915050565b60007fffffffff0000000000000000000000000000000000000000000000000000000082167f80ac58cd00000000000000000000000000000000000000000000000000000000148061185957507fffffffff0000000000000000000000000000000000000000000000000000000082167f5b5e139f00000000000000000000000000000000000000000000000000000000145b8061047557507f01ffc9a7000000000000000000000000000000000000000000000000000000007fffffffff00000000000000000000000000000000000000000000000000000000831614610475565b6000828152600260205260408120546001600160a01b03908116908316156118d6576118d6818486611bff565b6001600160a01b03811615611932576118f36000856000806114aa565b6001600160a01b038116600090815260036020526040902080547fffffffffffffffffffffffffffffffffffffffffffffffffffffffffffffffff0190555b6001600160a01b03851615611961576001600160a01b0385166000908152600360205260409020805460010190555b60008481526002602052604080822080547fffffffffffffffffffffffff0000000000000000000000000000000000000000166001600160a01b0389811691821790925591518793918516917fddf252ad1be2c89b69c2b068fc378daa952ba7f163c4a11628f55a4df523b3ef91a4949350505050565b60006119e383610a97565b600083815260076020526040902054909150808214611a36576001600160a01b03841660009081526006602090815260408083208584528252808320548484528184208190558352600790915290208190555b5060009182526007602090815260408084208490556001600160a01b039094168352600681528383209183525290812055565b600854600090611a7b90600190612396565b60008381526009602052604081205460088054939450909284908110611aa357611aa3612196565b906000526020600020015490508060088381548110611ac457611ac4612196565b6000918252602080832090910192909255828152600990915260408082208490558582528120556008805480611afc57611afc6124f7565b6001900381819060005260206000200160009055905550505050565b60006001611b2584610a97565b611b2f9190612396565b6001600160a01b039093166000908152600660209081526040808320868452825280832085905593825260079052919091209190915550565b6001600160a01b038216611bab576040517f64a0ae92000000000000000000000000000000000000000000000000000000008152600060048201526024016105af565b6000611bb98383600061101e565b90506001600160a01b03811615610559576040517f73c6ac6e000000000000000000000000000000000000000000000000000000008152600060048201526024016105af565b611c0a838383611c95565b610559576001600160a01b038316611c51576040517f7e273289000000000000000000000000000000000000000000000000000000008152600481018290526024016105af565b6040517f177e802f0000000000000000000000000000000000000000000000000000000081526001600160a01b0383166004820152602481018290526044016105af565b60006001600160a01b0383161580159061102b5750826001600160a01b0316846001600160a01b03161480611cef57506001600160a01b0380851660009081526005602090815260408083209387168352929052205460ff165b8061102b5750506000908152600460205260409020546001600160a01b03908116911614919050565b7fffffffff0000000000000000000000000000000000000000000000000000000081168114610a0657600080fd5b600060208284031215611d5857600080fd5b8135611d6381611d18565b9392505050565b60005b83811015611d85578181015183820152602001611d6d565b50506000910152565b60008151808452611da6816020860160208601611d6a565b601f017fffffffffffffffffffffffffffffffffffffffffffffffffffffffffffffffe0169290920160200192915050565b602081526000611d636020830184611d8e565b600060208284031215611dfd57600080fd5b5035919050565b80356001600160a01b0381168114611e1b57600080fd5b919050565b60008060408385031215611e3357600080fd5b611e3c83611e04565b946020939093013593505050565b600080600060608486031215611e5f57600080fd5b611e6884611e04565b9250611e7660208501611e04565b9150604084013590509250925092565b7f4e487b7100000000000000000000000000000000000000000000000000000000600052604160045260246000fd5b600067ffffffffffffffff80841115611ed057611ed0611e86565b604051601f85017fffffffffffffffffffffffffffffffffffffffffffffffffffffffffffffffe0908116603f01168101908282118183101715611f1657611f16611e86565b81604052809350858152868686011115611f2f57600080fd5b858560208301376000602087830101525050509392505050565b600060208284031215611f5b57600080fd5b813567ffffffffffffffff811115611f7257600080fd5b8201601f81018413611f8357600080fd5b61102b84823560208401611eb5565b600060208284031215611fa457600080fd5b611d6382611e04565b60008060408385031215611fc057600080fd5b611fc983611e04565b915060208301358015158114611fde57600080fd5b809150509250929050565b60008060008060808587031215611fff57600080fd5b61200885611e04565b935061201660208601611e04565b925060408501359150606085013567ffffffffffffffff81111561203957600080fd5b8501601f8101871361204a57600080fd5b61205987823560208401611eb5565b91505092959194509250565b600060208083016020845280855180835260408601915060408160051b87010192506020870160005b828110156120da577fffffffffffffffffffffffffffffffffffffffffffffffffffffffffffffffc08886030184526120c8858351611d8e565b9450928501929085019060010161208e565b5092979650505050505050565b600080604083850312156120fa57600080fd5b61210383611e04565b915061211160208401611e04565b90509250929050565b600181811c9082168061212e57607f821691505b60208210810361074b577f4e487b7100000000000000000000000000000000000000000000000000000000600052602260045260246000fd5b7f4e487b7100000000000000000000000000000000000000000000000000000000600052602160045260246000fd5b7f4e487b7100000000000000000000000000000000000000000000000000000000600052603260045260246000fd5b601f821115610559576000816000526020600020601f850160051c810160208610156121ee5750805b601f850160051c820191505b8181101561220d578281556001016121fa565b505050505050565b815167ffffffffffffffff81111561222f5761222f611e86565b6122438161223d845461211a565b846121c5565b602080601f83116001811461229657600084156122605750858301515b7fffffffffffffffffffffffffffffffffffffffffffffffffffffffffffffffff600386901b1c1916600185901b17855561220d565b6000858152602081207fffffffffffffffffffffffffffffffffffffffffffffffffffffffffffffffe08616915b828110156122e3578886015182559484019460019091019084016122c4565b508582101561231f57878501517fffffffffffffffffffffffffffffffffffffffffffffffffffffffffffffffff600388901b60f8161c191681555b5050505050600190811b01905550565b7f4e487b7100000000000000000000000000000000000000000000000000000000600052601160045260246000fd5b60007fffffffffffffffffffffffffffffffffffffffffffffffffffffffffffffffff820361238f5761238f61232f565b5060010190565b818103818111156104755761047561232f565b808201808211156104755761047561232f565b60008085546123ca8161211a565b600182811680156123e2576001811461241557612444565b7fffffffffffffffffffffffffffffffffffffffffffffffffffffffffffffff0084168752821515830287019450612444565b8960005260208060002060005b8581101561243b5781548a820152908401908201612422565b50505082870194505b505050508451612458818360208901611d6a565b7f2f0000000000000000000000000000000000000000000000000000000000000091019081528351612491816001840160208801611d6a565b0160010195945050505050565b60006001600160a01b038087168352808616602084015250836040830152608060608301526124d06080830184611d8e565b9695505050505050565b6000602082840312156124ec57600080fd5b8151611d6381611d18565b7f4e487b7100000000000000000000000000000000000000000000000000000000600052603160045260246000fdfea164736f6c6343000817000a","linkReferences":{}},"methodIdentifiers":{"adminMint(address,uint256)":"e58306f9","approve(address,uint256)":"095ea7b3","balanceOf(address)":"70a08231","baseURI()":"6c0360eb","burn(uint256)":"42966c68","getAllTokensVersion()":"c87abd7b","getApproved(uint256)":"081812fc","getTokenVersion(uint256)":"3b54f406","isApprovedForAll(address,address)":"e985e9c5","mint(address)":"6a627842","minterContractAddress()":"0dab46fe","name()":"06fdde03","owner()":"8da5cb5b","ownerOf(uint256)":"6352211e","refreshToken(uint256)":"809b8fad","renounceOwnership()":"715018a6","safeTransferFrom(address,address,uint256)":"42842e0e","safeTransferFrom(address,address,uint256,bytes)":"b88d4fde","setApprovalForAll(address,bool)":"a22cb465","setBaseURI(string)":"55f804b3","setMinterContractAddress(address)":"b0526aca","supportsInterface(bytes4)":"01ffc9a7","symbol()":"95d89b41","tokenByIndex(uint256)":"4f6ccce7","tokenOfOwnerByIndex(address,uint256)":"2f745c59","tokenURI(uint256)":"c87b56dd","totalSupply()":"18160ddd","transferFrom(address,address,uint256)":"23b872dd","transferOwnership(address)":"f2fde38b"},"id":42}