{"abi":[{"type":"constructor","inputs":[{"name":"_initialOwner","type":"address","internalType":"address"},{"name":"_glitchAddress","type":"address","internalType":"address"},{"name":"_treasuryWallet","type":"address","internalType":"address"}],"stateMutability":"nonpayable"},{"type":"function","name":"MAX_TOP_BIDS","inputs":[],"outputs":[{"name":"","type":"uint256","internalType":"uint256"}],"stateMutability":"view"},{"type":"function","name":"adminMintRemaining","inputs":[{"name":"_recipient","type":"address","internalType":"address"}],"outputs":[],"stateMutability":"nonpayable"},{"type":"function","name":"bid","inputs":[{"name":"_bidAmount","type":"uint256","internalType":"uint256"},{"name":"_merkleProof","type":"bytes32[]","internalType":"bytes32[]"}],"outputs":[],"stateMutability":"payable"},{"type":"function","name":"bidBalances","inputs":[{"name":"","type":"address","internalType":"address"}],"outputs":[{"name":"","type":"uint256","internalType":"uint256"}],"stateMutability":"view"},{"type":"function","name":"checkMerkleProof","inputs":[{"name":"_merkleProof","type":"bytes32[]","internalType":"bytes32[]"},{"name":"_address","type":"address","internalType":"address"},{"name":"_root","type":"bytes32","internalType":"bytes32"}],"outputs":[{"name":"","type":"bool","internalType":"bool"}],"stateMutability":"pure"},{"type":"function","name":"claimAll","inputs":[{"name":"_to","type":"address","internalType":"address"}],"outputs":[],"stateMutability":"nonpayable"},{"type":"function","name":"claimed","inputs":[{"name":"","type":"address","internalType":"address"}],"outputs":[{"name":"","type":"bool","internalType":"bool"}],"stateMutability":"view"},{"type":"function","name":"firstTierMerkleRoot","inputs":[],"outputs":[{"name":"","type":"bytes32","internalType":"bytes32"}],"stateMutability":"view"},{"type":"function","name":"getConfig","inputs":[],"outputs":[{"name":"","type":"tuple","internalType":"struct GlitchAuction.Config","components":[{"name":"startTime","type":"uint256","internalType":"uint256"},{"name":"endTime","type":"uint256","internalType":"uint256"},{"name":"minBidIncrementInWei","type":"uint256","internalType":"uint256"},{"name":"startAmountInWei","type":"uint256","internalType":"uint256"}]}],"stateMutability":"view"},{"type":"function","name":"getMinimumBid","inputs":[],"outputs":[{"name":"","type":"uint256","internalType":"uint256"}],"stateMutability":"view"},{"type":"function","name":"getSettledPrice","inputs":[],"outputs":[{"name":"","type":"uint256","internalType":"uint256"}],"stateMutability":"view"},{"type":"function","name":"getSettledPriceWithDiscount","inputs":[{"name":"_discountType","type":"uint8","internalType":"enum GlitchAuction.DiscountType"}],"outputs":[{"name":"","type":"uint256","internalType":"uint256"}],"stateMutability":"view"},{"type":"function","name":"getTopBids","inputs":[],"outputs":[{"name":"","type":"tuple[10]","internalType":"struct GlitchAuction.Bid[10]","components":[{"name":"bidder","type":"address","internalType":"address"},{"name":"amount","type":"uint256","internalType":"uint256"},{"name":"discountType","type":"uint8","internalType":"enum GlitchAuction.DiscountType"}]}],"stateMutability":"view"},{"type":"function","name":"glitchAddress","inputs":[],"outputs":[{"name":"","type":"address","internalType":"contract IGlitch"}],"stateMutability":"view"},{"type":"function","name":"owner","inputs":[],"outputs":[{"name":"","type":"address","internalType":"address"}],"stateMutability":"view"},{"type":"function","name":"pause","inputs":[],"outputs":[],"stateMutability":"nonpayable"},{"type":"function","name":"paused","inputs":[],"outputs":[{"name":"","type":"bool","internalType":"bool"}],"stateMutability":"view"},{"type":"function","name":"renounceOwnership","inputs":[],"outputs":[],"stateMutability":"nonpayable"},{"type":"function","name":"setConfig","inputs":[{"name":"_startTime","type":"uint256","internalType":"uint256"},{"name":"_endTime","type":"uint256","internalType":"uint256"},{"name":"_minBidIncrementInWei","type":"uint256","internalType":"uint256"},{"name":"_startAmountInWei","type":"uint256","internalType":"uint256"}],"outputs":[],"stateMutability":"nonpayable"},{"type":"function","name":"setGlitchAddress","inputs":[{"name":"_glitchAddress","type":"address","internalType":"address"}],"outputs":[],"stateMutability":"nonpayable"},{"type":"function","name":"setMerkleRoots","inputs":[{"name":"_firstTierRoot","type":"bytes32","internalType":"bytes32"}],"outputs":[],"stateMutability":"nonpayable"},{"type":"function","name":"setTreasuryWallet","inputs":[{"name":"_newWallet","type":"address","internalType":"address"}],"outputs":[],"stateMutability":"nonpayable"},{"type":"function","name":"topBids","inputs":[{"name":"","type":"uint256","internalType":"uint256"}],"outputs":[{"name":"bidder","type":"address","internalType":"address"},{"name":"amount","type":"uint256","internalType":"uint256"},{"name":"discountType","type":"uint8","internalType":"enum GlitchAuction.DiscountType"}],"stateMutability":"view"},{"type":"function","name":"transferOwnership","inputs":[{"name":"newOwner","type":"address","internalType":"address"}],"outputs":[],"stateMutability":"nonpayable"},{"type":"function","name":"treasuryWallet","inputs":[],"outputs":[{"name":"","type":"address","internalType":"address payable"}],"stateMutability":"view"},{"type":"function","name":"unpause","inputs":[],"outputs":[],"stateMutability":"nonpayable"},{"type":"function","name":"withdraw","inputs":[],"outputs":[],"stateMutability":"nonpayable"},{"type":"function","name":"withdrawn","inputs":[],"outputs":[{"name":"","type":"bool","internalType":"bool"}],"stateMutability":"view"},{"type":"event","name":"BidPlaced","inputs":[{"name":"bidder","type":"address","indexed":true,"internalType":"address"},{"name":"amount","type":"uint256","indexed":false,"internalType":"uint256"}],"anonymous":false},{"type":"event","name":"Claimed","inputs":[{"name":"to","type":"address","indexed":true,"internalType":"address"},{"name":"nftAmount","type":"uint256","indexed":false,"internalType":"uint256"},{"name":"refundAmount","type":"uint256","indexed":false,"internalType":"uint256"}],"anonymous":false},{"type":"event","name":"Outbid","inputs":[{"name":"bidder","type":"address","indexed":true,"internalType":"address"},{"name":"amount","type":"uint256","indexed":false,"internalType":"uint256"},{"name":"lastBidPosition","type":"uint256","indexed":false,"internalType":"uint256"}],"anonymous":false},{"type":"event","name":"OwnershipTransferred","inputs":[{"name":"previousOwner","type":"address","indexed":true,"internalType":"address"},{"name":"newOwner","type":"address","indexed":true,"internalType":"address"}],"anonymous":false},{"type":"event","name":"Paused","inputs":[{"name":"account","type":"address","indexed":false,"internalType":"address"}],"anonymous":false},{"type":"event","name":"Unpaused","inputs":[{"name":"account","type":"address","indexed":false,"internalType":"address"}],"anonymous":false},{"type":"error","name":"AddressInsufficientBalance","inputs":[{"name":"account","type":"address","internalType":"address"}]},{"type":"error","name":"AlreadyClaimed","inputs":[]},{"type":"error","name":"AuctionNotEnded","inputs":[]},{"type":"error","name":"BidDoesNotQualifyForTopBids","inputs":[]},{"type":"error","name":"BidTooLow","inputs":[]},{"type":"error","name":"ConfigNotSet","inputs":[]},{"type":"error","name":"EnforcedPause","inputs":[]},{"type":"error","name":"ExpectedPause","inputs":[]},{"type":"error","name":"FailedInnerCall","inputs":[]},{"type":"error","name":"InsufficientFundsForBid","inputs":[]},{"type":"error","name":"InvalidAddress","inputs":[]},{"type":"error","name":"InvalidAmountInWei","inputs":[]},{"type":"error","name":"InvalidMinBidIncrementValue","inputs":[]},{"type":"error","name":"InvalidStartEndTime","inputs":[{"name":"startTime","type":"uint256","internalType":"uint256"},{"name":"endTime","type":"uint256","internalType":"uint256"}]},{"type":"error","name":"OnlyOwner","inputs":[]},{"type":"error","name":"OwnableInvalidOwner","inputs":[{"name":"owner","type":"address","internalType":"address"}]},{"type":"error","name":"OwnableUnauthorizedAccount","inputs":[{"name":"account","type":"address","internalType":"address"}]},{"type":"error","name":"ReentrancyGuardReentrantCall","inputs":[]},{"type":"error","name":"TransferFailed","inputs":[]}],"bytecode":{"object":"0x60806040523480156200001157600080fd5b50604051620024b8380380620024b883398101604081905262000034916200011e565b826001600160a01b0381166200006457604051631e4fbdf760e01b81526000600482015260240160405180910390fd5b6200006f81620000b1565b50600180556002805460ff19169055600580546001600160a01b039384166001600160a01b031991821617909155600480549290931691161790555062000168565b600080546001600160a01b038381166001600160a01b0319831681178455604051919092169283917f8be0079c531659141344cd1fd0a4f28419497f9722a3daafe3b4186f6b6457e09190a35050565b80516001600160a01b03811681146200011957600080fd5b919050565b6000806000606084860312156200013457600080fd5b6200013f8462000101565b92506200014f6020850162000101565b91506200015f6040850162000101565b90509250925092565b61234080620001786000396000f3fe6080604052600436106101b65760003560e01c806377329f35116100ec578063c3f909d41161008a578063c884ef8311610064578063c884ef8314610516578063d745f58f14610546578063e5c389cd14610566578063f2fde38b1461058657600080fd5b8063c3f909d414610487578063c5b63600146104cf578063c80ec522146104e457600080fd5b80638da5cb5b116100c65780638da5cb5b1461040957806395d6a3cc14610434578063a06a5b3514610454578063a8602fea1461046757600080fd5b806377329f35146103bf5780637e907e64146103df5780638456cb59146103f457600080fd5b80633f4ba83a11610159578063577824191161013357806357782419146103395780635c975abb1461035957806367ba52501461037d578063715018a6146103aa57600080fd5b80633f4ba83a146102b05780634626402b146102c557806354f567411461031757600080fd5b80630d16e28c116101955780630d16e28c1461025057806319bcb4cd146102665780632931ec161461027b5780633ccfd60b1461029b57600080fd5b8062f2a368146101bb578063010d9813146101dd578063031778f914610215575b600080fd5b3480156101c757600080fd5b506101db6101d6366004611f6f565b6105a6565b005b3480156101e957600080fd5b506101fd6101f8366004611f8a565b610781565b60405161020c9392919061200d565b60405180910390f35b34801561022157600080fd5b50610242610230366004611f6f565b60246020526000908152604090205481565b60405190815260200161020c565b34801561025c57600080fd5b5061024260035481565b34801561027257600080fd5b50610242600a81565b34801561028757600080fd5b506101db610296366004611f8a565b6107c2565b3480156102a757600080fd5b506101db6107cf565b3480156102bc57600080fd5b506101db610a46565b3480156102d157600080fd5b506004546102f29073ffffffffffffffffffffffffffffffffffffffff1681565b60405173ffffffffffffffffffffffffffffffffffffffff909116815260200161020c565b34801561032357600080fd5b5061032c610a56565b60405161020c919061203e565b34801561034557600080fd5b506102426103543660046120a9565b610afc565b34801561036557600080fd5b5060025460ff165b604051901515815260200161020c565b34801561038957600080fd5b506005546102f29073ffffffffffffffffffffffffffffffffffffffff1681565b3480156103b657600080fd5b506101db610b4e565b3480156103cb57600080fd5b506101db6103da366004611f6f565b610b60565b3480156103eb57600080fd5b50610242610f1b565b34801561040057600080fd5b506101db610f64565b34801561041557600080fd5b5060005473ffffffffffffffffffffffffffffffffffffffff166102f2565b34801561044057600080fd5b5061036d61044f366004612116565b610f74565b6101db610462366004612172565b61100f565b34801561047357600080fd5b506101db610482366004611f6f565b6111e3565b34801561049357600080fd5b5061049c6112f4565b60405161020c91908151815260208083015190820152604080830151908201526060918201519181019190915260800190565b3480156104db57600080fd5b5061024261134c565b3480156104f057600080fd5b5060045461036d9074010000000000000000000000000000000000000000900460ff1681565b34801561052257600080fd5b5061036d610531366004611f6f565b60256020526000908152604090205460ff1681565b34801561055257600080fd5b506101db610561366004611f6f565b61139f565b34801561057257600080fd5b506101db6105813660046121be565b6114b0565b34801561059257600080fd5b506101db6105a1366004611f6f565b61160d565b60005473ffffffffffffffffffffffffffffffffffffffff1633146106125760405162461bcd60e51b815260206004820152600a60248201527f4f6e6c79206f776e65720000000000000000000000000000000000000000000060448201526064015b60405180910390fd5b60265460000361064e576040517face124bc00000000000000000000000000000000000000000000000000000000815260040160405180910390fd5b602754421161069f5760405162461bcd60e51b815260206004820152601160248201527f41756374696f6e206e6f7420656e6465640000000000000000000000000000006044820152606401610609565b60006106a961166e565b905060006106b882600161221f565b90505b600a81101561077c5760055473ffffffffffffffffffffffffffffffffffffffff166340c10f19846106ee84600161221f565b6040517fffffffff0000000000000000000000000000000000000000000000000000000060e085901b16815273ffffffffffffffffffffffffffffffffffffffff90921660048301526024820152604401600060405180830381600087803b15801561075957600080fd5b505af115801561076d573d6000803e3d6000fd5b505050508060010190506106bb565b505050565b600681600a811061079157600080fd5b600302018054600182015460029092015473ffffffffffffffffffffffffffffffffffffffff909116925060ff1683565b6107ca6116c8565b600355565b60005473ffffffffffffffffffffffffffffffffffffffff1633146108365760405162461bcd60e51b815260206004820152600a60248201527f4f6e6c79206f776e6572000000000000000000000000000000000000000000006044820152606401610609565b61083e61171b565b602754421161088f5760405162461bcd60e51b815260206004820152601160248201527f41756374696f6e206e6f7420656e6465640000000000000000000000000000006044820152606401610609565b60045474010000000000000000000000000000000000000000900460ff16156108fa5760405162461bcd60e51b815260206004820152601160248201527f416c72656164792077697468647261776e0000000000000000000000000000006044820152606401610609565b600480547fffffffffffffffffffffff00ffffffffffffffffffffffffffffffffffffffff1674010000000000000000000000000000000000000000179055600080805b600a8110156109da576000600682600a811061095c5761095c612232565b600302015473ffffffffffffffffffffffffffffffffffffffff16146109da576001600682600a811061099157610991612232565b600302016002015460ff1660018111156109ad576109ad611fa3565b036109c457826109bc81612261565b9350506109d2565b816109ce81612261565b9250505b60010161093e565b506000826109e86001610afc565b6109f29190612299565b90506000826109ff610f1b565b610a099190612299565b9050610a37610a18828461221f565b60045473ffffffffffffffffffffffffffffffffffffffff169061175e565b50505050610a4460018055565b565b610a4e6116c8565b610a44611834565b610a5e611eff565b6040805161014081019091526006600a6000835b82821015610af35760408051606081018252600384028601805473ffffffffffffffffffffffffffffffffffffffff16825260018082015460208401526002820154929391929184019160ff1690811115610acf57610acf611fa3565b6001811115610ae057610ae0611fa3565b8152505081526020019060010190610a72565b50505050905090565b60006001826001811115610b1257610b12611fa3565b03610b46576064610b24600f826122b0565b610b2c610f1b565b610b369190612299565b610b4091906122c3565b92915050565b610b40610f1b565b610b566116c8565b610a4460006118b1565b602654600003610b9c576040517face124bc00000000000000000000000000000000000000000000000000000000815260040160405180910390fd5b610ba4611926565b610bac61171b565b6027544211610bfd5760405162461bcd60e51b815260206004820152601160248201527f41756374696f6e206e6f7420656e6465640000000000000000000000000000006044820152606401610609565b73ffffffffffffffffffffffffffffffffffffffff811660009081526025602052604090205460ff1615610c735760405162461bcd60e51b815260206004820152600f60248201527f416c726561647920636c61696d656400000000000000000000000000000000006044820152606401610609565b73ffffffffffffffffffffffffffffffffffffffff81166000908152602460209081526040808320546025909252822080547fffffffffffffffffffffffffffffffffffffffffffffffffffffffffffffff0016600117905581908190815b600a811015610e67578573ffffffffffffffffffffffffffffffffffffffff16600682600a8110610d0557610d05612232565b600302015473ffffffffffffffffffffffffffffffffffffffff1603610e5f5760055473ffffffffffffffffffffffffffffffffffffffff166340c10f1987610d4f84600161221f565b6040517fffffffff0000000000000000000000000000000000000000000000000000000060e085901b16815273ffffffffffffffffffffffffffffffffffffffff90921660048301526024820152604401600060405180830381600087803b158015610dba57600080fd5b505af1158015610dce573d6000803e3d6000fd5b505050508480610ddd90612261565b955050600681600a8110610df357610df3612232565b600302016001015484610e06919061221f565b93506000600682600a8110610e1d57610e1d612232565b600302016002015460ff166001811115610e3957610e39611fa3565b14610e5f57600681600a8110610e5157610e51612232565b600302016002015460ff1692505b600101610cd2565b506000610e7383610afc565b610e7d9086612299565b610e8790856122b0565b610e91908361221f565b90508015610eb957610eb973ffffffffffffffffffffffffffffffffffffffff87168261175e565b604080518681526020810183905273ffffffffffffffffffffffffffffffffffffffff8816917f987d620f307ff6b94d58743cb7a7509f24071586a77759b77c2d4e29f75a2f9a910160405180910390a25050505050610f1860018055565b50565b600080610f2661166e565b90506000600682600a8110610f3d57610f3d612232565b600302016001015490506026600301548110610f595780610f5d565b6029545b9250505090565b610f6c6116c8565b610a44611963565b6040517fffffffffffffffffffffffffffffffffffffffff000000000000000000000000606084901b16602082015260009081906034016040516020818303038152906040528051906020012090506110038686808060200260200160405190810160405280939291908181526020018383602002808284376000920191909152508792508591506119be9050565b9150505b949350505050565b60265460000361104b576040517face124bc00000000000000000000000000000000000000000000000000000000815260040160405180910390fd5b604080516080810182526026548152602754602082018190526028549282019290925260295460608201529042101580611086575080514211155b156110cd57805160208201516040517f2221fc9c00000000000000000000000000000000000000000000000000000000815260048101929092526024820152604401610609565b6110d5611926565b6110dd61171b565b6110e561134c565b8410156111345760405162461bcd60e51b815260206004820152600b60248201527f42696420746f6f206c6f770000000000000000000000000000000000000000006044820152606401610609565b3360009081526024602052604081205461114f90349061221f565b9050848110156111a15760405162461bcd60e51b815260206004820152601a60248201527f496e73756666696369656e742066756e647320666f72206269640000000000006044820152606401610609565b6111ab85826122b0565b336000818152602460205260409020919091556111d390866111ce8787846119d6565b6119fd565b506111dd60018055565b50505050565b60005473ffffffffffffffffffffffffffffffffffffffff16331461124a5760405162461bcd60e51b815260206004820152600a60248201527f4f6e6c79206f776e6572000000000000000000000000000000000000000000006044820152606401610609565b73ffffffffffffffffffffffffffffffffffffffff81166112ad5760405162461bcd60e51b815260206004820152600f60248201527f496e76616c6964206164647265737300000000000000000000000000000000006044820152606401610609565b600480547fffffffffffffffffffffffff00000000000000000000000000000000000000001673ffffffffffffffffffffffffffffffffffffffff92909216919091179055565b61131f6040518060800160405280600081526020016000815260200160008152602001600081525090565b50604080516080810182526026548152602754602082015260285491810191909152602954606082015290565b600080600661135d6001600a6122b0565b600a811061136d5761136d612232565b60030201600101549050602660030154811061139557602854611390908261221f565b611399565b6029545b91505090565b60005473ffffffffffffffffffffffffffffffffffffffff1633146114065760405162461bcd60e51b815260206004820152600a60248201527f4f6e6c79206f776e6572000000000000000000000000000000000000000000006044820152606401610609565b73ffffffffffffffffffffffffffffffffffffffff81166114695760405162461bcd60e51b815260206004820152600f60248201527f496e76616c6964206164647265737300000000000000000000000000000000006044820152606401610609565b600580547fffffffffffffffffffffffff00000000000000000000000000000000000000001673ffffffffffffffffffffffffffffffffffffffff92909216919091179055565b60005473ffffffffffffffffffffffffffffffffffffffff1633146115175760405162461bcd60e51b815260206004820152600a60248201527f4f6e6c79206f776e6572000000000000000000000000000000000000000000006044820152606401610609565b8315806115245750828410155b15611565576040517f2221fc9c0000000000000000000000000000000000000000000000000000000081526004810185905260248101849052604401610609565b8060000361159f576040517fee99522400000000000000000000000000000000000000000000000000000000815260040160405180910390fd5b816000036115d9576040517fb0fd644300000000000000000000000000000000000000000000000000000000815260040160405180910390fd5b6040805160808101825285815260208101859052908101839052606001819052602693909355602791909155602855602955565b6116156116c8565b73ffffffffffffffffffffffffffffffffffffffff8116611665576040517f1e4fbdf700000000000000000000000000000000000000000000000000000000815260006004820152602401610609565b610f18816118b1565b600a5b6000811180156116a5575060066116896001836122b0565b600a811061169957611699612232565b60030201600101546000145b156116ba576116b3816122fe565b9050611671565b6116c3816122fe565b905090565b60005473ffffffffffffffffffffffffffffffffffffffff163314610a44576040517f118cdaa7000000000000000000000000000000000000000000000000000000008152336004820152602401610609565b600260015403611757576040517f3ee5aeb500000000000000000000000000000000000000000000000000000000815260040160405180910390fd5b6002600155565b8047101561179a576040517fcd786059000000000000000000000000000000000000000000000000000000008152306004820152602401610609565b60008273ffffffffffffffffffffffffffffffffffffffff168260405160006040518083038185875af1925050503d80600081146117f4576040519150601f19603f3d011682016040523d82523d6000602084013e6117f9565b606091505b505090508061077c576040517f1425ea4200000000000000000000000000000000000000000000000000000000815260040160405180910390fd5b61183c611e54565b600280547fffffffffffffffffffffffffffffffffffffffffffffffffffffffffffffff001690557f5db9ee0a495bf2e6ff9c91a7834c1ba4fdd244a5e8aa4e537bd38aeae4b073aa335b60405173ffffffffffffffffffffffffffffffffffffffff909116815260200160405180910390a1565b6000805473ffffffffffffffffffffffffffffffffffffffff8381167fffffffffffffffffffffffff0000000000000000000000000000000000000000831681178455604051919092169283917f8be0079c531659141344cd1fd0a4f28419497f9722a3daafe3b4186f6b6457e09190a35050565b60025460ff1615610a44576040517fd93c066500000000000000000000000000000000000000000000000000000000815260040160405180910390fd5b61196b611926565b600280547fffffffffffffffffffffffffffffffffffffffffffffffffffffffffffffff001660011790557f62e78cea01bee320cd4e420270b5ea74000d11b0c9f74754ebdbfc544b05a2586118873390565b6000826119cb8584611e90565b1490505b9392505050565b60006119e6848484600354610f74565b156119f3575060016119cf565b5060009392505050565b60005b600a81108015611a2a575082600682600a8110611a1f57611a1f612232565b600302016001015410155b15611a3757600101611a00565b600a8110611aad5760405162461bcd60e51b815260206004820152602160248201527f42696420646f6573206e6f74207175616c69667920666f7220746f702062696460448201527f73000000000000000000000000000000000000000000000000000000000000006064820152608401610609565b8373ffffffffffffffffffffffffffffffffffffffff167f3fabff0a9c3ecd6814702e247fa9733e5d0aa69e3a38590f92cb18f623a2254d84604051611af591815260200190565b60405180910390a260006006611b0d6001600a6122b0565b600a8110611b1d57611b1d612232565b6040805160608101825260039290920292909201805473ffffffffffffffffffffffffffffffffffffffff16825260018082015460208401526002820154929391929184019160ff1690811115611b7657611b76611fa3565b6001811115611b8757611b87611fa3565b905250805190915073ffffffffffffffffffffffffffffffffffffffff1615611c6b57806000015173ffffffffffffffffffffffffffffffffffffffff167f032dcd270c2e80a70f38d5539b346f68da4e900b762c8e07b15ec32830664f43826020015184604051611c03929190918252602082015260400190565b60405180910390a2602080820151825173ffffffffffffffffffffffffffffffffffffffff1660009081526024909252604090912054611c43919061221f565b815173ffffffffffffffffffffffffffffffffffffffff166000908152602460205260409020555b6000611c796001600a6122b0565b90505b82811115611d72576006611c916001836122b0565b600a8110611ca157611ca1612232565b60030201600682600a8110611cb857611cb8612232565b82546003919091029190910180547fffffffffffffffffffffffff00000000000000000000000000000000000000001673ffffffffffffffffffffffffffffffffffffffff90921691909117815560018083015481830155600280840154908301805460ff9092169290917fffffffffffffffffffffffffffffffffffffffffffffffffffffffffffffff0016908381811115611d5757611d57611fa3565b02179055509050508080611d6a906122fe565b915050611c7c565b5060405180606001604052808673ffffffffffffffffffffffffffffffffffffffff168152602001858152602001846001811115611db257611db2611fa3565b9052600683600a8110611dc757611dc7612232565b6003020160008201518160000160006101000a81548173ffffffffffffffffffffffffffffffffffffffff021916908373ffffffffffffffffffffffffffffffffffffffff1602179055506020820151816001015560408201518160020160006101000a81548160ff02191690836001811115611e4657611e46611fa3565b021790555050505050505050565b60025460ff16610a44576040517f8dfc202b00000000000000000000000000000000000000000000000000000000815260040160405180910390fd5b600081815b8451811015611ecb57611ec182868381518110611eb457611eb4612232565b6020026020010151611ed3565b9150600101611e95565b509392505050565b6000818310611eef5760008281526020849052604090206119cf565b5060009182526020526040902090565b604051806101400160405280600a905b611f3060408051606081018252600080825260208201819052909182015290565b815260200190600190039081611f0f5790505090565b803573ffffffffffffffffffffffffffffffffffffffff81168114611f6a57600080fd5b919050565b600060208284031215611f8157600080fd5b6119cf82611f46565b600060208284031215611f9c57600080fd5b5035919050565b7f4e487b7100000000000000000000000000000000000000000000000000000000600052602160045260246000fd5b60028110612009577f4e487b7100000000000000000000000000000000000000000000000000000000600052602160045260246000fd5b9052565b73ffffffffffffffffffffffffffffffffffffffff8416815260208101839052606081016110076040830184611fd2565b6103c08101818360005b600a8110156120a0578151805173ffffffffffffffffffffffffffffffffffffffff168452602080820151818601526040918201519161208a81870184611fd2565b5060609490940193929092019150600101612048565b50505092915050565b6000602082840312156120bb57600080fd5b8135600281106119cf57600080fd5b60008083601f8401126120dc57600080fd5b50813567ffffffffffffffff8111156120f457600080fd5b6020830191508360208260051b850101111561210f57600080fd5b9250929050565b6000806000806060858703121561212c57600080fd5b843567ffffffffffffffff81111561214357600080fd5b61214f878288016120ca565b9095509350612162905060208601611f46565b9396929550929360400135925050565b60008060006040848603121561218757600080fd5b83359250602084013567ffffffffffffffff8111156121a557600080fd5b6121b1868287016120ca565b9497909650939450505050565b600080600080608085870312156121d457600080fd5b5050823594602084013594506040840135936060013592509050565b7f4e487b7100000000000000000000000000000000000000000000000000000000600052601160045260246000fd5b80820180821115610b4057610b406121f0565b7f4e487b7100000000000000000000000000000000000000000000000000000000600052603260045260246000fd5b60007fffffffffffffffffffffffffffffffffffffffffffffffffffffffffffffffff8203612292576122926121f0565b5060010190565b8082028115828204841417610b4057610b406121f0565b81810381811115610b4057610b406121f0565b6000826122f9577f4e487b7100000000000000000000000000000000000000000000000000000000600052601260045260246000fd5b500490565b60008161230d5761230d6121f0565b507fffffffffffffffffffffffffffffffffffffffffffffffffffffffffffffffff019056fea164736f6c6343000817000a","linkReferences":{}},"methodIdentifiers":{"MAX_TOP_BIDS()":"19bcb4cd","adminMintRemaining(address)":"00f2a368","bid(uint256,bytes32[])":"a06a5b35","bidBalances(address)":"031778f9","checkMerkleProof(bytes32[],address,bytes32)":"95d6a3cc","claimAll(address)":"77329f35","claimed(address)":"c884ef83","firstTierMerkleRoot()":"0d16e28c","getConfig()":"c3f909d4","getMinimumBid()":"c5b63600","getSettledPrice()":"7e907e64","getSettledPriceWithDiscount(uint8)":"57782419","getTopBids()":"54f56741","glitchAddress()":"67ba5250","owner()":"8da5cb5b","pause()":"8456cb59","paused()":"5c975abb","renounceOwnership()":"715018a6","setConfig(uint256,uint256,uint256,uint256)":"e5c389cd","setGlitchAddress(address)":"d745f58f","setMerkleRoots(bytes32)":"2931ec16","setTreasuryWallet(address)":"a8602fea","topBids(uint256)":"010d9813","transferOwnership(address)":"f2fde38b","treasuryWallet()":"4626402b","unpause()":"3f4ba83a","withdraw()":"3ccfd60b","withdrawn()":"c80ec522"},"id":34}