{"abi":[{"type":"constructor","inputs":[{"name":"initialOwner","type":"address","internalType":"address"},{"name":"_minterContractAddress","type":"address","internalType":"address"},{"name":"_baseUri","type":"string","internalType":"string"}],"stateMutability":"nonpayable"},{"type":"function","name":"approve","inputs":[{"name":"to","type":"address","internalType":"address"},{"name":"tokenId","type":"uint256","internalType":"uint256"}],"outputs":[],"stateMutability":"nonpayable"},{"type":"function","name":"balanceOf","inputs":[{"name":"owner","type":"address","internalType":"address"}],"outputs":[{"name":"","type":"uint256","internalType":"uint256"}],"stateMutability":"view"},{"type":"function","name":"baseURI","inputs":[],"outputs":[{"name":"","type":"string","internalType":"string"}],"stateMutability":"view"},{"type":"function","name":"burn","inputs":[{"name":"tokenId","type":"uint256","internalType":"uint256"}],"outputs":[],"stateMutability":"nonpayable"},{"type":"function","name":"fundsReceiverAddress","inputs":[],"outputs":[{"name":"","type":"address","internalType":"address payable"}],"stateMutability":"view"},{"type":"function","name":"getAllTokensVersion","inputs":[],"outputs":[{"name":"versions","type":"string[]","internalType":"string[]"}],"stateMutability":"view"},{"type":"function","name":"getApproved","inputs":[{"name":"tokenId","type":"uint256","internalType":"uint256"}],"outputs":[{"name":"","type":"address","internalType":"address"}],"stateMutability":"view"},{"type":"function","name":"getTokenVersion","inputs":[{"name":"tokenId","type":"uint256","internalType":"uint256"}],"outputs":[{"name":"versionStr","type":"string","internalType":"string"}],"stateMutability":"view"},{"type":"function","name":"isApprovedForAll","inputs":[{"name":"owner","type":"address","internalType":"address"},{"name":"operator","type":"address","internalType":"address"}],"outputs":[{"name":"","type":"bool","internalType":"bool"}],"stateMutability":"view"},{"type":"function","name":"mint","inputs":[{"name":"recipient","type":"address","internalType":"address"},{"name":"_id","type":"uint256","internalType":"uint256"}],"outputs":[],"stateMutability":"nonpayable"},{"type":"function","name":"minterContractAddress","inputs":[],"outputs":[{"name":"","type":"address","internalType":"address"}],"stateMutability":"view"},{"type":"function","name":"name","inputs":[],"outputs":[{"name":"","type":"string","internalType":"string"}],"stateMutability":"view"},{"type":"function","name":"owner","inputs":[],"outputs":[{"name":"","type":"address","internalType":"address"}],"stateMutability":"view"},{"type":"function","name":"ownerOf","inputs":[{"name":"tokenId","type":"uint256","internalType":"uint256"}],"outputs":[{"name":"","type":"address","internalType":"address"}],"stateMutability":"view"},{"type":"function","name":"refreshToken","inputs":[{"name":"_tokenId","type":"uint256","internalType":"uint256"}],"outputs":[],"stateMutability":"payable"},{"type":"function","name":"refreshTokenPrice","inputs":[],"outputs":[{"name":"","type":"uint256","internalType":"uint256"}],"stateMutability":"view"},{"type":"function","name":"renounceOwnership","inputs":[],"outputs":[],"stateMutability":"nonpayable"},{"type":"function","name":"safeTransferFrom","inputs":[{"name":"from","type":"address","internalType":"address"},{"name":"to","type":"address","internalType":"address"},{"name":"tokenId","type":"uint256","internalType":"uint256"}],"outputs":[],"stateMutability":"nonpayable"},{"type":"function","name":"safeTransferFrom","inputs":[{"name":"from","type":"address","internalType":"address"},{"name":"to","type":"address","internalType":"address"},{"name":"tokenId","type":"uint256","internalType":"uint256"},{"name":"data","type":"bytes","internalType":"bytes"}],"outputs":[],"stateMutability":"nonpayable"},{"type":"function","name":"setApprovalForAll","inputs":[{"name":"operator","type":"address","internalType":"address"},{"name":"approved","type":"bool","internalType":"bool"}],"outputs":[],"stateMutability":"nonpayable"},{"type":"function","name":"setBaseURI","inputs":[{"name":"newBaseURI","type":"string","internalType":"string"}],"outputs":[],"stateMutability":"nonpayable"},{"type":"function","name":"setFundsReceiverAddress","inputs":[{"name":"newFundsReceiverAddress","type":"address","internalType":"address"}],"outputs":[],"stateMutability":"nonpayable"},{"type":"function","name":"setMinterContractAddress","inputs":[{"name":"newMinterContractAddress","type":"address","internalType":"address"}],"outputs":[],"stateMutability":"nonpayable"},{"type":"function","name":"setRefreshTokenPrice","inputs":[{"name":"newRefreshTokenPriceInWei","type":"uint256","internalType":"uint256"}],"outputs":[],"stateMutability":"nonpayable"},{"type":"function","name":"supportsInterface","inputs":[{"name":"interfaceId","type":"bytes4","internalType":"bytes4"}],"outputs":[{"name":"","type":"bool","internalType":"bool"}],"stateMutability":"view"},{"type":"function","name":"symbol","inputs":[],"outputs":[{"name":"","type":"string","internalType":"string"}],"stateMutability":"view"},{"type":"function","name":"tokenByIndex","inputs":[{"name":"index","type":"uint256","internalType":"uint256"}],"outputs":[{"name":"","type":"uint256","internalType":"uint256"}],"stateMutability":"view"},{"type":"function","name":"tokenOfOwnerByIndex","inputs":[{"name":"owner","type":"address","internalType":"address"},{"name":"index","type":"uint256","internalType":"uint256"}],"outputs":[{"name":"","type":"uint256","internalType":"uint256"}],"stateMutability":"view"},{"type":"function","name":"tokenURI","inputs":[{"name":"tokenId","type":"uint256","internalType":"uint256"}],"outputs":[{"name":"","type":"string","internalType":"string"}],"stateMutability":"view"},{"type":"function","name":"totalSupply","inputs":[],"outputs":[{"name":"","type":"uint256","internalType":"uint256"}],"stateMutability":"pure"},{"type":"function","name":"transferFrom","inputs":[{"name":"from","type":"address","internalType":"address"},{"name":"to","type":"address","internalType":"address"},{"name":"tokenId","type":"uint256","internalType":"uint256"}],"outputs":[],"stateMutability":"nonpayable"},{"type":"function","name":"transferOwnership","inputs":[{"name":"newOwner","type":"address","internalType":"address"}],"outputs":[],"stateMutability":"nonpayable"},{"type":"event","name":"Approval","inputs":[{"name":"owner","type":"address","indexed":true,"internalType":"address"},{"name":"approved","type":"address","indexed":true,"internalType":"address"},{"name":"tokenId","type":"uint256","indexed":true,"internalType":"uint256"}],"anonymous":false},{"type":"event","name":"ApprovalForAll","inputs":[{"name":"owner","type":"address","indexed":true,"internalType":"address"},{"name":"operator","type":"address","indexed":true,"internalType":"address"},{"name":"approved","type":"bool","indexed":false,"internalType":"bool"}],"anonymous":false},{"type":"event","name":"BatchMetadataUpdate","inputs":[{"name":"_fromTokenId","type":"uint256","indexed":false,"internalType":"uint256"},{"name":"_toTokenId","type":"uint256","indexed":false,"internalType":"uint256"}],"anonymous":false},{"type":"event","name":"MetadataUpdate","inputs":[{"name":"_tokenId","type":"uint256","indexed":false,"internalType":"uint256"}],"anonymous":false},{"type":"event","name":"Minted","inputs":[{"name":"recipient","type":"address","indexed":true,"internalType":"address"},{"name":"tokenId","type":"uint256","indexed":true,"internalType":"uint256"}],"anonymous":false},{"type":"event","name":"OwnershipTransferred","inputs":[{"name":"previousOwner","type":"address","indexed":true,"internalType":"address"},{"name":"newOwner","type":"address","indexed":true,"internalType":"address"}],"anonymous":false},{"type":"event","name":"Transfer","inputs":[{"name":"from","type":"address","indexed":true,"internalType":"address"},{"name":"to","type":"address","indexed":true,"internalType":"address"},{"name":"tokenId","type":"uint256","indexed":true,"internalType":"uint256"}],"anonymous":false},{"type":"error","name":"ERC721EnumerableForbiddenBatchMint","inputs":[]},{"type":"error","name":"ERC721IncorrectOwner","inputs":[{"name":"sender","type":"address","internalType":"address"},{"name":"tokenId","type":"uint256","internalType":"uint256"},{"name":"owner","type":"address","internalType":"address"}]},{"type":"error","name":"ERC721InsufficientApproval","inputs":[{"name":"operator","type":"address","internalType":"address"},{"name":"tokenId","type":"uint256","internalType":"uint256"}]},{"type":"error","name":"ERC721InvalidApprover","inputs":[{"name":"approver","type":"address","internalType":"address"}]},{"type":"error","name":"ERC721InvalidOperator","inputs":[{"name":"operator","type":"address","internalType":"address"}]},{"type":"error","name":"ERC721InvalidOwner","inputs":[{"name":"owner","type":"address","internalType":"address"}]},{"type":"error","name":"ERC721InvalidReceiver","inputs":[{"name":"receiver","type":"address","internalType":"address"}]},{"type":"error","name":"ERC721InvalidSender","inputs":[{"name":"sender","type":"address","internalType":"address"}]},{"type":"error","name":"ERC721NonexistentToken","inputs":[{"name":"tokenId","type":"uint256","internalType":"uint256"}]},{"type":"error","name":"ERC721OutOfBoundsIndex","inputs":[{"name":"owner","type":"address","internalType":"address"},{"name":"index","type":"uint256","internalType":"uint256"}]},{"type":"error","name":"OwnableInvalidOwner","inputs":[{"name":"owner","type":"address","internalType":"address"}]},{"type":"error","name":"OwnableUnauthorizedAccount","inputs":[{"name":"account","type":"address","internalType":"address"}]},{"type":"error","name":"ReentrancyGuardReentrantCall","inputs":[]}],"bytecode":{"object":"0x60806040526658d15e17628000600d553480156200001c57600080fd5b5060405162002df438038062002df48339810160408190526200003f91620001a8565b82604051806040016040528060068152602001650ced8d2e8c6d60d31b8152506040518060400160405280600381526020016211d31560ea1b81525081600090816200008c919062000333565b5060016200009b828262000333565b5050506001600160a01b038116620000cd57604051631e4fbdf760e01b81526000600482015260240160405180910390fd5b620000d88162000123565b506001600c556010620000ec828262000333565b5050600e80546001600160a01b039283166001600160a01b031991821617909155600f8054939092169216919091179055620003ff565b600b80546001600160a01b038381166001600160a01b0319831681179093556040519116919082907f8be0079c531659141344cd1fd0a4f28419497f9722a3daafe3b4186f6b6457e090600090a35050565b80516001600160a01b03811681146200018d57600080fd5b919050565b634e487b7160e01b600052604160045260246000fd5b600080600060608486031215620001be57600080fd5b620001c98462000175565b92506020620001da81860162000175565b60408601519093506001600160401b0380821115620001f857600080fd5b818701915087601f8301126200020d57600080fd5b81518181111562000222576200022262000192565b604051601f8201601f19908116603f011681019083821181831017156200024d576200024d62000192565b816040528281528a868487010111156200026657600080fd5b600093505b828410156200028a57848401860151818501870152928501926200026b565b60008684830101528096505050505050509250925092565b600181811c90821680620002b757607f821691505b602082108103620002d857634e487b7160e01b600052602260045260246000fd5b50919050565b601f8211156200032e576000816000526020600020601f850160051c81016020861015620003095750805b601f850160051c820191505b818110156200032a5782815560010162000315565b5050505b505050565b81516001600160401b038111156200034f576200034f62000192565b6200036781620003608454620002a2565b84620002de565b602080601f8311600181146200039f5760008415620003865750858301515b600019600386901b1c1916600185901b1785556200032a565b600085815260208120601f198616915b82811015620003d057888601518255948401946001909101908401620003af565b5085821015620003ef5787850151600019600388901b60f8161c191681555b5050505050600190811b01905550565b6129e5806200040f6000396000f3fe6080604052600436106101e35760003560e01c806370a0823111610102578063b0526aca11610095578063cf41885911610064578063cf41885914610569578063d9f76f311461057f578063e985e9c51461059f578063f2fde38b146105e857600080fd5b8063b0526aca146104e7578063b88d4fde14610507578063c87abd7b14610527578063c87b56dd1461054957600080fd5b80638da5cb5b116100d15780638da5cb5b1461047457806395d89b4114610492578063a22cb465146104a7578063ae8e3d2f146104c757600080fd5b806370a082311461040c578063715018a61461042c5780637e5c3f2914610441578063809b8fad1461046157600080fd5b80633b54f4061161017a5780634f6ccce7116101495780634f6ccce71461039757806355f804b3146103b75780636352211e146103d75780636c0360eb146103f757600080fd5b80633b54f4061461031757806340c10f191461033757806342842e0e1461035757806342966c681461037757600080fd5b80630dab46fe116101b65780630dab46fe1461029957806318160ddd146102b957806323b872dd146102d75780632f745c59146102f757600080fd5b806301ffc9a7146101e857806306fdde031461021d578063081812fc1461023f578063095ea7b314610277575b600080fd5b3480156101f457600080fd5b50610208610203366004612230565b610608565b60405190151581526020015b60405180910390f35b34801561022957600080fd5b50610232610619565b60405161021491906122c2565b34801561024b57600080fd5b5061025f61025a3660046122d5565b6106ab565b6040516001600160a01b039091168152602001610214565b34801561028357600080fd5b5061029761029236600461230a565b6106d4565b005b3480156102a557600080fd5b50600e5461025f906001600160a01b031681565b3480156102c557600080fd5b5060325b604051908152602001610214565b3480156102e357600080fd5b506102976102f2366004612334565b6106e3565b34801561030357600080fd5b506102c961031236600461230a565b6106fc565b34801561032357600080fd5b506102326103323660046122d5565b61077f565b34801561034357600080fd5b5061029761035236600461230a565b6108ef565b34801561036357600080fd5b50610297610372366004612334565b610a8a565b34801561038357600080fd5b506102976103923660046122d5565b610aa5565b3480156103a357600080fd5b506102c96103b23660046122d5565b610ab1565b3480156103c357600080fd5b506102976103d2366004612433565b610b1c565b3480156103e357600080fd5b5061025f6103f23660046122d5565b610b9c565b34801561040357600080fd5b50610232610ba7565b34801561041857600080fd5b506102c961042736600461247c565b610c35565b34801561043857600080fd5b50610297610c96565b34801561044d57600080fd5b5061029761045c3660046122d5565b610caa565b61029761046f3660046122d5565b610d8d565b34801561048057600080fd5b50600b546001600160a01b031661025f565b34801561049e57600080fd5b50610232610f34565b3480156104b357600080fd5b506102976104c2366004612497565b610f43565b3480156104d357600080fd5b506102976104e236600461247c565b610f4e565b3480156104f357600080fd5b5061029761050236600461247c565b61106c565b34801561051357600080fd5b506102976105223660046124d3565b61111a565b34801561053357600080fd5b5061053c611137565b604051610214919061254f565b34801561055557600080fd5b506102326105643660046122d5565b6111aa565b34801561057557600080fd5b506102c9600d5481565b34801561058b57600080fd5b50600f5461025f906001600160a01b031681565b3480156105ab57600080fd5b506102086105ba3660046125d1565b6001600160a01b03918216600090815260056020908152604080832093909416825291909152205460ff1690565b3480156105f457600080fd5b5061029761060336600461247c565b6111f2565b600061061382611246565b92915050565b60606000805461062890612604565b80601f016020809104026020016040519081016040528092919081815260200182805461065490612604565b80156106a15780601f10610676576101008083540402835291602001916106a1565b820191906000526020600020905b81548152906001019060200180831161068457829003601f168201915b5050505050905090565b60006106b68261129c565b506000828152600460205260409020546001600160a01b0316610613565b6106df8282336112ee565b5050565b6106ec816112fb565b6106f783838361140e565b505050565b600061070783610c35565b8210610756576040517fa57d13dc0000000000000000000000000000000000000000000000000000000081526001600160a01b0384166004820152602481018390526044015b60405180910390fd5b506001600160a01b03919091166000908152600660209081526040808320938352929052205490565b60008181526011602052604081205460609160ff909116908160038111156107a9576107a9612651565b036107eb576040518060400160405280600181526020017f410000000000000000000000000000000000000000000000000000000000000081525091506108e9565b60018160038111156107ff576107ff612651565b03610841576040518060400160405280600181526020017f420000000000000000000000000000000000000000000000000000000000000081525091506108e9565b600281600381111561085557610855612651565b03610897576040518060400160405280600181526020017f430000000000000000000000000000000000000000000000000000000000000081525091506108e9565b60038160038111156108ab576108ab612651565b036108e9576040518060400160405280600181526020017f440000000000000000000000000000000000000000000000000000000000000081525091505b50919050565b600e546001600160a01b03163314610963576040517f08c379a000000000000000000000000000000000000000000000000000000000815260206004820152601460248201527f4f6e6c79206d696e7465722063616e206d696e74000000000000000000000000604482015260640161074d565b6001600160a01b0382166109d3576040517f08c379a000000000000000000000000000000000000000000000000000000000815260206004820152601b60248201527f43616e6e6f74206d696e7420746f207a65726f20616464726573730000000000604482015260640161074d565b603281118015906109e45750600081115b610a4a576040517f08c379a000000000000000000000000000000000000000000000000000000000815260206004820152601060248201527f4964206f7574206f6620626f756e647300000000000000000000000000000000604482015260640161074d565b60405181906001600160a01b038416907f30385c845b448a36257a6a1716e6ad2e1bc2cbe333cde1e69fe849ad6511adfe90600090a36106df82826114c5565b6106f78383836040518060200160405280600081525061111a565b6106df600082336114df565b600060328210610af7576040517fa57d13dc000000000000000000000000000000000000000000000000000000008152600060048201526024810183905260440161074d565b60088281548110610b0a57610b0a612680565b90600052602060002001549050919050565b600b546001600160a01b03163314610b90576040517f08c379a000000000000000000000000000000000000000000000000000000000815260206004820152600a60248201527f4f6e6c79206f776e657200000000000000000000000000000000000000000000604482015260640161074d565b60106106df82826126ff565b60006106138261129c565b60108054610bb490612604565b80601f0160208091040260200160405190810160405280929190818152602001828054610be090612604565b8015610c2d5780601f10610c0257610100808354040283529160200191610c2d565b820191906000526020600020905b815481529060010190602001808311610c1057829003601f168201915b505050505081565b60006001600160a01b038216610c7a576040517f89c62b640000000000000000000000000000000000000000000000000000000081526000600482015260240161074d565b506001600160a01b031660009081526003602052604090205490565b610c9e6114f4565b610ca8600061153a565b565b600b546001600160a01b03163314610d1e576040517f08c379a000000000000000000000000000000000000000000000000000000000815260206004820152600a60248201527f4f6e6c79206f776e657200000000000000000000000000000000000000000000604482015260640161074d565b60008111610d88576040517f08c379a000000000000000000000000000000000000000000000000000000000815260206004820152600d60248201527f496e76616c696420707269636500000000000000000000000000000000000000604482015260640161074d565b600d55565b610d956115a4565b600d54341015610e01576040517f08c379a000000000000000000000000000000000000000000000000000000000815260206004820152600e60248201527f4e6f7420656e6f75676820455448000000000000000000000000000000000000604482015260640161074d565b60008181526011602090815260409182902080547fffffffffffffffffffffffffffffffffffffffffffffffffffffffffffffff0016905590518281527ff8e1a15aba9398e019f0b49df1a4fde98ee17ae345cb5f6b5e2c27f5033e8ce7910160405180910390a1600f546040516000916001600160a01b03169034908381818185875af1925050503d8060008114610eb6576040519150601f19603f3d011682016040523d82523d6000602084013e610ebb565b606091505b5050905080610f26576040517f08c379a000000000000000000000000000000000000000000000000000000000815260206004820152601060248201527f5472616e73666572206661696c65642e00000000000000000000000000000000604482015260640161074d565b50610f316001600c55565b50565b60606001805461062890612604565b6106df3383836115e7565b600b546001600160a01b03163314610fc2576040517f08c379a000000000000000000000000000000000000000000000000000000000815260206004820152600a60248201527f4f6e6c79206f776e657200000000000000000000000000000000000000000000604482015260640161074d565b6001600160a01b038116611032576040517f08c379a000000000000000000000000000000000000000000000000000000000815260206004820152601760248201527f43616e6e6f7420736574207a65726f2061646472657373000000000000000000604482015260640161074d565b600f80547fffffffffffffffffffffffff0000000000000000000000000000000000000000166001600160a01b0392909216919091179055565b600b546001600160a01b031633146110e0576040517f08c379a000000000000000000000000000000000000000000000000000000000815260206004820152600a60248201527f4f6e6c79206f776e657200000000000000000000000000000000000000000000604482015260640161074d565b600e80547fffffffffffffffffffffffff0000000000000000000000000000000000000000166001600160a01b0392909216919091179055565b6111258484846106e3565b611131848484846116bd565b50505050565b6040805160328082526106608201909252606091816020015b606081526020019060019003908161115057905050905060005b60328110156111a657611181610332826001612848565b82828151811061119357611193612680565b602090810291909101015260010161116a565b5090565b60606111b58261129c565b5060106111c18361077f565b6111ca84611880565b6040516020016111dc9392919061285b565b6040516020818303038152906040529050919050565b6111fa6114f4565b6001600160a01b03811661123d576040517f1e4fbdf70000000000000000000000000000000000000000000000000000000081526000600482015260240161074d565b610f318161153a565b60007fffffffff0000000000000000000000000000000000000000000000000000000082167f4906490600000000000000000000000000000000000000000000000000000000148061061357506106138261193e565b6000818152600260205260408120546001600160a01b031680610613576040517f7e2732890000000000000000000000000000000000000000000000000000000081526004810184905260240161074d565b6106f78383836001611994565b60008181526011602052604090205460ff16600381600381111561132157611321612651565b0361132a575050565b600081600381111561133e5761133e612651565b0361134b57506001611389565b600181600381111561135f5761135f612651565b0361136c57506002611389565b600281600381111561138057611380612651565b03611389575060035b600082815260116020526040902080548291907fffffffffffffffffffffffffffffffffffffffffffffffffffffffffffffff001660018360038111156113d2576113d2612651565b02179055506040518281527ff8e1a15aba9398e019f0b49df1a4fde98ee17ae345cb5f6b5e2c27f5033e8ce79060200160405180910390a15050565b6001600160a01b038216611451576040517f64a0ae920000000000000000000000000000000000000000000000000000000081526000600482015260240161074d565b600061145e8383336114df565b9050836001600160a01b0316816001600160a01b031614611131576040517f64283d7b0000000000000000000000000000000000000000000000000000000081526001600160a01b038086166004830152602482018490528216604482015260640161074d565b6106df828260405180602001604052806000815250611aea565b60006114ec848484611b01565b949350505050565b600b546001600160a01b03163314610ca8576040517f118cdaa700000000000000000000000000000000000000000000000000000000815233600482015260240161074d565b600b80546001600160a01b038381167fffffffffffffffffffffffff0000000000000000000000000000000000000000831681179093556040519116919082907f8be0079c531659141344cd1fd0a4f28419497f9722a3daafe3b4186f6b6457e090600090a35050565b6002600c54036115e0576040517f3ee5aeb500000000000000000000000000000000000000000000000000000000815260040160405180910390fd5b6002600c55565b6001600160a01b038216611632576040517f5b08ba180000000000000000000000000000000000000000000000000000000081526001600160a01b038316600482015260240161074d565b6001600160a01b0383811660008181526005602090815260408083209487168084529482529182902080547fffffffffffffffffffffffffffffffffffffffffffffffffffffffffffffff001686151590811790915591519182527f17307eab39ab6107e8899845ad3d59bd9653f200f220920489ca2b5937696c31910160405180910390a3505050565b6001600160a01b0383163b15611131576040517f150b7a020000000000000000000000000000000000000000000000000000000081526001600160a01b0384169063150b7a029061171890339088908790879060040161293d565b6020604051808303816000875af1925050508015611771575060408051601f3d9081017fffffffffffffffffffffffffffffffffffffffffffffffffffffffffffffffe016820190925261176e91810190612979565b60015b6117f3573d80801561179f576040519150601f19603f3d011682016040523d82523d6000602084013e6117a4565b606091505b5080516000036117eb576040517f64a0ae920000000000000000000000000000000000000000000000000000000081526001600160a01b038516600482015260240161074d565b805181602001fd5b7fffffffff0000000000000000000000000000000000000000000000000000000081167f150b7a020000000000000000000000000000000000000000000000000000000014611879576040517f64a0ae920000000000000000000000000000000000000000000000000000000081526001600160a01b038516600482015260240161074d565b5050505050565b6060600061188d83611bce565b600101905060008167ffffffffffffffff8111156118ad576118ad612370565b6040519080825280601f01601f1916602001820160405280156118d7576020820181803683370190505b5090508181016020015b7fffffffffffffffffffffffffffffffffffffffffffffffffffffffffffffffff017f3031323334353637383961626364656600000000000000000000000000000000600a86061a8153600a85049450846118e157509392505050565b60007fffffffff0000000000000000000000000000000000000000000000000000000082167f780e9d63000000000000000000000000000000000000000000000000000000001480610613575061061382611cb0565b80806119a857506001600160a01b03821615155b15611aa25760006119b88461129c565b90506001600160a01b038316158015906119e45750826001600160a01b0316816001600160a01b031614155b8015611a1657506001600160a01b0380821660009081526005602090815260408083209387168352929052205460ff16155b15611a58576040517fa9fbf51f0000000000000000000000000000000000000000000000000000000081526001600160a01b038416600482015260240161074d565b8115611aa05783856001600160a01b0316826001600160a01b03167f8c5be1e5ebec7d5bd14f71427d1e84f3dd0314c0f7b2291e5b200ac8c7c3b92560405160405180910390a45b505b5050600090815260046020526040902080547fffffffffffffffffffffffff0000000000000000000000000000000000000000166001600160a01b0392909216919091179055565b611af48383611d93565b6106f760008484846116bd565b600080611b0f858585611e2a565b90506001600160a01b038116611b6c57611b6784600880546000838152600960205260408120829055600182018355919091527ff3f7a9fe364faab93b216da50a3214154f22a0a2b415b23a84c8169e8b636ee30155565b611b8f565b846001600160a01b0316816001600160a01b031614611b8f57611b8f8185611f59565b6001600160a01b038516611bab57611ba684611fea565b6114ec565b846001600160a01b0316816001600160a01b0316146114ec576114ec8585612099565b6000807a184f03e93ff9f4daa797ed6e38ed64bf6a1f0100000000000000008310611c17577a184f03e93ff9f4daa797ed6e38ed64bf6a1f010000000000000000830492506040015b6d04ee2d6d415b85acef81000000008310611c43576d04ee2d6d415b85acef8100000000830492506020015b662386f26fc100008310611c6157662386f26fc10000830492506010015b6305f5e1008310611c79576305f5e100830492506008015b6127108310611c8d57612710830492506004015b60648310611c9f576064830492506002015b600a83106106135760010192915050565b60007fffffffff0000000000000000000000000000000000000000000000000000000082167f80ac58cd000000000000000000000000000000000000000000000000000000001480611d4357507fffffffff0000000000000000000000000000000000000000000000000000000082167f5b5e139f00000000000000000000000000000000000000000000000000000000145b8061061357507f01ffc9a7000000000000000000000000000000000000000000000000000000007fffffffff00000000000000000000000000000000000000000000000000000000831614610613565b6001600160a01b038216611dd6576040517f64a0ae920000000000000000000000000000000000000000000000000000000081526000600482015260240161074d565b6000611de4838360006114df565b90506001600160a01b038116156106f7576040517f73c6ac6e0000000000000000000000000000000000000000000000000000000081526000600482015260240161074d565b6000828152600260205260408120546001600160a01b0390811690831615611e5757611e578184866120e9565b6001600160a01b03811615611eb357611e74600085600080611994565b6001600160a01b038116600090815260036020526040902080547fffffffffffffffffffffffffffffffffffffffffffffffffffffffffffffffff0190555b6001600160a01b03851615611ee2576001600160a01b0385166000908152600360205260409020805460010190555b60008481526002602052604080822080547fffffffffffffffffffffffff0000000000000000000000000000000000000000166001600160a01b0389811691821790925591518793918516917fddf252ad1be2c89b69c2b068fc378daa952ba7f163c4a11628f55a4df523b3ef91a4949350505050565b6000611f6483610c35565b600083815260076020526040902054909150808214611fb7576001600160a01b03841660009081526006602090815260408083208584528252808320548484528184208190558352600790915290208190555b5060009182526007602090815260408084208490556001600160a01b039094168352600681528383209183525290812055565b600854600090611ffc90600190612996565b6000838152600960205260408120546008805493945090928490811061202457612024612680565b90600052602060002001549050806008838154811061204557612045612680565b600091825260208083209091019290925582815260099091526040808220849055858252812055600880548061207d5761207d6129a9565b6001900381819060005260206000200160009055905550505050565b600060016120a684610c35565b6120b09190612996565b6001600160a01b039093166000908152600660209081526040808320868452825280832085905593825260079052919091209190915550565b6120f483838361217f565b6106f7576001600160a01b03831661213b576040517f7e2732890000000000000000000000000000000000000000000000000000000081526004810182905260240161074d565b6040517f177e802f0000000000000000000000000000000000000000000000000000000081526001600160a01b03831660048201526024810182905260440161074d565b60006001600160a01b038316158015906114ec5750826001600160a01b0316846001600160a01b031614806121d957506001600160a01b0380851660009081526005602090815260408083209387168352929052205460ff165b806114ec5750506000908152600460205260409020546001600160a01b03908116911614919050565b7fffffffff0000000000000000000000000000000000000000000000000000000081168114610f3157600080fd5b60006020828403121561224257600080fd5b813561224d81612202565b9392505050565b60005b8381101561226f578181015183820152602001612257565b50506000910152565b60008151808452612290816020860160208601612254565b601f017fffffffffffffffffffffffffffffffffffffffffffffffffffffffffffffffe0169290920160200192915050565b60208152600061224d6020830184612278565b6000602082840312156122e757600080fd5b5035919050565b80356001600160a01b038116811461230557600080fd5b919050565b6000806040838503121561231d57600080fd5b612326836122ee565b946020939093013593505050565b60008060006060848603121561234957600080fd5b612352846122ee565b9250612360602085016122ee565b9150604084013590509250925092565b7f4e487b7100000000000000000000000000000000000000000000000000000000600052604160045260246000fd5b600067ffffffffffffffff808411156123ba576123ba612370565b604051601f85017fffffffffffffffffffffffffffffffffffffffffffffffffffffffffffffffe0908116603f0116810190828211818310171561240057612400612370565b8160405280935085815286868601111561241957600080fd5b858560208301376000602087830101525050509392505050565b60006020828403121561244557600080fd5b813567ffffffffffffffff81111561245c57600080fd5b8201601f8101841361246d57600080fd5b6114ec8482356020840161239f565b60006020828403121561248e57600080fd5b61224d826122ee565b600080604083850312156124aa57600080fd5b6124b3836122ee565b9150602083013580151581146124c857600080fd5b809150509250929050565b600080600080608085870312156124e957600080fd5b6124f2856122ee565b9350612500602086016122ee565b925060408501359150606085013567ffffffffffffffff81111561252357600080fd5b8501601f8101871361253457600080fd5b6125438782356020840161239f565b91505092959194509250565b600060208083016020845280855180835260408601915060408160051b87010192506020870160005b828110156125c4577fffffffffffffffffffffffffffffffffffffffffffffffffffffffffffffffc08886030184526125b2858351612278565b94509285019290850190600101612578565b5092979650505050505050565b600080604083850312156125e457600080fd5b6125ed836122ee565b91506125fb602084016122ee565b90509250929050565b600181811c9082168061261857607f821691505b6020821081036108e9577f4e487b7100000000000000000000000000000000000000000000000000000000600052602260045260246000fd5b7f4e487b7100000000000000000000000000000000000000000000000000000000600052602160045260246000fd5b7f4e487b7100000000000000000000000000000000000000000000000000000000600052603260045260246000fd5b601f8211156106f7576000816000526020600020601f850160051c810160208610156126d85750805b601f850160051c820191505b818110156126f7578281556001016126e4565b505050505050565b815167ffffffffffffffff81111561271957612719612370565b61272d816127278454612604565b846126af565b602080601f831160018114612780576000841561274a5750858301515b7fffffffffffffffffffffffffffffffffffffffffffffffffffffffffffffffff600386901b1c1916600185901b1785556126f7565b6000858152602081207fffffffffffffffffffffffffffffffffffffffffffffffffffffffffffffffe08616915b828110156127cd578886015182559484019460019091019084016127ae565b508582101561280957878501517fffffffffffffffffffffffffffffffffffffffffffffffffffffffffffffffff600388901b60f8161c191681555b5050505050600190811b01905550565b7f4e487b7100000000000000000000000000000000000000000000000000000000600052601160045260246000fd5b8082018082111561061357610613612819565b600080855461286981612604565b6001828116801561288157600181146128b4576128e3565b7fffffffffffffffffffffffffffffffffffffffffffffffffffffffffffffff00841687528215158302870194506128e3565b8960005260208060002060005b858110156128da5781548a8201529084019082016128c1565b50505082870194505b5050505084516128f7818360208901612254565b7f2f0000000000000000000000000000000000000000000000000000000000000091019081528351612930816001840160208801612254565b0160010195945050505050565b60006001600160a01b0380871683528086166020840152508360408301526080606083015261296f6080830184612278565b9695505050505050565b60006020828403121561298b57600080fd5b815161224d81612202565b8181038181111561061357610613612819565b7f4e487b7100000000000000000000000000000000000000000000000000000000600052603160045260246000fdfea164736f6c6343000817000a","linkReferences":{}},"methodIdentifiers":{"approve(address,uint256)":"095ea7b3","balanceOf(address)":"70a08231","baseURI()":"6c0360eb","burn(uint256)":"42966c68","fundsReceiverAddress()":"d9f76f31","getAllTokensVersion()":"c87abd7b","getApproved(uint256)":"081812fc","getTokenVersion(uint256)":"3b54f406","isApprovedForAll(address,address)":"e985e9c5","mint(address,uint256)":"40c10f19","minterContractAddress()":"0dab46fe","name()":"06fdde03","owner()":"8da5cb5b","ownerOf(uint256)":"6352211e","refreshToken(uint256)":"809b8fad","refreshTokenPrice()":"cf418859","renounceOwnership()":"715018a6","safeTransferFrom(address,address,uint256)":"42842e0e","safeTransferFrom(address,address,uint256,bytes)":"b88d4fde","setApprovalForAll(address,bool)":"a22cb465","setBaseURI(string)":"55f804b3","setFundsReceiverAddress(address)":"ae8e3d2f","setMinterContractAddress(address)":"b0526aca","setRefreshTokenPrice(uint256)":"7e5c3f29","supportsInterface(bytes4)":"01ffc9a7","symbol()":"95d89b41","tokenByIndex(uint256)":"4f6ccce7","tokenOfOwnerByIndex(address,uint256)":"2f745c59","tokenURI(uint256)":"c87b56dd","totalSupply()":"18160ddd","transferFrom(address,address,uint256)":"23b872dd","transferOwnership(address)":"f2fde38b"},"id":50}