{"abi":[{"type":"constructor","inputs":[{"name":"_initialOwner","type":"address","internalType":"address"},{"name":"_glitchAddress","type":"address","internalType":"address"},{"name":"_treasuryWallet","type":"address","internalType":"address"}],"stateMutability":"nonpayable"},{"type":"function","name":"MAX_TOP_BIDS","inputs":[],"outputs":[{"name":"","type":"uint256","internalType":"uint256"}],"stateMutability":"view"},{"type":"function","name":"adminMintRemaining","inputs":[{"name":"_recipient","type":"address","internalType":"address"}],"outputs":[],"stateMutability":"nonpayable"},{"type":"function","name":"bid","inputs":[{"name":"_bidAmount","type":"uint256","internalType":"uint256"},{"name":"_merkleProof","type":"bytes32[]","internalType":"bytes32[]"}],"outputs":[],"stateMutability":"payable"},{"type":"function","name":"bidBalances","inputs":[{"name":"bidder","type":"address","internalType":"address"}],"outputs":[{"name":"balance","type":"uint256","internalType":"uint256"}],"stateMutability":"view"},{"type":"function","name":"checkMerkleProof","inputs":[{"name":"_merkleProof","type":"bytes32[]","internalType":"bytes32[]"},{"name":"_address","type":"address","internalType":"address"},{"name":"_root","type":"bytes32","internalType":"bytes32"}],"outputs":[{"name":"","type":"bool","internalType":"bool"}],"stateMutability":"pure"},{"type":"function","name":"claimAll","inputs":[{"name":"_to","type":"address","internalType":"address"}],"outputs":[],"stateMutability":"nonpayable"},{"type":"function","name":"claimed","inputs":[{"name":"bidder","type":"address","internalType":"address"}],"outputs":[{"name":"isClaimed","type":"bool","internalType":"bool"}],"stateMutability":"view"},{"type":"function","name":"firstTierMerkleRoot","inputs":[],"outputs":[{"name":"","type":"bytes32","internalType":"bytes32"}],"stateMutability":"view"},{"type":"function","name":"forceRefund","inputs":[{"name":"_to","type":"address","internalType":"address"}],"outputs":[],"stateMutability":"nonpayable"},{"type":"function","name":"getConfig","inputs":[],"outputs":[{"name":"","type":"tuple","internalType":"struct GlitchAuction.Config","components":[{"name":"startTime","type":"uint256","internalType":"uint256"},{"name":"endTime","type":"uint256","internalType":"uint256"},{"name":"minBidIncrementInWei","type":"uint256","internalType":"uint256"},{"name":"startAmountInWei","type":"uint256","internalType":"uint256"}]}],"stateMutability":"view"},{"type":"function","name":"getMinimumBid","inputs":[],"outputs":[{"name":"","type":"uint256","internalType":"uint256"}],"stateMutability":"view"},{"type":"function","name":"getSettledPrice","inputs":[],"outputs":[{"name":"","type":"uint256","internalType":"uint256"}],"stateMutability":"view"},{"type":"function","name":"getSettledPriceWithDiscount","inputs":[{"name":"_discountType","type":"uint8","internalType":"enum GlitchAuction.DiscountType"}],"outputs":[{"name":"","type":"uint256","internalType":"uint256"}],"stateMutability":"view"},{"type":"function","name":"getTopBids","inputs":[],"outputs":[{"name":"","type":"tuple[50]","internalType":"struct GlitchAuction.Bid[50]","components":[{"name":"bidder","type":"address","internalType":"address"},{"name":"amount","type":"uint256","internalType":"uint256"},{"name":"discountType","type":"uint8","internalType":"enum GlitchAuction.DiscountType"}]}],"stateMutability":"view"},{"type":"function","name":"glitchAddress","inputs":[],"outputs":[{"name":"","type":"address","internalType":"contract IGlitch"}],"stateMutability":"view"},{"type":"function","name":"owner","inputs":[],"outputs":[{"name":"","type":"address","internalType":"address"}],"stateMutability":"view"},{"type":"function","name":"pause","inputs":[],"outputs":[],"stateMutability":"nonpayable"},{"type":"function","name":"paused","inputs":[],"outputs":[{"name":"","type":"bool","internalType":"bool"}],"stateMutability":"view"},{"type":"function","name":"renounceOwnership","inputs":[],"outputs":[],"stateMutability":"nonpayable"},{"type":"function","name":"setConfig","inputs":[{"name":"_startTime","type":"uint256","internalType":"uint256"},{"name":"_endTime","type":"uint256","internalType":"uint256"},{"name":"_minBidIncrementInWei","type":"uint256","internalType":"uint256"},{"name":"_startAmountInWei","type":"uint256","internalType":"uint256"}],"outputs":[],"stateMutability":"nonpayable"},{"type":"function","name":"setGlitchAddress","inputs":[{"name":"_glitchAddress","type":"address","internalType":"address"}],"outputs":[],"stateMutability":"nonpayable"},{"type":"function","name":"setMerkleRoots","inputs":[{"name":"_firstTierRoot","type":"bytes32","internalType":"bytes32"}],"outputs":[],"stateMutability":"nonpayable"},{"type":"function","name":"setTreasuryWallet","inputs":[{"name":"_newWallet","type":"address","internalType":"address"}],"outputs":[],"stateMutability":"nonpayable"},{"type":"function","name":"topBids","inputs":[{"name":"","type":"uint256","internalType":"uint256"}],"outputs":[{"name":"bidder","type":"address","internalType":"address"},{"name":"amount","type":"uint256","internalType":"uint256"},{"name":"discountType","type":"uint8","internalType":"enum GlitchAuction.DiscountType"}],"stateMutability":"view"},{"type":"function","name":"transferOwnership","inputs":[{"name":"newOwner","type":"address","internalType":"address"}],"outputs":[],"stateMutability":"nonpayable"},{"type":"function","name":"treasuryWallet","inputs":[],"outputs":[{"name":"","type":"address","internalType":"address payable"}],"stateMutability":"view"},{"type":"function","name":"unpause","inputs":[],"outputs":[],"stateMutability":"nonpayable"},{"type":"function","name":"withdraw","inputs":[],"outputs":[],"stateMutability":"nonpayable"},{"type":"function","name":"withdrawn","inputs":[],"outputs":[{"name":"","type":"bool","internalType":"bool"}],"stateMutability":"view"},{"type":"event","name":"BidPlaced","inputs":[{"name":"bidder","type":"address","indexed":true,"internalType":"address"},{"name":"amount","type":"uint256","indexed":false,"internalType":"uint256"}],"anonymous":false},{"type":"event","name":"Claimed","inputs":[{"name":"to","type":"address","indexed":true,"internalType":"address"},{"name":"nftAmount","type":"uint256","indexed":false,"internalType":"uint256"},{"name":"refundAmount","type":"uint256","indexed":false,"internalType":"uint256"}],"anonymous":false},{"type":"event","name":"Outbidded","inputs":[{"name":"bidder","type":"address","indexed":true,"internalType":"address"},{"name":"amount","type":"uint256","indexed":false,"internalType":"uint256"},{"name":"lastBidPosition","type":"uint256","indexed":false,"internalType":"uint256"}],"anonymous":false},{"type":"event","name":"OwnershipTransferred","inputs":[{"name":"previousOwner","type":"address","indexed":true,"internalType":"address"},{"name":"newOwner","type":"address","indexed":true,"internalType":"address"}],"anonymous":false},{"type":"event","name":"Paused","inputs":[{"name":"account","type":"address","indexed":false,"internalType":"address"}],"anonymous":false},{"type":"event","name":"Unpaused","inputs":[{"name":"account","type":"address","indexed":false,"internalType":"address"}],"anonymous":false},{"type":"error","name":"AddressInsufficientBalance","inputs":[{"name":"account","type":"address","internalType":"address"}]},{"type":"error","name":"AlreadyClaimed","inputs":[]},{"type":"error","name":"AuctionNotEnded","inputs":[]},{"type":"error","name":"BidDoesNotQualifyForTopBids","inputs":[]},{"type":"error","name":"BidTooLow","inputs":[]},{"type":"error","name":"ConfigNotSet","inputs":[]},{"type":"error","name":"EnforcedPause","inputs":[]},{"type":"error","name":"ExpectedPause","inputs":[]},{"type":"error","name":"FailedInnerCall","inputs":[]},{"type":"error","name":"InsufficientFundsForBid","inputs":[]},{"type":"error","name":"InvalidAddress","inputs":[]},{"type":"error","name":"InvalidAmountInWei","inputs":[]},{"type":"error","name":"InvalidMinBidIncrementValue","inputs":[]},{"type":"error","name":"InvalidStartEndTime","inputs":[{"name":"startTime","type":"uint256","internalType":"uint256"},{"name":"endTime","type":"uint256","internalType":"uint256"}]},{"type":"error","name":"OnlyOwner","inputs":[]},{"type":"error","name":"OwnableInvalidOwner","inputs":[{"name":"owner","type":"address","internalType":"address"}]},{"type":"error","name":"OwnableUnauthorizedAccount","inputs":[{"name":"account","type":"address","internalType":"address"}]},{"type":"error","name":"ReentrancyGuardReentrantCall","inputs":[]},{"type":"error","name":"TransferFailed","inputs":[]}],"bytecode":{"object":"0x60806040523480156200001157600080fd5b50604051620023d6380380620023d683398101604081905262000034916200011e565b826001600160a01b0381166200006457604051631e4fbdf760e01b81526000600482015260240160405180910390fd5b6200006f81620000b1565b50600180556002805460ff19169055600580546001600160a01b039384166001600160a01b031991821617909155600480549290931691161790555062000168565b600080546001600160a01b038381166001600160a01b0319831681178455604051919092169283917f8be0079c531659141344cd1fd0a4f28419497f9722a3daafe3b4186f6b6457e09190a35050565b80516001600160a01b03811681146200011957600080fd5b919050565b6000806000606084860312156200013457600080fd5b6200013f8462000101565b92506200014f6020850162000101565b91506200015f6040850162000101565b90509250925092565b61225e80620001786000396000f3fe6080604052600436106101c15760003560e01c8063715018a6116100f7578063a8602fea11610095578063c884ef8311610064578063c884ef8314610541578063d745f58f14610571578063e5c389cd14610591578063f2fde38b146105b157600080fd5b8063a8602fea14610492578063c3f909d4146104b2578063c5b63600146104fa578063c80ec5221461050f57600080fd5b80638456cb59116100d15780638456cb591461041f5780638da5cb5b1461043457806395d6a3cc1461045f578063a06a5b351461047f57600080fd5b8063715018a6146103d557806377329f35146103ea5780637e907e641461040a57600080fd5b80633f4ba83a1161016457806354f567411161013e57806354f567411461034257806357782419146103645780635c975abb1461038457806367ba5250146103a857600080fd5b80633f4ba83a146102bb5780633fb6c74e146102d05780634626402b146102f057600080fd5b80630d16e28c116101a05780630d16e28c1461025b57806319bcb4cd146102715780632931ec16146102865780633ccfd60b146102a657600080fd5b8062f2a368146101c6578063010d9813146101e8578063031778f914610220575b600080fd5b3480156101d257600080fd5b506101e66101e1366004611e94565b6105d1565b005b3480156101f457600080fd5b50610208610203366004611eaf565b61077b565b60405161021793929190611f32565b60405180910390f35b34801561022c57600080fd5b5061024d61023b366004611e94565b609c6020526000908152604090205481565b604051908152602001610217565b34801561026757600080fd5b5061024d60035481565b34801561027d57600080fd5b5061024d603281565b34801561029257600080fd5b506101e66102a1366004611eaf565b6107bc565b3480156102b257600080fd5b506101e66107c9565b3480156102c757600080fd5b506101e66109fe565b3480156102dc57600080fd5b506101e66102eb366004611e94565b610a0e565b3480156102fc57600080fd5b5060045461031d9073ffffffffffffffffffffffffffffffffffffffff1681565b60405173ffffffffffffffffffffffffffffffffffffffff9091168152602001610217565b34801561034e57600080fd5b50610357610abc565b6040516102179190611f63565b34801561037057600080fd5b5061024d61037f366004611fce565b610b62565b34801561039057600080fd5b5060025460ff165b6040519015158152602001610217565b3480156103b457600080fd5b5060055461031d9073ffffffffffffffffffffffffffffffffffffffff1681565b3480156103e157600080fd5b506101e6610bb4565b3480156103f657600080fd5b506101e6610405366004611e94565b610bc6565b34801561041657600080fd5b5061024d610c88565b34801561042b57600080fd5b506101e6610cd1565b34801561044057600080fd5b5060005473ffffffffffffffffffffffffffffffffffffffff1661031d565b34801561046b57600080fd5b5061039861047a366004612034565b610ce1565b6101e661048d366004612090565b610d7c565b34801561049e57600080fd5b506101e66104ad366004611e94565b610ebe565b3480156104be57600080fd5b506104c7610fa3565b60405161021791908151815260208083015190820152604080830151908201526060918201519181019190915260800190565b34801561050657600080fd5b5061024d610ffb565b34801561051b57600080fd5b506004546103989074010000000000000000000000000000000000000000900460ff1681565b34801561054d57600080fd5b5061039861055c366004611e94565b609d6020526000908152604090205460ff1681565b34801561057d57600080fd5b506101e661058c366004611e94565b61104e565b34801561059d57600080fd5b506101e66105ac3660046120dc565b611133565b3480156105bd57600080fd5b506101e66105cc366004611e94565b61127a565b60005473ffffffffffffffffffffffffffffffffffffffff163314610622576040517f5fc483c500000000000000000000000000000000000000000000000000000000815260040160405180910390fd5b609e5460000361065e576040517face124bc00000000000000000000000000000000000000000000000000000000815260040160405180910390fd5b609f544211610699576040517f6463738900000000000000000000000000000000000000000000000000000000815260040160405180910390fd5b60006106a36112db565b905060006106b282600161213d565b90505b60328110156107765760055473ffffffffffffffffffffffffffffffffffffffff166340c10f19846106e884600161213d565b6040517fffffffff0000000000000000000000000000000000000000000000000000000060e085901b16815273ffffffffffffffffffffffffffffffffffffffff90921660048301526024820152604401600060405180830381600087803b15801561075357600080fd5b505af1158015610767573d6000803e3d6000fd5b505050508060010190506106b5565b505050565b6006816032811061078b57600080fd5b600302018054600182015460029092015473ffffffffffffffffffffffffffffffffffffffff909116925060ff1683565b6107c4611335565b600355565b60005473ffffffffffffffffffffffffffffffffffffffff16331461081a576040517f5fc483c500000000000000000000000000000000000000000000000000000000815260040160405180910390fd5b610822611388565b609f54421161085d576040517f6463738900000000000000000000000000000000000000000000000000000000815260040160405180910390fd5b60045474010000000000000000000000000000000000000000900460ff16156108b2576040517f646cf55800000000000000000000000000000000000000000000000000000000815260040160405180910390fd5b600480547fffffffffffffffffffffff00ffffffffffffffffffffffffffffffffffffffff1674010000000000000000000000000000000000000000179055600080805b60328110156109925760006006826032811061091457610914612150565b600302015473ffffffffffffffffffffffffffffffffffffffff16146109925760016006826032811061094957610949612150565b600302016002015460ff16600181111561096557610965611ec8565b0361097c57826109748161217f565b93505061098a565b816109868161217f565b9250505b6001016108f6565b506000826109a06001610b62565b6109aa91906121b7565b90506000826109b7610c88565b6109c191906121b7565b90506109ef6109d0828461213d565b60045473ffffffffffffffffffffffffffffffffffffffff16906113cb565b505050506109fc60018055565b565b610a06611335565b6109fc6114a1565b609e54600003610a4a576040517face124bc00000000000000000000000000000000000000000000000000000000815260040160405180910390fd5b60005473ffffffffffffffffffffffffffffffffffffffff163314610a9b576040517f5fc483c500000000000000000000000000000000000000000000000000000000815260040160405180910390fd5b610aa3611388565b610aae81600061151e565b5050610ab960018055565b50565b610ac4611e24565b604080516106408101909152600660326000835b82821015610b595760408051606081018252600384028601805473ffffffffffffffffffffffffffffffffffffffff16825260018082015460208401526002820154929391929184019160ff1690811115610b3557610b35611ec8565b6001811115610b4657610b46611ec8565b8152505081526020019060010190610ad8565b50505050905090565b60006001826001811115610b7857610b78611ec8565b03610bac576064610b8a600f826121ce565b610b92610c88565b610b9c91906121b7565b610ba691906121e1565b92915050565b610ba6610c88565b610bbc611335565b6109fc6000611812565b609e54600003610c02576040517face124bc00000000000000000000000000000000000000000000000000000000815260040160405180910390fd5b610c0a611887565b610c12611388565b600080610c2083600161151e565b915091508273ffffffffffffffffffffffffffffffffffffffff167f987d620f307ff6b94d58743cb7a7509f24071586a77759b77c2d4e29f75a2f9a8383604051610c75929190918252602082015260400190565b60405180910390a25050610ab960018055565b600080610c936112db565b9050600060068260328110610caa57610caa612150565b60030201600101549050609e600301548110610cc65780610cca565b60a1545b9250505090565b610cd9611335565b6109fc6118c4565b6040517fffffffffffffffffffffffffffffffffffffffff000000000000000000000000606084901b1660208201526000908190603401604051602081830303815290604052805190602001209050610d7086868080602002602001604051908101604052809392919081815260200183836020028082843760009201919091525087925085915061191f9050565b9150505b949350505050565b609e54600003610db8576040517face124bc00000000000000000000000000000000000000000000000000000000815260040160405180910390fd5b609f5442101580610dcb5750609e544211155b15610e1657609e54609f546040517f2221fc9c000000000000000000000000000000000000000000000000000000008152600481019290925260248201526044015b60405180910390fd5b610e1e611887565b610e26611388565b610e2e610ffb565b831015610e67576040517fa0d26eb600000000000000000000000000000000000000000000000000000000815260040160405180910390fd5b823414610ea0576040517f4094c8bb00000000000000000000000000000000000000000000000000000000815260040160405180910390fd5b610eb53384610eb0858533611937565b61195e565b61077660018055565b60005473ffffffffffffffffffffffffffffffffffffffff163314610f0f576040517f5fc483c500000000000000000000000000000000000000000000000000000000815260040160405180910390fd5b73ffffffffffffffffffffffffffffffffffffffff8116610f5c576040517fe6c4247b00000000000000000000000000000000000000000000000000000000815260040160405180910390fd5b600480547fffffffffffffffffffffffff00000000000000000000000000000000000000001673ffffffffffffffffffffffffffffffffffffffff92909216919091179055565b610fce6040518060800160405280600081526020016000815260200160008152602001600081525090565b5060408051608081018252609e548152609f54602082015260a0549181019190915260a154606082015290565b600080600661100c600160326121ce565b6032811061101c5761101c612150565b60030201600101549050609e6003015481106110445760a05461103f908261213d565b611048565b60a1545b91505090565b60005473ffffffffffffffffffffffffffffffffffffffff16331461109f576040517f5fc483c500000000000000000000000000000000000000000000000000000000815260040160405180910390fd5b73ffffffffffffffffffffffffffffffffffffffff81166110ec576040517fe6c4247b00000000000000000000000000000000000000000000000000000000815260040160405180910390fd5b600580547fffffffffffffffffffffffff00000000000000000000000000000000000000001673ffffffffffffffffffffffffffffffffffffffff92909216919091179055565b60005473ffffffffffffffffffffffffffffffffffffffff163314611184576040517f5fc483c500000000000000000000000000000000000000000000000000000000815260040160405180910390fd5b8315806111915750828410155b156111d2576040517f2221fc9c0000000000000000000000000000000000000000000000000000000081526004810185905260248101849052604401610e0d565b8060000361120c576040517fee99522400000000000000000000000000000000000000000000000000000000815260040160405180910390fd5b81600003611246576040517fb0fd644300000000000000000000000000000000000000000000000000000000815260040160405180910390fd5b6040805160808101825285815260208101859052908101839052606001819052609e93909355609f9190915560a05560a155565b611282611335565b73ffffffffffffffffffffffffffffffffffffffff81166112d2576040517f1e4fbdf700000000000000000000000000000000000000000000000000000000815260006004820152602401610e0d565b610ab981611812565b60325b600081118015611312575060066112f66001836121ce565b6032811061130657611306612150565b60030201600101546000145b15611327576113208161221c565b90506112de565b6113308161221c565b905090565b60005473ffffffffffffffffffffffffffffffffffffffff1633146109fc576040517f118cdaa7000000000000000000000000000000000000000000000000000000008152336004820152602401610e0d565b6002600154036113c4576040517f3ee5aeb500000000000000000000000000000000000000000000000000000000815260040160405180910390fd5b6002600155565b80471015611407576040517fcd786059000000000000000000000000000000000000000000000000000000008152306004820152602401610e0d565b60008273ffffffffffffffffffffffffffffffffffffffff168260405160006040518083038185875af1925050503d8060008114611461576040519150601f19603f3d011682016040523d82523d6000602084013e611466565b606091505b5050905080610776576040517f1425ea4200000000000000000000000000000000000000000000000000000000815260040160405180910390fd5b6114a9611d79565b600280547fffffffffffffffffffffffffffffffffffffffffffffffffffffffffffffff001690557f5db9ee0a495bf2e6ff9c91a7834c1ba4fdd244a5e8aa4e537bd38aeae4b073aa335b60405173ffffffffffffffffffffffffffffffffffffffff909116815260200160405180910390a1565b600080609e60010154421161155f576040517f6463738900000000000000000000000000000000000000000000000000000000815260040160405180910390fd5b73ffffffffffffffffffffffffffffffffffffffff84166000908152609d602052604090205460ff16156115bf576040517f646cf55800000000000000000000000000000000000000000000000000000000815260040160405180910390fd5b73ffffffffffffffffffffffffffffffffffffffff84166000908152609c6020908152604080832054609d909252822080547fffffffffffffffffffffffffffffffffffffffffffffffffffffffffffffff00166001179055815b60328110156117b5578673ffffffffffffffffffffffffffffffffffffffff166006826032811061164d5761164d612150565b600302015473ffffffffffffffffffffffffffffffffffffffff16036117ad5785156117215760055473ffffffffffffffffffffffffffffffffffffffff166340c10f198861169d84600161213d565b6040517fffffffff0000000000000000000000000000000000000000000000000000000060e085901b16815273ffffffffffffffffffffffffffffffffffffffff90921660048301526024820152604401600060405180830381600087803b15801561170857600080fd5b505af115801561171c573d6000803e3d6000fd5b505050505b8461172b8161217f565b9550506006816032811061174157611741612150565b600302016001015484611754919061213d565b935060006006826032811061176b5761176b612150565b600302016002015460ff16600181111561178757611787611ec8565b146117ad576006816032811061179f5761179f612150565b600302016002015460ff1692505b60010161161a565b5060006117c183610b62565b6117cb90866121b7565b6117d590856121ce565b6117df908361213d565b905080156118075761180773ffffffffffffffffffffffffffffffffffffffff8816826113cb565b5050505b9250929050565b6000805473ffffffffffffffffffffffffffffffffffffffff8381167fffffffffffffffffffffffff0000000000000000000000000000000000000000831681178455604051919092169283917f8be0079c531659141344cd1fd0a4f28419497f9722a3daafe3b4186f6b6457e09190a35050565b60025460ff16156109fc576040517fd93c066500000000000000000000000000000000000000000000000000000000815260040160405180910390fd5b6118cc611887565b600280547fffffffffffffffffffffffffffffffffffffffffffffffffffffffffffffff001660011790557f62e78cea01bee320cd4e420270b5ea74000d11b0c9f74754ebdbfc544b05a2586114f43390565b60008261192c8584611db5565b1490505b9392505050565b6000611947848484600354610ce1565b1561195457506001611930565b5060009392505050565b60005b60328110801561198b5750826006826032811061198057611980612150565b600302016001015410155b1561199857600101611961565b603281106119d2576040517ff8f9b73800000000000000000000000000000000000000000000000000000000815260040160405180910390fd5b600060066119e2600160326121ce565b603281106119f2576119f2612150565b6040805160608101825260039290920292909201805473ffffffffffffffffffffffffffffffffffffffff16825260018082015460208401526002820154929391929184019160ff1690811115611a4b57611a4b611ec8565b6001811115611a5c57611a5c611ec8565b905250805190915073ffffffffffffffffffffffffffffffffffffffff1615611b4057806000015173ffffffffffffffffffffffffffffffffffffffff167fa2cff9008d30bf3adae9404caec9ac9706b134b383d4c7868f2c0b557d2e3af3826020015184604051611ad8929190918252602082015260400190565b60405180910390a2602080820151825173ffffffffffffffffffffffffffffffffffffffff166000908152609c909252604090912054611b18919061213d565b815173ffffffffffffffffffffffffffffffffffffffff166000908152609c60205260409020555b6000611b4e600160326121ce565b90505b82811115611c47576006611b666001836121ce565b60328110611b7657611b76612150565b6003020160068260328110611b8d57611b8d612150565b82546003919091029190910180547fffffffffffffffffffffffff00000000000000000000000000000000000000001673ffffffffffffffffffffffffffffffffffffffff90921691909117815560018083015481830155600280840154908301805460ff9092169290917fffffffffffffffffffffffffffffffffffffffffffffffffffffffffffffff0016908381811115611c2c57611c2c611ec8565b02179055509050508080611c3f9061221c565b915050611b51565b508473ffffffffffffffffffffffffffffffffffffffff167f3fabff0a9c3ecd6814702e247fa9733e5d0aa69e3a38590f92cb18f623a2254d85604051611c9091815260200190565b60405180910390a260405180606001604052808673ffffffffffffffffffffffffffffffffffffffff168152602001858152602001846001811115611cd757611cd7611ec8565b905260068360328110611cec57611cec612150565b6003020160008201518160000160006101000a81548173ffffffffffffffffffffffffffffffffffffffff021916908373ffffffffffffffffffffffffffffffffffffffff1602179055506020820151816001015560408201518160020160006101000a81548160ff02191690836001811115611d6b57611d6b611ec8565b021790555050505050505050565b60025460ff166109fc576040517f8dfc202b00000000000000000000000000000000000000000000000000000000815260040160405180910390fd5b600081815b8451811015611df057611de682868381518110611dd957611dd9612150565b6020026020010151611df8565b9150600101611dba565b509392505050565b6000818310611e14576000828152602084905260409020611930565b5060009182526020526040902090565b6040518061064001604052806032905b611e5560408051606081018252600080825260208201819052909182015290565b815260200190600190039081611e345790505090565b803573ffffffffffffffffffffffffffffffffffffffff81168114611e8f57600080fd5b919050565b600060208284031215611ea657600080fd5b61193082611e6b565b600060208284031215611ec157600080fd5b5035919050565b7f4e487b7100000000000000000000000000000000000000000000000000000000600052602160045260246000fd5b60028110611f2e577f4e487b7100000000000000000000000000000000000000000000000000000000600052602160045260246000fd5b9052565b73ffffffffffffffffffffffffffffffffffffffff841681526020810183905260608101610d746040830184611ef7565b6112c08101818360005b6032811015611fc5578151805173ffffffffffffffffffffffffffffffffffffffff1684526020808201518186015260409182015191611faf81870184611ef7565b5060609490940193929092019150600101611f6d565b50505092915050565b600060208284031215611fe057600080fd5b81356002811061193057600080fd5b60008083601f84011261200157600080fd5b50813567ffffffffffffffff81111561201957600080fd5b6020830191508360208260051b850101111561180b57600080fd5b6000806000806060858703121561204a57600080fd5b843567ffffffffffffffff81111561206157600080fd5b61206d87828801611fef565b9095509350612080905060208601611e6b565b9396929550929360400135925050565b6000806000604084860312156120a557600080fd5b83359250602084013567ffffffffffffffff8111156120c357600080fd5b6120cf86828701611fef565b9497909650939450505050565b600080600080608085870312156120f257600080fd5b5050823594602084013594506040840135936060013592509050565b7f4e487b7100000000000000000000000000000000000000000000000000000000600052601160045260246000fd5b80820180821115610ba657610ba661210e565b7f4e487b7100000000000000000000000000000000000000000000000000000000600052603260045260246000fd5b60007fffffffffffffffffffffffffffffffffffffffffffffffffffffffffffffffff82036121b0576121b061210e565b5060010190565b8082028115828204841417610ba657610ba661210e565b81810381811115610ba657610ba661210e565b600082612217577f4e487b7100000000000000000000000000000000000000000000000000000000600052601260045260246000fd5b500490565b60008161222b5761222b61210e565b507fffffffffffffffffffffffffffffffffffffffffffffffffffffffffffffffff019056fea164736f6c6343000817000a","linkReferences":{}},"methodIdentifiers":{"MAX_TOP_BIDS()":"19bcb4cd","adminMintRemaining(address)":"00f2a368","bid(uint256,bytes32[])":"a06a5b35","bidBalances(address)":"031778f9","checkMerkleProof(bytes32[],address,bytes32)":"95d6a3cc","claimAll(address)":"77329f35","claimed(address)":"c884ef83","firstTierMerkleRoot()":"0d16e28c","forceRefund(address)":"3fb6c74e","getConfig()":"c3f909d4","getMinimumBid()":"c5b63600","getSettledPrice()":"7e907e64","getSettledPriceWithDiscount(uint8)":"57782419","getTopBids()":"54f56741","glitchAddress()":"67ba5250","owner()":"8da5cb5b","pause()":"8456cb59","paused()":"5c975abb","renounceOwnership()":"715018a6","setConfig(uint256,uint256,uint256,uint256)":"e5c389cd","setGlitchAddress(address)":"d745f58f","setMerkleRoots(bytes32)":"2931ec16","setTreasuryWallet(address)":"a8602fea","topBids(uint256)":"010d9813","transferOwnership(address)":"f2fde38b","treasuryWallet()":"4626402b","unpause()":"3f4ba83a","withdraw()":"3ccfd60b","withdrawn()":"c80ec522"},"id":52}