{"abi":[{"type":"constructor","inputs":[{"name":"initialOwner","type":"address","internalType":"address"},{"name":"_minterContractAddress","type":"address","internalType":"address"},{"name":"_baseUri","type":"string","internalType":"string"}],"stateMutability":"nonpayable"},{"type":"function","name":"approve","inputs":[{"name":"to","type":"address","internalType":"address"},{"name":"tokenId","type":"uint256","internalType":"uint256"}],"outputs":[],"stateMutability":"nonpayable"},{"type":"function","name":"balanceOf","inputs":[{"name":"owner","type":"address","internalType":"address"}],"outputs":[{"name":"","type":"uint256","internalType":"uint256"}],"stateMutability":"view"},{"type":"function","name":"burnToReedem","inputs":[{"name":"_tokenId","type":"uint256","internalType":"uint256"},{"name":"_givenCode","type":"uint256","internalType":"uint256"}],"outputs":[],"stateMutability":"nonpayable"},{"type":"function","name":"fundsReceiverAddress","inputs":[],"outputs":[{"name":"","type":"address","internalType":"address payable"}],"stateMutability":"view"},{"type":"function","name":"getAllTokensVersion","inputs":[],"outputs":[{"name":"versions","type":"string[]","internalType":"string[]"}],"stateMutability":"view"},{"type":"function","name":"getApproved","inputs":[{"name":"tokenId","type":"uint256","internalType":"uint256"}],"outputs":[{"name":"","type":"address","internalType":"address"}],"stateMutability":"view"},{"type":"function","name":"getTokenVersion","inputs":[{"name":"tokenId","type":"uint256","internalType":"uint256"}],"outputs":[{"name":"versionStr","type":"string","internalType":"string"}],"stateMutability":"view"},{"type":"function","name":"isApprovedForAll","inputs":[{"name":"owner","type":"address","internalType":"address"},{"name":"operator","type":"address","internalType":"address"}],"outputs":[{"name":"","type":"bool","internalType":"bool"}],"stateMutability":"view"},{"type":"function","name":"mint","inputs":[{"name":"recipient","type":"address","internalType":"address"},{"name":"_id","type":"uint256","internalType":"uint256"}],"outputs":[],"stateMutability":"nonpayable"},{"type":"function","name":"minterContractAddress","inputs":[],"outputs":[{"name":"","type":"address","internalType":"address"}],"stateMutability":"view"},{"type":"function","name":"name","inputs":[],"outputs":[{"name":"","type":"string","internalType":"string"}],"stateMutability":"view"},{"type":"function","name":"owner","inputs":[],"outputs":[{"name":"","type":"address","internalType":"address"}],"stateMutability":"view"},{"type":"function","name":"ownerOf","inputs":[{"name":"tokenId","type":"uint256","internalType":"uint256"}],"outputs":[{"name":"","type":"address","internalType":"address"}],"stateMutability":"view"},{"type":"function","name":"refreshToken","inputs":[{"name":"_tokenId","type":"uint256","internalType":"uint256"}],"outputs":[],"stateMutability":"payable"},{"type":"function","name":"refreshTokenPrice","inputs":[],"outputs":[{"name":"","type":"uint256","internalType":"uint256"}],"stateMutability":"view"},{"type":"function","name":"renounceOwnership","inputs":[],"outputs":[],"stateMutability":"nonpayable"},{"type":"function","name":"safeTransferFrom","inputs":[{"name":"from","type":"address","internalType":"address"},{"name":"to","type":"address","internalType":"address"},{"name":"tokenId","type":"uint256","internalType":"uint256"}],"outputs":[],"stateMutability":"nonpayable"},{"type":"function","name":"safeTransferFrom","inputs":[{"name":"from","type":"address","internalType":"address"},{"name":"to","type":"address","internalType":"address"},{"name":"tokenId","type":"uint256","internalType":"uint256"},{"name":"data","type":"bytes","internalType":"bytes"}],"outputs":[],"stateMutability":"nonpayable"},{"type":"function","name":"setApprovalForAll","inputs":[{"name":"operator","type":"address","internalType":"address"},{"name":"approved","type":"bool","internalType":"bool"}],"outputs":[],"stateMutability":"nonpayable"},{"type":"function","name":"setBaseURI","inputs":[{"name":"newBaseURI","type":"string","internalType":"string"}],"outputs":[],"stateMutability":"nonpayable"},{"type":"function","name":"setFundsReceiverAddress","inputs":[{"name":"newFundsReceiverAddress","type":"address","internalType":"address"}],"outputs":[],"stateMutability":"nonpayable"},{"type":"function","name":"setMinterContractAddress","inputs":[{"name":"newMinterContractAddress","type":"address","internalType":"address"}],"outputs":[],"stateMutability":"nonpayable"},{"type":"function","name":"setRefreshTokenPrice","inputs":[{"name":"newRefreshTokenPriceInWei","type":"uint256","internalType":"uint256"}],"outputs":[],"stateMutability":"nonpayable"},{"type":"function","name":"supportsInterface","inputs":[{"name":"interfaceId","type":"bytes4","internalType":"bytes4"}],"outputs":[{"name":"","type":"bool","internalType":"bool"}],"stateMutability":"view"},{"type":"function","name":"symbol","inputs":[],"outputs":[{"name":"","type":"string","internalType":"string"}],"stateMutability":"view"},{"type":"function","name":"tokenByIndex","inputs":[{"name":"index","type":"uint256","internalType":"uint256"}],"outputs":[{"name":"","type":"uint256","internalType":"uint256"}],"stateMutability":"view"},{"type":"function","name":"tokenOfOwnerByIndex","inputs":[{"name":"owner","type":"address","internalType":"address"},{"name":"index","type":"uint256","internalType":"uint256"}],"outputs":[{"name":"","type":"uint256","internalType":"uint256"}],"stateMutability":"view"},{"type":"function","name":"tokenURI","inputs":[{"name":"tokenId","type":"uint256","internalType":"uint256"}],"outputs":[{"name":"","type":"string","internalType":"string"}],"stateMutability":"view"},{"type":"function","name":"totalSupply","inputs":[],"outputs":[{"name":"","type":"uint256","internalType":"uint256"}],"stateMutability":"view"},{"type":"function","name":"transferFrom","inputs":[{"name":"from","type":"address","internalType":"address"},{"name":"to","type":"address","internalType":"address"},{"name":"tokenId","type":"uint256","internalType":"uint256"}],"outputs":[],"stateMutability":"nonpayable"},{"type":"function","name":"transferOwnership","inputs":[{"name":"newOwner","type":"address","internalType":"address"}],"outputs":[],"stateMutability":"nonpayable"},{"type":"event","name":"Approval","inputs":[{"name":"owner","type":"address","indexed":true,"internalType":"address"},{"name":"approved","type":"address","indexed":true,"internalType":"address"},{"name":"tokenId","type":"uint256","indexed":true,"internalType":"uint256"}],"anonymous":false},{"type":"event","name":"ApprovalForAll","inputs":[{"name":"owner","type":"address","indexed":true,"internalType":"address"},{"name":"operator","type":"address","indexed":true,"internalType":"address"},{"name":"approved","type":"bool","indexed":false,"internalType":"bool"}],"anonymous":false},{"type":"event","name":"BatchMetadataUpdate","inputs":[{"name":"_fromTokenId","type":"uint256","indexed":false,"internalType":"uint256"},{"name":"_toTokenId","type":"uint256","indexed":false,"internalType":"uint256"}],"anonymous":false},{"type":"event","name":"Burned","inputs":[{"name":"tokenOwner","type":"address","indexed":true,"internalType":"address"},{"name":"tokenId","type":"uint256","indexed":true,"internalType":"uint256"},{"name":"givenCode","type":"uint256","indexed":true,"internalType":"uint256"}],"anonymous":false},{"type":"event","name":"MetadataUpdate","inputs":[{"name":"_tokenId","type":"uint256","indexed":false,"internalType":"uint256"}],"anonymous":false},{"type":"event","name":"Minted","inputs":[{"name":"recipient","type":"address","indexed":true,"internalType":"address"},{"name":"tokenId","type":"uint256","indexed":true,"internalType":"uint256"}],"anonymous":false},{"type":"event","name":"OwnershipTransferred","inputs":[{"name":"previousOwner","type":"address","indexed":true,"internalType":"address"},{"name":"newOwner","type":"address","indexed":true,"internalType":"address"}],"anonymous":false},{"type":"event","name":"TokenRefreshed","inputs":[{"name":"tokenId","type":"uint256","indexed":true,"internalType":"uint256"},{"name":"refresherAddress","type":"address","indexed":false,"internalType":"address"}],"anonymous":false},{"type":"event","name":"Transfer","inputs":[{"name":"from","type":"address","indexed":true,"internalType":"address"},{"name":"to","type":"address","indexed":true,"internalType":"address"},{"name":"tokenId","type":"uint256","indexed":true,"internalType":"uint256"}],"anonymous":false},{"type":"error","name":"AddressInsufficientBalance","inputs":[{"name":"account","type":"address","internalType":"address"}]},{"type":"error","name":"ERC721EnumerableForbiddenBatchMint","inputs":[]},{"type":"error","name":"ERC721IncorrectOwner","inputs":[{"name":"sender","type":"address","internalType":"address"},{"name":"tokenId","type":"uint256","internalType":"uint256"},{"name":"owner","type":"address","internalType":"address"}]},{"type":"error","name":"ERC721InsufficientApproval","inputs":[{"name":"operator","type":"address","internalType":"address"},{"name":"tokenId","type":"uint256","internalType":"uint256"}]},{"type":"error","name":"ERC721InvalidApprover","inputs":[{"name":"approver","type":"address","internalType":"address"}]},{"type":"error","name":"ERC721InvalidOperator","inputs":[{"name":"operator","type":"address","internalType":"address"}]},{"type":"error","name":"ERC721InvalidOwner","inputs":[{"name":"owner","type":"address","internalType":"address"}]},{"type":"error","name":"ERC721InvalidReceiver","inputs":[{"name":"receiver","type":"address","internalType":"address"}]},{"type":"error","name":"ERC721InvalidSender","inputs":[{"name":"sender","type":"address","internalType":"address"}]},{"type":"error","name":"ERC721NonexistentToken","inputs":[{"name":"tokenId","type":"uint256","internalType":"uint256"}]},{"type":"error","name":"ERC721OutOfBoundsIndex","inputs":[{"name":"owner","type":"address","internalType":"address"},{"name":"index","type":"uint256","internalType":"uint256"}]},{"type":"error","name":"FailedInnerCall","inputs":[]},{"type":"error","name":"IdOutOfBounds","inputs":[]},{"type":"error","name":"InvalidPrice","inputs":[]},{"type":"error","name":"NotEnoughETH","inputs":[]},{"type":"error","name":"OnlyMinter","inputs":[]},{"type":"error","name":"OnlyOwner","inputs":[]},{"type":"error","name":"OnlyTokenOwner","inputs":[]},{"type":"error","name":"OwnableInvalidOwner","inputs":[{"name":"owner","type":"address","internalType":"address"}]},{"type":"error","name":"OwnableUnauthorizedAccount","inputs":[{"name":"account","type":"address","internalType":"address"}]},{"type":"error","name":"ReentrancyGuardReentrantCall","inputs":[]},{"type":"error","name":"ZeroAddress","inputs":[]}],"bytecode":{"object":"0x60806040526658d15e17628000600e553480156200001c57600080fd5b5060405162002ce138038062002ce18339810160408190526200003f91620001c2565b826040518060400160405280601981526020017f676c69746368206279206d6973686120646520726964646572000000000000008152506040518060400160405280600681526020016508e9892a886960d31b8152508160009081620000a691906200034d565b506001620000b582826200034d565b5050506001600160a01b038116620000e757604051631e4fbdf760e01b81526000600482015260240160405180910390fd5b620000f2816200013d565b506001600c55600d6200010682826200034d565b5050600f80546001600160a01b039283166001600160a01b0319918216179091556010805493909216921691909117905562000419565b600b80546001600160a01b038381166001600160a01b0319831681179093556040519116919082907f8be0079c531659141344cd1fd0a4f28419497f9722a3daafe3b4186f6b6457e090600090a35050565b80516001600160a01b0381168114620001a757600080fd5b919050565b634e487b7160e01b600052604160045260246000fd5b600080600060608486031215620001d857600080fd5b620001e3846200018f565b92506020620001f48186016200018f565b60408601519093506001600160401b03808211156200021257600080fd5b818701915087601f8301126200022757600080fd5b8151818111156200023c576200023c620001ac565b604051601f8201601f19908116603f01168101908382118183101715620002675762000267620001ac565b816040528281528a868487010111156200028057600080fd5b600093505b82841015620002a4578484018601518185018701529285019262000285565b60008684830101528096505050505050509250925092565b600181811c90821680620002d157607f821691505b602082108103620002f257634e487b7160e01b600052602260045260246000fd5b50919050565b601f82111562000348576000816000526020600020601f850160051c81016020861015620003235750805b601f850160051c820191505b8181101562000344578281556001016200032f565b5050505b505050565b81516001600160401b03811115620003695762000369620001ac565b62000381816200037a8454620002bc565b84620002f8565b602080601f831160018114620003b95760008415620003a05750858301515b600019600386901b1c1916600185901b17855562000344565b600085815260208120601f198616915b82811015620003ea57888601518255948401946001909101908401620003c9565b5085821015620004095787850151600019600388901b60f8161c191681555b5050505050600190811b01905550565b6128b880620004296000396000f3fe6080604052600436106101d85760003560e01c8063715018a611610102578063b88d4fde11610095578063d9f76f3111610064578063d9f76f3114610540578063dd5d8e5614610560578063e985e9c514610580578063f2fde38b146105c957600080fd5b8063b88d4fde146104c8578063c87abd7b146104e8578063c87b56dd1461050a578063cf4188591461052a57600080fd5b806395d89b41116100d157806395d89b4114610453578063a22cb46514610468578063ae8e3d2f14610488578063b0526aca146104a857600080fd5b8063715018a6146103ed5780637e5c3f2914610402578063809b8fad146104225780638da5cb5b1461043557600080fd5b80632f745c591161017a5780634f6ccce7116101495780634f6ccce71461036d57806355f804b31461038d5780636352211e146103ad57806370a08231146103cd57600080fd5b80632f745c59146102ed5780633b54f4061461030d57806340c10f191461032d57806342842e0e1461034d57600080fd5b8063095ea7b3116101b6578063095ea7b31461026c5780630dab46fe1461028e57806318160ddd146102ae57806323b872dd146102cd57600080fd5b806301ffc9a7146101dd57806306fdde0314610212578063081812fc14610234575b600080fd5b3480156101e957600080fd5b506101fd6101f83660046120e1565b6105e9565b60405190151581526020015b60405180910390f35b34801561021e57600080fd5b506102276105fa565b6040516102099190612173565b34801561024057600080fd5b5061025461024f366004612186565b61068c565b6040516001600160a01b039091168152602001610209565b34801561027857600080fd5b5061028c6102873660046121bb565b6106b5565b005b34801561029a57600080fd5b50600f54610254906001600160a01b031681565b3480156102ba57600080fd5b506008545b604051908152602001610209565b3480156102d957600080fd5b5061028c6102e83660046121e5565b6106c4565b3480156102f957600080fd5b506102bf6103083660046121bb565b6106dd565b34801561031957600080fd5b50610227610328366004612186565b610760565b34801561033957600080fd5b5061028c6103483660046121bb565b6108d0565b34801561035957600080fd5b5061028c6103683660046121e5565b6109e1565b34801561037957600080fd5b506102bf610388366004612186565b6109fc565b34801561039957600080fd5b5061028c6103a83660046122e4565b610a6e565b3480156103b957600080fd5b506102546103c8366004612186565b610abe565b3480156103d957600080fd5b506102bf6103e836600461232d565b610ac9565b3480156103f957600080fd5b5061028c610b2a565b34801561040e57600080fd5b5061028c61041d366004612186565b610b3e565b61028c610430366004612186565b610bc0565b34801561044157600080fd5b50600b546001600160a01b0316610254565b34801561045f57600080fd5b50610227610ccd565b34801561047457600080fd5b5061028c610483366004612348565b610cdc565b34801561049457600080fd5b5061028c6104a336600461232d565b610ce7565b3480156104b457600080fd5b5061028c6104c336600461232d565b610da5565b3480156104d457600080fd5b5061028c6104e3366004612384565b610e23565b3480156104f457600080fd5b506104fd610e40565b6040516102099190612400565b34801561051657600080fd5b50610227610525366004612186565b610eb3565b34801561053657600080fd5b506102bf600e5481565b34801561054c57600080fd5b50601054610254906001600160a01b031681565b34801561056c57600080fd5b5061028c61057b366004612482565b610efb565b34801561058c57600080fd5b506101fd61059b3660046124a4565b6001600160a01b03918216600090815260056020908152604080832093909416825291909152205460ff1690565b3480156105d557600080fd5b5061028c6105e436600461232d565b610f86565b60006105f482610fda565b92915050565b606060008054610609906124d7565b80601f0160208091040260200160405190810160405280929190818152602001828054610635906124d7565b80156106825780601f1061065757610100808354040283529160200191610682565b820191906000526020600020905b81548152906001019060200180831161066557829003601f168201915b5050505050905090565b600061069782611030565b506000828152600460205260409020546001600160a01b03166105f4565b6106c0828233611082565b5050565b6106cd8161108f565b6106d88383836111a2565b505050565b60006106e883610ac9565b8210610737576040517fa57d13dc0000000000000000000000000000000000000000000000000000000081526001600160a01b0384166004820152602481018390526044015b60405180910390fd5b506001600160a01b03919091166000908152600660209081526040808320938352929052205490565b60008181526011602052604081205460609160ff9091169081600381111561078a5761078a612524565b036107cc576040518060400160405280600181526020017f410000000000000000000000000000000000000000000000000000000000000081525091506108ca565b60018160038111156107e0576107e0612524565b03610822576040518060400160405280600181526020017f420000000000000000000000000000000000000000000000000000000000000081525091506108ca565b600281600381111561083657610836612524565b03610878576040518060400160405280600181526020017f430000000000000000000000000000000000000000000000000000000000000081525091506108ca565b600381600381111561088c5761088c612524565b036108ca576040518060400160405280600181526020017f440000000000000000000000000000000000000000000000000000000000000081525091505b50919050565b600f546001600160a01b0316336001600160a01b03161461091d576040517f9cdc2ed500000000000000000000000000000000000000000000000000000000815260040160405180910390fd5b6001600160a01b03821661095d576040517fd92e233d00000000000000000000000000000000000000000000000000000000815260040160405180910390fd5b603281118061096a575080155b156109a1576040517fe812b7c600000000000000000000000000000000000000000000000000000000815260040160405180910390fd5b60405181906001600160a01b038416907f30385c845b448a36257a6a1716e6ad2e1bc2cbe333cde1e69fe849ad6511adfe90600090a36106c08282611259565b6106d883838360405180602001604052806000815250610e23565b6000610a0760085490565b8210610a49576040517fa57d13dc000000000000000000000000000000000000000000000000000000008152600060048201526024810183905260440161072e565b60088281548110610a5c57610a5c612553565b90600052602060002001549050919050565b600b546001600160a01b03163314610ab2576040517f5fc483c500000000000000000000000000000000000000000000000000000000815260040160405180910390fd5b600d6106c082826125d2565b60006105f482611030565b60006001600160a01b038216610b0e576040517f89c62b640000000000000000000000000000000000000000000000000000000081526000600482015260240161072e565b506001600160a01b031660009081526003602052604090205490565b610b32611273565b610b3c60006112b9565b565b600b546001600160a01b03163314610b82576040517f5fc483c500000000000000000000000000000000000000000000000000000000815260040160405180910390fd5b80600003610bbb576040517ebfc92100000000000000000000000000000000000000000000000000000000815260040160405180910390fd5b600e55565b610bc8611323565b600e54341015610c04576040517f583aa02600000000000000000000000000000000000000000000000000000000815260040160405180910390fd5b60008181526011602090815260409182902080547fffffffffffffffffffffffffffffffffffffffffffffffffffffffffffffff0016905590518281527ff8e1a15aba9398e019f0b49df1a4fde98ee17ae345cb5f6b5e2c27f5033e8ce7910160405180910390a1807f81676a2d008e56eb1e8b27e8ccaa7962197f078610bf25e5f354b98850c2526c336040516001600160a01b03909116815260200160405180910390a2601054610cc0906001600160a01b031634611366565b610cca6001600c55565b50565b606060018054610609906124d7565b6106c033838361142f565b600b546001600160a01b03163314610d2b576040517f5fc483c500000000000000000000000000000000000000000000000000000000815260040160405180910390fd5b6001600160a01b038116610d6b576040517fd92e233d00000000000000000000000000000000000000000000000000000000815260040160405180910390fd5b601080547fffffffffffffffffffffffff0000000000000000000000000000000000000000166001600160a01b0392909216919091179055565b600b546001600160a01b03163314610de9576040517f5fc483c500000000000000000000000000000000000000000000000000000000815260040160405180910390fd5b600f80547fffffffffffffffffffffffff0000000000000000000000000000000000000000166001600160a01b0392909216919091179055565b610e2e8484846106c4565b610e3a84848484611505565b50505050565b6040805160328082526106608201909252606091816020015b6060815260200190600190039081610e5957905050905060005b6032811015610eaf57610e8a61032882600161271b565b828281518110610e9c57610e9c612553565b6020908102919091010152600101610e73565b5090565b6060610ebe82611030565b50600d610eca83610760565b610ed3846116c8565b604051602001610ee59392919061272e565b6040516020818303038152906040529050919050565b610f0482610abe565b6001600160a01b0316336001600160a01b031614610f4e576040517fcdf1f8f900000000000000000000000000000000000000000000000000000000815260040160405180910390fd5b6040518190839033907f23ff0e75edf108e3d0392d92e13e8c8a868ef19001bd49f9e94876dc46dff87f90600090a46106c082611786565b610f8e611273565b6001600160a01b038116610fd1576040517f1e4fbdf70000000000000000000000000000000000000000000000000000000081526000600482015260240161072e565b610cca816112b9565b60007fffffffff0000000000000000000000000000000000000000000000000000000082167f490649060000000000000000000000000000000000000000000000000000000014806105f457506105f4826117da565b6000818152600260205260408120546001600160a01b0316806105f4576040517f7e2732890000000000000000000000000000000000000000000000000000000081526004810184905260240161072e565b6106d88383836001611830565b60008181526011602052604090205460ff1660038160038111156110b5576110b5612524565b036110be575050565b60008160038111156110d2576110d2612524565b036110df5750600161111d565b60018160038111156110f3576110f3612524565b036111005750600261111d565b600281600381111561111457611114612524565b0361111d575060035b600082815260116020526040902080548291907fffffffffffffffffffffffffffffffffffffffffffffffffffffffffffffff0016600183600381111561116657611166612524565b02179055506040518281527ff8e1a15aba9398e019f0b49df1a4fde98ee17ae345cb5f6b5e2c27f5033e8ce79060200160405180910390a15050565b6001600160a01b0382166111e5576040517f64a0ae920000000000000000000000000000000000000000000000000000000081526000600482015260240161072e565b60006111f2838333611986565b9050836001600160a01b0316816001600160a01b031614610e3a576040517f64283d7b0000000000000000000000000000000000000000000000000000000081526001600160a01b038086166004830152602482018490528216604482015260640161072e565b6106c082826040518060200160405280600081525061199b565b600b546001600160a01b03163314610b3c576040517f118cdaa700000000000000000000000000000000000000000000000000000000815233600482015260240161072e565b600b80546001600160a01b038381167fffffffffffffffffffffffff0000000000000000000000000000000000000000831681179093556040519116919082907f8be0079c531659141344cd1fd0a4f28419497f9722a3daafe3b4186f6b6457e090600090a35050565b6002600c540361135f576040517f3ee5aeb500000000000000000000000000000000000000000000000000000000815260040160405180910390fd5b6002600c55565b804710156113a2576040517fcd78605900000000000000000000000000000000000000000000000000000000815230600482015260240161072e565b6000826001600160a01b03168260405160006040518083038185875af1925050503d80600081146113ef576040519150601f19603f3d011682016040523d82523d6000602084013e6113f4565b606091505b50509050806106d8576040517f1425ea4200000000000000000000000000000000000000000000000000000000815260040160405180910390fd5b6001600160a01b03821661147a576040517f5b08ba180000000000000000000000000000000000000000000000000000000081526001600160a01b038316600482015260240161072e565b6001600160a01b0383811660008181526005602090815260408083209487168084529482529182902080547fffffffffffffffffffffffffffffffffffffffffffffffffffffffffffffff001686151590811790915591519182527f17307eab39ab6107e8899845ad3d59bd9653f200f220920489ca2b5937696c31910160405180910390a3505050565b6001600160a01b0383163b15610e3a576040517f150b7a020000000000000000000000000000000000000000000000000000000081526001600160a01b0384169063150b7a0290611560903390889087908790600401612810565b6020604051808303816000875af19250505080156115b9575060408051601f3d9081017fffffffffffffffffffffffffffffffffffffffffffffffffffffffffffffffe01682019092526115b69181019061284c565b60015b61163b573d8080156115e7576040519150601f19603f3d011682016040523d82523d6000602084013e6115ec565b606091505b508051600003611633576040517f64a0ae920000000000000000000000000000000000000000000000000000000081526001600160a01b038516600482015260240161072e565b805181602001fd5b7fffffffff0000000000000000000000000000000000000000000000000000000081167f150b7a0200000000000000000000000000000000000000000000000000000000146116c1576040517f64a0ae920000000000000000000000000000000000000000000000000000000081526001600160a01b038516600482015260240161072e565b5050505050565b606060006116d5836119b2565b600101905060008167ffffffffffffffff8111156116f5576116f5612221565b6040519080825280601f01601f19166020018201604052801561171f576020820181803683370190505b5090508181016020015b7fffffffffffffffffffffffffffffffffffffffffffffffffffffffffffffffff017f3031323334353637383961626364656600000000000000000000000000000000600a86061a8153600a850494508461172957509392505050565b60006117956000836000611986565b90506001600160a01b0381166106c0576040517f7e2732890000000000000000000000000000000000000000000000000000000081526004810183905260240161072e565b60007fffffffff0000000000000000000000000000000000000000000000000000000082167f780e9d630000000000000000000000000000000000000000000000000000000014806105f457506105f482611a94565b808061184457506001600160a01b03821615155b1561193e57600061185484611030565b90506001600160a01b038316158015906118805750826001600160a01b0316816001600160a01b031614155b80156118b257506001600160a01b0380821660009081526005602090815260408083209387168352929052205460ff16155b156118f4576040517fa9fbf51f0000000000000000000000000000000000000000000000000000000081526001600160a01b038416600482015260240161072e565b811561193c5783856001600160a01b0316826001600160a01b03167f8c5be1e5ebec7d5bd14f71427d1e84f3dd0314c0f7b2291e5b200ac8c7c3b92560405160405180910390a45b505b5050600090815260046020526040902080547fffffffffffffffffffffffff0000000000000000000000000000000000000000166001600160a01b0392909216919091179055565b6000611993848484611b77565b949350505050565b6119a58383611c44565b6106d86000848484611505565b6000807a184f03e93ff9f4daa797ed6e38ed64bf6a1f01000000000000000083106119fb577a184f03e93ff9f4daa797ed6e38ed64bf6a1f010000000000000000830492506040015b6d04ee2d6d415b85acef81000000008310611a27576d04ee2d6d415b85acef8100000000830492506020015b662386f26fc100008310611a4557662386f26fc10000830492506010015b6305f5e1008310611a5d576305f5e100830492506008015b6127108310611a7157612710830492506004015b60648310611a83576064830492506002015b600a83106105f45760010192915050565b60007fffffffff0000000000000000000000000000000000000000000000000000000082167f80ac58cd000000000000000000000000000000000000000000000000000000001480611b2757507fffffffff0000000000000000000000000000000000000000000000000000000082167f5b5e139f00000000000000000000000000000000000000000000000000000000145b806105f457507f01ffc9a7000000000000000000000000000000000000000000000000000000007fffffffff000000000000000000000000000000000000000000000000000000008316146105f4565b600080611b85858585611cdb565b90506001600160a01b038116611be257611bdd84600880546000838152600960205260408120829055600182018355919091527ff3f7a9fe364faab93b216da50a3214154f22a0a2b415b23a84c8169e8b636ee30155565b611c05565b846001600160a01b0316816001600160a01b031614611c0557611c058185611e0a565b6001600160a01b038516611c2157611c1c84611e9b565b611993565b846001600160a01b0316816001600160a01b031614611993576119938585611f4a565b6001600160a01b038216611c87576040517f64a0ae920000000000000000000000000000000000000000000000000000000081526000600482015260240161072e565b6000611c9583836000611986565b90506001600160a01b038116156106d8576040517f73c6ac6e0000000000000000000000000000000000000000000000000000000081526000600482015260240161072e565b6000828152600260205260408120546001600160a01b0390811690831615611d0857611d08818486611f9a565b6001600160a01b03811615611d6457611d25600085600080611830565b6001600160a01b038116600090815260036020526040902080547fffffffffffffffffffffffffffffffffffffffffffffffffffffffffffffffff0190555b6001600160a01b03851615611d93576001600160a01b0385166000908152600360205260409020805460010190555b60008481526002602052604080822080547fffffffffffffffffffffffff0000000000000000000000000000000000000000166001600160a01b0389811691821790925591518793918516917fddf252ad1be2c89b69c2b068fc378daa952ba7f163c4a11628f55a4df523b3ef91a4949350505050565b6000611e1583610ac9565b600083815260076020526040902054909150808214611e68576001600160a01b03841660009081526006602090815260408083208584528252808320548484528184208190558352600790915290208190555b5060009182526007602090815260408084208490556001600160a01b039094168352600681528383209183525290812055565b600854600090611ead90600190612869565b60008381526009602052604081205460088054939450909284908110611ed557611ed5612553565b906000526020600020015490508060088381548110611ef657611ef6612553565b6000918252602080832090910192909255828152600990915260408082208490558582528120556008805480611f2e57611f2e61287c565b6001900381819060005260206000200160009055905550505050565b60006001611f5784610ac9565b611f619190612869565b6001600160a01b039093166000908152600660209081526040808320868452825280832085905593825260079052919091209190915550565b611fa5838383612030565b6106d8576001600160a01b038316611fec576040517f7e2732890000000000000000000000000000000000000000000000000000000081526004810182905260240161072e565b6040517f177e802f0000000000000000000000000000000000000000000000000000000081526001600160a01b03831660048201526024810182905260440161072e565b60006001600160a01b038316158015906119935750826001600160a01b0316846001600160a01b0316148061208a57506001600160a01b0380851660009081526005602090815260408083209387168352929052205460ff165b806119935750506000908152600460205260409020546001600160a01b03908116911614919050565b7fffffffff0000000000000000000000000000000000000000000000000000000081168114610cca57600080fd5b6000602082840312156120f357600080fd5b81356120fe816120b3565b9392505050565b60005b83811015612120578181015183820152602001612108565b50506000910152565b60008151808452612141816020860160208601612105565b601f017fffffffffffffffffffffffffffffffffffffffffffffffffffffffffffffffe0169290920160200192915050565b6020815260006120fe6020830184612129565b60006020828403121561219857600080fd5b5035919050565b80356001600160a01b03811681146121b657600080fd5b919050565b600080604083850312156121ce57600080fd5b6121d78361219f565b946020939093013593505050565b6000806000606084860312156121fa57600080fd5b6122038461219f565b92506122116020850161219f565b9150604084013590509250925092565b7f4e487b7100000000000000000000000000000000000000000000000000000000600052604160045260246000fd5b600067ffffffffffffffff8084111561226b5761226b612221565b604051601f85017fffffffffffffffffffffffffffffffffffffffffffffffffffffffffffffffe0908116603f011681019082821181831017156122b1576122b1612221565b816040528093508581528686860111156122ca57600080fd5b858560208301376000602087830101525050509392505050565b6000602082840312156122f657600080fd5b813567ffffffffffffffff81111561230d57600080fd5b8201601f8101841361231e57600080fd5b61199384823560208401612250565b60006020828403121561233f57600080fd5b6120fe8261219f565b6000806040838503121561235b57600080fd5b6123648361219f565b91506020830135801515811461237957600080fd5b809150509250929050565b6000806000806080858703121561239a57600080fd5b6123a38561219f565b93506123b16020860161219f565b925060408501359150606085013567ffffffffffffffff8111156123d457600080fd5b8501601f810187136123e557600080fd5b6123f487823560208401612250565b91505092959194509250565b600060208083016020845280855180835260408601915060408160051b87010192506020870160005b82811015612475577fffffffffffffffffffffffffffffffffffffffffffffffffffffffffffffffc0888603018452612463858351612129565b94509285019290850190600101612429565b5092979650505050505050565b6000806040838503121561249557600080fd5b50508035926020909101359150565b600080604083850312156124b757600080fd5b6124c08361219f565b91506124ce6020840161219f565b90509250929050565b600181811c908216806124eb57607f821691505b6020821081036108ca577f4e487b7100000000000000000000000000000000000000000000000000000000600052602260045260246000fd5b7f4e487b7100000000000000000000000000000000000000000000000000000000600052602160045260246000fd5b7f4e487b7100000000000000000000000000000000000000000000000000000000600052603260045260246000fd5b601f8211156106d8576000816000526020600020601f850160051c810160208610156125ab5750805b601f850160051c820191505b818110156125ca578281556001016125b7565b505050505050565b815167ffffffffffffffff8111156125ec576125ec612221565b612600816125fa84546124d7565b84612582565b602080601f831160018114612653576000841561261d5750858301515b7fffffffffffffffffffffffffffffffffffffffffffffffffffffffffffffffff600386901b1c1916600185901b1785556125ca565b6000858152602081207fffffffffffffffffffffffffffffffffffffffffffffffffffffffffffffffe08616915b828110156126a057888601518255948401946001909101908401612681565b50858210156126dc57878501517fffffffffffffffffffffffffffffffffffffffffffffffffffffffffffffffff600388901b60f8161c191681555b5050505050600190811b01905550565b7f4e487b7100000000000000000000000000000000000000000000000000000000600052601160045260246000fd5b808201808211156105f4576105f46126ec565b600080855461273c816124d7565b600182811680156127545760018114612787576127b6565b7fffffffffffffffffffffffffffffffffffffffffffffffffffffffffffffff00841687528215158302870194506127b6565b8960005260208060002060005b858110156127ad5781548a820152908401908201612794565b50505082870194505b5050505084516127ca818360208901612105565b7f2f0000000000000000000000000000000000000000000000000000000000000091019081528351612803816001840160208801612105565b0160010195945050505050565b60006001600160a01b038087168352808616602084015250836040830152608060608301526128426080830184612129565b9695505050505050565b60006020828403121561285e57600080fd5b81516120fe816120b3565b818103818111156105f4576105f46126ec565b7f4e487b7100000000000000000000000000000000000000000000000000000000600052603160045260246000fdfea164736f6c6343000817000a","linkReferences":{}},"methodIdentifiers":{"approve(address,uint256)":"095ea7b3","balanceOf(address)":"70a08231","burnToReedem(uint256,uint256)":"dd5d8e56","fundsReceiverAddress()":"d9f76f31","getAllTokensVersion()":"c87abd7b","getApproved(uint256)":"081812fc","getTokenVersion(uint256)":"3b54f406","isApprovedForAll(address,address)":"e985e9c5","mint(address,uint256)":"40c10f19","minterContractAddress()":"0dab46fe","name()":"06fdde03","owner()":"8da5cb5b","ownerOf(uint256)":"6352211e","refreshToken(uint256)":"809b8fad","refreshTokenPrice()":"cf418859","renounceOwnership()":"715018a6","safeTransferFrom(address,address,uint256)":"42842e0e","safeTransferFrom(address,address,uint256,bytes)":"b88d4fde","setApprovalForAll(address,bool)":"a22cb465","setBaseURI(string)":"55f804b3","setFundsReceiverAddress(address)":"ae8e3d2f","setMinterContractAddress(address)":"b0526aca","setRefreshTokenPrice(uint256)":"7e5c3f29","supportsInterface(bytes4)":"01ffc9a7","symbol()":"95d89b41","tokenByIndex(uint256)":"4f6ccce7","tokenOfOwnerByIndex(address,uint256)":"2f745c59","tokenURI(uint256)":"c87b56dd","totalSupply()":"18160ddd","transferFrom(address,address,uint256)":"23b872dd","transferOwnership(address)":"f2fde38b"},"id":33}