{"abi":[{"type":"constructor","inputs":[{"name":"_initialOwner","type":"address","internalType":"address"},{"name":"_baseUri","type":"string","internalType":"string"},{"name":"_treasuryWallet","type":"address","internalType":"address"}],"stateMutability":"nonpayable"},{"type":"function","name":"DISCOUNT_PERCENTAGE","inputs":[],"outputs":[{"name":"","type":"uint16","internalType":"uint16"}],"stateMutability":"view"},{"type":"function","name":"FREE_CLAIM_AMOUNT","inputs":[],"outputs":[{"name":"","type":"uint8","internalType":"uint8"}],"stateMutability":"view"},{"type":"function","name":"MAX_SUPPLY","inputs":[],"outputs":[{"name":"","type":"uint16","internalType":"uint16"}],"stateMutability":"view"},{"type":"function","name":"approve","inputs":[{"name":"to","type":"address","internalType":"address"},{"name":"tokenId","type":"uint256","internalType":"uint256"}],"outputs":[],"stateMutability":"nonpayable"},{"type":"function","name":"balanceOf","inputs":[{"name":"owner","type":"address","internalType":"address"}],"outputs":[{"name":"","type":"uint256","internalType":"uint256"}],"stateMutability":"view"},{"type":"function","name":"calculatePrice","inputs":[{"name":"_amount","type":"uint8","internalType":"uint8"},{"name":"_isDiscounted","type":"bool","internalType":"bool"}],"outputs":[{"name":"","type":"uint256","internalType":"uint256"}],"stateMutability":"view"},{"type":"function","name":"checkDiscountMerkleProof","inputs":[{"name":"_merkleProof","type":"bytes32[]","internalType":"bytes32[]"},{"name":"_address","type":"address","internalType":"address"}],"outputs":[{"name":"","type":"bool","internalType":"bool"}],"stateMutability":"view"},{"type":"function","name":"checkFreeClaimAllowlist","inputs":[{"name":"_merkleProof","type":"bytes32[]","internalType":"bytes32[]"},{"name":"_address","type":"address","internalType":"address"},{"name":"_amount","type":"uint8","internalType":"uint8"}],"outputs":[{"name":"","type":"bool","internalType":"bool"}],"stateMutability":"view"},{"type":"function","name":"claim","inputs":[{"name":"_recipient","type":"address","internalType":"address"},{"name":"_amount","type":"uint8","internalType":"uint8"},{"name":"proof","type":"bytes32[]","internalType":"bytes32[]"}],"outputs":[],"stateMutability":"nonpayable"},{"type":"function","name":"freeClaimed","inputs":[],"outputs":[{"name":"","type":"uint16","internalType":"uint16"}],"stateMutability":"view"},{"type":"function","name":"fundsReceiverAddress","inputs":[],"outputs":[{"name":"","type":"address","internalType":"address payable"}],"stateMutability":"view"},{"type":"function","name":"getApproved","inputs":[{"name":"tokenId","type":"uint256","internalType":"uint256"}],"outputs":[{"name":"","type":"address","internalType":"address"}],"stateMutability":"view"},{"type":"function","name":"getConfig","inputs":[],"outputs":[{"name":"","type":"tuple","internalType":"struct GlitchyGridGrid.Config","components":[{"name":"startTime","type":"uint256","internalType":"uint256"},{"name":"endTime","type":"uint256","internalType":"uint256"}]}],"stateMutability":"view"},{"type":"function","name":"isApprovedForAll","inputs":[{"name":"owner","type":"address","internalType":"address"},{"name":"operator","type":"address","internalType":"address"}],"outputs":[{"name":"","type":"bool","internalType":"bool"}],"stateMutability":"view"},{"type":"function","name":"mint","inputs":[{"name":"_recipient","type":"address","internalType":"address"},{"name":"_amount","type":"uint8","internalType":"uint8"},{"name":"_merkleProof","type":"bytes32[]","internalType":"bytes32[]"}],"outputs":[],"stateMutability":"payable"},{"type":"function","name":"name","inputs":[],"outputs":[{"name":"","type":"string","internalType":"string"}],"stateMutability":"view"},{"type":"function","name":"owner","inputs":[],"outputs":[{"name":"","type":"address","internalType":"address"}],"stateMutability":"view"},{"type":"function","name":"ownerMint","inputs":[{"name":"_recipient","type":"address","internalType":"address"},{"name":"_amount","type":"uint16","internalType":"uint16"}],"outputs":[],"stateMutability":"nonpayable"},{"type":"function","name":"ownerOf","inputs":[{"name":"tokenId","type":"uint256","internalType":"uint256"}],"outputs":[{"name":"","type":"address","internalType":"address"}],"stateMutability":"view"},{"type":"function","name":"regularMinted","inputs":[],"outputs":[{"name":"","type":"uint16","internalType":"uint16"}],"stateMutability":"view"},{"type":"function","name":"renounceOwnership","inputs":[],"outputs":[],"stateMutability":"nonpayable"},{"type":"function","name":"safeTransferFrom","inputs":[{"name":"from","type":"address","internalType":"address"},{"name":"to","type":"address","internalType":"address"},{"name":"tokenId","type":"uint256","internalType":"uint256"}],"outputs":[],"stateMutability":"nonpayable"},{"type":"function","name":"safeTransferFrom","inputs":[{"name":"from","type":"address","internalType":"address"},{"name":"to","type":"address","internalType":"address"},{"name":"tokenId","type":"uint256","internalType":"uint256"},{"name":"data","type":"bytes","internalType":"bytes"}],"outputs":[],"stateMutability":"nonpayable"},{"type":"function","name":"setApprovalForAll","inputs":[{"name":"operator","type":"address","internalType":"address"},{"name":"approved","type":"bool","internalType":"bool"}],"outputs":[],"stateMutability":"nonpayable"},{"type":"function","name":"setBaseURI","inputs":[{"name":"_newBaseURI","type":"string","internalType":"string"}],"outputs":[],"stateMutability":"nonpayable"},{"type":"function","name":"setConfig","inputs":[{"name":"_startTime","type":"uint256","internalType":"uint256"},{"name":"_endTime","type":"uint256","internalType":"uint256"}],"outputs":[],"stateMutability":"nonpayable"},{"type":"function","name":"setDiscountAllowlistRoot","inputs":[{"name":"_allowlistRoot","type":"bytes32","internalType":"bytes32"}],"outputs":[],"stateMutability":"nonpayable"},{"type":"function","name":"setFreeClaimAllowlistRoot","inputs":[{"name":"_allowlistRoot","type":"bytes32","internalType":"bytes32"}],"outputs":[],"stateMutability":"nonpayable"},{"type":"function","name":"setFundsReceiverAddress","inputs":[{"name":"newFundsReceiverAddress","type":"address","internalType":"address"}],"outputs":[],"stateMutability":"nonpayable"},{"type":"function","name":"setTokenPrice","inputs":[{"name":"_tokenPrice","type":"uint256","internalType":"uint256"}],"outputs":[],"stateMutability":"nonpayable"},{"type":"function","name":"supportsInterface","inputs":[{"name":"_interfaceId","type":"bytes4","internalType":"bytes4"}],"outputs":[{"name":"","type":"bool","internalType":"bool"}],"stateMutability":"view"},{"type":"function","name":"symbol","inputs":[],"outputs":[{"name":"","type":"string","internalType":"string"}],"stateMutability":"view"},{"type":"function","name":"tokenByIndex","inputs":[{"name":"index","type":"uint256","internalType":"uint256"}],"outputs":[{"name":"","type":"uint256","internalType":"uint256"}],"stateMutability":"view"},{"type":"function","name":"tokenOfOwnerByIndex","inputs":[{"name":"owner","type":"address","internalType":"address"},{"name":"index","type":"uint256","internalType":"uint256"}],"outputs":[{"name":"","type":"uint256","internalType":"uint256"}],"stateMutability":"view"},{"type":"function","name":"tokenPrice","inputs":[],"outputs":[{"name":"","type":"uint256","internalType":"uint256"}],"stateMutability":"view"},{"type":"function","name":"tokenURI","inputs":[{"name":"tokenId","type":"uint256","internalType":"uint256"}],"outputs":[{"name":"","type":"string","internalType":"string"}],"stateMutability":"view"},{"type":"function","name":"totalSupply","inputs":[],"outputs":[{"name":"","type":"uint256","internalType":"uint256"}],"stateMutability":"view"},{"type":"function","name":"transferFrom","inputs":[{"name":"from","type":"address","internalType":"address"},{"name":"to","type":"address","internalType":"address"},{"name":"tokenId","type":"uint256","internalType":"uint256"}],"outputs":[],"stateMutability":"nonpayable"},{"type":"function","name":"transferOwnership","inputs":[{"name":"newOwner","type":"address","internalType":"address"}],"outputs":[],"stateMutability":"nonpayable"},{"type":"function","name":"withdraw","inputs":[],"outputs":[],"stateMutability":"nonpayable"},{"type":"event","name":"Approval","inputs":[{"name":"owner","type":"address","indexed":true,"internalType":"address"},{"name":"approved","type":"address","indexed":true,"internalType":"address"},{"name":"tokenId","type":"uint256","indexed":true,"internalType":"uint256"}],"anonymous":false},{"type":"event","name":"ApprovalForAll","inputs":[{"name":"owner","type":"address","indexed":true,"internalType":"address"},{"name":"operator","type":"address","indexed":true,"internalType":"address"},{"name":"approved","type":"bool","indexed":false,"internalType":"bool"}],"anonymous":false},{"type":"event","name":"BatchMetadataUpdate","inputs":[{"name":"_fromTokenId","type":"uint256","indexed":false,"internalType":"uint256"},{"name":"_toTokenId","type":"uint256","indexed":false,"internalType":"uint256"}],"anonymous":false},{"type":"event","name":"MetadataUpdate","inputs":[{"name":"_tokenId","type":"uint256","indexed":false,"internalType":"uint256"}],"anonymous":false},{"type":"event","name":"OwnershipTransferred","inputs":[{"name":"previousOwner","type":"address","indexed":true,"internalType":"address"},{"name":"newOwner","type":"address","indexed":true,"internalType":"address"}],"anonymous":false},{"type":"event","name":"TokenClaimed","inputs":[{"name":"recipient","type":"address","indexed":false,"internalType":"address"},{"name":"amount","type":"uint16","indexed":false,"internalType":"uint16"}],"anonymous":false},{"type":"event","name":"TokenMinted","inputs":[{"name":"recipient","type":"address","indexed":false,"internalType":"address"},{"name":"amount","type":"uint16","indexed":false,"internalType":"uint16"}],"anonymous":false},{"type":"event","name":"Transfer","inputs":[{"name":"from","type":"address","indexed":true,"internalType":"address"},{"name":"to","type":"address","indexed":true,"internalType":"address"},{"name":"tokenId","type":"uint256","indexed":true,"internalType":"uint256"}],"anonymous":false},{"type":"error","name":"AddressInsufficientBalance","inputs":[{"name":"account","type":"address","internalType":"address"}]},{"type":"error","name":"ClaimNotOpen","inputs":[]},{"type":"error","name":"ConfigNotSet","inputs":[]},{"type":"error","name":"ERC721EnumerableForbiddenBatchMint","inputs":[]},{"type":"error","name":"ERC721IncorrectOwner","inputs":[{"name":"sender","type":"address","internalType":"address"},{"name":"tokenId","type":"uint256","internalType":"uint256"},{"name":"owner","type":"address","internalType":"address"}]},{"type":"error","name":"ERC721InsufficientApproval","inputs":[{"name":"operator","type":"address","internalType":"address"},{"name":"tokenId","type":"uint256","internalType":"uint256"}]},{"type":"error","name":"ERC721InvalidApprover","inputs":[{"name":"approver","type":"address","internalType":"address"}]},{"type":"error","name":"ERC721InvalidOperator","inputs":[{"name":"operator","type":"address","internalType":"address"}]},{"type":"error","name":"ERC721InvalidOwner","inputs":[{"name":"owner","type":"address","internalType":"address"}]},{"type":"error","name":"ERC721InvalidReceiver","inputs":[{"name":"receiver","type":"address","internalType":"address"}]},{"type":"error","name":"ERC721InvalidSender","inputs":[{"name":"sender","type":"address","internalType":"address"}]},{"type":"error","name":"ERC721NonexistentToken","inputs":[{"name":"tokenId","type":"uint256","internalType":"uint256"}]},{"type":"error","name":"ERC721OutOfBoundsIndex","inputs":[{"name":"owner","type":"address","internalType":"address"},{"name":"index","type":"uint256","internalType":"uint256"}]},{"type":"error","name":"FailedInnerCall","inputs":[]},{"type":"error","name":"FreeClaimedExceeded","inputs":[]},{"type":"error","name":"InsufficientFunds","inputs":[]},{"type":"error","name":"InvalidProof","inputs":[]},{"type":"error","name":"InvalidStartEndTime","inputs":[{"name":"startTime","type":"uint256","internalType":"uint256"},{"name":"endTime","type":"uint256","internalType":"uint256"}]},{"type":"error","name":"MaxNumberPerMintExceeded","inputs":[]},{"type":"error","name":"OnlyMinter","inputs":[]},{"type":"error","name":"OnlyOwner","inputs":[]},{"type":"error","name":"OwnableInvalidOwner","inputs":[{"name":"owner","type":"address","internalType":"address"}]},{"type":"error","name":"OwnableUnauthorizedAccount","inputs":[{"name":"account","type":"address","internalType":"address"}]},{"type":"error","name":"RegularMintedExceeded","inputs":[]},{"type":"error","name":"ZeroAddress","inputs":[]}],"bytecode":{"object":"0x60806040526658d15e17628000600f553480156200001c57600080fd5b5060405162003388380380620033888339810160408190526200003f91620001a1565b826040518060400160405280601181526020017019db1a5d18da1e4819dc9a590819dc9a59607a1b8152506040518060400160405280600381526020016247474760e81b81525081600090816200009791906200032d565b506001620000a682826200032d565b5050506001600160a01b038116620000d857604051631e4fbdf760e01b81526000600482015260240160405180910390fd5b620000e3816200011c565b50600d620000f283826200032d565b50601080546001600160a01b0319166001600160a01b039290921691909117905550620003f99050565b600b80546001600160a01b038381166001600160a01b0319831681179093556040519116919082907f8be0079c531659141344cd1fd0a4f28419497f9722a3daafe3b4186f6b6457e090600090a35050565b80516001600160a01b03811681146200018657600080fd5b919050565b634e487b7160e01b600052604160045260246000fd5b600080600060608486031215620001b757600080fd5b620001c2846200016e565b602085810151919450906001600160401b0380821115620001e257600080fd5b818701915087601f830112620001f757600080fd5b8151818111156200020c576200020c6200018b565b604051601f8201601f19908116603f011681019083821181831017156200023757620002376200018b565b816040528281528a868487010111156200025057600080fd5b600093505b8284101562000274578484018601518185018701529285019262000255565b600086848301015280975050505050505062000293604085016200016e565b90509250925092565b600181811c90821680620002b157607f821691505b602082108103620002d257634e487b7160e01b600052602260045260246000fd5b50919050565b601f82111562000328576000816000526020600020601f850160051c81016020861015620003035750805b601f850160051c820191505b8181101562000324578281556001016200030f565b5050505b505050565b81516001600160401b038111156200034957620003496200018b565b62000361816200035a84546200029c565b84620002d8565b602080601f831160018114620003995760008415620003805750858301515b600019600386901b1c1916600185901b17855562000324565b600085815260208120601f198616915b82811015620003ca57888601518255948401946001909101908401620003a9565b5085821015620003e95787850151600019600388901b60f8161c191681555b5050505050600190811b01905550565b612f7f80620004096000396000f3fe6080604052600436106102ba5760003560e01c806370a082311161016e578063af760d6c116100cb578063d9f76f311161007f578063e985e9c511610064578063e985e9c51461078e578063f2fde38b146107d7578063f9628b7c146107f757600080fd5b8063d9f76f311461074e578063e23870281461076e57600080fd5b8063b88d4fde116100b0578063b88d4fde146106c3578063c3f909d4146106e3578063c87b56dd1461072e57600080fd5b8063af760d6c14610687578063b2af06f91461069c57600080fd5b80638da5cb5b11610122578063a22cb46511610107578063a22cb46514610627578063aa981b4814610647578063ae8e3d2f1461066757600080fd5b80638da5cb5b146105f457806395d89b411461061257600080fd5b80637ab05865116101535780637ab058651461059e5780637ff9b596146105be57806389b08d30146105d457600080fd5b806370a0823114610569578063715018a61461058957600080fd5b80632ad74e121161021c5780634f6ccce7116101d057806355f804b3116101b557806355f804b3146105095780636352211e146105295780636a61e5fc1461054957600080fd5b80634f6ccce7146104c957806353493a0e146104e957600080fd5b806332cb6b0c1161020157806332cb6b0c1461047e5780633ccfd60b1461049457806342842e0e146104a957600080fd5b80632ad74e121461043d5780632f745c591461045e57600080fd5b806318160ddd116102735780631e34c585116102585780631e34c585146103dd57806323b872dd146103fd578063295439e11461041d57600080fd5b806318160ddd146103905780631b47ec3a146103af57600080fd5b806306fdde03116102a457806306fdde0314610316578063081812fc14610338578063095ea7b31461037057600080fd5b8062fc92b9146102bf57806301ffc9a7146102e1575b600080fd5b3480156102cb57600080fd5b506102df6102da3660046125e9565b61080a565b005b3480156102ed57600080fd5b506103016102fc366004612630565b610853565b60405190151581526020015b60405180910390f35b34801561032257600080fd5b5061032b610864565b60405161030d919061269d565b34801561034457600080fd5b506103586103533660046125e9565b6108f6565b6040516001600160a01b03909116815260200161030d565b34801561037c57600080fd5b506102df61038b3660046126cc565b61091f565b34801561039c57600080fd5b506008545b60405190815260200161030d565b3480156103bb57600080fd5b506015546103ca9061ffff1681565b60405161ffff909116815260200161030d565b3480156103e957600080fd5b506102df6103f83660046126f6565b61092e565b34801561040957600080fd5b506102df610418366004612718565b6109e3565b34801561042957600080fd5b506102df610438366004612754565b610aa0565b34801561044957600080fd5b506015546103ca9062010000900461ffff1681565b34801561046a57600080fd5b506103a16104793660046126cc565b610bde565b34801561048a57600080fd5b506103ca6101fe81565b3480156104a057600080fd5b506102df610c5c565b3480156104b557600080fd5b506102df6104c4366004612718565b610cb8565b3480156104d557600080fd5b506103a16104e43660046125e9565b610cd8565b3480156104f557600080fd5b506103016105043660046127de565b610d4a565b34801561051557600080fd5b506102df6105243660046128d7565b610de3565b34801561053557600080fd5b506103586105443660046125e9565b610e33565b34801561055557600080fd5b506102df6105643660046125e9565b610e3e565b34801561057557600080fd5b506103a1610584366004612920565b610e87565b34801561059557600080fd5b506102df610ee8565b3480156105aa57600080fd5b506103016105b936600461294c565b610efa565b3480156105ca57600080fd5b506103a1600f5481565b3480156105e057600080fd5b506102df6105ef3660046125e9565b611017565b34801561060057600080fd5b50600b546001600160a01b0316610358565b34801561061e57600080fd5b5061032b611060565b34801561063357600080fd5b506102df6106423660046129c1565b61106f565b34801561065357600080fd5b506103a16106623660046129f4565b61107a565b34801561067357600080fd5b506102df610682366004612920565b6110c5565b34801561069357600080fd5b506103ca600f81565b3480156106a857600080fd5b506106b1602981565b60405160ff909116815260200161030d565b3480156106cf57600080fd5b506102df6106de366004612a10565b611183565b3480156106ef57600080fd5b5060408051808201825260008082526020918201528151808301835260135480825260145491830191825283519081529051918101919091520161030d565b34801561073a57600080fd5b5061032b6107493660046125e9565b61119a565b34801561075a57600080fd5b50601054610358906001600160a01b031681565b34801561077a57600080fd5b506102df610789366004612a8c565b6111d8565b34801561079a57600080fd5b506103016107a9366004612aed565b6001600160a01b03918216600090815260056020908152604080832093909416825291909152205460ff1690565b3480156107e357600080fd5b506102df6107f2366004612920565b6113e3565b6102df610805366004612a8c565b61143a565b600b546001600160a01b0316331461084e576040517f5fc483c500000000000000000000000000000000000000000000000000000000815260040160405180910390fd5b601255565b600061085e82611647565b92915050565b60606000805461087390612b17565b80601f016020809104026020016040519081016040528092919081815260200182805461089f90612b17565b80156108ec5780601f106108c1576101008083540402835291602001916108ec565b820191906000526020600020905b8154815290600101906020018083116108cf57829003601f168201915b5050505050905090565b60006109018261169d565b506000828152600460205260409020546001600160a01b031661085e565b61092a8282336116ef565b5050565b600b546001600160a01b03163314610972576040517f5fc483c500000000000000000000000000000000000000000000000000000000815260040160405180910390fd5b81158061097f5750808210155b156109c5576040517f2221fc9c00000000000000000000000000000000000000000000000000000000815260048101839052602481018290526044015b60405180910390fd5b60408051808201909152828152602001819052601391909155601455565b6001600160a01b038216610a26576040517f64a0ae92000000000000000000000000000000000000000000000000000000008152600060048201526024016109bc565b6000610a338383336116fc565b9050836001600160a01b0316816001600160a01b031614610a9a576040517f64283d7b0000000000000000000000000000000000000000000000000000000081526001600160a01b03808616600483015260248201849052821660448201526064016109bc565b50505050565b600b546001600160a01b03163314610ae4576040517f5fc483c500000000000000000000000000000000000000000000000000000000815260040160405180910390fd5b610af160296101fe612b99565b60155461ffff91821691610b0e9184916201000090910416612bbb565b61ffff161115610b4a576040517fe190bbde00000000000000000000000000000000000000000000000000000000815260040160405180910390fd5b80601560028282829054906101000a900461ffff16610b699190612bbb565b92506101000a81548161ffff021916908361ffff1602179055507f91de6807059d965565527b1521c54271af4eea115734d20551013741310725cc8282604051610bcc9291906001600160a01b0392909216825261ffff16602082015260400190565b60405180910390a161092a8282611711565b6000610be983610e87565b8210610c33576040517fa57d13dc0000000000000000000000000000000000000000000000000000000081526001600160a01b0384166004820152602481018390526044016109bc565b506001600160a01b03919091166000908152600660209081526040808320938352929052205490565b600b546001600160a01b03163314610ca0576040517f5fc483c500000000000000000000000000000000000000000000000000000000815260040160405180910390fd5b601054610cb6906001600160a01b0316476117d1565b565b610cd383838360405180602001604052806000815250611183565b505050565b6000610ce360085490565b8210610d25576040517fa57d13dc00000000000000000000000000000000000000000000000000000000815260006004820152602481018390526044016109bc565b60088281548110610d3857610d38612bd6565b90600052602060002001549050919050565b6040517fffffffffffffffffffffffffffffffffffffffff000000000000000000000000606083901b1660208201526000908190603401604051602081830303815290604052805190602001209050610dda85858080602002602001604051908101604052809392919081815260200183836020028082843760009201919091525050601154915084905061189a565b95945050505050565b600b546001600160a01b03163314610e27576040517f5fc483c500000000000000000000000000000000000000000000000000000000815260040160405180910390fd5b600d61092a8282612c55565b600061085e8261169d565b600b546001600160a01b03163314610e82576040517f5fc483c500000000000000000000000000000000000000000000000000000000815260040160405180910390fd5b600f55565b60006001600160a01b038216610ecc576040517f89c62b64000000000000000000000000000000000000000000000000000000008152600060048201526024016109bc565b506001600160a01b031660009081526003602052604090205490565b610ef06118b0565b610cb660006118f6565b604080516001600160a01b038416602082015260ff831691810191909152600090819060600160408051601f1981840301815282825280516020918201209083015201604051602081830303815290604052805190602001209050600e60008787604051602001610f6c929190612d51565b60408051601f198184030181529181528151602092830120835290820192909252016000205460ff1615610fcc576040517f09bde33900000000000000000000000000000000000000000000000000000000815260040160405180910390fd5b61100d86868080602002602001604051908101604052809392919081815260200183836020028082843760009201919091525050601254915084905061189a565b9695505050505050565b600b546001600160a01b0316331461105b576040517f5fc483c500000000000000000000000000000000000000000000000000000000815260040160405180910390fd5b601155565b60606001805461087390612b17565b61092a338383611960565b6000808360ff16600f5461108e9190612d93565b905082156110be5760646110a3600f82612b99565b6110b19061ffff1683612d93565b6110bb9190612daa565b90505b9392505050565b600b546001600160a01b03163314611109576040517f5fc483c500000000000000000000000000000000000000000000000000000000815260040160405180910390fd5b6001600160a01b038116611149576040517fd92e233d00000000000000000000000000000000000000000000000000000000815260040160405180910390fd5b601080547fffffffffffffffffffffffff0000000000000000000000000000000000000000166001600160a01b0392909216919091179055565b61118e8484846109e3565b610a9a84848484611a36565b60606111a58261169d565b50600d6111b183611bdb565b6040516020016111c2929190612de5565b6040516020818303038152906040529050919050565b601354600003611214576040517face124bc00000000000000000000000000000000000000000000000000000000815260040160405180910390fd5b601354421161124f576040517f6b68780600000000000000000000000000000000000000000000000000000000815260040160405180910390fd5b6015546029906112679060ff86169061ffff16612bbb565b61ffff1611156112a3576040517f94578c2400000000000000000000000000000000000000000000000000000000815260040160405180910390fd5b6112af82828686610efa565b6112e5576040517f09bde33900000000000000000000000000000000000000000000000000000000815260040160405180910390fd5b6001600e600084846040516020016112fe929190612d51565b60408051808303601f19018152918152815160209283012083529082019290925201600090812080547fffffffffffffffffffffffffffffffffffffffffffffffffffffffffffffff0016921515929092179091556015805460ff8616929061136c90849061ffff16612bbb565b92506101000a81548161ffff021916908361ffff1602179055507f88313928f1dbadec0c20b84f12b7ed8c6643f37f0f7c7e2e00ad0a6ae5c69c8584846040516113ce9291906001600160a01b0392909216825260ff16602082015260400190565b60405180910390a1610a9a848460ff16611711565b6113eb6118b0565b6001600160a01b03811661142e576040517f1e4fbdf7000000000000000000000000000000000000000000000000000000008152600060048201526024016109bc565b611437816118f6565b50565b601354600003611476576040517face124bc00000000000000000000000000000000000000000000000000000000815260040160405180910390fd5b604080518082019091526013548152601454602082018190524210158061149e575080514211155b156114e557805160208201516040517f2221fc9c000000000000000000000000000000000000000000000000000000008152600481019290925260248201526044016109bc565b6114f260296101fe612b99565b60155461ffff918216916115129160ff8816916201000090910416612bbb565b61ffff16111561154e576040517fe190bbde00000000000000000000000000000000000000000000000000000000815260040160405180910390fd5b600061155b848433610d4a565b90506000611569868361107a565b9050803410156115a5576040517f356680b700000000000000000000000000000000000000000000000000000000815260040160405180910390fd5b8560ff16601560028282829054906101000a900461ffff166115c79190612bbb565b92506101000a81548161ffff021916908361ffff1602179055507f91de6807059d965565527b1521c54271af4eea115734d20551013741310725cc87876040516116299291906001600160a01b0392909216825260ff16602082015260400190565b60405180910390a161163e878760ff16611711565b50505050505050565b60007fffffffff0000000000000000000000000000000000000000000000000000000082167f4906490600000000000000000000000000000000000000000000000000000000148061085e575061085e82611c99565b6000818152600260205260408120546001600160a01b03168061085e576040517f7e273289000000000000000000000000000000000000000000000000000000008152600481018490526024016109bc565b610cd38383836001611cef565b6000611709848484611e45565b949350505050565b6001600160a01b038216611751576040517fd92e233d00000000000000000000000000000000000000000000000000000000815260040160405180910390fd5b600a61ffff82161115611790576040517f5316efda00000000000000000000000000000000000000000000000000000000815260040160405180910390fd5b60005b8161ffff168160ff161015610cd3576117bf83600c600081546117b590612e8a565b9182905550611f12565b806117c981612ec2565b915050611793565b8047101561180d576040517fcd7860590000000000000000000000000000000000000000000000000000000081523060048201526024016109bc565b6000826001600160a01b03168260405160006040518083038185875af1925050503d806000811461185a576040519150601f19603f3d011682016040523d82523d6000602084013e61185f565b606091505b5050905080610cd3576040517f1425ea4200000000000000000000000000000000000000000000000000000000815260040160405180910390fd5b6000826118a78584611f2c565b14949350505050565b600b546001600160a01b03163314610cb6576040517f118cdaa70000000000000000000000000000000000000000000000000000000081523360048201526024016109bc565b600b80546001600160a01b038381167fffffffffffffffffffffffff0000000000000000000000000000000000000000831681179093556040519116919082907f8be0079c531659141344cd1fd0a4f28419497f9722a3daafe3b4186f6b6457e090600090a35050565b6001600160a01b0382166119ab576040517f5b08ba180000000000000000000000000000000000000000000000000000000081526001600160a01b03831660048201526024016109bc565b6001600160a01b0383811660008181526005602090815260408083209487168084529482529182902080547fffffffffffffffffffffffffffffffffffffffffffffffffffffffffffffff001686151590811790915591519182527f17307eab39ab6107e8899845ad3d59bd9653f200f220920489ca2b5937696c31910160405180910390a3505050565b6001600160a01b0383163b15610a9a576040517f150b7a020000000000000000000000000000000000000000000000000000000081526001600160a01b0384169063150b7a0290611a91903390889087908790600401612ee1565b6020604051808303816000875af1925050508015611acc575060408051601f3d908101601f19168201909252611ac991810190612f13565b60015b611b4e573d808015611afa576040519150601f19603f3d011682016040523d82523d6000602084013e611aff565b606091505b508051600003611b46576040517f64a0ae920000000000000000000000000000000000000000000000000000000081526001600160a01b03851660048201526024016109bc565b805181602001fd5b7fffffffff0000000000000000000000000000000000000000000000000000000081167f150b7a020000000000000000000000000000000000000000000000000000000014611bd4576040517f64a0ae920000000000000000000000000000000000000000000000000000000081526001600160a01b03851660048201526024016109bc565b5050505050565b60606000611be883611f6f565b600101905060008167ffffffffffffffff811115611c0857611c08612832565b6040519080825280601f01601f191660200182016040528015611c32576020820181803683370190505b5090508181016020015b7fffffffffffffffffffffffffffffffffffffffffffffffffffffffffffffffff017f3031323334353637383961626364656600000000000000000000000000000000600a86061a8153600a8504945084611c3c57509392505050565b60007fffffffff0000000000000000000000000000000000000000000000000000000082167f780e9d6300000000000000000000000000000000000000000000000000000000148061085e575061085e82612051565b8080611d0357506001600160a01b03821615155b15611dfd576000611d138461169d565b90506001600160a01b03831615801590611d3f5750826001600160a01b0316816001600160a01b031614155b8015611d7157506001600160a01b0380821660009081526005602090815260408083209387168352929052205460ff16155b15611db3576040517fa9fbf51f0000000000000000000000000000000000000000000000000000000081526001600160a01b03841660048201526024016109bc565b8115611dfb5783856001600160a01b0316826001600160a01b03167f8c5be1e5ebec7d5bd14f71427d1e84f3dd0314c0f7b2291e5b200ac8c7c3b92560405160405180910390a45b505b5050600090815260046020526040902080547fffffffffffffffffffffffff0000000000000000000000000000000000000000166001600160a01b0392909216919091179055565b600080611e53858585612134565b90506001600160a01b038116611eb057611eab84600880546000838152600960205260408120829055600182018355919091527ff3f7a9fe364faab93b216da50a3214154f22a0a2b415b23a84c8169e8b636ee30155565b611ed3565b846001600160a01b0316816001600160a01b031614611ed357611ed38185612263565b6001600160a01b038516611eef57611eea846122f4565b611709565b846001600160a01b0316816001600160a01b0316146117095761170985856123a3565b61092a8282604051806020016040528060008152506123f3565b600081815b8451811015611f6757611f5d82868381518110611f5057611f50612bd6565b602002602001015161240a565b9150600101611f31565b509392505050565b6000807a184f03e93ff9f4daa797ed6e38ed64bf6a1f0100000000000000008310611fb8577a184f03e93ff9f4daa797ed6e38ed64bf6a1f010000000000000000830492506040015b6d04ee2d6d415b85acef81000000008310611fe4576d04ee2d6d415b85acef8100000000830492506020015b662386f26fc10000831061200257662386f26fc10000830492506010015b6305f5e100831061201a576305f5e100830492506008015b612710831061202e57612710830492506004015b60648310612040576064830492506002015b600a831061085e5760010192915050565b60007fffffffff0000000000000000000000000000000000000000000000000000000082167f80ac58cd0000000000000000000000000000000000000000000000000000000014806120e457507fffffffff0000000000000000000000000000000000000000000000000000000082167f5b5e139f00000000000000000000000000000000000000000000000000000000145b8061085e57507f01ffc9a7000000000000000000000000000000000000000000000000000000007fffffffff0000000000000000000000000000000000000000000000000000000083161461085e565b6000828152600260205260408120546001600160a01b039081169083161561216157612161818486612439565b6001600160a01b038116156121bd5761217e600085600080611cef565b6001600160a01b038116600090815260036020526040902080547fffffffffffffffffffffffffffffffffffffffffffffffffffffffffffffffff0190555b6001600160a01b038516156121ec576001600160a01b0385166000908152600360205260409020805460010190555b60008481526002602052604080822080547fffffffffffffffffffffffff0000000000000000000000000000000000000000166001600160a01b0389811691821790925591518793918516917fddf252ad1be2c89b69c2b068fc378daa952ba7f163c4a11628f55a4df523b3ef91a4949350505050565b600061226e83610e87565b6000838152600760205260409020549091508082146122c1576001600160a01b03841660009081526006602090815260408083208584528252808320548484528184208190558352600790915290208190555b5060009182526007602090815260408084208490556001600160a01b039094168352600681528383209183525290812055565b60085460009061230690600190612f30565b6000838152600960205260408120546008805493945090928490811061232e5761232e612bd6565b90600052602060002001549050806008838154811061234f5761234f612bd6565b600091825260208083209091019290925582815260099091526040808220849055858252812055600880548061238757612387612f43565b6001900381819060005260206000200160009055905550505050565b600060016123b084610e87565b6123ba9190612f30565b6001600160a01b039093166000908152600660209081526040808320868452825280832085905593825260079052919091209190915550565b6123fd83836124cf565b610cd36000848484611a36565b60008183106124265760008281526020849052604090206110be565b60008381526020839052604090206110be565b612444838383612566565b610cd3576001600160a01b03831661248b576040517f7e273289000000000000000000000000000000000000000000000000000000008152600481018290526024016109bc565b6040517f177e802f0000000000000000000000000000000000000000000000000000000081526001600160a01b0383166004820152602481018290526044016109bc565b6001600160a01b038216612512576040517f64a0ae92000000000000000000000000000000000000000000000000000000008152600060048201526024016109bc565b6000612520838360006116fc565b90506001600160a01b03811615610cd3576040517f73c6ac6e000000000000000000000000000000000000000000000000000000008152600060048201526024016109bc565b60006001600160a01b038316158015906117095750826001600160a01b0316846001600160a01b031614806125c057506001600160a01b0380851660009081526005602090815260408083209387168352929052205460ff165b806117095750506000908152600460205260409020546001600160a01b03908116911614919050565b6000602082840312156125fb57600080fd5b5035919050565b7fffffffff000000000000000000000000000000000000000000000000000000008116811461143757600080fd5b60006020828403121561264257600080fd5b81356110be81612602565b60005b83811015612668578181015183820152602001612650565b50506000910152565b6000815180845261268981602086016020860161264d565b601f01601f19169290920160200192915050565b6020815260006110be6020830184612671565b80356001600160a01b03811681146126c757600080fd5b919050565b600080604083850312156126df57600080fd5b6126e8836126b0565b946020939093013593505050565b6000806040838503121561270957600080fd5b50508035926020909101359150565b60008060006060848603121561272d57600080fd5b612736846126b0565b9250612744602085016126b0565b9150604084013590509250925092565b6000806040838503121561276757600080fd5b612770836126b0565b9150602083013561ffff8116811461278757600080fd5b809150509250929050565b60008083601f8401126127a457600080fd5b50813567ffffffffffffffff8111156127bc57600080fd5b6020830191508360208260051b85010111156127d757600080fd5b9250929050565b6000806000604084860312156127f357600080fd5b833567ffffffffffffffff81111561280a57600080fd5b61281686828701612792565b90945092506128299050602085016126b0565b90509250925092565b7f4e487b7100000000000000000000000000000000000000000000000000000000600052604160045260246000fd5b600067ffffffffffffffff8084111561287c5761287c612832565b604051601f8501601f19908116603f011681019082821181831017156128a4576128a4612832565b816040528093508581528686860111156128bd57600080fd5b858560208301376000602087830101525050509392505050565b6000602082840312156128e957600080fd5b813567ffffffffffffffff81111561290057600080fd5b8201601f8101841361291157600080fd5b61170984823560208401612861565b60006020828403121561293257600080fd5b6110be826126b0565b803560ff811681146126c757600080fd5b6000806000806060858703121561296257600080fd5b843567ffffffffffffffff81111561297957600080fd5b61298587828801612792565b90955093506129989050602086016126b0565b91506129a66040860161293b565b905092959194509250565b803580151581146126c757600080fd5b600080604083850312156129d457600080fd5b6129dd836126b0565b91506129eb602084016129b1565b90509250929050565b60008060408385031215612a0757600080fd5b6129dd8361293b565b60008060008060808587031215612a2657600080fd5b612a2f856126b0565b9350612a3d602086016126b0565b925060408501359150606085013567ffffffffffffffff811115612a6057600080fd5b8501601f81018713612a7157600080fd5b612a8087823560208401612861565b91505092959194509250565b60008060008060608587031215612aa257600080fd5b612aab856126b0565b9350612ab96020860161293b565b9250604085013567ffffffffffffffff811115612ad557600080fd5b612ae187828801612792565b95989497509550505050565b60008060408385031215612b0057600080fd5b612b09836126b0565b91506129eb602084016126b0565b600181811c90821680612b2b57607f821691505b602082108103612b64577f4e487b7100000000000000000000000000000000000000000000000000000000600052602260045260246000fd5b50919050565b7f4e487b7100000000000000000000000000000000000000000000000000000000600052601160045260246000fd5b61ffff828116828216039080821115612bb457612bb4612b6a565b5092915050565b61ffff818116838216019080821115612bb457612bb4612b6a565b7f4e487b7100000000000000000000000000000000000000000000000000000000600052603260045260246000fd5b601f821115610cd3576000816000526020600020601f850160051c81016020861015612c2e5750805b601f850160051c820191505b81811015612c4d57828155600101612c3a565b505050505050565b815167ffffffffffffffff811115612c6f57612c6f612832565b612c8381612c7d8454612b17565b84612c05565b602080601f831160018114612cd65760008415612ca05750858301515b7fffffffffffffffffffffffffffffffffffffffffffffffffffffffffffffffff600386901b1c1916600185901b178555612c4d565b600085815260208120601f198616915b82811015612d0557888601518255948401946001909101908401612ce6565b5085821015612d4157878501517fffffffffffffffffffffffffffffffffffffffffffffffffffffffffffffffff600388901b60f8161c191681555b5050505050600190811b01905550565b60007f07ffffffffffffffffffffffffffffffffffffffffffffffffffffffffffffff831115612d8057600080fd5b8260051b80858437919091019392505050565b808202811582820484141761085e5761085e612b6a565b600082612de0577f4e487b7100000000000000000000000000000000000000000000000000000000600052601260045260246000fd5b500490565b6000808454612df381612b17565b60018281168015612e0b5760018114612e3e57612e6d565b7fffffffffffffffffffffffffffffffffffffffffffffffffffffffffffffff0084168752821515830287019450612e6d565b8860005260208060002060005b85811015612e645781548a820152908401908201612e4b565b50505082870194505b505050508351612e8181836020880161264d565b01949350505050565b60007fffffffffffffffffffffffffffffffffffffffffffffffffffffffffffffffff8203612ebb57612ebb612b6a565b5060010190565b600060ff821660ff8103612ed857612ed8612b6a565b60010192915050565b60006001600160a01b0380871683528086166020840152508360408301526080606083015261100d6080830184612671565b600060208284031215612f2557600080fd5b81516110be81612602565b8181038181111561085e5761085e612b6a565b7f4e487b7100000000000000000000000000000000000000000000000000000000600052603160045260246000fdfea164736f6c6343000817000a","linkReferences":{}},"methodIdentifiers":{"DISCOUNT_PERCENTAGE()":"af760d6c","FREE_CLAIM_AMOUNT()":"b2af06f9","MAX_SUPPLY()":"32cb6b0c","approve(address,uint256)":"095ea7b3","balanceOf(address)":"70a08231","calculatePrice(uint8,bool)":"aa981b48","checkDiscountMerkleProof(bytes32[],address)":"53493a0e","checkFreeClaimAllowlist(bytes32[],address,uint8)":"7ab05865","claim(address,uint8,bytes32[])":"e2387028","freeClaimed()":"1b47ec3a","fundsReceiverAddress()":"d9f76f31","getApproved(uint256)":"081812fc","getConfig()":"c3f909d4","isApprovedForAll(address,address)":"e985e9c5","mint(address,uint8,bytes32[])":"f9628b7c","name()":"06fdde03","owner()":"8da5cb5b","ownerMint(address,uint16)":"295439e1","ownerOf(uint256)":"6352211e","regularMinted()":"2ad74e12","renounceOwnership()":"715018a6","safeTransferFrom(address,address,uint256)":"42842e0e","safeTransferFrom(address,address,uint256,bytes)":"b88d4fde","setApprovalForAll(address,bool)":"a22cb465","setBaseURI(string)":"55f804b3","setConfig(uint256,uint256)":"1e34c585","setDiscountAllowlistRoot(bytes32)":"89b08d30","setFreeClaimAllowlistRoot(bytes32)":"00fc92b9","setFundsReceiverAddress(address)":"ae8e3d2f","setTokenPrice(uint256)":"6a61e5fc","supportsInterface(bytes4)":"01ffc9a7","symbol()":"95d89b41","tokenByIndex(uint256)":"4f6ccce7","tokenOfOwnerByIndex(address,uint256)":"2f745c59","tokenPrice()":"7ff9b596","tokenURI(uint256)":"c87b56dd","totalSupply()":"18160ddd","transferFrom(address,address,uint256)":"23b872dd","transferOwnership(address)":"f2fde38b","withdraw()":"3ccfd60b"},"id":35}