{"abi":[{"type":"constructor","inputs":[{"name":"initialOwner","type":"address","internalType":"address"},{"name":"_baseUri","type":"string","internalType":"string"}],"stateMutability":"nonpayable"},{"type":"function","name":"PRICE_PER_TOKEN","inputs":[],"outputs":[{"name":"","type":"uint256","internalType":"uint256"}],"stateMutability":"view"},{"type":"function","name":"approve","inputs":[{"name":"to","type":"address","internalType":"address"},{"name":"tokenId","type":"uint256","internalType":"uint256"}],"outputs":[],"stateMutability":"nonpayable"},{"type":"function","name":"balanceOf","inputs":[{"name":"owner","type":"address","internalType":"address"}],"outputs":[{"name":"","type":"uint256","internalType":"uint256"}],"stateMutability":"view"},{"type":"function","name":"fundsReceiverAddress","inputs":[],"outputs":[{"name":"","type":"address","internalType":"address payable"}],"stateMutability":"view"},{"type":"function","name":"getApproved","inputs":[{"name":"tokenId","type":"uint256","internalType":"uint256"}],"outputs":[{"name":"","type":"address","internalType":"address"}],"stateMutability":"view"},{"type":"function","name":"isApprovedForAll","inputs":[{"name":"owner","type":"address","internalType":"address"},{"name":"operator","type":"address","internalType":"address"}],"outputs":[{"name":"","type":"bool","internalType":"bool"}],"stateMutability":"view"},{"type":"function","name":"mint","inputs":[{"name":"recipient","type":"address","internalType":"address"},{"name":"_amount","type":"uint8","internalType":"uint8"}],"outputs":[],"stateMutability":"nonpayable"},{"type":"function","name":"name","inputs":[],"outputs":[{"name":"","type":"string","internalType":"string"}],"stateMutability":"view"},{"type":"function","name":"owner","inputs":[],"outputs":[{"name":"","type":"address","internalType":"address"}],"stateMutability":"view"},{"type":"function","name":"ownerOf","inputs":[{"name":"tokenId","type":"uint256","internalType":"uint256"}],"outputs":[{"name":"","type":"address","internalType":"address"}],"stateMutability":"view"},{"type":"function","name":"renounceOwnership","inputs":[],"outputs":[],"stateMutability":"nonpayable"},{"type":"function","name":"safeTransferFrom","inputs":[{"name":"from","type":"address","internalType":"address"},{"name":"to","type":"address","internalType":"address"},{"name":"tokenId","type":"uint256","internalType":"uint256"}],"outputs":[],"stateMutability":"nonpayable"},{"type":"function","name":"safeTransferFrom","inputs":[{"name":"from","type":"address","internalType":"address"},{"name":"to","type":"address","internalType":"address"},{"name":"tokenId","type":"uint256","internalType":"uint256"},{"name":"data","type":"bytes","internalType":"bytes"}],"outputs":[],"stateMutability":"nonpayable"},{"type":"function","name":"setApprovalForAll","inputs":[{"name":"operator","type":"address","internalType":"address"},{"name":"approved","type":"bool","internalType":"bool"}],"outputs":[],"stateMutability":"nonpayable"},{"type":"function","name":"setBaseURI","inputs":[{"name":"newBaseURI","type":"string","internalType":"string"}],"outputs":[],"stateMutability":"nonpayable"},{"type":"function","name":"setFundsReceiverAddress","inputs":[{"name":"newFundsReceiverAddress","type":"address","internalType":"address"}],"outputs":[],"stateMutability":"nonpayable"},{"type":"function","name":"supportsInterface","inputs":[{"name":"interfaceId","type":"bytes4","internalType":"bytes4"}],"outputs":[{"name":"","type":"bool","internalType":"bool"}],"stateMutability":"view"},{"type":"function","name":"symbol","inputs":[],"outputs":[{"name":"","type":"string","internalType":"string"}],"stateMutability":"view"},{"type":"function","name":"tokenByIndex","inputs":[{"name":"index","type":"uint256","internalType":"uint256"}],"outputs":[{"name":"","type":"uint256","internalType":"uint256"}],"stateMutability":"view"},{"type":"function","name":"tokenOfOwnerByIndex","inputs":[{"name":"owner","type":"address","internalType":"address"},{"name":"index","type":"uint256","internalType":"uint256"}],"outputs":[{"name":"","type":"uint256","internalType":"uint256"}],"stateMutability":"view"},{"type":"function","name":"tokenURI","inputs":[{"name":"tokenId","type":"uint256","internalType":"uint256"}],"outputs":[{"name":"","type":"string","internalType":"string"}],"stateMutability":"view"},{"type":"function","name":"totalSupply","inputs":[],"outputs":[{"name":"","type":"uint256","internalType":"uint256"}],"stateMutability":"view"},{"type":"function","name":"transferFrom","inputs":[{"name":"from","type":"address","internalType":"address"},{"name":"to","type":"address","internalType":"address"},{"name":"tokenId","type":"uint256","internalType":"uint256"}],"outputs":[],"stateMutability":"nonpayable"},{"type":"function","name":"transferOwnership","inputs":[{"name":"newOwner","type":"address","internalType":"address"}],"outputs":[],"stateMutability":"nonpayable"},{"type":"function","name":"withdraw","inputs":[],"outputs":[],"stateMutability":"nonpayable"},{"type":"event","name":"Approval","inputs":[{"name":"owner","type":"address","indexed":true,"internalType":"address"},{"name":"approved","type":"address","indexed":true,"internalType":"address"},{"name":"tokenId","type":"uint256","indexed":true,"internalType":"uint256"}],"anonymous":false},{"type":"event","name":"ApprovalForAll","inputs":[{"name":"owner","type":"address","indexed":true,"internalType":"address"},{"name":"operator","type":"address","indexed":true,"internalType":"address"},{"name":"approved","type":"bool","indexed":false,"internalType":"bool"}],"anonymous":false},{"type":"event","name":"BatchMetadataUpdate","inputs":[{"name":"_fromTokenId","type":"uint256","indexed":false,"internalType":"uint256"},{"name":"_toTokenId","type":"uint256","indexed":false,"internalType":"uint256"}],"anonymous":false},{"type":"event","name":"MetadataUpdate","inputs":[{"name":"_tokenId","type":"uint256","indexed":false,"internalType":"uint256"}],"anonymous":false},{"type":"event","name":"Minted","inputs":[{"name":"recipient","type":"address","indexed":true,"internalType":"address"},{"name":"tokenId","type":"uint256","indexed":true,"internalType":"uint256"}],"anonymous":false},{"type":"event","name":"OwnershipTransferred","inputs":[{"name":"previousOwner","type":"address","indexed":true,"internalType":"address"},{"name":"newOwner","type":"address","indexed":true,"internalType":"address"}],"anonymous":false},{"type":"event","name":"Transfer","inputs":[{"name":"from","type":"address","indexed":true,"internalType":"address"},{"name":"to","type":"address","indexed":true,"internalType":"address"},{"name":"tokenId","type":"uint256","indexed":true,"internalType":"uint256"}],"anonymous":false},{"type":"error","name":"AddressInsufficientBalance","inputs":[{"name":"account","type":"address","internalType":"address"}]},{"type":"error","name":"ERC721EnumerableForbiddenBatchMint","inputs":[]},{"type":"error","name":"ERC721IncorrectOwner","inputs":[{"name":"sender","type":"address","internalType":"address"},{"name":"tokenId","type":"uint256","internalType":"uint256"},{"name":"owner","type":"address","internalType":"address"}]},{"type":"error","name":"ERC721InsufficientApproval","inputs":[{"name":"operator","type":"address","internalType":"address"},{"name":"tokenId","type":"uint256","internalType":"uint256"}]},{"type":"error","name":"ERC721InvalidApprover","inputs":[{"name":"approver","type":"address","internalType":"address"}]},{"type":"error","name":"ERC721InvalidOperator","inputs":[{"name":"operator","type":"address","internalType":"address"}]},{"type":"error","name":"ERC721InvalidOwner","inputs":[{"name":"owner","type":"address","internalType":"address"}]},{"type":"error","name":"ERC721InvalidReceiver","inputs":[{"name":"receiver","type":"address","internalType":"address"}]},{"type":"error","name":"ERC721InvalidSender","inputs":[{"name":"sender","type":"address","internalType":"address"}]},{"type":"error","name":"ERC721NonexistentToken","inputs":[{"name":"tokenId","type":"uint256","internalType":"uint256"}]},{"type":"error","name":"ERC721OutOfBoundsIndex","inputs":[{"name":"owner","type":"address","internalType":"address"},{"name":"index","type":"uint256","internalType":"uint256"}]},{"type":"error","name":"FailedInnerCall","inputs":[]},{"type":"error","name":"MaxNumberOfMintedTokensExceeded","inputs":[]},{"type":"error","name":"MaxSupplyExceeded","inputs":[]},{"type":"error","name":"OnlyMinter","inputs":[]},{"type":"error","name":"OnlyOwner","inputs":[]},{"type":"error","name":"OwnableInvalidOwner","inputs":[{"name":"owner","type":"address","internalType":"address"}]},{"type":"error","name":"OwnableUnauthorizedAccount","inputs":[{"name":"account","type":"address","internalType":"address"}]},{"type":"error","name":"ZeroAddress","inputs":[]}],"bytecode":{"object":"0x60806040523480156200001157600080fd5b506040516200237a3803806200237a833981016040819052620000349162000174565b816040518060400160405280600b81526020016a1b5bdcd85a58c81d195e1d60aa1b815250604051806040016040528060068152602001654d4f5341494360d01b8152508160009081620000899190620002fb565b506001620000988282620002fb565b5050506001600160a01b038116620000ca57604051631e4fbdf760e01b81526000600482015260240160405180910390fd5b620000d5816200010c565b50600c620000e48282620002fb565b5050600d80546001600160a01b0319166001600160a01b0392909216919091179055620003c7565b600b80546001600160a01b038381166001600160a01b0319831681179093556040519116919082907f8be0079c531659141344cd1fd0a4f28419497f9722a3daafe3b4186f6b6457e090600090a35050565b634e487b7160e01b600052604160045260246000fd5b600080604083850312156200018857600080fd5b82516001600160a01b0381168114620001a057600080fd5b602084810151919350906001600160401b0380821115620001c057600080fd5b818601915086601f830112620001d557600080fd5b815181811115620001ea57620001ea6200015e565b604051601f8201601f19908116603f011681019083821181831017156200021557620002156200015e565b8160405282815289868487010111156200022e57600080fd5b600093505b8284101562000252578484018601518185018701529285019262000233565b60008684830101528096505050505050509250929050565b600181811c908216806200027f57607f821691505b602082108103620002a057634e487b7160e01b600052602260045260246000fd5b50919050565b601f821115620002f6576000816000526020600020601f850160051c81016020861015620002d15750805b601f850160051c820191505b81811015620002f257828155600101620002dd565b5050505b505050565b81516001600160401b038111156200031757620003176200015e565b6200032f816200032884546200026a565b84620002a6565b602080601f8311600181146200036757600084156200034e5750858301515b600019600386901b1c1916600185901b178555620002f2565b600085815260208120601f198616915b82811015620003985788860151825594840194600190910190840162000377565b5085821015620003b75787850151600019600388901b60f8161c191681555b5050505050600190811b01905550565b611fa380620003d76000396000f3fe608060405234801561001057600080fd5b50600436106101a35760003560e01c8063691562a0116100ee578063a22cb46511610097578063c87b56dd11610071578063c87b56dd1461033f578063d9f76f3114610352578063e985e9c514610365578063f2fde38b146103a157600080fd5b8063a22cb46514610306578063ae8e3d2f14610319578063b88d4fde1461032c57600080fd5b8063833b9499116100c8578063833b9499146102df5780638da5cb5b146102ed57806395d89b41146102fe57600080fd5b8063691562a0146102b157806370a08231146102c4578063715018a6146102d757600080fd5b80632f745c59116101505780634f6ccce71161012a5780634f6ccce71461027857806355f804b31461028b5780636352211e1461029e57600080fd5b80632f745c591461024a5780633ccfd60b1461025d57806342842e0e1461026557600080fd5b8063095ea7b311610181578063095ea7b31461021057806318160ddd1461022557806323b872dd1461023757600080fd5b806301ffc9a7146101a857806306fdde03146101d0578063081812fc146101e5575b600080fd5b6101bb6101b63660046118a4565b6103b4565b60405190151581526020015b60405180910390f35b6101d86103c5565b6040516101c79190611936565b6101f86101f3366004611949565b610457565b6040516001600160a01b0390911681526020016101c7565b61022361021e36600461197e565b610480565b005b6008545b6040519081526020016101c7565b6102236102453660046119a8565b61048f565b61022961025836600461197e565b610551565b6102236105cf565b6102236102733660046119a8565b61062b565b610229610286366004611949565b61064b565b610223610299366004611aa7565b6106bd565b6101f86102ac366004611949565b61070d565b6102236102bf366004611af0565b610718565b6102296102d2366004611b2d565b610807565b610223610868565b6102296658d15e1762800081565b600b546001600160a01b03166101f8565b6101d861087a565b610223610314366004611b48565b610889565b610223610327366004611b2d565b610894565b61022361033a366004611b79565b610952565b6101d861034d366004611949565b610969565b600d546101f8906001600160a01b031681565b6101bb610373366004611bf5565b6001600160a01b03918216600090815260056020908152604080832093909416825291909152205460ff1690565b6102236103af366004611b2d565b6109a7565b60006103bf826109fe565b92915050565b6060600080546103d490611c28565b80601f016020809104026020016040519081016040528092919081815260200182805461040090611c28565b801561044d5780601f106104225761010080835404028352916020019161044d565b820191906000526020600020905b81548152906001019060200180831161043057829003601f168201915b5050505050905090565b600061046282610a54565b506000828152600460205260409020546001600160a01b03166103bf565b61048b828233610aa6565b5050565b6001600160a01b0382166104d7576040517f64a0ae92000000000000000000000000000000000000000000000000000000008152600060048201526024015b60405180910390fd5b60006104e4838333610ab3565b9050836001600160a01b0316816001600160a01b03161461054b576040517f64283d7b0000000000000000000000000000000000000000000000000000000081526001600160a01b03808616600483015260248201849052821660448201526064016104ce565b50505050565b600061055c83610807565b82106105a6576040517fa57d13dc0000000000000000000000000000000000000000000000000000000081526001600160a01b0384166004820152602481018390526044016104ce565b506001600160a01b03919091166000908152600660209081526040808320938352929052205490565b600b546001600160a01b03163314610613576040517f5fc483c500000000000000000000000000000000000000000000000000000000815260040160405180910390fd5b600d54610629906001600160a01b031647610ac8565b565b61064683838360405180602001604052806000815250610952565b505050565b600061065660085490565b8210610698576040517fa57d13dc00000000000000000000000000000000000000000000000000000000815260006004820152602481018390526044016104ce565b600882815481106106ab576106ab611c7b565b90600052602060002001549050919050565b600b546001600160a01b03163314610701576040517f5fc483c500000000000000000000000000000000000000000000000000000000815260040160405180910390fd5b600c61048b8282611cfa565b60006103bf82610a54565b6001600160a01b038216610758576040517fd92e233d00000000000000000000000000000000000000000000000000000000815260040160405180910390fd5b600a60ff82161115610796576040517f9b61b77500000000000000000000000000000000000000000000000000000000815260040160405180910390fd5b600b5474010000000000000000000000000000000000000000900461ffff166101fe6107c560ff841683611e43565b11156107fd576040517f8a164f6300000000000000000000000000000000000000000000000000000000815260040160405180910390fd5b6106468382610b91565b60006001600160a01b03821661084c576040517f89c62b64000000000000000000000000000000000000000000000000000000008152600060048201526024016104ce565b506001600160a01b031660009081526003602052604090205490565b610870610bab565b6106296000610bf1565b6060600180546103d490611c28565b61048b338383610c5b565b600b546001600160a01b031633146108d8576040517f5fc483c500000000000000000000000000000000000000000000000000000000815260040160405180910390fd5b6001600160a01b038116610918576040517fd92e233d00000000000000000000000000000000000000000000000000000000815260040160405180910390fd5b600d80547fffffffffffffffffffffffff0000000000000000000000000000000000000000166001600160a01b0392909216919091179055565b61095d84848461048f565b61054b84848484610d31565b606061097482610a54565b50600c61098083610ef4565b604051602001610991929190611e56565b6040516020818303038152906040529050919050565b6109af610bab565b6001600160a01b0381166109f2576040517f1e4fbdf7000000000000000000000000000000000000000000000000000000008152600060048201526024016104ce565b6109fb81610bf1565b50565b60007fffffffff0000000000000000000000000000000000000000000000000000000082167f490649060000000000000000000000000000000000000000000000000000000014806103bf57506103bf82610fb2565b6000818152600260205260408120546001600160a01b0316806103bf576040517f7e273289000000000000000000000000000000000000000000000000000000008152600481018490526024016104ce565b6106468383836001611008565b6000610ac084848461115e565b949350505050565b80471015610b04576040517fcd7860590000000000000000000000000000000000000000000000000000000081523060048201526024016104ce565b6000826001600160a01b03168260405160006040518083038185875af1925050503d8060008114610b51576040519150601f19603f3d011682016040523d82523d6000602084013e610b56565b606091505b5050905080610646576040517f1425ea4200000000000000000000000000000000000000000000000000000000815260040160405180910390fd5b61048b82826040518060200160405280600081525061122b565b600b546001600160a01b03163314610629576040517f118cdaa70000000000000000000000000000000000000000000000000000000081523360048201526024016104ce565b600b80546001600160a01b038381167fffffffffffffffffffffffff0000000000000000000000000000000000000000831681179093556040519116919082907f8be0079c531659141344cd1fd0a4f28419497f9722a3daafe3b4186f6b6457e090600090a35050565b6001600160a01b038216610ca6576040517f5b08ba180000000000000000000000000000000000000000000000000000000081526001600160a01b03831660048201526024016104ce565b6001600160a01b0383811660008181526005602090815260408083209487168084529482529182902080547fffffffffffffffffffffffffffffffffffffffffffffffffffffffffffffff001686151590811790915591519182527f17307eab39ab6107e8899845ad3d59bd9653f200f220920489ca2b5937696c31910160405180910390a3505050565b6001600160a01b0383163b1561054b576040517f150b7a020000000000000000000000000000000000000000000000000000000081526001600160a01b0384169063150b7a0290610d8c903390889087908790600401611efb565b6020604051808303816000875af1925050508015610de5575060408051601f3d9081017fffffffffffffffffffffffffffffffffffffffffffffffffffffffffffffffe0168201909252610de291810190611f37565b60015b610e67573d808015610e13576040519150601f19603f3d011682016040523d82523d6000602084013e610e18565b606091505b508051600003610e5f576040517f64a0ae920000000000000000000000000000000000000000000000000000000081526001600160a01b03851660048201526024016104ce565b805181602001fd5b7fffffffff0000000000000000000000000000000000000000000000000000000081167f150b7a020000000000000000000000000000000000000000000000000000000014610eed576040517f64a0ae920000000000000000000000000000000000000000000000000000000081526001600160a01b03851660048201526024016104ce565b5050505050565b60606000610f0183611242565b600101905060008167ffffffffffffffff811115610f2157610f216119e4565b6040519080825280601f01601f191660200182016040528015610f4b576020820181803683370190505b5090508181016020015b7fffffffffffffffffffffffffffffffffffffffffffffffffffffffffffffffff017f3031323334353637383961626364656600000000000000000000000000000000600a86061a8153600a8504945084610f5557509392505050565b60007fffffffff0000000000000000000000000000000000000000000000000000000082167f780e9d630000000000000000000000000000000000000000000000000000000014806103bf57506103bf82611324565b808061101c57506001600160a01b03821615155b1561111657600061102c84610a54565b90506001600160a01b038316158015906110585750826001600160a01b0316816001600160a01b031614155b801561108a57506001600160a01b0380821660009081526005602090815260408083209387168352929052205460ff16155b156110cc576040517fa9fbf51f0000000000000000000000000000000000000000000000000000000081526001600160a01b03841660048201526024016104ce565b81156111145783856001600160a01b0316826001600160a01b03167f8c5be1e5ebec7d5bd14f71427d1e84f3dd0314c0f7b2291e5b200ac8c7c3b92560405160405180910390a45b505b5050600090815260046020526040902080547fffffffffffffffffffffffff0000000000000000000000000000000000000000166001600160a01b0392909216919091179055565b60008061116c858585611407565b90506001600160a01b0381166111c9576111c484600880546000838152600960205260408120829055600182018355919091527ff3f7a9fe364faab93b216da50a3214154f22a0a2b415b23a84c8169e8b636ee30155565b6111ec565b846001600160a01b0316816001600160a01b0316146111ec576111ec8185611536565b6001600160a01b03851661120857611203846115c7565b610ac0565b846001600160a01b0316816001600160a01b031614610ac057610ac08585611676565b61123583836116c6565b6106466000848484610d31565b6000807a184f03e93ff9f4daa797ed6e38ed64bf6a1f010000000000000000831061128b577a184f03e93ff9f4daa797ed6e38ed64bf6a1f010000000000000000830492506040015b6d04ee2d6d415b85acef810000000083106112b7576d04ee2d6d415b85acef8100000000830492506020015b662386f26fc1000083106112d557662386f26fc10000830492506010015b6305f5e10083106112ed576305f5e100830492506008015b612710831061130157612710830492506004015b60648310611313576064830492506002015b600a83106103bf5760010192915050565b60007fffffffff0000000000000000000000000000000000000000000000000000000082167f80ac58cd0000000000000000000000000000000000000000000000000000000014806113b757507fffffffff0000000000000000000000000000000000000000000000000000000082167f5b5e139f00000000000000000000000000000000000000000000000000000000145b806103bf57507f01ffc9a7000000000000000000000000000000000000000000000000000000007fffffffff000000000000000000000000000000000000000000000000000000008316146103bf565b6000828152600260205260408120546001600160a01b03908116908316156114345761143481848661175d565b6001600160a01b0381161561149057611451600085600080611008565b6001600160a01b038116600090815260036020526040902080547fffffffffffffffffffffffffffffffffffffffffffffffffffffffffffffffff0190555b6001600160a01b038516156114bf576001600160a01b0385166000908152600360205260409020805460010190555b60008481526002602052604080822080547fffffffffffffffffffffffff0000000000000000000000000000000000000000166001600160a01b0389811691821790925591518793918516917fddf252ad1be2c89b69c2b068fc378daa952ba7f163c4a11628f55a4df523b3ef91a4949350505050565b600061154183610807565b600083815260076020526040902054909150808214611594576001600160a01b03841660009081526006602090815260408083208584528252808320548484528184208190558352600790915290208190555b5060009182526007602090815260408084208490556001600160a01b039094168352600681528383209183525290812055565b6008546000906115d990600190611f54565b6000838152600960205260408120546008805493945090928490811061160157611601611c7b565b90600052602060002001549050806008838154811061162257611622611c7b565b600091825260208083209091019290925582815260099091526040808220849055858252812055600880548061165a5761165a611f67565b6001900381819060005260206000200160009055905550505050565b6000600161168384610807565b61168d9190611f54565b6001600160a01b039093166000908152600660209081526040808320868452825280832085905593825260079052919091209190915550565b6001600160a01b038216611709576040517f64a0ae92000000000000000000000000000000000000000000000000000000008152600060048201526024016104ce565b600061171783836000610ab3565b90506001600160a01b03811615610646576040517f73c6ac6e000000000000000000000000000000000000000000000000000000008152600060048201526024016104ce565b6117688383836117f3565b610646576001600160a01b0383166117af576040517f7e273289000000000000000000000000000000000000000000000000000000008152600481018290526024016104ce565b6040517f177e802f0000000000000000000000000000000000000000000000000000000081526001600160a01b0383166004820152602481018290526044016104ce565b60006001600160a01b03831615801590610ac05750826001600160a01b0316846001600160a01b0316148061184d57506001600160a01b0380851660009081526005602090815260408083209387168352929052205460ff165b80610ac05750506000908152600460205260409020546001600160a01b03908116911614919050565b7fffffffff00000000000000000000000000000000000000000000000000000000811681146109fb57600080fd5b6000602082840312156118b657600080fd5b81356118c181611876565b9392505050565b60005b838110156118e35781810151838201526020016118cb565b50506000910152565b600081518084526119048160208601602086016118c8565b601f017fffffffffffffffffffffffffffffffffffffffffffffffffffffffffffffffe0169290920160200192915050565b6020815260006118c160208301846118ec565b60006020828403121561195b57600080fd5b5035919050565b80356001600160a01b038116811461197957600080fd5b919050565b6000806040838503121561199157600080fd5b61199a83611962565b946020939093013593505050565b6000806000606084860312156119bd57600080fd5b6119c684611962565b92506119d460208501611962565b9150604084013590509250925092565b7f4e487b7100000000000000000000000000000000000000000000000000000000600052604160045260246000fd5b600067ffffffffffffffff80841115611a2e57611a2e6119e4565b604051601f85017fffffffffffffffffffffffffffffffffffffffffffffffffffffffffffffffe0908116603f01168101908282118183101715611a7457611a746119e4565b81604052809350858152868686011115611a8d57600080fd5b858560208301376000602087830101525050509392505050565b600060208284031215611ab957600080fd5b813567ffffffffffffffff811115611ad057600080fd5b8201601f81018413611ae157600080fd5b610ac084823560208401611a13565b60008060408385031215611b0357600080fd5b611b0c83611962565b9150602083013560ff81168114611b2257600080fd5b809150509250929050565b600060208284031215611b3f57600080fd5b6118c182611962565b60008060408385031215611b5b57600080fd5b611b6483611962565b915060208301358015158114611b2257600080fd5b60008060008060808587031215611b8f57600080fd5b611b9885611962565b9350611ba660208601611962565b925060408501359150606085013567ffffffffffffffff811115611bc957600080fd5b8501601f81018713611bda57600080fd5b611be987823560208401611a13565b91505092959194509250565b60008060408385031215611c0857600080fd5b611c1183611962565b9150611c1f60208401611962565b90509250929050565b600181811c90821680611c3c57607f821691505b602082108103611c75577f4e487b7100000000000000000000000000000000000000000000000000000000600052602260045260246000fd5b50919050565b7f4e487b7100000000000000000000000000000000000000000000000000000000600052603260045260246000fd5b601f821115610646576000816000526020600020601f850160051c81016020861015611cd35750805b601f850160051c820191505b81811015611cf257828155600101611cdf565b505050505050565b815167ffffffffffffffff811115611d1457611d146119e4565b611d2881611d228454611c28565b84611caa565b602080601f831160018114611d7b5760008415611d455750858301515b7fffffffffffffffffffffffffffffffffffffffffffffffffffffffffffffffff600386901b1c1916600185901b178555611cf2565b6000858152602081207fffffffffffffffffffffffffffffffffffffffffffffffffffffffffffffffe08616915b82811015611dc857888601518255948401946001909101908401611da9565b5085821015611e0457878501517fffffffffffffffffffffffffffffffffffffffffffffffffffffffffffffffff600388901b60f8161c191681555b5050505050600190811b01905550565b7f4e487b7100000000000000000000000000000000000000000000000000000000600052601160045260246000fd5b808201808211156103bf576103bf611e14565b6000808454611e6481611c28565b60018281168015611e7c5760018114611eaf57611ede565b7fffffffffffffffffffffffffffffffffffffffffffffffffffffffffffffff0084168752821515830287019450611ede565b8860005260208060002060005b85811015611ed55781548a820152908401908201611ebc565b50505082870194505b505050508351611ef28183602088016118c8565b01949350505050565b60006001600160a01b03808716835280861660208401525083604083015260806060830152611f2d60808301846118ec565b9695505050505050565b600060208284031215611f4957600080fd5b81516118c181611876565b818103818111156103bf576103bf611e14565b7f4e487b7100000000000000000000000000000000000000000000000000000000600052603160045260246000fdfea164736f6c6343000817000a","linkReferences":{}},"methodIdentifiers":{"PRICE_PER_TOKEN()":"833b9499","approve(address,uint256)":"095ea7b3","balanceOf(address)":"70a08231","fundsReceiverAddress()":"d9f76f31","getApproved(uint256)":"081812fc","isApprovedForAll(address,address)":"e985e9c5","mint(address,uint8)":"691562a0","name()":"06fdde03","owner()":"8da5cb5b","ownerOf(uint256)":"6352211e","renounceOwnership()":"715018a6","safeTransferFrom(address,address,uint256)":"42842e0e","safeTransferFrom(address,address,uint256,bytes)":"b88d4fde","setApprovalForAll(address,bool)":"a22cb465","setBaseURI(string)":"55f804b3","setFundsReceiverAddress(address)":"ae8e3d2f","supportsInterface(bytes4)":"01ffc9a7","symbol()":"95d89b41","tokenByIndex(uint256)":"4f6ccce7","tokenOfOwnerByIndex(address,uint256)":"2f745c59","tokenURI(uint256)":"c87b56dd","totalSupply()":"18160ddd","transferFrom(address,address,uint256)":"23b872dd","transferOwnership(address)":"f2fde38b","withdraw()":"3ccfd60b"},"id":53}